:02000002B0004C
:1040000000400B0004820B00000006000C000502BB
:084010000401E50C00000000B2
:04401800B47C0B0069
:1040200009480A49884208B505D0094A824202D0A7
:10403000121A03F067FD0748074A0021121A03F01D
:104040006FFD014808BD00BFB8E5032070810B007B
:1040500024E6032024E60320EDE7032070B5074E95
:10406000074C01F0C7FFA41BA4080025AC4200D1F7
:1040700070BD56F8043B98470135F7E718810B00EF
:104080003C810B0000F04EBA08B500F063F9BDE8C2
:10409000084001F067BF01F093BB01F091BB01F054
:1040A00097BB0078B0FA80F0400970470123037095
:1040B00070470000000000002DE9F84302F00AFEFE
:1040C000302102F033FC02F005FE0368DFF88C902B
:1040D0009B680521984702F0FDFD02F032FC02F0DA
:1040E000F9FD0222302102F01EFC18A7D7E9006773
:1040F00018A5D5E9004502F0EDFD03681B69984756
:1041000000B302F0E7FD03685B699847804602F060
:10411000E1FD03685B699847C3B25FFA88F040EA43
:104120000320A9F8000002F053FF32463B4602F09C
:1041300003FE2B46224603F0DFF803F0C5F9024BDD
:104140001860D8E7BDE8F883B0E603207E1D386725
:1041500044CD5440A8C64B378901264024E60320AD
:1041600070B52DED028B92B0044601F0B5FE6B499F
:104170000246204601F082FD694801F0AFF8684828
:1041800001F066F810EE100A02F034FF02460B460A
:104190000AA8644901F072FD0AA9204601F058FD01
:1041A0000AA801F0DFFC604800F04FFF002800F093
:1041B000AF805D4800F0A9FF04905B4800F0C0FFAD
:1041C000594810EE105A00F0B0FF10EE100A02F03D
:1041D00011FFCDE90201284602F00CFF049ACDE957
:1041E000000152490AA801F049FD0AA9204601F040
:1041F0002FFD0AA801F0B6FCBDF82A0007EE900AD0
:10420000F8EE677A17EE900A02F0F4FE0246BDF867
:104210002E0007EE900AF8EE677A0B4617EE900A2A
:10422000CDE9042302F0E6FECDE90201BDF82C0041
:1042300007EE900AF8EE677A17EE900A02F0DAFEBF
:10424000DDE90423CDE9000106A8394901F016FD96
:1042500006A9204601F0FCFC06A801F083FCFFF74C
:104260002BFF344B186802F0C5FE0B46024632495C
:1042700006A801F003FD06A9204601F0E9FC06A806
:1042800001F070FC2D4800F080FE2D49024606A882
:1042900001F0F4FC06A9204601F0DAFC06A801F0C2
:1042A00061FC284800F016FD2648B0EE408A00F078
:1042B000C7FC244810EE105A00F092FCDFED227A81
:1042C000C8EE277A10EE106A17EE900A02F092FEFE
:1042D00002460B463046CDE9042302F08BFECDE9C1
:1042E0000201284602F086FEDDE90423CDE9000143
:1042F00006A8164901F0C2FC06A9204601F0A8FC58
:1043000006A801F02FFC204612B0BDEC028B70BD58
:104310000F49204601F0A0FC6EE700BF427D0B0074
:1043200064E60320C87C0B0028E60320D97C0B0040
:10433000247D0B00B0E60320457D0B00B4E603208E
:10434000567D0B006CE603200000C8425F7D0B0029
:10435000137D0B0030B591B001F012FA08B901F0ED
:1043600007FA0121072002F032FC06A8FFF7F8FE49
:104370002E4B069A1B788DF800302D493C230AA855
:1043800001F096FF0B9C7CB16368013B63605BB9F5
:10439000236820469B689847A368013BA3601BB92C
:1043A00023682046DB6898470021072002F00FFCB5
:1043B0000BAB0A93012310228DF83C300323002518
:1043C000ADF82E301B490E9502231046CDE90C5551
:1043D000ADF82C208DF8303002F0A0FC044610B36C
:1043E0001022294603F09CFB134B23600423A38077
:1043F0000E9BA3604EF66023E3600E9403A80AA907
:1044000001F03EFB039808B101F0E2F90E9828B1E3
:1044100084680C21FFF743FE2046F8E706A801F068
:10442000A1FB11B030BD8DF83C00E7E726E6032084
:104430009B7D0B0080800B001000030008B502F08C
:1044400049FC302102F072FA02F044FC02F079FAE1
:1044500028B102F06FF9024901F0B3FCFEE708BD94
:10446000AA7D0B0038B5264C264800F0E5FE48B979
:104470004FF4FA7001F04AFD02F05CF9214601F0B8
:10448000A0FCF1E71F48204D204C232100F011FF34
:10449000284600F048FD88B11D4C02F01BFC014687
:1044A0001C4800F0ADFE98B94FF4FA7001F02EFDF3
:1044B00002F040F9214601F084FCEEE74FF4FA7077
:1044C00001F024FD02F036F9214601F07AFCDFE725
:1044D0000221104800F08FFE02F0FCFB01460E485E
:1044E00000F058F802F026F90C4901F06AFCFFF7D9
:1044F000A5FFBDE838400A48012100F027BD00BFF4
:10450000D07D0B0064E603206CE60320F47D0B00F5
:10451000187E0B0028E603203CE603203B7E0B00C0
:10452000B4E6032008B502F0D5FB02F0CDF9012175
:10453000072002F03BFB02F0FDF84FF4165102F0A9
:10454000EDF8BDE80840FFF78DBF000008B50A4B45
:1045500000221A7002F0BEFB23210246074800F039
:1045600066FE074800F098F8064800F036FDBDE802
:104570000840054800F00AB826E6032064E6032058
:104580006CE6032028E603203CE603200022C0E975
:104590000022704737B50368044653B910200191D3
:1045A000FFF779FD054618B1019A122100F008F8CD
:1045B00025602068012103B0BDE8304000F01CB840
:1045C00042600022027220220170C260704710B562
:1045D000037A044653B12178606802F0A7F9606855
:1045E00002F0AFF9B0FA80F0400910BD012100F0EF
:1045F00003F80028EFD1F8E738B5044640680D46C7
:1046000002F062F90120207225B12046BDE8384051
:10461000FFF7DDBF38BD704710B510210446FFF726
:104620003EFD204610BD0EB403B503AB002153F888
:10463000042B019301F0EDFB02B05DF804EB03B035
:104640007047000073B5044608462279A36832B16A
:10465000A3B90B4902B0BDE8704001F09FBB094A05
:10466000267B094D0949647B012E18BF2946CDE9F7
:1046700000140749FFF7D7FF02B070BD054AEFE706
:10468000737E0B006A7E0B006F7E0B006B7E0B004F
:10469000897E0B00627E0B004FF0FF330361704791
:1046A00013B50B4C2178BFF35B8F11F001010BD1D7
:1046B00020460191FFF7F5FC019928B1054801F06A
:1046C00003F92046FFF7F2FC024802B010BD00BF1C
:1046D000B8E60320BCE6032008B5FFF7E1FFBDE81C
:1046E000084001F00FB907B50190FFF7D9FF019914
:1046F00003B05DF804EB01F01FB92DE9F04190F92A
:104700001330013305460F4606D1FFF7C9FF39467E
:10471000BDE8F04101F07EB9002407264FF0010802
:1047200095F91300002180B202F051FA95F91100B9
:1047300008FA06F1394080B202F049FA95F91300FF
:10474000012180B202F043FA95F91200640080B2B0
:10475000E4B202F055FA08B144F00104013EDFD2A0
:104760002046BDE8F08100007FB590F9103001339C
:1047700004460E46154613D10179006802F0D6F8BA
:104780002068036831469B6898472068036829467B
:104790009B689847206804B0BDE8704002F0D1B82B
:1047A00090F9133001330CD1164B009300238DF890
:1047B0000430154B029368460123ADF80C30FFF727
:1047C00092FF94F91000002180B202F000FA06F086
:1047D0007F012046FFF791FF29462046FFF78DFF16
:1047E00094F91000012180B202F0F1F994F913302C
:1047F000013304D104B0BDE87040FFF76DBF04B0D1
:1048000070BD00BFB07E0B0020A10700F8B5DB0033
:1048100002F0070203F03803134343EA81139DF8C3
:10482000186080F83C3090F840309DF81C509DF89E
:10483000207066F3471380F84030ED0090F8383070
:1048400007F0070705F0380523F03F033D43044612
:104850001D4380F8385006F00702F221FFF784FF6D
:1048600094F83820C2F3C20302F007019B0043EA28
:10487000411343EAD2122046F521FFF775FF94F861
:104880003C20C2F3C20302F007019B0043EA41133C
:1048900043EA92122046F421BDE8F840FFF764BFD6
:1048A00030B590F91030013385B004460D4618D16B
:1048B0000179006802F03AF82068036829469B688D
:1048C0009847206802F03DF821792068012202F023
:1048D0002AF8206803685B699847C5B2284605B086
:1048E00030BD90F9133001330CD1154B00930023E8
:1048F0008DF80430134B029368460123ADF80C3059
:10490000FFF7F1FE94F91000002180B202F05FF988
:1049100045F080012046FFF7F0FE00212046FFF71A
:10492000ECFE054694F91000012180B202F04FF927
:1049300094F913300133D1D1FFF7CEFECEE700BF9B
:10494000B07E0B0020A1070008B5F321FFF7A8FFF8
:1049500000F0010008BD000030B590F910300133BF
:1049600085B004460D461FD10179006801F0DEFFD5
:104970002068036829469B689847206801F0E1FF9A
:1049800021792068022201F0CEFF206803685B696C
:1049900098470546206803685B69984740EA052008
:1049A00085B2284605B030BD90F9133001330CD1E3
:1049B000184B009300238DF80430174B0293684680
:1049C0000123ADF80C30FFF78EFE94F910000021A2
:1049D00080B202F0FCF845F080012046FFF78DFE22
:1049E00000212046FFF789FE002105462046FFF7FB
:1049F00084FE40EA052085B294F91000012180B2BE
:104A000002F0E5F894F913300133CAD1FFF764FEE0
:104A1000C7E700BFB07E0B0020A1070008B5FFF775
:104A20009BFF40BA80B208BD38B588210446FFF725
:104A3000F5FF8A21A0822046FFF7F0FF8C21E0825B
:104A40002046FFF7EBFF8E2120832046FFF7E6FF8D
:104A5000902160832046FFF7E1FF9221A08320464A
:104A6000FFF7DCFF9421E0832046FFF7D7FF962174
:104A700020842046FFF7D2FF982160842046FFF76C
:104A8000CDFF9A21A0842046FFF7C8FF9C21E08437
:104A90002046FFF7C3FF9E2120852046FFF7BEFF7B
:104AA000A12160852046FFF7FBFEE12184F82C0060
:104AB0002046FFF7B3FFE321E0852046FFF7F0FE35
:104AC000E42184F830002046FFF7EAFEE5210546A0
:104AD0002046FFF7E5FE00F00F0343EA051060866D
:104AE000E6212046FFF7DCFEE52105462046FFF7DC
:104AF000D7FEC0F3071343EA0510A086E72120463E
:104B0000FFF7CEFE84F8360038BD000030B590F9CE
:104B10001030013385B004460D4623D10179006879
:104B200001F004FF2068036829469B6898472068C5
:104B300001F007FF21792068032201F0F4FE2068CC
:104B400003685B6998470502206803685B699847BA
:104B500028430502206803685B6998470543284697
:104B600005B030BD90F9133001330CD11A4B0093CE
:104B700000238DF80430194B029368460123ADF8E9
:104B80000C30FFF7B0FD94F91000002180B202F064
:104B90001EF845F080012046FFF7AFFD00212046BA
:104BA000FFF7ABFD002105022046FFF7A6FD2843D5
:104BB000050200212046FFF7A0FD054394F91000EF
:104BC000012180B202F003F894F913300133C6D109
:104BD000FFF782FDC3E700BFB07E0B0020A10700F6
:104BE00010B5FA210446FFF791FFB0F5000F1FD072
:104BF000A18A9FED117A4B00C1EB2022C3EBE0119B
:104C0000B4F91630594302FB02F3B4F918201B1310
:104C100053439B1303EBE123E36003EB83038033F4
:104C20001B1207EE903AF8EEE77A87EE870A10BD7E
:104C30009FED020AFBE700BF0000C8420000C07FF2
:104C400038B50446FFF7CCFFFD212046FFF784FE70
:104C5000B0F5004F38D0E168B4F93420A1F59635AD
:104C6000B4F932100905C1EB803305FB123303F5AB
:104C70008043DA1394F8303094F936106B43DB122A
:104C80006943891203F500434B439B12B4F92E107C
:104C900003F500134B4303F500539B135343DA13FF
:104CA00094F82C105243D2114A43A3EB221323EA67
:104CB000E373B3F1C85FA8BF4FF0C8531B1300EEF6
:104CC000103ABAEECB0A38BD9FED010AFBE700BFF0
:104CD0000000C07F2DE9F8430546FFF781FFF7216B
:104CE0002846FFF713FFB0F5000F00F0B680E96823
:104CF000B5F91C304FEAE17EB1F5FA314EF1FF3ED5
:104D0000DC1703FB0EF201FB0422A3FB0134224457
:104D10001203A1FB01781C0301FB0EF642EA1352B9
:104D2000B5F91E3008EB46084FEAE37C03FB08F6B2
:104D300007FB0C66A3FB073C66441B0A43EA0663B9
:104D40001B1942EB26226E8B02F50042A3FB0634B0
:104D500006FB0244E317621053EA64044FF0000CB0
:104D60007ED0B5F9244004FB08F64FEAE47907FB4E
:104D70000966A4FB07473E44B5F922704FEAE7787D
:104D800007FB0EFE01FB08EEA7FB0171714449040D
:104D900041EAD73100117F043F19C0F5801446EB7A
:104DA000010604F00040B5F920101CEB070740EAAB
:104DB0005400E407E41B06EBC10640F6354160EB06
:104DC0000606A4FB010401FB064102F0DBFCB5F979
:104DD0002A20B5F928604FEA613C430B43EAC143FE
:104DE00002FB0CF7D41703FB0477A2FB03243C441B
:104DF00002FB0CF703FB0477A2FB03231F44530EB3
:104E000043EAC7131B184FEAE67206FB01F4864615
:104E100041EB676702FB0041A6FB0E06B5F9264091
:104E20003144C00C40EA413018184FEAE47547EBB2
:104E3000E141000A2D0140EA016045EA14752401B0
:104E4000201845EB212102F05FFC9FED070A07EED9
:104E5000900A27EE800ABDE8F8839FED040AFAE77E
:104E60009FED030AF7E700BF0000803B0000C07F12
:104E70000000000030B5044690F91000421C85B0D7
:104E800019D1206801F020FDD0212046FFF708FD50
:104E90006028A06045D12046B622E021FFF764FCDF
:104EA0004FF4967001F032F82046FFF74DFD0546AD
:104EB00028B36420F6E7012180B201F088FE94F95E
:104EC0001000012180B201F071FE94F91300431C1F
:104ED00004D1FFF7E5FB00F001FDD5E7012180B229
:104EE00001F064FE94F91100012180B201F05EFE30
:104EF00094F91200002180B201F058FEC4E7204668
:104F0000FFF792FD052300931A4603212046CDE9C1
:104F10000155FFF77BFC642000F0F8FF012005B08D
:104F200030BD0020FBE7772310B50371044601F084
:104F3000D1FE20602046FFF79DFF30B97623237114
:104F40002046BDE81040FFF795BF10BD10B50C46D8
:104F500001F0C0FE01F0B8FC01F0BCFE382101F008
:104F6000E9FC01F0B7FEA100036841F002019B6873
:104F700001F0FE01984701F0ADFE01F0E2FCBDE852
:104F800010404FF4FA7000F0C1BF38B501F0A2FE36
:104F90000122392101F0C7FC0128044602D04FF656
:104FA000FF7038BD01F096FE03685B6998470546BF
:104FB00001F090FE2246382101F0B5FC0128EED127
:104FC00001F088FE03685B69984740EA052080B2DB
:104FD000E7E70368C9B29B68184700224260826015
:104FE000C26040F20112028201228274704738B519
:104FF00004460D460068612101F09CFC2068290AE6
:10500000FFF7E7FF2068E9B2FFF7E3FF206801F050
:1050100098FC08B1002038BD20680222612101F00F
:1050200082FC206803681B6998470028F2D020683A
:1050300003685B6998470546206803685B69984781
:10504000C3B243EA052080B2E5E708B540F2022189
:10505000FFF7CDFF431E5842584108BD2DE9F843E4
:105060000446FFF7F2FF074618B900273846BDE8A7
:10507000F8832068612101F05DFC20680321FFF7BF
:10508000A8FF20680021FFF7A4FF206801F059FC69
:1050900005460028E9D112226121206801F043FC75
:1050A000206803681B699847064658B3A8462E46F1
:1050B000A946206803685B699847EBB2102B0DD8AE
:1050C000DFE803F009090C09090C18180C18180C72
:1050D0001C1C0C1C1C00C3B243EA09290135122D0B
:1050E000E7D10023C4F80490A660C4F80C802382A2
:1050F000A374BBE7C3B243EA0626EFE7C3B243EAB1
:105100000828EBE780468146EBE710B5037C0446B0
:105110000BB1FFF7A3FFD4ED017AFCEEE77A012390
:10512000237417EE903A98B210BD10B5437C044634
:105130000BB1FFF793FF012394ED030A637410BDD5
:1051400010B5837C04460BB1FFF788FF012394ED73
:10515000020AA37410BD0A44FF208A4211D011F83C
:10516000013B5840082310F0800F03F1FF334FEA52
:10517000400018BF80F0310013F0FF03C0B2F2D13D
:10518000EBE770472DE9F3410E464FEA122815462A
:105190008DF8052001A9022204468DF80480FFF74E
:1051A000DAFF61210746206801F0C4FB2068310A5C
:1051B000FFF70FFF2068F1B2FFF70BFF20684146B1
:1051C000FFF707FF2068E9B2FFF703FF20680368D5
:1051D00039469B689847206801F0B3FBB0FA80F02D
:1051E000400902B0BDE8F0810A461021FFF7CABFAE
:1051F0000021FFF7F9BF0A464FF48C41FFF7C2BF09
:1052000038B504460846216001F05EFB2046FFF7F2
:10521000EFFF054648B102212046FFF7ECFF0122CF
:1052200045F206312046FFF7ADFF284638BD426003
:10523000112241700270704710B50446406801F0B9
:1052400083FB10B9606801F03FFB012010BD000036
:1052500070B505464178406801F068FB6978686878
:10526000022201F060FB686803685B6998470646A4
:10527000686803685B699847044644EA06246868DE
:10528000A4B201F05EFB07EE904A9FED030AF8EE30
:10529000677A87EE800A70BD9A99993F0378232B2D
:1052A00005D0132B0CBF1820B42000F02FBE1820FF
:1052B000FBE738B504460D464178406801F036FBFF
:1052C0006068036829469B689847606801F039FB6D
:1052D00025702046BDE83840FFF7E0BF10B50378E1
:1052E000A3F12002012A044601D9232B10D16178B1
:1052F000606801F01BFB6068217803689B68984731
:10530000606801F01EFB2046BDE81040FFF7C6BFF5
:1053100010BD000008B5024B1B689B68019308BDD7
:105320006802030008B5024B1B68DB68019308BDE7
:105330006802030008B5024B1B689B68019308BD17
:105340002C02030008B5024B1B68DB68019308BD03
:105350002C02030008B5024B1B681B69019308BDB2
:105360002C02030008B5024B1B685B69019308BD62
:105370002C02030008B5024B1B685B68019308BD53
:105380001802030008B5024B1B685B69019308BD56
:105390001802030008B5024B1B689B6D019308BD02
:1053A0001802030008B5024B1B685B6E019308BD31
:1053B0001802030008B5024B1B685B6C019308BD23
:1053C0004802030008B5024B1B685B69019308BDE6
:1053D0006402030008B5024B1B68DB68019308BD3B
:1053E0003C02030008B5024B1B681B69019308BD12
:1053F0003C02030008B5024B1B685B69019308BDC2
:105400003C02030008B5024B1B689B69019308BD71
:105410003C02030008B5024B1B68DB69019308BD21
:105420003C02030008B5024B1B681B6A019308BDD0
:105430003C02030008B5024B1B689B6A019308BD40
:105440003C02030008B5024B1B681B6C019308BDAE
:105450003C02030008B5024B1B68DB68019308BDE2
:105460002802030008B5024B1B689B69019308BD25
:105470002802030008B5024B1B68DB69019308BDD5
:105480002802030008B5024B1B681B6A019308BD84
:105490002802030008B5024B1B685B6A019308BD34
:1054A0002802030008B5024B1B689B6A019308BDE4
:1054B0002802030008B5024B1B68DB6A019308BD94
:1054C0002802030008B5024B1B681B6B019308BD43
:1054D0002802030008B5024B1B685B6B019308BDF3
:1054E0002802030008B5024B1B681B6C019308BD22
:1054F0002802030008B5024B1B681B6D019308BD11
:105500002802030008B5024B1B681B68019308BD05
:105510003002030008B5024B1B685B69019308BDAC
:105520003002030008B5024B1B68DB69019308BD1C
:105530003002030008B5024B1B681B6A019308BDCB
:105540003002030008B5024B1B685B6A019308BD7B
:105550003002030008B5024B1B68DB6B019308BDEA
:105560003002030008B5024B1B681B6C019308BD99
:105570003002030008B5024B1B685B6C019308BD49
:105580003002030008B5024B1B681B68019308BD7D
:105590004C02030008B5024B1B685B68019308BD11
:1055A0004C02030008B5024B1B681B69019308BD40
:1055B0004C02030008B5024B1B685B69019308BDF0
:1055C0004C02030008B5024B1B689B69019308BDA0
:1055D0004C02030008B5024B1B68DB69019308BD50
:1055E0004C02030008B5024B1B681B6A019308BDFF
:1055F0004C02030008B5024B1B681B6D019308BDEC
:105600006002030008B5024B1B681B68019308BDCC
:105610002002030008B5024B1B685B68019308BDBC
:105620002002030008B5024B1B685B69019308BDAB
:105630002002030008B5024B1B68DB6C019308BD18
:105640002002030008B5024B1B685B6D019308BD87
:105650002002030008B5024B1B689B6D019308BD37
:105660002002030008B5034B1B68D3F88830019370
:1056700008BD00002002030008B5034B1B68D3F8E7
:105680009430019308BD00002002030008B5034BCD
:105690001B68D3F8A830019308BD00002002030066
:1056A00008B5024B1B685B68019308BD400203000C
:1056B00008B5024B1B689B68019308BD40020300BC
:1056C00008B5024B1B68DB68019308BD400203006C
:1056D00008B5024B1B681B69019308BD400203001B
:1056E00008B5024B1B685B69019308BD40020300CB
:1056F00008B5024B1B689B69019308BD400203007B
:1057000008B5024B1B68DB69019308BD400203002A
:1057100008B5024B1B681B6A019308BD40020300D9
:1057200008B5024B1B681B6B019308BD40020300C8
:1057300008B5024B1B685B6B019308BD4002030078
:1057400008B5024B1B681B6C019308BD40020300A7
:1057500008B5024B1B685B6C019308BD4002030057
:1057600008B5024B1B689B68019308BD4402030007
:1057700008B5024B1B68DB68019308BD44020300B7
:1057800008B5024B1B685B69019308BD4402030026
:1057900008B5024B1B681B6A019308BD4402030055
:1057A00008B5024B1B681B6B019308BD4402030044
:1057B00008B5024B1B68DB6B019308BD4402030074
:1057C00008B5024B1B681B68019308BD1C0203004F
:1057D00008B5024B1B685B68019308BD1C020300FF
:1057E00008B5024B1B689B68019308BD1C020300AF
:1057F00008B5024B1B685B6A019308BD1C020300DD
:1058000008B5024B1B68DB6A019308BD1C0203004C
:1058100008B5024B1B681B6B019308BD1C020300FB
:1058200008B5024B1B681B6C019308BD1C020300EA
:1058300008B5024B1B685B6C019308BD1C0203009A
:10584000002240681146FFF763BF002240681146FE
:10585000FFF76EBF40680022FFF762BF406800227A
:1058600081F00101FFF74CBF002340681A4619463A
:10587000FFF73EBF002340681A461946FFF730BFC6
:10588000002240681146FFF723BF002240681146FE
:10589000FFF70EBF406800220221FFF711BF00236F
:1058A00040681A46FFF7FCBE024B03225A60024AC8
:1058B0001A607047C4E60320C47E0B000021FFF786
:1058C00059BE0021FFF74EBE10B5044608462170B0
:1058D000FFF728FE00236360204610BD13B5044681
:1058E0000078FFF7EEFF58B9207801904FF6FF716E
:1058F000FFF708FE019802B0BDE81040FFF7DEBFD9
:1059000002B010BD0078FFF7D9BF0000400830B5E5
:105910001860002418688842E5B206D90134082CC2
:1059200002D040081860F5E70725024B5B5D137055
:1059300030BD00BFF87E0B002DE9F04306468FB066
:1059400000780C46FFF7BDFF00281BDB35781422DA
:10595000002109A802F0E4F80B23002209A9284637
:10596000ADF82430FFF7EEFD9DF82D3013B19DF812
:105970002C5055B10027B946B846012523795DB1B1
:10598000C3B100200FB0BDE8F083DDF830809DF892
:1059900034909DF83570F1E7002B35D1A36843456D
:1059A00008D18DF820908DF82170BDF82020A389B2
:1059B0009A42E6D00023A1688DF80F300A9804AB14
:1059C0000DF10F02FFF7A2FF217985B989B9A3680C
:1059D00043450ED38DF820908DF82170BDF820201E
:1059E000A3899A4205D1049B434502D1C9E7002906
:1059F000F9D100230193637B00939DF80F20237B53
:105A00003078FFF7A7FDBCE7CDE900552B462A46C5
:105A10000121F5E708B50078FFF77CFDC0B208BDAD
:105A200010B50446006818B1FFF7D2FE00232360CA
:105A300010BD38B50C460546FFF7F2FF54B120887B
:105A4000FFF7BEFE286028B122882146BDE8384015
:105A500002F058B838BD38B5B1F904308380D1F8B8
:105A60000630C0F806304B8943810C460546FFF7E7
:105A7000D7FF236813B12B600023236038BD0000DB
:105A8000F0B52B4D0B7D04468BB00846AF1D002BA7
:105A900036D00B681B79002B32D0264B04930022A2
:105AA00002A90430CDE90222FFF7F0FDDDF80E3047
:105AB000C5F8063000B2BDF81230ADF80C00A88071
:105AC0000299BB802846FFF7B4FF02A8FFF7A8FFA2
:105AD00000232360A380A37123814FF6FF736381AA
:105AE000B5F90430A380D5F80630C4F80630BB8879
:105AF000296863812046FFF79CFF20460BB0F0BD6C
:105B000000262023CDE902360B4B009302AA334630
:105B10000A493220FFF76EFD064B054802964FF604
:105B2000F26202A9CDE90323FFF795FFCDE700BF9D
:105B3000CCE603200000FFFF077F0B00007F0B0077
:105B4000054B02221A60054B054A9A600020C3E902
:105B50000000FFF75FBD00BFD8E60320CCE60320BE
:105B60000000FFFF10B504460068FFF731FE204635
:105B700010BD10B50446006808B1FFF729FE0023E8
:105B8000C4E90133236010BD38B504460D460068F2
:105B90000131FFF725FE10B1C4E90005012038BD31
:105BA00010B50368044623B143688B4201D301203A
:105BB00010BD2046FFF7E8FF0028F9D0A368002BAE
:105BC000F5D122681370F2E737B50D461146019200
:105BD0000446FFF7E5FF019A28B92046FFF7C9FF01
:105BE000204603B030BDA2602946206801F08AFF3C
:105BF0002268A3680021D154F2E7002313B5C0E95D
:105C0000003304468360037341B10846019101F0FB
:105C1000E2FF019902462046FFF7D6FF204602B078
:105C200010BD70B505460E4609B9002070BD6AB1B9
:105C3000846814442146FFF7B3FF0028F5D0286894
:105C4000AB683146184401F0A1FFAC600120EDE7DC
:105C50008A680968FFF7E5BF13B50446084651B1E5
:105C6000019101F0B8FF01990246204602B0BDE85B
:105C70001040FFF7D6BF02B010BD00000EB470B5E3
:105C800087B00BAD044655F8042B01922B46052135
:105C900004A80395FFF7ACFD0B4906462046FFF725
:105CA000ACFF31462046FFF77BFF206830B1019AF8
:105CB00003952B46711CFFF79BFDA060204607B0A3
:105CC000BDE8704003B070476A7E0B0010B5836872
:105CD000044613B1032201469847204610BD10B573
:105CE0004368013B0446436063B903689B68984777
:105CF000A368013BA3602BB923682046DB68BDE89D
:105D00001040184710BD10B50446006808B1FFF7F1
:105D1000E6FF204610BD13B50B460246D0E9000150
:105D20006C4684E8030093E8030082E8030094E8EB
:105D3000030083E8030002B010BD00000248002306
:105D40000360FFF737BB00BFDCE60320F8B506466B
:105D50000D468F180024BD420CD0336815F8011B86
:105D60009B6830469847031E01DB1C44F3E7002C78
:105D700008BF1C462046F8BD13B50446084659B175
:105D8000019101F028FF23680199DB680246204653
:105D900002B0BDE81040184702B010BD08B5FFF7CB
:105DA000EBFF08BD03689B68184738B50D21054611
:105DB000FFF7F8FF0A2104462846FFF7F3FF2044C7
:105DC00038BD38B50546FFF7D7FF04462846FFF72C
:105DD000ECFF204438BD30B58BB00023012A8DF88C
:105DE000243098BF0A2209AC0D46B1FBF2F101FB49
:105DF000125303F0FF03092B94BF30333733DBB268
:105E0000AA4204F8013DEFD92146FFF7B5FF0BB0D8
:105E100030BD2DE9F04186B000AF05460E46381D75
:105E2000142114463B60FFF7E3FC13280ED8391DFC
:105E30002846FFF7A1FF04461EB12846FFF7B5FF2D
:105E4000044420461837BD46BDE8F08100F1080340
:105E500023F00703E846ADEB030D2246411C3B68E7
:105E60006846FFF7C5FC69462846FFF785FF0446EC
:105E7000C546E1E7014B024A1A607047E0E603209D
:105E80002E7F0B0008B50020FFF78AFC28B1FFF732
:105E900077FC80F00100C0B208BD0120FCE710B51E
:105EA0000020FFF777FA0446A0B9FFF7ABFB012803
:105EB00010D12046FFF7CEFB60B9FFF7E3FF10B922
:105EC000FFF74EFCF9E7FFF7DDFFBDE810400020CB
:105ED000FFF760BA204610BD1FB5FFF7E0FF1022A4
:105EE0000021684601F01CFE00216846FFF75AFABF
:105EF000009805B05DF804FB024B1A68024B1A606B
:105F0000704700BFB8E50320E4E603200021FFF757
:105F100089BB0000014B00229A607047E8E603202D
:105F2000014B1860704700BFBCE5032008B50B4B60
:105F300043B100F0FFFB03681B699847002801DDAF
:105F4000AFF30080064B43B100F088FE03681B6985
:105F50009847002801DDAFF3008008BD0000000075
:105F60000000000008B5FFF7E1FFFFF70BFA014B57
:105F7000186008BD40E703200548064A064908B5F1
:105F8000121A01F0BFFD054B054A1A6008BD00BF9B
:105F900000F4032004F403206C810B0000F40320C0
:105FA0001E1C279A07B5002300931A466FF077014D
:105FB000FFF762FB03B05DF804FB000007B5438800
:105FC0000A2B08D0502B0BD1094B1B684BB103B0E7
:105FD0005DF804EB1847FFF7E5FF03B05DF804FB3D
:105FE000002300931A466FF07701FFF745FBF4E7B3
:105FF000FCE6032010B512480021FFF719FC114BF5
:106000001A68114B9A42114B0CBF012200221A70E0
:1060100001D0FFF7B1FFFFF7ADF9044601F088FDAD
:106020000B4B13B12046AFF3008000210848FFF767
:10603000BFFBBDE8104007480021FFF713BB00BFBE
:10604000215F0B0000F403201E1C279AF8E60320B2
:1060500000000000BD5F0B0070470020704710B5C6
:1060600010210446FEF71BF8204610BD08B5FFF7C7
:10607000F6FF08BD30B500224FF69C7402608480A4
:106080008D888C800C68858004600A6030BD10B5F6
:1060900004460068FFF79CFB204610BD38B5C46875
:1060A000F4B12378022B03D104F10C00FFF7EFFFCA
:1060B000656835B12846FFF709FE10212846FDF72F
:1060C000EEFFA56835B12846FFF700FE10212846EF
:1060D000FDF7E5FF20461421BDE83840FDF7DFBF9E
:1060E00038BD0B6803604B68436013B15A680132D6
:1060F0005A60704737B5044668460D46FFF7F1FF12
:10610000009B019A23606260002301A80193009321
:10611000FFF7F9FD35B1281DFFF7F5FD08212846E9
:10612000FDF7BDFF204603B030BD826810B50AB947
:1061300000F0F8FDBDE81040C368184708B50068D6
:1061400000F11001FFF7F1FF08BD826810B50AB930
:1061500000F0E8FDBDE81040C368184708B50068C6
:1061600000F11001FFF7F1FF08BD000038B5002372
:106170000446036010200D46FDF78DFF28B1012372
:10618000C0E90133024B0360C5602060204638BD82
:10619000587F0B0038B5002383608B6804460D469A
:1061A0002BB102229847EB68E360AB68A3602046FE
:1061B00038BD0000F0B589B004686846FFF75AFFA3
:1061C0004FF00203D4E84F2F002A03D1C4E8413F27
:1061D0000029F7D125D104F10C0569462846FFF7BF
:1061E00049FFBFF35B8F01236370002004F10803B4
:1061F000BFF35B8F53E8006F43E80002002AF9D138
:10620000BFF35B8F6EB1FFF715FA78B129463046C0
:10621000FFF78BFF3046FFF759FD10213046FDF7A1
:106220003EFF6846FFF733FF09B0F0BD314602A8D4
:10623000FFF7B0FFE068B4F9105008B101F0AEFC10
:1062400006901020ADF81C50FDF725FF0546E8B17B
:10625000002787601820FDF71EFF044688B101461D
:10626000876002A8FFF757FD049BA268A360059B07
:10627000049206A9E268E36004F110000592FFF7BA
:10628000F9FE084BEB60084B2C60AB6006A8FFF7EB
:10629000FEFE02A8FFF71AFD002229460348FFF779
:1062A000D1F9B7E73D610B00C1630B0025680B0016
:1062B0002DE9F04F8BB005469DF850A00F46904653
:1062C0009946FFF75DFA07AE834638BB4FF62E734B
:1062D000059005A93046ADF81830FFF7CBFE142025
:1062E000FDF7D9FE044648B1022303700123C0E93B
:1062F00001BB437031460C30FFF7BCFE28462146F7
:1063000040F8044BFFF732FF3046FFF7C0FE05A808
:10631000FFF7BDFE28460BB0BDE8F08F0C2300242C
:106320001420CDE908440793FDF7B5FE014618B1E6
:10633000C0E901440470447004A80391FFF716FFFC
:106340001E4B08930820FDF7A6FE044610B103A9D2
:10635000FFF7C7FE00965FFA8AF34A464146384681
:106360000994FFF715FAB8B9039B5B7803F0FF02B5
:1063700093B94FF69C7305A903A80592ADF81830A0
:10638000FFF718FF05A8FFF782FE05A80999FFF798
:10639000B1FE06A8FFF7B7FC03A905A8FFF7A1FE09
:1063A000059B069A2B606A60002306A80693059356
:1063B000FFF7A9FC04A8FFF7A6FCABE73D640B00C0
:1063C000012AF8B5054603D10B6803600020F8BD2B
:1063D000022A10D0032AF9D10468002CF6D004F167
:1063E0001000FFF754FE2046FFF770FC18212046EE
:1063F000FDF755FEEAE718200E68FDF74CFE04464F
:1064000050B13146FFF7C6FE3069B6F9147008B1D5
:1064100001F0C4FB2061A7822C60D7E738B50023C8
:1064200083608B6804460D462BB102229847EB68C7
:10643000E360AB68A360204638BD0000F0B589B0CA
:1064400004460D4601A81146FFF754FEA4B124B23C
:106450001DB1284601F0A2FB054601A803A903953A
:10646000ADF81040FFF7A6FE03A8FFF710FE02A844
:10647000FFF749FC09B0F0BD019D0123D5E84F2F7E
:10648000002A03D1C5E8413F0029F7D1EFD12B7392
:10649000BFF35B8F6B702B1DBFF35B8F53E8006FF7
:1064A00043E80042002AF9D1BFF35B8F002EDED013
:1064B0002046FFF7BFF8074660B105F10C013046F2
:1064C000FFF743FE3046FFF701FC10213046FDF791
:1064D000E6FDCCE7314603A8FFF7A0FF2B7B8DF844
:1064E0001C301020FDF7D7FD0546D0B18760142081
:1064F000FDF7D1FD044678B18760014603A8FFF798
:106500000AFC059BA268A360069B0592E268E36013
:106510009DF81C3006922374064BEB60064B2C60F2
:10652000AB6003A8FFF7D2FB002229460348FFF720
:1065300089F8C7E75D610B0041650B0025680B001A
:10654000012A70B5044603D10B680360002070BDBA
:10655000022A0CD0032AF9D10468002CF6D0204678
:10656000FFF7B4FB14212046FDF799FDEEE7142058
:106570000E68FDF790FD054620B13146FFF74EFF4E
:10658000337C2B742560E1E7704710B51821044671
:10659000FDF785FD204610BDF0B5037D062B8DB0BF
:1065A0000E4600F104074FF0000412D000F1080578
:1065B00015F8011D0A223046FFF70DFCAF420444D6
:1065C00019D0002CF4D02E213046FFF7EBFB044409
:1065D000EEE72F236A4639460A208DF80040FEF781
:1065E000F1FE684601F0F7FA33680246DB68694657
:1065F00030469847044620460DB0F0BD10B5054B17
:106600000446112240F8043B002101F089FA20469B
:1066100010BD00BF747F0B000346074A10B543F856
:10662000042B01F1100251F8044B43F8044B914242
:10663000F9D10A781A7010BD747F0B0010B59DF85F
:10664000084044EA032343EA024242EA0161042388
:106650004160037510BD000007B5064B0360CB78A1
:1066600000938B784A780978FFF7E8FF03B05DF86C
:1066700004FB00BF747F0B00417470477047704784
:1066800008B50021007CFEF79DFF40EAE07008BDE0
:1066900008B50121007CFEF795FF40EAE07008BDD7
:1066A00008B5007CFEF786FF20EAE07008BD08B55B
:1066B000007CFEF777FF20EAE07008BD13B50446C2
:1066C000007C0191FEF776FF0028019901DC607CD7
:1066D00020B1207CFEF77EFF20EAE07002B010BD02
:1066E000007CFEF77FBF10B514210446FDF7D7FCF0
:1066F000204610BD10B54FF47A73044608460021B9
:10670000C4E90113044B2360012320746374114610
:10671000FEF738FF204610BD887F0B00007C00226A
:10672000FEF738BF10B514220446002101F0F8F935
:10673000204610BD10B50F4C88B003A8FFF7F2FF3C
:106740002178BFF35B8F11F001010FD12046019139
:10675000FDF7A7FC019948B103AA0748FFF7CAFF54
:106760002046FDF7A3FC054801F0C6F9024808B031
:1067700010BD00BF00E7032004E703207D660B0087
:1067800070474174704708B5007CFEF753FE20EA5D
:10679000E07008BD08B5007CFEF724FE20EAE0703A
:1067A00008BD08B5007CFEF72DFE40EAE07008BD8C
:1067B00008B5007CFEF71EFE40EAE07008BD007CD4
:1067C000FEF728BE37B5457C04462DB1207C03B0CA
:1067D000BDE83040FEF7FEBD007C0191FEF72AFEC9
:1067E00000280199F2DC284603B030BD10B5142111
:1067F0000446FDF754FC204610BD000010B54FF4D0
:106800007A730446084611460022C4E90123044B6A
:106810002360012320746374FEF714FE204610BD2C
:10682000B87F0B0010B5836804460BB900F07AFA04
:10683000C3689847A3681BB10322214620469847A6
:1068400020461021BDE81040FDF729BC7047F8B57F
:10685000064615460C468F18BC4206D0336814F81D
:10686000011B9B6830469847F6E72846F8BD007C38
:106870000022FEF707BE007C0021FEF70BBE007C65
:106880000021FEF70FBE007C0021FEF713BE007C46
:106890000021FEF717BE10B514210446FDF7FFFBDB
:1068A000204610BD10B54FF47A7304460846002107
:1068B000C4E90113034B236020741146FEF712FE56
:1068C000204610BDE87F0B000023007C1A461946C5
:1068D000FEF7C0BD7FB500221423CDE90122ADF83B
:1068E00004300B788DF808304B680393CB68049321
:1068F000007C0B7A059301A9FEF7FCFD07B05DF85B
:1069000004FB1FB5003B8DF800104FF064010391AC
:1069100018BF0123694601928DF80830FFF7DAFFAE
:1069200005B05DF804FB0123FFF7EBBF007C0022FC
:10693000FEF798BDC9B2FFF7F9BF007C0022FEF751
:1069400099BD0121FFF7F9BF007C0021FEF7C2BD10
:10695000002240681146FEF7BBBE00224068114687
:10696000FEF7D6BE002240681146FEF7E1BE406841
:106970000022FEF7D5BE4068002281F00101FEF73B
:10698000BFBE002340681A461946FEF7B1BE002379
:1069900040681A461946FEF7A3BE00224068114619
:1069A000FEF786BE406800220221FEF789BE002362
:1069B00040681A46FEF774BE024B04225A60024A2F
:1069C0001A60704718E7032010800B00002340680E
:1069D0001A46FEF765BE406800220221FEF770BE2F
:1069E000002240681146FEF763BE0022406811464F
:1069F000FEF76EBE002340681A461946FEF770BEC9
:106A0000002340681A461946FEF772BE406800210E
:106A1000FEF796BE40680021FEF79ABE406800224D
:106A200081F00101FEF76CBE40680022FEF778BEDF
:106A3000002240681146FEF77BBE002240681146E6
:106A4000FEF766BE2DE9F04395B014460D460746A5
:106A5000FFF7D4FD00211C220DA8009101F060F881
:106A600040230C9320466B460CAA0021FEF75AFCEB
:106A7000044600284BD1024601216868FEF728FE33
:106A80000221804622466868FEF722FE009E81466B
:106A90002146002E3BD0002939D17368022B03D048
:106AA0000A2B11D0F669F4E7B8F1000FFAD071693A
:106AB00006A8043107ADFFF7CFFD0FCD3C1D0FC475
:106AC0002B6823704146EDE7B9F1000FEAD07469F5
:106AD000102201A801F024F806238DF8143001AD2E
:106AE00004F108031834186859682A4603C20833A9
:106AF000A3421546F7D101A906A807ADFFF78CFD03
:106B00000FCD3C1D0FC42B6823704946CAE700987F
:106B1000FEF700FC384615B0BDE8F083024B034A8F
:106B20001A6000225A60704720E703204C800B0057
:106B3000232813B502D9002002B010BDA0F10B0329
:106B4000022B1AD8174C2178BFF35B8F11F001018B
:106B50000BD120460191FDF7A4FA019928B1124802
:106B6000FEF7B2FE2046FDF7A1FA0F4B1878FEF7AC
:106B7000E1FC0028DFD10120DEE7012809D800F080
:106B8000A9F80021007CFEF7A5FC80F00100C0B24E
:106B9000D2E709380128EED800F060F8007CFEF753
:106BA00041FCF2E7B8E60320BCE60320232838B511
:106BB00004460D460AD8FF2908D0FFF7B9FF28B1CF
:106BC00029462046BDE83840FEF7B4BB38BD38B58D
:106BD00004460D46FEF7B6FBFF2810D0062804D861
:106BE0004D2323FA00F0C30709D42046FFF7A0FF86
:106BF00028B129462046BDE83840FEF7ABBB38BD7A
:106C000010B50446FEF79EFB031FDBB2012B08D92B
:106C10002046FFF78DFF20B12046BDE81040FEF76B
:106C2000A1BB002010BD704738B5044614252A4684
:106C3000002100F075FF2580402507492581284661
:106C4000258200F06DF804496060284600F068F87D
:106C5000E060204638BD00BF80800B0030B50E4D8F
:106C60002978BFF35B8F11F0010487B011D128465A
:106C7000FDF717FA68B101A8FFF7D6FF01AA214670
:106C80000648FFF7BBFD2846FDF710FA044800F060
:106C900033FF024807B030BD28E703202CE703206C
:106CA000276C0B007047000038B5202514230446DC
:106CB0000360856005610649284600F031F8044903
:106CC0006060284600F02CF8E060204638BD00BF28
:106CD00080800B0030B50E4D2978BFF35B8F11F02B
:106CE000010487B011D12846FDF7DBF968B101A88E
:106CF000FFF7DAFF01AA21460648FFF7D3FD284631
:106D0000FDF7D4F9044800F0F7FE024807B030BDA3
:106D100044E7032048E70320A56C0B00FDF7BBB94F
:106D2000FDF7BBB908B5FEF76BFD000081F000412F
:106D300002E000BF83F0004330B54FEA41044FEA60
:106D4000430594EA050F08BF90EA020F1FBF54EAFB
:106D5000000C55EA020C7FEA645C7FEA655C00F097
:106D6000E2804FEA5454D4EB5555B8BF6D420CDD68
:106D70002C4480EA020281EA030382EA000083EAEB
:106D8000010180EA020281EA0303362D88BF30BD8B
:106D900011F0004F4FEA01314FF4801C4CEA1131E1
:106DA00002D0404261EB410113F0004F4FEA033340
:106DB0004CEA133302D0524263EB430394EA050FCB
:106DC00000F0A780A4F10104D5F1200E0DDB02FA3A
:106DD0000EFC22FA05F2801841F1000103FA0EF2CE
:106DE000801843FA05F359410EE0A5F120050EF194
:106DF000200E012A03FA0EFC28BF4CF0020C43FAC5
:106E000005F3C01851EBE37101F0004507D54FF0D1
:106E1000000EDCF1000C7EEB00006EEB0101B1F521
:106E2000801F1BD3B1F5001F0CD349085FEA300067
:106E30004FEA3C0C04F101044FEA445212F5800F72
:106E400080F09A80BCF1004F08BF5FEA500C50F10F
:106E5000000041EB045141EA050130BD5FEA4C0CF2
:106E6000404141EB0101013C28BFB1F5801FE9D24F
:106E700091F0000F04BF01460020B1FA81F308BF72
:106E80002033A3F10B03B3F120020CDA0C3208DD3E
:106E900002F1140CC2F10C0201FA0CF021FA02F119
:106EA0000CE002F11402D8BFC2F1200C01FA02F189
:106EB00020FA0CFCDCBF41EA0C019040E41AA2BFAE
:106EC00001EB0451294330BD6FEA04041F3C1CDA76
:106ED0000C340EDC04F11404C4F1200220FA04F096
:106EE00001FA02F340EA030021FA04F345EA030140
:106EF00030BDC4F10C04C4F1200220FA02F001FA02
:106F000004F340EA0300294630BD21FA04F0294683
:106F100030BD94F0000F83F4801306BF81F480111C
:106F20000134013D4EE77FEA645C18BF7FEA655C8F
:106F300029D094EA050F08BF90EA020F05D054EA61
:106F4000000C04BF1946104630BD91EA030F1EBF66
:106F50000021002030BD5FEA545C05D1400049416A
:106F600028BF41F0004130BD14F580043CBF01F55D
:106F7000801130BD01F0004545F0FE4141F4700143
:106F80004FF0000030BD7FEA645C1ABF194610461E
:106F90007FEA655C1CBF0B46024650EA013406BF1F
:106FA00052EA033591EA030F41F4002130BD00BFDE
:106FB00090F0000F04BF0021704730B54FF480649B
:106FC00004F132044FF000054FF0000150E700BF1C
:106FD00090F0000F04BF0021704730B54FF480647B
:106FE00004F1320410F0004548BF40424FF0000168
:106FF0003EE700BF42004FEAE2014FEA31014FEAAB
:1070000002701FBF12F07F4393F07F4F81F06051F9
:10701000704732F07F4208BF704793F07F4F04BF44
:1070200041F40021704730B54FF4607401F0004521
:1070300021F000411CE700BF50EA010208BF704781
:1070400030B54FF000050AE050EA010208BF704772
:1070500030B511F0004502D5404261EB41014FF4DB
:10706000806404F132045FEA915C3FF4D8AE4FF0E3
:1070700003025FEADC0C18BF03325FEADC0C18BFC6
:10708000033202EBDC02C2F1200300FA03FC20FA17
:1070900002F001FA03FE40EA0E0021FA02F1144464
:1070A000BDE600BF70B54FF0FF0C4CF4E06C1CEA7D
:1070B00011541DBF1CEA135594EA0C0F95EA0C0FEE
:1070C00000F0DEF82C4481EA030621EA4C5123EA61
:1070D0004C5350EA013518BF52EA033541F4801190
:1070E00043F4801338D0A0FB02CE4FF00005E1FB43
:1070F00002E506F00042E0FB03E54FF00006E1FB8D
:1071000003569CF0000F18BF4EF0010EA4F1FF04CF
:10711000B6F5007F64F5407404D25FEA4E0E6D410F
:1071200046EB060642EAC62141EA55514FEAC52020
:1071300040EA5E504FEACE2EB4F1FD0C88BFBCF59C
:10714000E06F1ED8BEF1004F08BF5FEA500E50F14D
:10715000000041EB045170BD06F0004646EA010113
:1071600040EA020081EA0301B4EB5C04C2BFD4EB45
:107170000C0541EA045170BD41F480114FF0000E3E
:10718000013C00F3AB8014F1360FDEBF002001F0AC
:10719000004170BDC4F10004203C35DA0C341BDC26
:1071A00004F11404C4F1200500FA05F320FA04F0F8
:1071B00001FA05F240EA020001F0004221F000412C
:1071C00010EBD37021FA04F642EB06015EEA430E9F
:1071D00008BF20EAD37070BDC4F10C04C4F12005CF
:1071E00000FA04F320FA05F001FA04F240EA020082
:1071F00001F0004110EBD37041F100015EEA430E53
:1072000008BF20EAD37070BDC4F1200500FA05F272
:107210004EEA020E20FA04F301FA05F243EA0203F1
:1072200021FA04F001F0004121FA04F220EA020000
:1072300000EBD3705EEA430E08BF20EAD37070BD46
:1072400094F0000F0FD101F00046400041EB010126
:1072500011F4801F08BF013CF7D041EA060195F008
:10726000000F18BF704703F00046520043EB0303C2
:1072700013F4801F08BF013DF7D043EA06037047AF
:1072800094EA0C0F0CEA135518BF95EA0C0F0CD0BA
:1072900050EA410618BF52EA4306D1D181EA030100
:1072A00001F000414FF0000070BD50EA410606BFFA
:1072B0001046194652EA430619D094EA0C0F02D13F
:1072C00050EA013613D195EA0C0F05D152EA033684
:1072D0001CBF104619460AD181EA030101F00041A2
:1072E00041F0FE4141F470014FF0000070BD41F0EB
:1072F000FE4141F4780170BD70B54FF0FF0C4CF4C5
:10730000E06C1CEA11541DBF1CEA135594EA0C0FE3
:1073100095EA0C0F00F0A7F8A4EB050481EA030E30
:1073200052EA03354FEA013100F088804FEA033317
:107330004FF0805545EA131343EA12634FEA0222E5
:1073400045EA111545EA10654FEA00260EF00041A6
:107350009D4208BF964244F1FD0404F5407402D2F8
:107360005B084FEA3202B61A65EB03055B084FEA89
:1073700032024FF480104FF4002CB6EB020E75EB86
:10738000030E22BFB61A754640EA0C005B084FEAAE
:107390003202B6EB020E75EB030E22BFB61A75462B
:1073A00040EA5C005B084FEA3202B6EB020E75EB76
:1073B000030E22BFB61A754640EA9C005B084FEAEE
:1073C0003202B6EB020E75EB030E22BFB61A7546FB
:1073D00040EADC0055EA060E18D04FEA051545EAEA
:1073E00016754FEA06164FEAC30343EA52734FEA93
:1073F000C2025FEA1C1CC0D111F4801F0BD141EA0C
:1074000000014FF000004FF0004CB6E711F4801F70
:1074100004BF01430020B4F1FD0C88BFBCF5E06F50
:107420003FF6AFAEB5EB030C04BFB6EB020C5FEA60
:10743000500C50F1000041EB045170BD0EF0004EB5
:107440004EEA113114EB5C04C2BFD4EB0C0541EAE7
:10745000045170BD41F480114FF0000E013C90E6E4
:1074600045EA060E8DE60CEA135594EA0C0F08BFA8
:1074700095EA0C0F3FF43BAF94EA0C0F0AD150EAA7
:1074800001347FF434AF95EA0C0F7FF425AF10463A
:1074900019462CE795EA0C0F06D152EA03353FF462
:1074A000FDAE1046194622E750EA410618BF52EADF
:1074B00043067FF4C5AE50EA41047FF40DAF52EAB3
:1074C00043057FF4EBAE12E74FEA4102B2F1E0432D
:1074D00024BFB3F5001CDCF1FE5C0DD901F0004CBB
:1074E0004FEAC0024CEA5070B2F1004F40EB83000B
:1074F00008BF20F00100704711F0804F21D113F137
:107500003872BCBF01F00040704741F480114FEA6F
:107510005252C2F11802C2F1200C10FA0CF320FAF8
:1075200002F018BF40F001004FEAC1234FEAD32315
:1075300003FA0CFC40EA0C0023FA02F34FEA43037F
:10754000CCE77FEA625307D150EA01331EBF4FF008
:10755000FE4040F44000704701F0004040F0FE4023
:1075600040F40000704700BF80F0004002E000BF20
:1075700081F0004142001FBF5FEA410392EA030F1E
:107580007FEA226C7FEA236C6AD04FEA1262D2EB68
:107590001363C1BFD218414048404140B8BF5B426D
:1075A000192B88BF704710F0004F40F4000020F006
:1075B0007F4018BF404211F0004F41F4000121F01C
:1075C0007F4118BF494292EA030F3FD0A2F1010266
:1075D00041FA03FC10EB0C00C3F1200301FA03F1A4
:1075E00000F0004302D5494260EB4000B0F5000FC7
:1075F00013D3B0F1807F06D340084FEA310102F186
:107600000102FE2A51D2B1F1004F40EBC25008BF37
:1076100020F0010040EA03007047490040EB000001
:10762000013A28BFB0F5000FEDD2B0FA80FCACF102
:10763000080CB2EB0C0200FA0CF0AABF00EBC2502F
:1076400052421843BCBFD0401843704792F0000F1D
:1076500081F4000106BF80F400000132013BB5E770
:107660004FEA41037FEA226C18BF7FEA236C21D0E6
:1076700092EA030F04D092F0000F08BF084670474B
:1076800090EA010F1CBF0020704712F07F4F04D119
:10769000400028BF40F00040704712F100723CBF2C
:1076A00000F50000704700F0004343F0FE4040F456
:1076B000000070477FEA226216BF08467FEA236314
:1076C0000146420206BF5FEA412390EA010F40F4FF
:1076D000800070474FF0000304E000BF10F000434B
:1076E00048BF40425FEA000C08BF704743F0964332
:1076F00001464FF000001CE050EA010208BF70474D
:107700004FF000030AE000BF50EA010208BF7047D3
:1077100011F0004302D5404261EB41015FEA010CE8
:1077200002BF84460146002043F0B64308BFA3F1E0
:107730008053A3F50003BCFA8CF2083AA3EBC253C2
:1077400010DB01FA02FC634400FA02FCC2F12002E1
:10775000BCF1004F20FA02F243EB020008BF20F018
:107760000100704702F1200201FA02FCC2F120027E
:1077700050EA4C0021FA02F243EB020008BF20EA73
:10778000DC7070477BB972B90029BEBF00204FF092
:10779000004106E008BF00281CBF6FF000414FF019
:1077A000FF3000F0A7B9ADF1080C6DE904CE002957
:1077B00009DB002B1ADB00F035F8DDF804E0DDE929
:1077C000022304B07047404261EB4101002B1BDBF8
:1077D00000F028F8DDF804E0DDE9022304B04042BF
:1077E00061EB4101524263EB43037047524263EB4A
:1077F000430300F017F8DDF804E0DDE9022304B0EC
:10780000404261EB41017047524263EB430300F099
:1078100009F8DDF804E0DDE9022304B0524263EB2D
:10782000430370472DE9F047089D04468E46002B20
:107830004DD18A42944669D9B2FA82F252B101FA24
:1078400002F3C2F1200120FA01F10CFA02FC41EA34
:10785000030E94404FEA1C48210CBEFBF8F61FFAB9
:107860008CF708FB16E341EA034306FB07F1994254
:107870000AD91CEB030306F1FF3080F01F81994207
:1078800040F21C81023E63445B1AA4B2B3FBF8F0E1
:1078900008FB103344EA034400FB07F7A7420AD968
:1078A0001CEB040400F1FF3380F00A81A74240F290
:1078B00007816444023840EA0640E41B00261DB1FB
:1078C000D4400023C5E900433146BDE8F0878B4230
:1078D00009D9002D00F0EF800026C5E900013046EF
:1078E0003146BDE8F087B3FA83F6002E4AD18B42C9
:1078F00002D3824200F2F980841A61EB0303012073
:107900009E46002DE0D0C5E9004EDDE702B9FFDE5E
:10791000B2FA82F2002A40F09280A1EB0C014FEA09
:107920001C471FFA8CFE0126200CB1FBF7F307FB66
:10793000131140EA01410EFB03F0884208D91CEB09
:10794000010103F1FF3802D2884200F2CB804346A6
:10795000091AA4B2B1FBF7F007FB101144EA014485
:107960000EFB00FEA64508D91CEB040400F1FF3114
:1079700002D2A64500F2BB800846A4EB0E0440EA02
:1079800003409CE7C6F12007B34022FA07FC4CEA0B
:10799000030C20FA07F401FA06F31C43F9404FEAFE
:1079A0001C4900FA06F3B1FBF9F8200C1FFA8CFE13
:1079B00009FB181140EA014108FB0EF0884202FA67
:1079C00006F20BD91CEB010108F1FF3A80F0888028
:1079D000884240F28580A8F102086144091AA4B2E5
:1079E000B1FBF9F009FB101144EA014100FB0EFE66
:1079F0008E4508D91CEB010100F1FF346CD28E4595
:107A00006AD90238614440EA0840A0FB0294A1EB25
:107A10000E01A142C846A64656D353D05DB1B3EB82
:107A2000080261EB0E0101FA07F722FA06F3F140B2
:107A30001F43C5E9007100263146BDE8F087C2F159
:107A40002003D8400CFA02FC21FA03F391400143D1
:107A50004FEA1C471FFA8CFEB3FBF7F007FB10360A
:107A60000B0C43EA064300FB0EF69E4204FA02F4B6
:107A700008D91CEB030300F1FF382FD29E422DD909
:107A8000023863449B1B89B2B3FBF7F607FB16333E
:107A900041EA034106FB0EF38B4208D91CEB0101BE
:107AA00006F1FF3816D28B4214D9023E6144C91A3E
:107AB00046EA004638E72E46284605E70646E3E64E
:107AC0001846F8E64B45A9D2B9EB020864EB0C0E58
:107AD0000138A3E74646EAE7204694E74046D1E767
:107AE000D0467BE7023B614432E7304609E7644415
:107AF000023842E7704700BF002301461A46184685
:107B000000F072B80A44914200F1FF3300D170478F
:107B100010B511F8014B03F8014F9142F9D110BD96
:107B200002440346934200D1704703F8011BF9E772
:107B300038B5104B1D68AB6B0446B3B91820FDF780
:107B40003FFE0246A86320B90B4B0C484221FDF7CB
:107B500067FE0B490B4BC0E900130B4B83600B23F3
:107B6000838100210120C2E90401AB6B00221C616A
:107B70005A6138BDBCE5032081800B0098800B0062
:107B80000E33CDAB34126DE6ECDE0500034611F882
:107B9000012B03F8012B002AF9D17047024B014653
:107BA000186800F003B800BFBCE5032037B50446F1
:107BB00008460D4600F00FF8421C1146204601927F
:107BC000FDF726FE044618B1019A2946FFF79AFFF1
:107BD000204603B030BD034613F8012B002AFBD129
:107BE000181A0138704700002DE9F843DFF8B88013
:107BF0000646D8F800001F460D46914600F056F89C
:107C0000254B1C6834B9254C1C60254B13B11B68EF
:107C1000C4F8883063681F2B07DDD8F8000000F037
:107C200047F84FF0FF30BDE8F8834EB3D4F8880032
:107C300088B91C4B23B9D8F8000000F038F8F0E7F9
:107C40004FF48470FDF7BCFD0028F4D00023C0E998
:107C50004033C4F88800636840F8239001229A40BA
:107C600000EB8301D0F800311343C0F80031022E3D
:107C7000C1F8807002BFD0F804311343C0F804315A
:107C80006368D8F800005A1C0233626044F823503D
:107C900000F00EF80020C6E7E8E703205CE70320C9
:107CA00000000000C1570B0020E60320704770471A
:107CB0007047000021400B005D400B0085400B0029
:107CC00089400B0000000000274C696768742D6C28
:107CD0007578273A252E3166002C27434F322D70B8
:107CE000706D273A7B7D2C27736364333054656D48
:107CF000702D43273A7B7D2C27736364333048759E
:107D00006D69646974792D70657263656E74273A64
:107D10007B7D002C277363643330206E6F20646199
:107D2000746127002C27504D312E30273A7B7D2C53
:107D300027504D322E35273A7B7D2C27504D313040
:107D4000273A7B7D002C27536F756E642D64422784
:107D50003A252E3266002C275556273A7B7D002C7B
:107D60002750726573737572652D6D626172273A63
:107D7000252E32662C2748756D69646974792D70DB
:107D8000657263656E74273A252E32662C2754651A
:107D90006D702D43273A252E32660073656E736F22
:107DA000722D72656164696E6700436865636B205C
:107DB000636F6E6E656374696F6E732E204E6F20F5
:107DC000736C6176652061747461636865642E000C
:107DD000547279696E6720746F20636F6E6E65638D
:107DE0007420424831373530204C75782053656E09
:107DF000736F7200547279696E6720746F20636FBD
:107E00006E6E65637420424D4532383020505448C0
:107E10002053656E736F7200547279696E672074B7
:107E20006F20636F6E6E656374205343443330205C
:107E3000434F322053656E736F72005A696F205141
:107E400077696963204C6F75646E65737320536541
:107E50006E736F72204D6173746572204177616B30
:107E6000650064656661756C7420004D5342004C7A
:107E70005342003C53504953657474696E677320D4
:107E800064656661756C743E003C5350495365747B
:107E900074696E67732025732575202573204D4FF7
:107EA000444525753E000000000000000000000071
:107EB00045460B0017460B0019460B00000000005A
:107EC000000000009F580B0095580B008B580B00CA
:107ED00081580B0075580B0069580B000D6A0B0098
:107EE000156A0B005D580B0055580B004B580B00E2
:107EF00041580B00456A0B00000810182028303844
:107F0000776972696E670053797374656D20736C5D
:107F100065657020636F6E66696775726174696FFD
:107F20006E20697320696E76616C69642E006170E1
:107F3000700025592D256D2D25645425483A254D71
:107F40003A2553257A0061736374696D65000000FA
:107F5000000000000000000059600B005F600B0093
:107F60009D600B006D600B005B600B00000000006B
:107F70000000000099650B0089650B008B650B0004
:107F800000000000000000007F660B00E7660B00A9
:107F9000BD660B004D5D0B00AF660B0081660B00EC
:107FA00091660B00E1660B00A1660B0079660B0081
:107FB000000000000000000081670B00ED670B006F
:107FC000C5670B004D5D0B0095670B00B1670B009B
:107FD000A3670B00BF670B0083670B0087670B006D
:107FE00000000000000000004D680B0097680B00C7
:107FF0006F680B004F680B0077680B007F680B0001
:1080000087680B008F680B00000000000000000074
:10801000AF690B00A5690B009B690B0051690B0050
:108020008F690B0083690B000D6A0B00156A0B004A
:1080300077690B006F690B0065690B005B690B00CA
:10804000456A0B000000000000000000CD690B0035
:10805000D7690B00E1690B00EB690B00F5690B00B8
:10806000016A0B000D6A0B00156A0B001D6A0B00FC
:10807000296A0B00316A0B003B6A0B00456A0B0052
:10808000005245454E54206D616C6C6F63207375D2
:1080900063636565646564002F6D6E742F776F721E
:1080A0006B73706163652F776F726B73706163655B
:1080B0002F4743432D31302D706970656C696E65B3
:1080C0002F6A656E6B696E732D4743432D31302DDA
:1080D000706970656C696E652D34385F323032308E
:1080E000313132345F313630363138303634312F39
:1080F0007372632F6E65776C69622F6E65776C693A
:10810000622F6C6962632F7374646C69622F726191
:108110006E642E63000000004D450B00A9580B0053
:10812000415B0B003D5D0B00755E0B00F95E0B00C3
:10813000155F0B00B9690B001D6B0B000000000000
:10814000040000001400000003000000474E55002A
:10815000FCB41F52308ACE3DD889307C49E5CD2F02
:04816000525BFE89E7
:08816400C0F6FF7F01000000DE
:04816C00000000000F
:10817000467F0B00C0E50320000000000000000067
:1081800000000000000000000000000000000000EF
:1081900000000000000000000000000000000000DF
:1081A00000000000000000000000000000000000CF
:1081B00000000000000000000000000000000000BF
:1081C00000000000000000000000000000000000AF
:0C81D0000000000000000000ECE70320AD
:1081DC00FFFFFFFF00000102030405060708090A60
:1081EC000B0C0D0E0F101112131415161718191A5B
:0881FC001B1C1D1E1F202800A2
:048204007856341262
:04000003B0004020E9
:00000001FF
