:02000002B0004C
:1040000000400B00D4800B00000006000C000502ED
:084010000401E50C00000000B2
:044018002C7A0B00F3
:1040200009480A49884208B505D0094A824202D0A7
:10403000121A03F023FC0748074A0021121A03F062
:104040002BFC014808BD00BFA4E5032040800B0005
:1040500010E6032010E60320EDE7032070B5074EBD
:10406000074C01F0D5FFA41BA4080025AC4200D1E9
:1040700070BD56F8043B98470135F7E7EC7F0B001D
:1040800010800B0000F0A4BA08B500F00FFABDE8EC
:10409000084001F075BF01F0C3BB01F0C1BB01F0E6
:1040A000C7BB0078B0FA80F0400970470123037065
:1040B000704780680368DB681847704710B50C21AB
:1040C0000446FFF7ECFF204610BD13B50446084632
:1040D000019103F029FC01990246204602B0BDE897
:1040E000104002F071BB00002DE9F84302F05EFCC5
:1040F000302102F07DF902F059FC0368DFF88C9062
:104100009B680521984702F051FC02F07CF902F00F
:104110004DFC0222302102F068F918A7D7E90067A8
:1041200018A5D5E9004502F041FC03681B699847D2
:1041300000B302F03BFC03685B699847804602F0DD
:1041400035FC03685B699847C3B25FFA88F040EAC0
:104150000320A9F8000002F0A1FD32463B4602F020
:1041600051FC2B46224602F02DFF03F03BF8024B98
:104170001860D8E7BDE8F8839CE603207E1D386709
:1041800044CD5440A8C64B378901264010E6032091
:1041900010B52DED028B8EB002F042F800238DF8A1
:1041A00010300590A24B039303A802F07DFAA149B9
:1041B00003A8FFF78AFF044606A801F019FB089A36
:1041C0000699204602F010FB06A801F07BFC9A49F4
:1041D00003A8FFF77AFF044601F08BFE974B98493E
:1041E00000930246C31706A801F024FE089A069918
:1041F000204602F0F9FA06A801F064FC914801F0AB
:10420000BFF8904801F076F8F2EE048A60EE287A62
:1042100017EE900A02F054FD8B4B002202F0F2FBE5
:1042200002F0B8FF07EE900A884903A8B8EEE78AC3
:10423000FFF74BFF02F038FA854903A8FFF745FF67
:10424000C8EE287A044617EE900A02F039FD41ECD8
:10425000100B204602F046FA03A802F00FFA7D4840
:1042600000F045FF002836D07B4903A8FFF72DFF5B
:1042700002F01AFA794903A8FFF727FF04467548A8
:1042800000F095FF0146204602F01AFA744903A88F
:10429000FFF71BFF04466F4800F0A4FF10EE100A62
:1042A00002F00EFD41EC100B204602F01BFA6D49A6
:1042B00003A8FFF70AFF0446664800F088FF10EEE7
:1042C000100A02F0FDFC41EC100B204602F00AFA45
:1042D00003A802F0D3F9644903A8FFF7F6FE02F041
:1042E000E3F9624903A8FFF7F0FEBDF81A1002F0E7
:1042F000E7F95F4903A8FFF7E8FEBDF81C1002F0DC
:10430000DFF95C4903A8FFF7E0FEBDF81E1002F0DC
:10431000D7F9594903A8FFF7D8FEBDF8201002F0DD
:10432000CFF9564903A8FFF7D0FEBDF8221002F0DE
:10433000C7F9534903A8FFF7C8FEBDF8241002F0DF
:10434000BFF903A802F09AF9FFF7CEFE464903A889
:10435000FFF7BBFE02F0A8F94A4903A8FFF7B5FE34
:10436000494B198802F0ACF9484903A8FFF7ADFEA4
:10437000474B0446186802F0A3FC41EC100B2046A2
:1043800002F0B0F903A802F079F9424903A8FFF757
:104390009CFE02F089F9404903A8FFF796FE044607
:1043A0003E4800F044FE0146204602F089F93C49AF
:1043B00003A8FFF78AFE04463A4800F0DDFCDFED73
:1043C0003A7AC0EE277A17EE900A02F079FC41ECB7
:1043D000100B204602F086F9224903A8FFF775FE6C
:1043E0000446304800F07EFC10EE100A02F068FC33
:1043F00041EC100B204602F075F9194903A8FFF7AC
:1044000064FE0446274800F03DFC10EE100A02F05E
:1044100057FC41EC100B204602F064F903A802F0AF
:104420002DF903A802F02AF90EB0BDEC028B10BDE5
:10443000007C0B00407A0B00497A0B00527A0B008B
:10444000D0E6032050E603200000E03F587A0B003E
:104450005F7A0B0014E60320707A0B00767A0B006B
:104460007F7A0B008E7A0B009A7A0B00A37A0B00EE
:10447000B27A0B00C17A0B00CF7A0B00E37A0B0003
:10448000F77A0B000A7B0B0010E60320147B0B006D
:104490009CE60320177B0B00207B0B00A0E603208B
:1044A0002F7B0B0058E603200000C84208B501F03E
:1044B00097F908B901F08CF90121072002F0F3F90E
:1044C000FFF766FE0021072002F0EDF901F0A8FEDB
:1044D000044901F09AFBBDE808404EF6602001F067
:1044E00023BD00BF1C7E0B0008B502F05FFA30212F
:1044F00001F07EFF02F05AFA01F085FF28B101F0C9
:104500008FFE024901F081FBFEE708BD3E7B0B00F8
:1045100038B5264C264800F0E1FE48B94FF4FA7051
:1045200001F002FD01F07CFE214601F06EFBF1E797
:104530001F48204D204C232100F00DFF284600F09D
:1045400044FD88B11D4C02F031FA01461C4800F0D0
:10455000A9FE98B94FF4FA7001F0E6FC01F060FE94
:10456000214601F052FBEEE74FF4FA7001F0DCFC5B
:1045700001F056FE214601F048FBDFE7022110481A
:1045800000F08BFE02F012FA01460E4800F054F8DB
:1045900001F046FE0C4901F038FBFFF7A5FFBDE82E
:1045A00038400A48012100F023BD00BF647B0B00A6
:1045B00050E6032058E60320887B0B00AC7B0B0001
:1045C00014E6032028E60320CF7B0B00A0E603209F
:1045D00008B502F0EBF901F0D9FE0121072002F045
:1045E00051F901F01DFE4FF4165101F00DFEBDE82A
:1045F0000840FFF78DBF000008B502F0D7F923216E
:104600000246074800F065FE064800F097F80648A5
:1046100000F035FDBDE80840044800F009B800BFCF
:1046200050E6032058E6032014E6032028E6032082
:104630000022C0E90022704737B50368044653B929
:1046400010200191FFF727FD054618B1019A1221AC
:1046500000F008F825602068012103B0BDE8304073
:1046600000F01CB842600022027220220170C26079
:10467000704710B5037A044653B12178606801F0A1
:10468000B7FE606801F0BFFEB0FA80F0400910BDCF
:10469000012100F003F80028EFD1F8E738B504460F
:1046A00040680D4601F072FE0120207225B12046BF
:1046B000BDE83840FFF7DDBF38BD704710B51021A9
:1046C0000446FFF7ECFC204610BD0EB403B503AB67
:1046D000002153F8042B019301F0BFFA02B05DF8FA
:1046E00004EB03B07047000073B504460846227916
:1046F000A36832B1A3B90B4902B0BDE8704001F024
:1047000071BA094A267B094D0949647B012E18BFFD
:104710002946CDE900140749FFF7D7FF02B070BD65
:10472000054AEFE7217C0B001C7E0B001D7C0B0073
:10473000197C0B00377C0B00107C0B004FF0FF3313
:104740000361704713B50B4C2178BFF35B8F11F0F9
:1047500001010BD120460191FFF7A3FC019928B17B
:10476000054801F0F1F82046FFF7A0FC024802B02E
:1047700010BD00BFA4E60320A8E6032008B5FFF79C
:10478000E1FFBDE8084001F0FDB807B50190FFF773
:10479000D9FF019903B05DF804EB01F00DB92DE9E3
:1047A000F04190F91330013305460F4606D1FFF76B
:1047B000C9FF3946BDE8F04101F06CB90024072675
:1047C0004FF0010895F91300002180B202F06BF858
:1047D00095F9110008FA06F1394080B202F063F849
:1047E00095F91300012180B202F05DF895F91200ED
:1047F000640080B2E4B202F06FF808B144F0010442
:10480000013EDFD22046BDE8F08100007FB590F97F
:104810001030013304460E46154613D10179006865
:1048200001F0E6FD2068036831469B6898472068E0
:10483000036829469B689847206804B0BDE870402B
:1048400001F0E1BD90F9133001330CD1164B009308
:1048500000238DF80430154B029368460123ADF810
:104860000C30FFF792FF94F91000002180B202F0A3
:104870001AF806F07F012046FFF791FF29462046EF
:10488000FFF78DFF94F91000012180B202F00BF8C0
:1048900094F91330013304D104B0BDE87040FFF740
:1048A0006DBF04B070BD00BF5C7C0B0020A1070091
:1048B000F8B5DB0002F0070203F03803134343EAC4
:1048C00081139DF8186080F83C3090F840309DF8D6
:1048D0001C509DF8207066F3471380F84030ED00BF
:1048E00090F8383007F0070705F0380523F03F034C
:1048F0003D4304461D4380F8385006F00702F2217C
:10490000FFF784FF94F83820C2F3C20302F00701D6
:104910009B0043EA411343EAD2122046F521FFF7F8
:1049200075FF94F83C20C2F3C20302F007019B001C
:1049300043EA411343EA92122046F421BDE8F840CD
:10494000FFF764BF30B590F91030013385B00446ED
:104950000D4618D10179006801F04AFD206803680E
:1049600029469B689847206801F04DFD2179206811
:10497000012201F03AFD206803685B699847C5B2DF
:10498000284605B030BD90F9133001330CD1154BDA
:10499000009300238DF80430134B029368460123E3
:1049A000ADF80C30FFF7F1FE94F91000002180B251
:1049B00001F079FF45F080012046FFF7F0FE00216D
:1049C0002046FFF7ECFE054694F91000012180B265
:1049D00001F069FF94F913300133D1D1FFF7CEFE16
:1049E000CEE700BF5C7C0B0020A1070008B5F321D7
:1049F000FFF7A8FF00F0010008BD000030B590F9F6
:104A00001030013385B004460D461FD1017900688E
:104A100001F0EEFC2068036829469B6898472068EF
:104A200001F0F1FC21792068022201F0DEFC20680F
:104A300003685B6998470546206803685B69984787
:104A400040EA052085B2284605B030BD90F9133004
:104A500001330CD1184B009300238DF80430174B11
:104A6000029368460123ADF80C30FFF78EFE94F9EF
:104A70001000002180B201F016FF45F080012046B1
:104A8000FFF78DFE00212046FFF789FE0021054635
:104A90002046FFF784FE40EA052085B294F9100015
:104AA000012180B201F0FFFE94F913300133CAD125
:104AB000FFF764FEC7E700BF5C7C0B0020A1070086
:104AC00008B5FFF79BFF40BA80B208BD38B5882112
:104AD0000446FFF7F5FF8A21A0822046FFF7F0FF8A
:104AE0008C21E0822046FFF7EBFF8E2120832046B9
:104AF000FFF7E6FF902160832046FFF7E1FF922158
:104B0000A0832046FFF7DCFF9421E0832046FFF7D7
:104B1000D7FF962120842046FFF7D2FF982160849A
:104B20002046FFF7CDFF9A21A0842046FFF7C8FF5B
:104B30009C21E0842046FFF7C3FF9E21208520466C
:104B4000FFF7BEFFA12160852046FFF7FBFEE121B4
:104B500084F82C002046FFF7B3FFE321E0852046D0
:104B6000FFF7F0FEE42184F830002046FFF7EAFE6C
:104B7000E52105462046FFF7E5FE00F00F0343EA76
:104B800005106086E6212046FFF7DCFEE52105469C
:104B90002046FFF7D7FEC0F3071343EA0510A086AF
:104BA000E7212046FFF7CEFE84F8360038BD00002E
:104BB00030B590F91030013385B004460D4623D14D
:104BC0000179006801F014FC2068036829469B689D
:104BD0009847206801F017FC21792068032201F032
:104BE00004FC206803685B69984705022068036835
:104BF0005B69984728430502206803685B6998470A
:104C00000543284605B030BD90F9133001330CD16F
:104C10001A4B009300238DF80430194B0293684619
:104C20000123ADF80C30FFF7B0FD94F9100000211E
:104C300080B201F038FE45F080012046FFF7AFFD5D
:104C400000212046FFF7ABFD002105022046FFF7BB
:104C5000A6FD2843050200212046FFF7A0FD0543DD
:104C600094F91000012180B201F01DFE94F9133077
:104C70000133C6D1FFF782FDC3E700BF5C7C0B00A8
:104C800020A1070010B5FA210446FFF791FFB0F507
:104C9000000F1FD0A18A9FED117A4B00C1EB20229B
:104CA000C3EBE011B4F91630594302FB02F3B4F937
:104CB00018201B1353439B1303EBE123E36003EB27
:104CC000830380331B1207EE903AF8EEE77A87EE03
:104CD000870A10BD9FED020AFBE700BF0000C84233
:104CE0000000C07F38B50446FFF7CCFFFD21204609
:104CF000FFF784FEB0F5004F38D0E168B4F93420F6
:104D0000A1F59635B4F932100905C1EB803305FBE6
:104D1000123303F58043DA1394F8303094F93610E7
:104D20006B43DB126943891203F500434B439B122B
:104D3000B4F92E1003F500134B4303F500539B13F6
:104D40005343DA1394F82C105243D2114A43A3EB85
:104D5000221323EAE373B3F1C85FA8BF4FF0C8532F
:104D60001B1300EE103ABAEECB0A38BD9FED010AD4
:104D7000FBE700BF0000C07F2DE9F8430546FFF7C1
:104D800081FFF7212846FFF713FFB0F5000F00F071
:104D9000B680E968B5F91C304FEAE17EB1F5FA3129
:104DA0004EF1FF3EDC1703FB0EF201FB0422A3FBD6
:104DB000013422441203A1FB01781C0301FB0EF60F
:104DC00042EA1352B5F91E3008EB46084FEAE37C7D
:104DD00003FB08F607FB0C66A3FB073C66441B0AB3
:104DE00043EA06631B1942EB26226E8B02F5004252
:104DF000A3FB063406FB0244E317621053EA640483
:104E00004FF0000C7ED0B5F9244004FB08F64FEAC1
:104E1000E47907FB0966A4FB07473E44B5F9227015
:104E20004FEAE77807FB0EFE01FB08EEA7FB0171D6
:104E30007144490441EAD73100117F043F19C0F59C
:104E4000801446EB010604F00040B5F920101CEB7D
:104E5000070740EA5400E407E41B06EBC10640F6EE
:104E6000354160EB0606A4FB010401FB064102F09C
:104E700017FBB5F92A20B5F928604FEA613C430BCE
:104E800043EAC14302FB0CF7D41703FB0477A2FBF0
:104E900003243C4402FB0CF703FB0477A2FB03232F
:104EA0001F44530E43EAC7131B184FEAE67206FB72
:104EB00001F4864641EB676702FB0041A6FB0E0644
:104EC000B5F926403144C00C40EA413018184FEA89
:104ED000E47547EBE141000A2D0140EA016045EA33
:104EE00014752401201845EB212102F09BFA9FED57
:104EF000070A07EE900A27EE800ABDE8F8839FEDC7
:104F0000040AFAE79FED030AF7E700BF0000803BC1
:104F10000000C07F0000000030B5044690F910008A
:104F2000421C85B019D1206801F030FAD02120460A
:104F3000FFF708FD6028A06045D12046B622E02199
:104F4000FFF764FC4FF4967000F0EEFF2046FFF789
:104F50004DFD054628B36420F6E7012180B201F03B
:104F6000A2FC94F91000012180B201F08BFC94F9AD
:104F70001300431C04D1FFF7E5FB00F0EFFCD5E77D
:104F8000012180B201F07EFC94F91100012180B270
:104F900001F078FC94F91200002180B201F072FC5B
:104FA000C4E72046FFF792FD052300931A4603212C
:104FB0002046CDE90155FFF77BFC642000F0B4FFEB
:104FC000012005B030BD0020FBE7772310B5037149
:104FD000044601F0EBFC20602046FFF79DFF30B94E
:104FE000762323712046BDE81040FFF795BF10BD22
:104FF00010B50C4601F0DAFC01F0C8F901F0D6FC5E
:10500000382101F0F9F901F0D1FCA100036841F069
:1050100002019B6801F0FE01984701F0C7FC01F016
:10502000F2F9BDE810404FF4FA7000F07DBF38B5DA
:1050300001F0BCFC0122392101F0D7F90128044616
:1050400002D04FF6FF7038BD01F0B0FC03685B6919
:105050009847054601F0AAFC2246382101F0C5F91F
:105060000128EED101F0A2FC03685B69984740EA91
:10507000052080B2E7E70368C9B29B6818470022A1
:1050800042608260C26040F2011202820122827498
:10509000704738B504460D460068612101F0ACF94F
:1050A0002068290AFFF7E7FF2068E9B2FFF7E3FF6E
:1050B000206801F0A8F908B1002038BD206802225C
:1050C000612101F092F9206803681B699847002864
:1050D000F2D0206803685B6998470546206803683A
:1050E0005B699847C3B243EA052080B2E5E708B59B
:1050F00040F20221FFF7CDFF431E5842584108BD40
:105100002DE9F8430446FFF7F2FF074618B90027D8
:105110003846BDE8F8832068612101F06DF9206808
:105120000321FFF7A8FF20680021FFF7A4FF2068F4
:1051300001F069F905460028E9D1122261212068B1
:1051400001F053F9206803681B699847064658B375
:10515000A8462E46A946206803685B699847EBB2CB
:10516000102B0DD8DFE803F009090C09090C1818F9
:105170000C18180C1C1C0C1C1C00C3B243EA092997
:105180000135122DE7D10023C4F80490A660C4F8BD
:105190000C802382A374BBE7C3B243EA0626EFE781
:1051A000C3B243EA0828EBE780468146EBE710B537
:1051B000037C04460BB1FFF7A3FFD4ED017AFCEEAC
:1051C000E77A0123237417EE903A98B210BD10B518
:1051D000437C04460BB1FFF793FF012394ED030AD0
:1051E000637410BD10B5837C04460BB1FFF788FFD4
:1051F000012394ED020AA37410BD0A44FF208A42E1
:1052000011D011F8013B5840082310F0800F03F132
:10521000FF334FEA400018BF80F0310013F0FF0366
:10522000C0B2F2D1EBE770472DE9F3410E464FEAE9
:10523000122815468DF8052001A9022204468DF892
:105240000480FFF7DAFF61210746206801F0D4F8F7
:105250002068310AFFF70FFF2068F1B2FFF70BFF5C
:1052600020684146FFF707FF2068E9B2FFF703FF18
:105270002068036839469B689847206801F0C3F8A6
:10528000B0FA80F0400902B0BDE8F0810A46102172
:10529000FFF7CABF0021FFF7F9BF0A464FF48C4160
:1052A000FFF7C2BF38B504460846216001F06EF82A
:1052B0002046FFF7EFFF054648B102212046FFF7E1
:1052C000ECFF012245F206312046FFF7ADFF2846EC
:1052D00038BD4260112241700270704710B504461B
:1052E000406801F093F810B9606801F04FF80120B0
:1052F00010BD000070B505464178406801F078F8AF
:1053000069786868022201F070F8686803685B6970
:1053100098470646686803685B699847044644EA0C
:1053200006246868A4B201F06EF807EE904A9FED7B
:10533000030AF8EE677A87EE800A70BD9A99993F62
:105340000378232B05D0132B0CBF1820B42000F0BA
:10535000EBBD1820FBE738B504460D4641784068A0
:1053600001F046F86068036829469B6898476068C2
:1053700001F049F825702046BDE83840FFF7E0BF4E
:1053800010B50378A3F12002012A044601D9232B8A
:1053900010D16178606801F02BF8606821780368AB
:1053A0009B689847606801F02EF82046BDE81040E1
:1053B000FFF7C6BF10BD000008B5024B1B689B6815
:1053C000019308BD6802030008B5024B1B68DB6847
:1053D000019308BD6802030008B5024B1B689B6877
:1053E000019308BD2C02030008B5024B1B68DB6863
:1053F000019308BD2C02030008B5024B1B681B6912
:10540000019308BD2C02030008B5024B1B685B69C1
:10541000019308BD2C02030008B5024B1B685B68B2
:10542000019308BD1802030008B5024B1B685B69B5
:10543000019308BD1802030008B5024B1B689B6D61
:10544000019308BD1802030008B5024B1B685B6E90
:10545000019308BD1802030008B5024B1B685B6C82
:10546000019308BD4802030008B5024B1B685B6945
:10547000019308BD6402030008B5024B1B68DB689A
:10548000019308BD3C02030008B5024B1B681B6971
:10549000019308BD3C02030008B5024B1B685B6921
:1054A000019308BD3C02030008B5024B1B689B69D1
:1054B000019308BD3C02030008B5024B1B68DB6981
:1054C000019308BD3C02030008B5024B1B681B6A30
:1054D000019308BD3C02030008B5024B1B689B6AA0
:1054E000019308BD3C02030008B5024B1B681B6C0E
:1054F000019308BD3C02030008B5024B1B68DB6842
:10550000019308BD2802030008B5024B1B689B6984
:10551000019308BD2802030008B5024B1B68DB6934
:10552000019308BD2802030008B5024B1B681B6AE3
:10553000019308BD2802030008B5024B1B685B6A93
:10554000019308BD2802030008B5024B1B689B6A43
:10555000019308BD2802030008B5024B1B68DB6AF3
:10556000019308BD2802030008B5024B1B681B6BA2
:10557000019308BD2802030008B5024B1B685B6B52
:10558000019308BD2802030008B5024B1B681B6C81
:10559000019308BD2802030008B5024B1B681B6D70
:1055A000019308BD2802030008B5024B1B681B6865
:1055B000019308BD3002030008B5024B1B685B690C
:1055C000019308BD3002030008B5024B1B68DB697C
:1055D000019308BD3002030008B5024B1B681B6A2B
:1055E000019308BD3002030008B5024B1B685B6ADB
:1055F000019308BD3002030008B5024B1B68DB6B4A
:10560000019308BD3002030008B5024B1B681B6CF8
:10561000019308BD3002030008B5024B1B685B6CA8
:10562000019308BD3002030008B5024B1B681B68DC
:10563000019308BD4C02030008B5024B1B685B6870
:10564000019308BD4C02030008B5024B1B681B699F
:10565000019308BD4C02030008B5024B1B685B694F
:10566000019308BD4C02030008B5024B1B689B69FF
:10567000019308BD4C02030008B5024B1B68DB69AF
:10568000019308BD4C02030008B5024B1B681B6A5E
:10569000019308BD4C02030008B5024B1B681B6850
:1056A000019308BD2002030008B5024B1B685B682C
:1056B000019308BD2002030008B5024B1B685B691B
:1056C000019308BD2002030008B5024B1B689B6DC7
:1056D000019308BD2002030008B5034B1B68D3F8F3
:1056E0008830019308BD00002002030008B5034B79
:1056F0001B68D3F89430019308BD0000200203001A
:1057000008B5024B1B685B68019308BD40020300AB
:1057100008B5024B1B689B68019308BD400203005B
:1057200008B5024B1B68DB68019308BD400203000B
:1057300008B5024B1B681B69019308BD40020300BA
:1057400008B5024B1B685B69019308BD400203006A
:1057500008B5024B1B689B69019308BD400203001A
:1057600008B5024B1B68DB69019308BD40020300CA
:1057700008B5024B1B681B6A019308BD4002030079
:1057800008B5024B1B681B6B019308BD4002030068
:1057900008B5024B1B685B6B019308BD4002030018
:1057A00008B5024B1B681B6C019308BD4002030047
:1057B00008B5024B1B685B6C019308BD40020300F7
:1057C00008B5024B1B689B68019308BD44020300A7
:1057D00008B5024B1B68DB68019308BD4402030057
:1057E00008B5024B1B685B69019308BD44020300C6
:1057F00008B5024B1B68DB69019308BD4402030036
:1058000008B5024B1B681B6B019308BD44020300E3
:1058100008B5024B1B68DB6B019308BD4402030013
:1058200008B5024B1B681B68019308BD1C020300EE
:1058300008B5024B1B685B68019308BD1C0203009E
:1058400008B5024B1B689B68019308BD1C0203004E
:1058500008B5024B1B681B69019308BD1C020300BD
:1058600008B5024B1B68DB69019308BD1C020300ED
:1058700008B5024B1B685B6A019308BD1C0203005C
:1058800008B5024B1B681B6C019308BD1C0203008A
:1058900008B5024B1B685B6C019308BD1C0203003A
:1058A00008B5024B1B689B6C019308BD1C020300EA
:1058B00008B5024B1B68DB6C019308BD1C0203009A
:1058C000002240681146FFF753BF0022406811468E
:1058D000FFF75EBF40680022FFF752BF406800221A
:1058E00081F00101FFF73CBF002340681A461946CA
:1058F000FFF72EBF002340681A461946FFF720BF66
:10590000002240681146FFF713BF0022406811468D
:10591000FFF7FEBE406800220221FFF701BF00230F
:1059200040681A46FFF7ECBE024B03225A60024A57
:105930001A607047B0E60320707C0B000021FFF76F
:105940006BBE0021FFF760BE10B50446084621700B
:10595000FFF73AFE00236360204610BD13B50446EE
:105960000078FFF7EEFF58B9207801904FF6FF71ED
:10597000FFF71AFE019802B0BDE81040FFF7DEBF46
:1059800002B010BD0078FFF7D9BF0000400830B565
:105990001860002418688842E5B206D90134082C42
:1059A00002D040081860F5E70725024B5B5D1370D5
:1059B00030BD00BFA47C0B002DE9F04306468FB03C
:1059C00000780C46FFF7BDFF00281BDB357814225A
:1059D000002109A801F060FF0B23002209A9284635
:1059E000ADF82430FFF700FE9DF82D3013B19DF87F
:1059F0002C5055B10027B946B846012523795DB131
:105A0000C3B100200FB0BDE8F083DDF830809DF811
:105A100034909DF83570F1E7002B35D1A3684345EC
:105A200008D18DF820908DF82170BDF82020A38931
:105A30009A42E6D00023A1688DF80F300A9804AB93
:105A40000DF10F02FFF7A2FF217985B989B9A3688B
:105A500043450ED38DF820908DF82170BDF820209D
:105A6000A3899A4205D1049B434502D1C9E7002985
:105A7000F9D100230193637B00939DF80F20237BD2
:105A80003078FFF7B9FDBCE7CDE900552B462A4633
:105A90000121F5E708B50078FFF78EFDC0B208BD1B
:105AA000054B02221A60054B054A9A600020C3E9A3
:105AB0000000FFF7F9BD00BFC4E60320B8E60320ED
:105AC0000000FFFF10B504460068FFF7B1FE204656
:105AD00010BD10B50446006808B1FFF7A9FE002309
:105AE000C4E90133236010BD38B504460D46006893
:105AF0000131FFF7A5FE10B1C4E90005012038BD52
:105B000010B50368044623B143688B4201D30120DA
:105B100010BD2046FFF7E8FF0028F9D0A368002B4E
:105B2000F5D122681370F2E737B50D4611460192A0
:105B30000446FFF7E5FF019A28B92046FFF7C9FFA1
:105B4000204603B030BDA2602946206801F096FED1
:105B50002268A3680021D154F2E7002313B5C0E9FD
:105B6000003304468360037341B10846019101F09C
:105B7000DBFE019902462046FFF7D6FF204602B021
:105B800010BD0000024800230360FFF765BC00BFA2
:105B9000C8E60320F8B506460D468F180024BD421E
:105BA0000CD0336815F8011B9B6830469847031EDC
:105BB00001DB1C44F3E7002C08BF1C462046F8BD5F
:105BC00013B50446084659B1019101F0ADFE2368B2
:105BD0000199DB680246204602B0BDE81040184734
:105BE00002B010BD08B5FFF7EBFF08BD03689B6866
:105BF000184738B50D210546FFF7F8FF0A2104467E
:105C00002846FFF7F3FF204438BD38B50546FFF7B7
:105C1000D7FF04462846FFF7ECFF204438BD30B5D7
:105C20008BB00023012A8DF8243098BF0A2209ACDA
:105C30000D46B1FBF2F101FB125303F0FF03092BF8
:105C400094BF30333733DBB2AA4204F8013DEFD9B9
:105C50002146FFF7B5FF0BB030BD2DE9F04186B00E
:105C600000AF05460E46381D142114463B60FFF771
:105C7000FFFD13280ED8391D2846FFF7A1FF044663
:105C80001EB12846FFF7B5FF044420461837BD462D
:105C9000BDE8F08100F1080323F00703E846ADEB0F
:105CA000030D2246411C3B686846FFF7E1FD69464B
:105CB0002846FFF785FF0446C546E1E7014B024A47
:105CC0001A607047CCE60320AC7C0B0008B50020BE
:105CD000FFF796FD28B1FFF783FD80F00100C0B209
:105CE00008BD0120FCE7000030B593B0CDE90023EA
:105CF000194B0446D3E90010019B521843EB0003F3
:105D00001648D0E90010521843EB0003CDE90023F8
:105D100024220DEB0200002101F0BEFD002509A99F
:105D20006846FFF7C5FD1622294603A8029501F033
:105D3000B3FD02A909A801F06DFD02A801F0F4FD70
:105D400012AB184402A900F8415C2046FFF705FF9A
:105D5000204613B030BD00BFE0E60320D8E60320A4
:105D60002DE9F047A4B00746884614A811463F2203
:105D70001C4601F0E1FD002314A88DF88F3001F0DE
:105D8000D3FD05464CBB294903A801F0C5FD14AC61
:105D9000002605F1FF39B14534D92378252B06F1CA
:105DA000010A17D163787A2B14D103A801F0BCFD46
:105DB00014AB054630181844A9EB0602A11C01F0EB
:105DC0005DFD2A4603A9204601F058FD14A801F004
:105DD000ABFD054601345646DBE73C2394FBF3F26A
:105DE000002AB8BF5242B2FBF3F103FB112200922A
:105DF0004FF461630E4A94FBF3F3102103A8FFF7FD
:105E00002FFDC4E700212E2208A8079101F044FDD0
:105E1000434614AA322107A8FFF742FD07A93846D6
:105E2000FFF79BFE384624B0BDE8F087B07C0B003E
:105E3000B27C0B00F0B58DB0CDE90023129D044675
:105E400015B9194B1D682DB1184B2846196801F07A
:105E500059FD38B9DDE900232046FFF745FF20460C
:105E60000DB0F0BD124E0099124FD6E900325B180A
:105E7000019942EB0102D7E900011B1842EB010234
:105E8000CDE900320021242203A801F005FD03A979
:105E90006846FFF70DFD32683B6803A913442046AE
:105EA0002A46FFF75DFFDAE7D4E60320A4E50320E6
:105EB000E0E60320D8E6032010B50020FFF7BCFA87
:105EC0000446A0B9FFF7E8FB012810D12046FFF7F0
:105ED000FBFB60B9FFF7FAFE10B9FFF771FCF9E7B9
:105EE000FFF7F4FEBDE810400020FFF7A5BA2046FA
:105EF00010BD1FB5FFF7E0FF10220021684601F03A
:105F0000CBFC00216846FFF79FFA009805B05DF8CA
:105F100004FB0000024B1A68024B1A60704700BF76
:105F2000A4E50320D4E603200021FFF7C5BB000051
:105F3000014B00229A607047E8E60320014B18608D
:105F4000704700BFA8E5032008B50B4B43B100F034
:105F500067F903681B699847002801DDAFF30080EB
:105F6000064B43B100F0E6FC03681B699847002824
:105F700001DDAFF3008008BD00000000000000005C
:105F800008B5FFF7E1FFFFF74FFA014B186008BDB6
:105F900040E703200548064A064908B5121A01F0F1
:105FA0006DFC054B054A1A6008BD00BF00F40320D4
:105FB00004F403203C800B0000F403201E1C279AED
:105FC00007B5002300931A466FF07701FFF78EFBA9
:105FD00003B05DF804FB000007B543880A2B08D026
:105FE000502B0BD1094B1B684BB103B05DF804EB90
:105FF0001847FFF7E5FF03B05DF804FB00230093AB
:106000001A466FF07701FFF771FBF4E7FCE6032017
:1060100010B512480021FFF73BFC114B1A68114BD9
:106020009A42114B0CBF012200221A7001D0FFF7D7
:10603000B1FFFFF7F1F9044601F036FC0B4B13B149
:106040002046AFF3008000210848FFF7E1FBBDE8E0
:10605000104007480021FFF73FBB00BF3D5F0B002A
:1060600000F403201E1C279AF8E60320000000001D
:10607000D95F0B00704710B518210446FEF70FF8E2
:10608000204610BDF0B5037D062B8DB00E4600F105
:1060900004074FF0000412D000F1080515F8011DA7
:1060A0000A223046FFF7BBFDAF42044419D0002C52
:1060B000F4D02E213046FFF799FD0444EEE72F235C
:1060C0006A4639460A208DF80040FFF7CDF9684648
:1060D00001F02AFC33680246DB686946304698477F
:1060E000044620460DB0F0BD10B5054B0446112204
:1060F00040F8043B002101F0CFFB204610BD00BF5B
:10610000E47C0B000346074A10B543F8042B01F169
:10611000100251F8044B43F8044B9142F9D10A782C
:106120001A7010BDE47C0B0010B59DF8084044EADD
:10613000032343EA024242EA0161042341600375FA
:1061400010BD000007B5064B0360CB7800938B7839
:106150004A780978FFF7E8FF03B05DF804FB00BF59
:10616000E47C0B00417470477047704708B500210C
:10617000007CFFF779FA40EAE07008BD08B501211C
:10618000007CFFF771FA40EAE07008BD08B5007CBA
:10619000FFF762FA20EAE07008BD08B5007CFFF75F
:1061A00053FA20EAE07008BD13B50446007C019163
:1061B000FFF752FA0028019901DC607C20B1207CB5
:1061C000FFF75AFA20EAE07002B010BD007CFFF73A
:1061D0005BBA10B514210446FDF761FF204610BDDF
:1061E00010B54FF47A73044608460021C4E9011340
:1061F000044B23600123207463741146FFF714FAE3
:10620000204610BDF87C0B00007C0022FFF714BA7A
:1062100010B514220446002101F03EFB204610BDBB
:1062200010B50F4C88B003A8FFF7F2FF2178BFF339
:106230005B8F11F001010FD120460191FDF731FF75
:10624000019948B103AA0748FFF7CAFF2046FDF7A6
:106250002DFF054801F004FB024808B010BD00BF47
:1062600000E7032004E7032069610B0070474174D5
:10627000704708B5007CFFF72FF920EAE07008BDF1
:1062800008B5007CFFF700F920EAE07008BD08B50A
:10629000007CFFF709F940EAE07008BD08B5007C12
:1062A000FFF7FAF840EAE07008BD007CFFF704B998
:1062B00037B5457C04462DB1207C03B0BDE83040A5
:1062C000FFF7DAB8007C0191FFF706F90028019981
:1062D000F2DC284603B030BD10B514210446FDF7AA
:1062E000DEFE204610BD000010B54FF47A73044660
:1062F000084611460022C4E90123044B2360012310
:1063000020746374FFF7F0F8204610BD287D0B0061
:106310007047F8B5064615460C468F18BC4206D0A5
:10632000336814F8011B9B6830469847F6E7284607
:10633000F8BD007C0022FFF7F7B8007C0021FFF7D2
:10634000FBB8007C0021FFF7FFB8007C0021FFF7BD
:1063500003B9007C0021FFF707B910B514210446EA
:10636000FDF79DFE204610BD10B54FF47A7304462C
:1063700008460021C4E90113034B23602074114631
:10638000FFF702F9204610BD587D0B000023007C6A
:106390001A461946FFF7B0B87FB500221423CDE99D
:1063A0000122ADF804300B788DF808304B68039368
:1063B000CB680493007C0B7A059301A9FFF7ECF8F6
:1063C00007B05DF804FB1FB5003B8DF800104FF0DF
:1063D0006401039118BF0123694601928DF80830CA
:1063E000FFF7DAFF05B05DF804FB0123FFF7EBBF11
:1063F000007C0022FFF788B8C9B2FFF7F9BF007C24
:106400000022FFF789B80121FFF7F9BF007C0021C6
:10641000FFF7B2B8002240681146FFF789B90022A1
:1064200040681146FFF7A4B9002240681146FFF703
:10643000AFB940680022FFF7A3B94068002281F09D
:106440000101FFF78DB9002340681A461946FFF78E
:106450007FB9002340681A461946FFF771B9002238
:1064600040681146FFF754B9406800220221FFF747
:1064700057B9002340681A46FFF742B9024B04227D
:106480005A60024A1A60704718E70320807D0B00AB
:10649000002340681A46FFF733B940680022022102
:1064A000FFF73EB9002240681146FFF731B90022DC
:1064B00040681146FFF73CB9002340681A46194668
:1064C000FFF73EB9002340681A461946FFF740B966
:1064D00040680021FFF764B940680021FFF768B900
:1064E0004068002281F00101FFF73AB940680022BC
:1064F000FFF746B9002240681146FFF749B900226C
:1065000040681146FFF734B92DE9F04395B01446C1
:106510000D460746FFF7E8FD00211C220DA800915B
:1065200001F0BAF940230C9320466B460CAA0021D7
:10653000FEF74AFF044600284BD102460121686855
:10654000FFF7F6F80221804622466868FFF7F0F868
:10655000009E81462146002E3BD0002939D1736828
:10656000022B03D00A2B11D0F669F4E7B8F1000F23
:10657000FAD0716906A8043107ADFFF7E3FD0FCD2E
:106580003C1D0FC42B6823704146EDE7B9F1000FA5
:10659000EAD07469102201A801F07EF906238DF873
:1065A000143001AD04F108031834186859682A46FC
:1065B00003C20833A3421546F7D101A906A807ADC7
:1065C000FFF7A0FD0FCD3C1D0FC42B68237049467B
:1065D000CAE70098FEF7F0FE384615B0BDE8F08334
:1065E000024B034A1A6000225A60704720E70320DA
:1065F000BC7D0B000EB4F0B588B000AF07F13405D8
:10660000102155F8042B7A6004462B467818FD605B
:10661000FFF72EF90F287A681AD900F1080323F042
:1066200007036E46ADEB030D411C2B466846FD602B
:10663000FFF71EF9021E04DD236869469B682046A9
:106640009847B5462037BD46BDE8F04003B07047D7
:106650000028F7D0236802469B6807F11001204606
:106660009847EFE707B503688DF807109B6801228C
:106670000DF10701984703B05DF804FB10B57D21CB
:106680000446FFF7EFFF01232371204610BD08B534
:106690000379012B02D0022B04D008BD2C21FFF777
:1066A000E1FFFAE73A21FAE710B50446FFF7EFFFFA
:1066B00020467B21FFF7D6FF00232371204610BD23
:1066C00013B504460191FFF7E2FF2368019ADB68E6
:1066D00003492046984701232046237102B010BD8C
:1066E000F07D0B00F8B5044657EC106BFFF7CFFFB9
:1066F00023680549DD6820463B463246A84701230A
:1067000023712046F8BD00BFF37D0B002DE9F04753
:106710000D46222190460446FFF7A4FFDFF8A4901F
:10672000A8442F464745BA463DD017F8016B222EA4
:1067300006D05C2E04D0304601F098F80028F1D144
:106740002368AAEB05029B682946204698475C21EE
:106750002046FFF787FF0D2E0AD8072E1CD9A6F179
:106760000803052B18D8DFE803F00D0F11171315D8
:10677000222E01D05C2E0FD131462046FFF772FF4A
:106780003D46CFE76221F8E77421F6E76E21F4E792
:106790006621F2E77221F0E723683246DB6849465A
:1067A00020469847ECE7BD4205D023687A1B9B68DA
:1067B00029462046984722212046FFF753FFBDE88F
:1067C000F08700BFF67D0B0013B50446CDE900212C
:1067D000FFF75DFF2046DDE90021FFF797FF022369
:1067E0002046237102B010BD13B50446CDE9002147
:1067F000FFF74DFF2046DDE90021FFF787FF01236A
:106800002046237102B010BD232813B502D9002001
:1068100002B010BDA0F10B03022B1AD8174C21783F
:10682000BFF35B8F11F001010BD120460191FDF701
:1068300038FC019928B11248FFF786F82046FDF789
:1068400035FC0F4B1878FEF7C7FE0028DFD101207A
:10685000DEE7012809D800F0A9F80021007CFEF746
:106860008BFE80F00100C0B2D2E709380128EED8D3
:1068700000F060F8007CFEF727FEF2E7A4E60320B4
:10688000A8E60320232838B504460D460AD8FF2978
:1068900008D0FFF7B9FF28B129462046BDE83840A7
:1068A000FEF79ABD38BD38B504460D46FEF79CFD8F
:1068B000FF2810D0062804D84D2323FA00F0C30780
:1068C00009D42046FFF7A0FF28B129462046BDE89D
:1068D0003840FEF791BD38BD10B50446FEF784FD83
:1068E000031FDBB2012B08D92046FFF78DFF20B133
:1068F0002046BDE81040FEF787BD002010BD704760
:1069000038B5044614252A46002100F0C5FF25802D
:106910004025074925812846258200F06BF8044967
:106920006060284600F066F8E060204638BD00BF91
:10693000FC7D0B0030B50E4D2978BFF35B8F11F055
:10694000010487B011D12846FDF7ABFB68B101A85F
:10695000FFF7D6FF01AA21460648FFF7C5FC2846E7
:10696000FDF7A4FB044800F07BFF024807B030BDF0
:1069700028E703202CE70320FF680B007047000086
:1069800038B5202514230446036085600561064957
:10699000284600F02FF804496060284600F02AF8E5
:1069A000E060204638BD00BFFC7D0B0030B50E4DC9
:1069B0002978BFF35B8F11F0010487B011D128460D
:1069C000FDF76FFB68B101A8FFF7DAFF01AA2146C6
:1069D0000648FFF7C9FC2846FDF768FB044800F0AD
:1069E0003FFF024807B030BD44E7032048E70320DB
:1069F0007D690B00FDF751BB81F0004102E000BF53
:106A000083F0004330B54FEA41044FEA430594EA6E
:106A1000050F08BF90EA020F1FBF54EA000C55EAA9
:106A2000020C7FEA645C7FEA655C00F0E2804FEA7A
:106A30005454D4EB5555B8BF6D420CDD2C4480EA5C
:106A4000020281EA030382EA000083EA010180EA8C
:106A5000020281EA0303362D88BF30BD11F0004FDA
:106A60004FEA01314FF4801C4CEA113102D0404210
:106A700061EB410113F0004F4FEA03334CEA13334B
:106A800002D0524263EB430394EA050F00F0A78063
:106A9000A4F10104D5F1200E0DDB02FA0EFC22FA5E
:106AA00005F2801841F1000103FA0EF2801843FA52
:106AB00005F359410EE0A5F120050EF1200E012A43
:106AC00003FA0EFC28BF4CF0020C43FA05F3C01881
:106AD00051EBE37101F0004507D54FF0000EDCF1FA
:106AE000000C7EEB00006EEB0101B1F5801F1BD3A3
:106AF000B1F5001F0CD349085FEA30004FEA3C0CA7
:106B000004F101044FEA445212F5800F80F09A809C
:106B1000BCF1004F08BF5FEA500C50F1000041EBA0
:106B2000045141EA050130BD5FEA4C0C404141EBA4
:106B30000101013C28BFB1F5801FE9D291F0000F9F
:106B400004BF01460020B1FA81F308BF2033A3F14E
:106B50000B03B3F120020CDA0C3208DD02F1140C45
:106B6000C2F10C0201FA0CF021FA02F10CE002F180
:106B70001402D8BFC2F1200C01FA02F120FA0CFC79
:106B8000DCBF41EA0C019040E41AA2BF01EB0451C2
:106B9000294330BD6FEA04041F3C1CDA0C340EDCC0
:106BA00004F11404C4F1200220FA04F001FA02F303
:106BB00040EA030021FA04F345EA030130BDC4F1C1
:106BC0000C04C4F1200220FA02F001FA04F340EAB6
:106BD0000300294630BD21FA04F0294630BD94F067
:106BE000000F83F4801306BF81F480110134013D4E
:106BF0004EE77FEA645C18BF7FEA655C29D094EABF
:106C0000050F08BF90EA020F05D054EA000C04BF3C
:106C10001946104630BD91EA030F1EBF0021002027
:106C200030BD5FEA545C05D14000494128BF41F0C6
:106C3000004130BD14F580043CBF01F5801130BD2A
:106C400001F0004545F0FE4141F470014FF00000B5
:106C500030BD7FEA645C1ABF194610467FEA655C66
:106C60001CBF0B46024650EA013406BF52EA033508
:106C700091EA030F41F4002130BD00BF90F0000FF6
:106C800004BF0021704730B54FF4806404F1320432
:106C90004FF000054FF0000150E700BF90F0000FEB
:106CA00004BF0021704730B54FF4806404F1320412
:106CB00010F0004548BF40424FF000013EE700BFE2
:106CC00042004FEAE2014FEA31014FEA02701FBF72
:106CD00012F07F4393F07F4F81F06051704732F0A4
:106CE0007F4208BF704793F07F4F04BF41F40021FB
:106CF000704730B54FF4607401F0004521F0004159
:106D00001CE700BF50EA010208BF704730B54FF0E2
:106D100000050AE050EA010208BF704730B511F0E3
:106D2000004502D5404261EB41014FF4806404F11B
:106D300032045FEA915C3FF4D8AE4FF003025FEAA1
:106D4000DC0C18BF03325FEADC0C18BF033202EB25
:106D5000DC02C2F1200300FA03FC20FA02F001FA7F
:106D600003FE40EA0E0021FA02F11444BDE600BF22
:106D700070B54FF0FF0C4CF4E06C1CEA11541DBFD1
:106D80001CEA135594EA0C0F95EA0C0F00F0DEF89C
:106D90002C4481EA030621EA4C5123EA4C5350EA81
:106DA000013518BF52EA033541F4801143F48013D2
:106DB00038D0A0FB02CE4FF00005E1FB02E506F063
:106DC0000042E0FB03E54FF00006E1FB03569CF0B8
:106DD000000F18BF4EF0010EA4F1FF04B6F5007FBE
:106DE00064F5407404D25FEA4E0E6D4146EB060630
:106DF00042EAC62141EA55514FEAC52040EA5E50B9
:106E00004FEACE2EB4F1FD0C88BFBCF5E06F1ED862
:106E1000BEF1004F08BF5FEA500E50F1000041EB99
:106E2000045170BD06F0004646EA010140EA020046
:106E300081EA0301B4EB5C04C2BFD4EB0C0541EA68
:106E4000045170BD41F480114FF0000E013C00F37D
:106E5000AB8014F1360FDEBF002001F0004170BDA1
:106E6000C4F10004203C35DA0C341BDC04F11404BA
:106E7000C4F1200500FA05F320FA04F001FA05F246
:106E800040EA020001F0004221F0004110EBD37013
:106E900021FA04F642EB06015EEA430E08BF20EA3F
:106EA000D37070BDC4F10C04C4F1200500FA04F3E2
:106EB00020FA05F001FA04F240EA020001F0004174
:106EC00010EBD37041F100015EEA430E08BF20EAE7
:106ED000D37070BDC4F1200500FA05F24EEA020E2F
:106EE00020FA04F301FA05F243EA020321FA04F05E
:106EF00001F0004121FA04F220EA020000EBD37015
:106F00005EEA430E08BF20EAD37070BD94F0000F14
:106F10000FD101F00046400041EB010111F4801F48
:106F200008BF013CF7D041EA060195F0000F18BFF9
:106F3000704703F00046520043EB030313F4801F35
:106F400008BF013DF7D043EA0603704794EA0C0FEF
:106F50000CEA135518BF95EA0C0F0CD050EA410605
:106F600018BF52EA4306D1D181EA030101F0004182
:106F70004FF0000070BD50EA410606BF10461946AA
:106F800052EA430619D094EA0C0F02D150EA0136B6
:106F900013D195EA0C0F05D152EA03361CBF1046F7
:106FA00019460AD181EA030101F0004141F0FE4196
:106FB00041F470014FF0000070BD41F0FE4141F41A
:106FC000780170BD70B54FF0FF0C4CF4E06C1CEA1A
:106FD00011541DBF1CEA135594EA0C0F95EA0C0FCF
:106FE00000F0A7F8A4EB050481EA030E52EA03358A
:106FF0004FEA013100F088804FEA03334FF08055AB
:1070000045EA131343EA12634FEA022245EA1115D7
:1070100045EA10654FEA00260EF000419D4208BF88
:10702000964244F1FD0404F5407402D25B084FEA35
:107030003202B61A65EB03055B084FEA32024FF4E1
:1070400080104FF4002CB6EB020E75EB030E22BF3E
:10705000B61A754640EA0C005B084FEA3202B6EBFE
:10706000020E75EB030E22BFB61A754640EA5C00AD
:107070005B084FEA3202B6EB020E75EB030E22BF3D
:10708000B61A754640EA9C005B084FEA3202B6EB3E
:10709000020E75EB030E22BFB61A754640EADC00FD
:1070A00055EA060E18D04FEA051545EA16754FEA5F
:1070B00006164FEAC30343EA52734FEAC2025FEA7D
:1070C0001C1CC0D111F4801F0BD141EA00014FF00C
:1070D00000004FF0004CB6E711F4801F04BF0143DD
:1070E0000020B4F1FD0C88BFBCF5E06F3FF6AFAEF9
:1070F000B5EB030C04BFB6EB020C5FEA500C50F189
:10710000000041EB045170BD0EF0004E4EEA11310B
:1071100014EB5C04C2BFD4EB0C0541EA045170BD12
:1071200041F480114FF0000E013C90E645EA060E56
:107130008DE60CEA135594EA0C0F08BF95EA0C0F84
:107140003FF43BAF94EA0C0F0AD150EA01347FF4CC
:1071500034AF95EA0C0F7FF425AF104619462CE7A3
:1071600095EA0C0F06D152EA03353FF4FDAE104606
:10717000194622E750EA410618BF52EA43067FF457
:10718000C5AE50EA41047FF40DAF52EA43057FF4E7
:10719000EBAE12E74FEA410212F5001215D211D5FB
:1071A0006FF47873B3EB625212D94FEAC12343F004
:1071B000004343EA505311F0004F23FA02F018BF86
:1071C000404270474FF00000704750EA013005D14F
:1071D00011F0004008BF6FF0004070474FF0000012
:1071E000704700BF4FEA4102B2F1E04324BFB3F55C
:1071F000001CDCF1FE5C0DD901F0004C4FEAC0022E
:107200004CEA5070B2F1004F40EB830008BF20F011
:107210000100704711F0804F21D113F13872BCBFCB
:1072200001F00040704741F480114FEA5252C2F120
:107230001802C2F1200C10FA0CF320FA02F018BF69
:1072400040F001004FEAC1234FEAD32303FA0CFCBC
:1072500040EA0C0023FA02F34FEA4303CCE77FEA4B
:10726000625307D150EA01331EBF4FF0FE4040F495
:107270004000704701F0004040F0FE4040F4000044
:10728000704700BF80F0004002E000BF81F0004185
:1072900042001FBF5FEA410392EA030F7FEA226CBC
:1072A0007FEA236C6AD04FEA1262D2EB1363C1BF4C
:1072B000D218414048404140B8BF5B42192B88BFBB
:1072C000704710F0004F40F4000020F07F4018BFDE
:1072D000404211F0004F41F4000121F07F4118BFFE
:1072E000494292EA030F3FD0A2F1010241FA03FCA6
:1072F00010EB0C00C3F1200301FA03F100F000438E
:1073000002D5494260EB4000B0F5000F13D3B0F155
:10731000807F06D340084FEA310102F10102FE2AC4
:1073200051D2B1F1004F40EBC25008BF20F0010034
:1073300040EA03007047490040EB0000013A28BFD3
:10734000B0F5000FEDD2B0FA80FCACF1080CB2EB56
:107350000C0200FA0CF0AABF00EBC25052421843D4
:10736000BCBFD0401843704792F0000F81F4000179
:1073700006BF80F400000132013BB5E74FEA41034C
:107380007FEA226C18BF7FEA236C21D092EA030FB8
:1073900004D092F0000F08BF0846704790EA010F32
:1073A0001CBF0020704712F07F4F04D1400028BF5F
:1073B00040F00040704712F100723CBF00F5000041
:1073C000704700F0004343F0FE4040F40000704777
:1073D0007FEA226216BF08467FEA23630146420223
:1073E00006BF5FEA412390EA010F40F48000704736
:1073F0004FF0000304E000BF10F0004348BF4042DC
:107400005FEA000C08BF704743F0964301464FF017
:1074100000001CE050EA010208BF70474FF0000373
:107420000AE000BF50EA010208BF704711F00043B4
:1074300002D5404261EB41015FEA010C02BF844684
:107440000146002043F0B64308BFA3F18053A3F5E3
:107450000003BCFA8CF2083AA3EBC25310DB01FA2A
:1074600002FC634400FA02FCC2F12002BCF1004FAE
:1074700020FA02F243EB020008BF20F0010070473F
:1074800002F1200201FA02FCC2F1200250EA4C0093
:1074900021FA02F243EB020008BF20EADC707047D9
:1074A0007BB972B90029BEBF00204FF0004106E051
:1074B00008BF00281CBF6FF000414FF0FF3000F004
:1074C000A7B9ADF1080C6DE904CE002909DB002B4A
:1074D0001ADB00F035F8DDF804E0DDE9022304B042
:1074E0007047404261EB4101002B1BDB00F028F8A4
:1074F000DDF804E0DDE9022304B0404261EB410124
:10750000524263EB43037047524263EB430300F084
:1075100017F8DDF804E0DDE9022304B0404261EB36
:1075200041017047524263EB430300F009F8DDF874
:1075300004E0DDE9022304B0524263EB43037047E9
:107540002DE9F047089D04468E46002B4DD18A4216
:10755000944669D9B2FA82F252B101FA02F3C2F149
:10756000200120FA01F10CFA02FC41EA030E9440DA
:107570004FEA1C48210CBEFBF8F61FFA8CF708FBFB
:1075800016E341EA034306FB07F199420AD91CEBD3
:10759000030306F1FF3080F01F81994240F21C8105
:1075A000023E63445B1AA4B2B3FBF8F008FB10334D
:1075B00044EA034400FB07F7A7420AD91CEB040482
:1075C00000F1FF3380F00A81A74240F20781644452
:1075D000023840EA0640E41B00261DB1D4400023D7
:1075E000C5E900433146BDE8F0878B4209D9002D3B
:1075F00000F0EF800026C5E9000130463146BDE8C5
:10760000F087B3FA83F6002E4AD18B4202D382422E
:1076100000F2F980841A61EB030301209E46002DDD
:10762000E0D0C5E9004EDDE702B9FFDEB2FA82F232
:10763000002A40F09280A1EB0C014FEA1C471FFA90
:107640008CFE0126200CB1FBF7F307FB131140EA77
:1076500001410EFB03F0884208D91CEB010103F144
:10766000FF3802D2884200F2CB804346091AA4B206
:10767000B1FBF7F007FB101144EA01440EFB00FEDA
:10768000A64508D91CEB040400F1FF3102D2A6453F
:1076900000F2BB800846A4EB0E0440EA03409CE7DE
:1076A000C6F12007B34022FA07FC4CEA030C20FA8B
:1076B00007F401FA06F31C43F9404FEA1C4900FAAB
:1076C00006F3B1FBF9F8200C1FFA8CFE09FB181128
:1076D00040EA014108FB0EF0884202FA06F20BD99B
:1076E0001CEB010108F1FF3A80F08880884240F2EB
:1076F0008580A8F102086144091AA4B2B1FBF9F02F
:1077000009FB101144EA014100FB0EFE8E4508D929
:107710001CEB010100F1FF346CD28E456AD90238AE
:10772000614440EA0840A0FB0294A1EB0E01A14293
:10773000C846A64656D353D05DB1B3EB080261EB01
:107740000E0101FA07F722FA06F3F1401F43C5E9DB
:10775000007100263146BDE8F087C2F12003D84011
:107760000CFA02FC21FA03F3914001434FEA1C4753
:107770001FFA8CFEB3FBF7F007FB10360B0C43EA45
:10778000064300FB0EF69E4204FA02F408D91CEBF5
:10779000030300F1FF382FD29E422DD902386344F3
:1077A0009B1B89B2B3FBF7F607FB163341EA034193
:1077B00006FB0EF38B4208D91CEB010106F1FF38E2
:1077C00016D28B4214D9023E6144C91A46EA0046D9
:1077D00038E72E46284605E70646E3E61846F8E66B
:1077E0004B45A9D2B9EB020864EB0C0E0138A3E7B4
:1077F0004646EAE7204694E74046D1E7D0467BE795
:10780000023B614432E7304609E76444023842E70C
:10781000704700BF10B50C4641690369826986B0A4
:1078200001F26C71049101680391416802918168D1
:107830000191C1680091074903EB43030B440649DA
:1078400002EB42020A4420460449FEF701F82046B2
:1078500006B010BD327E0B001D7E0B00FD7D0B00BF
:10786000002301461A46184600F07AB8024B184425
:10787000407800F097007047EA7E0B000A4491427E
:1078800000F1FF3300D1704710B511F8014B03F838
:10789000014F9142F9D110BD02440346934200D1F9
:1078A000704703F8011BF9E738B5104B1D68AB6B47
:1078B0000446B3B91820FDF7B3FF0246A86320B908
:1078C0000B4B0C484221FDF7DBFF0B490B4BC0E98A
:1078D00000130B4B83600B23838100210120C2E93D
:1078E0000401AB6B00221C615A6138BDA8E503207E
:1078F000567E0B006D7E0B000E33CDAB34126DE661
:10790000ECDE050010F8012B11F8013B012A28BF1D
:107910009A42F7D0D01A7047034611F8012B03F8AA
:10792000012B002AF9D17047034613F8012B002AD6
:10793000FBD1181A0138704710B50139034632B12E
:1079400011F8014F03F8014B013A002CF7D11A440A
:107950000021934200D110BD03F8011BF9E700009C
:107960002DE9F843DFF8B8800646D8F800001F4636
:107970000D46914600F056F8254B1C6834B9254C4D
:107980001C60254B13B11B68C4F8883063681F2B3B
:1079900007DDD8F8000000F047F84FF0FF30BDE8F1
:1079A000F8834EB3D4F8880088B91C4B23B9D8F8B3
:1079B000000000F038F8F0E74FF48470FDF730FF76
:1079C0000028F4D00023C0E94033C4F8880063687D
:1079D00040F8239001229A4000EB8301D0F8003157
:1079E0001343C0F80031022EC1F8807002BFD0F8F6
:1079F00004311343C0F804316368D8F800005A1CFE
:107A00000233626044F8235000F00EF80020C6E70D
:107A1000E8E703205CE703200000000021580B008A
:107A20000CE60320704770477047000021400B00B0
:107A30005D400B0085400B0089400B0000000000FA
:107A40004465766963654944004461746554696DB1
:107A50006500254620255400424831373530004C1A
:107A6000696768745F6C6576656C286C7578290049
:107A7000534344333000434F322870706D29005413
:107A8000656D70657261747572652843290048756B
:107A90006D696469747928252900504D534130304F
:107AA0003349005374616E646172645F504D312ECE
:107AB00030005374616E646172645F504D322E35D4
:107AC000005374616E646172645F504D31300045E3
:107AD0006E7669726F6E6D656E74616C5F504D315C
:107AE0002E3000456E7669726F6E6D656E74616CD6
:107AF0005F504D322E3500456E7669726F6E6D6542
:107B00006E74616C5F504D3130004144435F56618B
:107B10006C75650064420056454D4C363037300078
:107B200055565F6C696768745F6C6576656C00506C
:107B300072657373757265286D626172290043689E
:107B400065636B20636F6E6E656374696F6E732E11
:107B5000204E6F20736C6176652061747461636878
:107B600065642E00547279696E6720746F20636FAC
:107B70006E6E65637420424831373530204C75781D
:107B80002053656E736F7200547279696E6720744A
:107B90006F20636F6E6E65637420424D45323830DE
:107BA000205054482053656E736F72005472796987
:107BB0006E6720746F20636F6E6E6563742053432D
:107BC00044333020434F322053656E736F72005A36
:107BD000696F205177696963204C6F75646E6573B6
:107BE000732053656E736F72204D617374657220DC
:107BF0004177616B6500000000000000000000009C
:107C0000BB400B00BD400B00B3400B00F5650B0003
:107C100064656661756C7420004D5342004C53429C
:107C2000003C53504953657474696E6773206465F2
:107C30006661756C743E003C5350495365747469B9
:107C40006E67732025732575202573204D4F44459D
:107C500025753E000000000000000000E9460B0012
:107C6000BB460B00BD460B000000000000000000FA
:107C70001F590B0015590B000B590B0001590B0034
:107C8000F5580B00E9580B00D1640B00D9640B00C8
:107C9000DD580B00D5580B00CB580B00C1580B001A
:107CA00009650B000008101820283038617070003A
:107CB0005A00252B3033643A253032750025592D72
:107CC000256D2D25645425483A254D3A2553257AAE
:107CD0000061736374696D650000000000000000BE
:107CE0000000000085600B0075600B0077600B00E2
:107CF00000000000000000006B610B00D3610B006E
:107D0000A9610B00955B0B009B610B006D610B0083
:107D10007D610B00CD610B008D610B0065610B0077
:107D200000000000000000006D620B00D9620B0033
:107D3000B1620B00955B0B0081620B009D620B0032
:107D40008F620B00AB620B006F620B0073620B0063
:107D5000000000000000000011630B005B630B00DB
:107D600033630B0013630B003B630B0043630B0097
:107D70004B630B0053630B00000000000000000089
:107D800073640B0069640B005F640B0015640B00E7
:107D900053640B0047640B00D1640B00D9640B00E3
:107DA0003B640B0033640B0029640B001F640B0061
:107DB00009650B00000000000000000091640B004A
:107DC0009B640B00A5640B00AF640B00B9640B004F
:107DD000C5640B00D1640B00D9640B00E1640B0097
:107DE000ED640B00F5640B00FF640B0009650B00EC
:107DF00025640025670075253034780000252E3372
:107E00007320252E337325336420252E32643A25C2
:107E10002E32643A252E32642025640A0053756E92
:107E20004D6F6E5475655765645468754672695335
:107E300061744A616E4665624D61724170724D6156
:107E4000794A756E4A756C4175675365704F6374F6
:107E50004E6F764465635245454E54206D616C6C9F
:107E60006F6320737563636565646564002F6D6E71
:107E7000742F776F726B73706163652F776F726B9E
:107E800073706163652F4743432D31302D706970E6
:107E9000656C696E652F6A656E6B696E732D4743FD
:107EA000432D31302D706970656C696E652D3438E5
:107EB0005F32303230313132345F31363036313842
:107EC000303634312F7372632F6E65776C69622F91
:107ED0006E65776C69622F6C6962632F7374646C72
:107EE00069622F72616E642E6300002020202020C2
:107EF000202020202828282828202020202020205A
:107F00002020202020202020202020881010101049
:107F1000101010101010101010101004040404049D
:107F200004040404041010101010101041414141C9
:107F300041410101010101010101010101010101B1
:107F400001010101010110101010101042424242C3
:107F50004242020202020202020202020202020281
:107F600002020202020210101010200000000000A5
:107F70000000000000000000000000000000000001
:107F800000000000000000000000000000000000F1
:107F900000000000000000000000000000000000E1
:107FA00000000000000000000000000000000000D1
:107FB00000000000000000000000000000000000C1
:107FC00000000000000000000000000000000000B1
:107FD00000000000000000000000000000000000A1
:107FE000000000000000000000000000F9450B0048
:107FF00029590B00A15A0B00855B0B00BD5C0B00DF
:10800000155F0B00315F0B007D640B00E1650B0019
:10801000040000001400000003000000474E55005B
:108020005E224A405BEA52FABB006AEF387D28FEC6
:048030003A7F13F888
:088034000CF5FF7F01000000C4
:04803C000000000040
:10804000D17C0B00ACE50320000000000000000024
:108050000000000000000000000000000000000020
:108060000000000000000000000000000000000010
:108070000000000000000000000000000000000000
:1080800000000000000000000000000000000000F0
:1080900000000000000000000000000000000000E0
:0C80A0000000000000000000ECE70320DE
:1080AC00FFFFFFFF00000102030405060708090A91
:1080BC000B0C0D0E0F101112131415161718191A8C
:0880CC001B1C1D1E1F202800D3
:0480D4007856341294
:04000003B0004020E9
:00000001FF
