:02000002B0004C
:1040000000400B009C870B00000006000C0005021E
:084010000401E50C00000000B2
:0440180018810B0000
:1040200009480A49884208B505D0094A824202D0A7
:10403000121A03F07DFF0748074A0021121A03F005
:1040400085FF014808BD00BF84E5032000870B0001
:10405000F8E50320F8E50320EDE7032070B5074EEF
:10406000074C02F0B9F8A41BA4080025AC4200D10B
:1040700070BD56F8043B98470135F7E7A0860B0062
:10408000C4860B0000F0E6BA08B500F005FABDE8FA
:10409000084002F059B801F027BC01F025BC01F03E
:1040A0002BBC0078B0FA80F0400970470123037000
:1040B000704713B504460846019103F0ACFF01991F
:1040C0000246204602B0BDE8104002F00BBF0000DF
:1040D0002DE9F84302F0E8FF302102F019FD02F06B
:1040E000E3FF0368DFF88C909B680521984702F096
:1040F000DBFF02F018FD02F0D7FF0222302102F0B0
:1041000004FD18A7D7E9006718A5D5E9004502F016
:10411000CBFF03681B69984700B302F0C5FF036833
:104120005B699847804602F0BFFF03685B69984768
:10413000C3B25FFA88F040EA0320A9F8000003F058
:104140002FF932463B4602F0DFFF2B46224603F0B2
:10415000BBFA03F0A1FB024B1860D8E7BDE8F88377
:1041600088E603207E1D386744CD5440A8C64B37EF
:1041700089012640F8E5032030B591B0A64AA74D45
:104180000392002340F2F312CDE906238DF810309C
:104190002B680590012B02D103A802F013FE01F059
:1041A0008CFF9F4B9F491B6800930246C31708A8CA
:1041B00001F024FF0A9A089903A802F093FE02F086
:1041C00001FE08A801F0F2FC974801F02DF997498B
:1041D00003A8FFF76EFF02F0F5FD954903A8FFF76E
:1041E00068FF0446904801F0D9F810EE100A03F079
:1041F000E9F841EC100B204602F002FE03A802F0A1
:10420000CBFD8C4800F0C1FF002836D08A4903A8B6
:10421000FFF74FFF02F0D6FD884903A8FFF749FFDB
:104220000446844801F011F80146204602F0D6FD0C
:10423000834903A8FFF73DFF04467E4801F020F8BC
:1042400010EE100A03F0BEF841EC100B204602F00D
:10425000D7FD7C4903A8FFF72CFF0446754801F001
:1042600004F810EE100A03F0ADF841EC100B2046F4
:1042700002F0C6FD03A802F08FFD734903A8FFF703
:1042800018FF02F09FFD714903A8FFF712FFBDF868
:10429000221002F0A3FD6E4903A8FFF70AFFBDF844
:1042A000241002F09BFD6B4903A8FFF702FFBDF845
:1042B000261002F093FD684903A8FFF7FAFEBDF847
:1042C000281002F08BFD654903A8FFF7F2FEBDF848
:1042D0002A1002F083FD624903A8FFF7EAFEBDF849
:1042E0002C1002F07BFD03A802F056FDFFF7F0FE54
:1042F0005C4903A8FFF7DDFE02F064FD5A4903A8FC
:10430000FFF7D7FE594B198802F068FD584903A8FA
:10431000FFF7CFFE574B0446186803F053F841EC03
:10432000100B204602F06CFD03A802F035FD524947
:1043300003A8FFF7BEFE02F045FD504903A8FFF7B2
:10434000B8FE04464E4800F0C0FE0146204602F08A
:1043500045FD03A802F020FD4A4903A8FFF7A9FE86
:1043600002F030FD484903A8FFF7A3FE0446474882
:1043700000F050FDDFED467AC0EE277A17EE900A86
:1043800003F020F841EC100B204602F039FD2D49D6
:1043900003A8FFF78EFE04463C4800F0F1FC10EE47
:1043A000100A03F00FF841EC100B204602F028FD34
:1043B000234903A8FFF77DFE0446344800F0B0FC13
:1043C00010EE100A02F0FEFF41EC100B204602F046
:1043D00017FD03A802F0E0FC03A802F0DDFC2D4B62
:1043E0002A681B689A4202D103A802F0D5FCDDE9D5
:1043F0000623934228BF1346059A0021D15402F0A8
:104400008BFA079904460A2201F0EDFC204601F0E0
:10441000D4FC11B030BD00BFA0840B0084E60320A3
:104420008CE50320CCE6032038E603202C810B002A
:1044300033810B00FCE503203D810B0043810B0021
:104440004B810B0052810B0057810B0060810B00E8
:104450006A810B0074810B007D810B0087810B004A
:1044600091810B009A810B00A0810B00F8E50320DD
:10447000A8810B0088E60320AB810B00B4810B0000
:104480009CE60320BB810B00C2810B0040E60320A9
:104490000000C84284E503207FB501F005FA08B9A1
:1044A00001F0FAF90121072002F07BFD274E284C8C
:1044B0004FF4FA7001F018FA33680546013333609F
:1044C000FFF75AFE2946204601F0F8FB02F024FAD5
:1044D000216801F07EFC02F01FFA1E4901F079FC10
:1044E0001D4B32681B689A4221D11C4B1C491B781A
:1044F0008DF8003022683C2302A801F0CBFF039C1A
:104500007CB16368013B63605BB9236820469B68AC
:104510009847A368013BA3601BB923682046DB686A
:10452000984700230B490A48336001F09EFB284658
:1045300001F0E2F90021072002F033FD4FF6E850C8
:1045400004B0BDE8704001F0D3BD00BF84E6032095
:104550008CE60320D0840B0084E50320FAE50320D9
:10456000C9810B0008B502F09FFD302102F0D0FA9E
:1045700002F09AFD02F0D7FA28B102F0CDF9024913
:1045800001F027FCFEE708BDD5810B0038B5284CAB
:10459000284800F0F8FE48B94FF4FA7001F0A8FD81
:1045A00002F0BAF9214601F014FCF1E72148224D4E
:1045B000224C232100F023FF284600F054FD88B14F
:1045C0001F4C02F071FD01461E4800F0C0FE98B974
:1045D0004FF4FA7001F08CFD02F09EF9214601F0D3
:1045E000F8FBEEE74FF4FA7001F082FD02F094F967
:1045F000214601F0EEFBDFE712483C2100F0A2FE6D
:104600000121104800F090FE02F04EFD01460E48D8
:1046100000F060F8FFF7A6FF02F07EF90B4901F009
:10462000D8FBBDE838400A48012100F02FBD00BF8B
:10463000FB810B0038E6032040E603201F820B00BD
:1046400043820B00FCE5032010E6032066820B008A
:104650009CE6032008B502F027FD02F027FA0121AD
:10466000072002F08DFC02F057F94FF4165102F0CA
:1046700047F9BDE80840FFF789BF000008B50C4BBB
:1046800000221A7002F010FD23210246094800F0B2
:1046900075FE094800F0A0F8084800F03EFD084803
:1046A00000F014F8BDE808400649074801F0C9BA0F
:1046B000FAE5032038E6032040E60320FCE503206A
:1046C00010E60320D0840B008CE603200022C0E912
:1046D0000022704737B50368044653B91020019192
:1046E000FFF7D9FC054618B1019A122100F008F82D
:1046F00025602068012103B0BDE8304000F01CB8FF
:1047000042600022027220220170C260704710B520
:10471000037A044653B12178606802F0F9F96068C1
:1047200002F001FAB0FA80F0400910BD012100F05A
:1047300003F80028EFD1F8E738B5044640680D4685
:1047400002F0B4F90120207225B12046BDE83840BE
:10475000FFF7DDBF38BD704710B510210446FFF7E5
:104760009EFC204610BD0EB403B503AB002153F8E8
:10477000042B019301F055FB02B05DF804EB03B08C
:104780007047000073B5044608462279A36832B129
:10479000A3B90B4902B0BDE8704001F007BB094A5C
:1047A000267B094D0949647B012E18BF2946CDE9B6
:1047B00000140749FFF7D7FF02B070BD054AEFE7C5
:1047C0009E820B00D0840B009A820B0096820B0015
:1047D000B4820B008D820B004FF0FF3303617047F2
:1047E00013B50B4C2178BFF35B8F11F001010BD196
:1047F00020460191FFF755FC019928B1054801F0C9
:1048000017F92046FFF752FC024802B010BD00BF66
:10481000A0E60320A4E6032008B5FFF7E1FFBDE80A
:10482000084001F023B907B50190FFF7D9FF0199BE
:1048300003B05DF804EB01F033B92DE9F04190F9D4
:104840001330013305460F4606D1FFF7C9FF39463D
:10485000BDE8F04101F092B9002407264FF00108AD
:1048600095F91300002180B202F09BFB95F911002D
:1048700008FA06F1394080B202F093FB95F9130073
:10488000012180B202F08DFB95F91200640080B224
:10489000E4B202F09FFB08B144F00104013EDFD214
:1048A0002046BDE8F08100007FB590F9103001335B
:1048B00004460E46154613D10179006802F028F926
:1048C0002068036831469B6898472068036829463A
:1048D0009B689847206804B0BDE8704002F023B997
:1048E00090F9133001330CD1164B009300238DF84F
:1048F0000430154B029368460123ADF80C30FFF7E6
:1049000092FF94F91000002180B202F04AFB06F0F9
:104910007F012046FFF791FF29462046FFF78DFFD4
:1049200094F91000012180B202F03BFB94F913309E
:10493000013304D104B0BDE87040FFF76DBF04B08F
:1049400070BD00BFDC820B0020A10700F8B5DB00C2
:1049500002F0070203F03803134343EA81139DF882
:10496000186080F83C3090F840309DF81C509DF85D
:10497000207066F3471380F84030ED0090F838302F
:1049800007F0070705F0380523F03F033D430446D1
:104990001D4380F8385006F00702F221FFF784FF2C
:1049A00094F83820C2F3C20302F007019B0043EAE7
:1049B000411343EAD2122046F521FFF775FF94F820
:1049C0003C20C2F3C20302F007019B0043EA4113FB
:1049D00043EA92122046F421BDE8F840FFF764BF95
:1049E00030B590F91030013385B004460D4618D12A
:1049F0000179006802F08CF82068036829469B68FA
:104A00009847206802F08FF821792068012202F08F
:104A10007CF8206803685B699847C5B2284605B0F2
:104A200030BD90F9133001330CD1154B00930023A6
:104A30008DF80430134B029368460123ADF80C3017
:104A4000FFF7F1FE94F91000002180B202F0A9FAFC
:104A500045F080012046FFF7F0FE00212046FFF7D9
:104A6000ECFE054694F91000012180B202F099FA9B
:104A700094F913300133D1D1FFF7CEFECEE700BF5A
:104A8000DC820B0020A1070008B5F321FFF7A8FF87
:104A900000F0010008BD000030B590F9103001337E
:104AA00085B004460D461FD10179006802F030F848
:104AB0002068036829469B689847206802F033F80D
:104AC00021792068022202F020F8206803685B69DF
:104AD00098470546206803685B69984740EA0520C7
:104AE00085B2284605B030BD90F9133001330CD1A2
:104AF000184B009300238DF80430174B029368463F
:104B00000123ADF80C30FFF78EFE94F91000002160
:104B100080B202F046FA45F080012046FFF78DFE94
:104B200000212046FFF789FE002105462046FFF7B9
:104B300084FE40EA052085B294F91000012180B27C
:104B400002F02FFA94F913300133CAD1FFF764FE53
:104B5000C7E700BFDC820B0020A1070008B5FFF704
:104B60009BFF40BA80B208BD38B588210446FFF7E4
:104B7000F5FF8A21A0822046FFF7F0FF8C21E0821A
:104B80002046FFF7EBFF8E2120832046FFF7E6FF4C
:104B9000902160832046FFF7E1FF9221A083204609
:104BA000FFF7DCFF9421E0832046FFF7D7FF962133
:104BB00020842046FFF7D2FF982160842046FFF72B
:104BC000CDFF9A21A0842046FFF7C8FF9C21E084F6
:104BD0002046FFF7C3FF9E2120852046FFF7BEFF3A
:104BE000A12160852046FFF7FBFEE12184F82C001F
:104BF0002046FFF7B3FFE321E0852046FFF7F0FEF4
:104C0000E42184F830002046FFF7EAFEE52105465E
:104C10002046FFF7E5FE00F00F0343EA051060862B
:104C2000E6212046FFF7DCFEE52105462046FFF79A
:104C3000D7FEC0F3071343EA0510A086E7212046FC
:104C4000FFF7CEFE84F8360038BD000030B590F98D
:104C50001030013385B004460D4623D10179006838
:104C600001F056FF2068036829469B689847206832
:104C700001F059FF21792068032201F046FF2068E6
:104C800003685B6998470502206803685B69984779
:104C900028430502206803685B6998470543284656
:104CA00005B030BD90F9133001330CD11A4B00938D
:104CB00000238DF80430194B029368460123ADF8A8
:104CC0000C30FFF7B0FD94F91000002180B202F023
:104CD00068F945F080012046FFF7AFFD002120462E
:104CE000FFF7ABFD002105022046FFF7A6FD284394
:104CF000050200212046FFF7A0FD054394F91000AE
:104D0000012180B202F04DF994F913300133C6D17C
:104D1000FFF782FDC3E700BFDC820B0020A1070084
:104D200010B5FA210446FFF791FFB0F5000F1FD030
:104D3000A18A9FED117A4B00C1EB2022C3EBE01159
:104D4000B4F91630594302FB02F3B4F918201B13CF
:104D500053439B1303EBE123E36003EB83038033B3
:104D60001B1207EE903AF8EEE77A87EE870A10BD3D
:104D70009FED020AFBE700BF0000C8420000C07FB1
:104D800038B50446FFF7CCFFFD212046FFF784FE2F
:104D9000B0F5004F38D0E168B4F93420A1F596356C
:104DA000B4F932100905C1EB803305FB123303F56A
:104DB0008043DA1394F8303094F936106B43DB12E9
:104DC0006943891203F500434B439B12B4F92E103B
:104DD00003F500134B4303F500539B135343DA13BE
:104DE00094F82C105243D2114A43A3EB221323EA26
:104DF000E373B3F1C85FA8BF4FF0C8531B1300EEB5
:104E0000103ABAEECB0A38BD9FED010AFBE700BFAE
:104E10000000C07F2DE9F8430546FFF781FFF72129
:104E20002846FFF713FFB0F5000F00F0B680E968E1
:104E3000B5F91C304FEAE17EB1F5FA314EF1FF3E93
:104E4000DC1703FB0EF201FB0422A3FB0134224416
:104E50001203A1FB01781C0301FB0EF642EA135278
:104E6000B5F91E3008EB46084FEAE37C03FB08F671
:104E700007FB0C66A3FB073C66441B0A43EA066378
:104E80001B1942EB26226E8B02F50042A3FB06346F
:104E900006FB0244E317621053EA64044FF0000C6F
:104EA0007ED0B5F9244004FB08F64FEAE47907FB0D
:104EB0000966A4FB07473E44B5F922704FEAE7783C
:104EC00007FB0EFE01FB08EEA7FB017171444904CC
:104ED00041EAD73100117F043F19C0F5801446EB39
:104EE000010604F00040B5F920101CEB070740EA6A
:104EF0005400E407E41B06EBC10640F6354160EBC5
:104F00000606A4FB010401FB064102F023FEB5F9ED
:104F10002A20B5F928604FEA613C430B43EAC143BC
:104F200002FB0CF7D41703FB0477A2FB03243C44D9
:104F300002FB0CF703FB0477A2FB03231F44530E71
:104F400043EAC7131B184FEAE67206FB01F48646D4
:104F500041EB676702FB0041A6FB0E06B5F9264050
:104F60003144C00C40EA413018184FEAE47547EB71
:104F7000E141000A2D0140EA016045EA147524016F
:104F8000201845EB212102F0A7FD9FED070A07EE4F
:104F9000900A27EE800ABDE8F8839FED040AFAE73D
:104FA0009FED030AF7E700BF0000803B0000C07FD1
:104FB0000000000030B5044690F91000421C85B096
:104FC00019D1206801F072FDD0212046FFF708FDBD
:104FD0006028A06045D12046B622E021FFF764FC9E
:104FE0004FF4967001F084F82046FFF74DFD05461A
:104FF00028B36420F6E7012180B201F0D2FF94F9D2
:105000001000012180B201F0BBFF94F91300431C92
:1050100004D1FFF7E5FB00F015FDD5E7012180B2D3
:1050200001F0AEFF94F91100012180B201F0A8FF58
:1050300094F91200002180B201F0A2FFC4E72046DB
:10504000FFF792FD052300931A4603212046CDE980
:105050000155FFF77BFC642001F04AF8012005B000
:1050600030BD0020FBE7772310B50371044602F042
:105070001BF820602046FFF79DFF30B9762323718F
:105080002046BDE81040FFF795BF10BD10B50C4697
:1050900002F00AF801F00AFD02F006F8382101F0EA
:1050A0003BFD02F001F8A100036841F002019B689A
:1050B00001F0FE01984701F0F7FF01F034FDBDE873
:1050C00010404FF4FA7001F013B838B501F0ECFF5E
:1050D0000122392101F019FD0128044602D04FF6C2
:1050E000FF7038BD01F0E0FF03685B699847054633
:1050F00001F0DAFF2246382101F007FD0128EED148
:1051000001F0D2FF03685B69984740EA052080B24E
:10511000E7E70368C9B29B681847002242608260D3
:10512000C26040F20112028201228274704738B5D7
:1051300004460D460068612101F0EEFC2068290A52
:10514000FFF7E7FF2068E9B2FFF7E3FF206801F00F
:10515000EAFC08B1002038BD20680222612101F07C
:10516000D4FC206803681B6998470028F2D02068A7
:1051700003685B6998470546206803685B69984740
:10518000C3B243EA052080B2E5E708B540F2022148
:10519000FFF7CDFF431E5842584108BD2DE9F843A3
:1051A0000446FFF7F2FF074618B900273846BDE866
:1051B000F8832068612101F0AFFC20680321FFF72C
:1051C000A8FF20680021FFF7A4FF206801F0ABFCD6
:1051D00005460028E9D112226121206801F095FCE2
:1051E000206803681B699847064658B3A8462E46B0
:1051F000A946206803685B699847EBB2102B0DD86D
:10520000DFE803F009090C09090C18180C18180C30
:105210001C1C0C1C1C00C3B243EA09290135122DC9
:10522000E7D10023C4F80490A660C4F80C80238260
:10523000A374BBE7C3B243EA0626EFE7C3B243EA6F
:105240000828EBE780468146EBE710B5037C04466F
:105250000BB1FFF7A3FFD4ED017AFCEEE77A01234F
:10526000237417EE903A98B210BD10B5437C0446F3
:105270000BB1FFF793FF012394ED030A637410BD94
:1052800010B5837C04460BB1FFF788FF012394ED32
:10529000020AA37410BD0A44FF208A4211D011F8FB
:1052A000013B5840082310F0800F03F1FF334FEA11
:1052B000400018BF80F0310013F0FF03C0B2F2D1FC
:1052C000EBE770472DE9F3410E464FEA12281546E9
:1052D0008DF8052001A9022204468DF80480FFF70D
:1052E000DAFF61210746206801F016FC2068310AC8
:1052F000FFF70FFF2068F1B2FFF70BFF2068414670
:10530000FFF707FF2068E9B2FFF703FF2068036893
:1053100039469B689847206801F005FCB0FA80F098
:10532000400902B0BDE8F0810A4601B1012245F210
:105330000631FFF7C7BF0A461021FFF7C3BF0021A0
:10534000FFF7F9BF0A464FF48C41FFF7BBBF38B5F2
:1053500004460846216001F0A9FB2046FFF7EFFF55
:10536000054648B102212046FFF7ECFF012245F235
:1053700006312046FFF7A6FF284638BD42601122BD
:1053800041700270704710B50446406801F0CEFBD2
:1053900010B9606801F08AFB012010BD70B50546A8
:1053A0004178406801F0B4FB69786868022201F036
:1053B000ACFB686803685B699847064668680368E1
:1053C0005B699847044644EA06246868A4B201F081
:1053D000AAFB07EE904A9FED030AF8EE677A87EE84
:1053E000800A70BD9A99993F0378232B05D0132B1F
:1053F0000CBF1820B42000F07BBE1820FBE738B5A6
:1054000004460D464178406801F082FB60680368FD
:1054100029469B689847606801F085FB2570204607
:10542000BDE83840FFF7E0BF10B50378A3F12002D4
:10543000012A044601D9232B10D16178606801F05C
:1054400067FB6068217803689B689847606801F093
:105450006AFB2046BDE81040FFF7C6BF10BD000044
:1054600008B5024B1B689B68019308BD68020300E6
:1054700008B5024B1B68DB68019308BD6802030096
:1054800008B5024B1B689B68019308BD2C02030002
:1054900008B5024B1B68DB68019308BD2C020300B2
:1054A00008B5024B1B681B69019308BD2C02030061
:1054B00008B5024B1B685B69019308BD2C02030011
:1054C00008B5024B1B685B68019308BD1802030016
:1054D00008B5024B1B685B69019308BD1802030005
:1054E00008B5024B1B689B6D019308BD18020300B1
:1054F00008B5024B1B685B6E019308BD18020300E0
:1055000008B5024B1B685B6C019308BD48020300A1
:1055100008B5024B1B685B69019308BD6402030078
:1055200008B5024B1B68DB68019308BD3C02030011
:1055300008B5024B1B681B69019308BD3C020300C0
:1055400008B5024B1B685B69019308BD3C02030070
:1055500008B5024B1B689B69019308BD3C02030020
:1055600008B5024B1B68DB69019308BD3C020300D0
:1055700008B5024B1B681B6A019308BD3C0203007F
:1055800008B5024B1B689B6A019308BD3C020300EF
:1055900008B5024B1B681B6C019308BD3C0203005D
:1055A00008B5024B1B68DB68019308BD28020300A5
:1055B00008B5024B1B689B69019308BD28020300D4
:1055C00008B5024B1B68DB69019308BD2802030084
:1055D00008B5024B1B681B6A019308BD2802030033
:1055E00008B5024B1B685B6A019308BD28020300E3
:1055F00008B5024B1B689B6A019308BD2802030093
:1056000008B5024B1B68DB6A019308BD2802030042
:1056100008B5024B1B681B6B019308BD28020300F1
:1056200008B5024B1B685B6B019308BD28020300A1
:1056300008B5024B1B681B6C019308BD28020300D0
:1056400008B5024B1B681B6D019308BD28020300BF
:1056500008B5024B1B681B68019308BD30020300AC
:1056600008B5024B1B685B69019308BD300203005B
:1056700008B5024B1B68DB69019308BD30020300CB
:1056800008B5024B1B681B6A019308BD300203007A
:1056900008B5024B1B685B6A019308BD300203002A
:1056A00008B5024B1B68DB6B019308BD3002030099
:1056B00008B5024B1B681B6C019308BD3002030048
:1056C00008B5024B1B685B6C019308BD30020300F8
:1056D00008B5024B1B681B68019308BD4C02030010
:1056E00008B5024B1B685B68019308BD4C020300C0
:1056F00008B5024B1B681B69019308BD4C020300EF
:1057000008B5024B1B685B69019308BD4C0203009E
:1057100008B5024B1B689B69019308BD4C0203004E
:1057200008B5024B1B68DB69019308BD4C020300FE
:1057300008B5024B1B681B6A019308BD4C020300AD
:1057400008B5024B1B681B68019308BD20020300CB
:1057500008B5024B1B685B68019308BD200203007B
:1057600008B5024B1B685B69019308BD200203006A
:1057700008B5024B1B68DB6C019308BD20020300D7
:1057800008B5024B1B685B6D019308BD2002030046
:1057900008B5024B1B689B6D019308BD20020300F6
:1057A00008B5034B1B68D3F88830019308BD00008F
:1057B0002002030008B5034B1B68D3F89430019313
:1057C00008BD00002002030008B5024B1B685B689F
:1057D000019308BD4002030008B5024B1B689B689B
:1057E000019308BD4002030008B5024B1B68DB684B
:1057F000019308BD4002030008B5024B1B681B69FA
:10580000019308BD4002030008B5024B1B685B69A9
:10581000019308BD4002030008B5024B1B689B6959
:10582000019308BD4002030008B5024B1B68DB6909
:10583000019308BD4002030008B5024B1B681B6AB8
:10584000019308BD4002030008B5024B1B681B6BA7
:10585000019308BD4002030008B5024B1B685B6B57
:10586000019308BD4002030008B5024B1B681B6C86
:10587000019308BD4002030008B5024B1B685B6C36
:10588000019308BD4002030008B5024B1B689B68EA
:10589000019308BD4402030008B5024B1B68DB6896
:1058A000019308BD4402030008B5024B1B685B6905
:1058B000019308BD4402030008B5024B1B681B6A34
:1058C000019308BD4402030008B5024B1B681B6B23
:1058D000019308BD4402030008B5024B1B68DB6B53
:1058E000019308BD4402030008B5024B1B681B6806
:1058F000019308BD1C02030008B5024B1B685B68DE
:10590000019308BD1C02030008B5024B1B689B688D
:10591000019308BD1C02030008B5024B1B681B69FC
:10592000019308BD1C02030008B5024B1B68DB692C
:10593000019308BD1C02030008B5024B1B685B6A9B
:10594000019308BD1C02030008B5024B1B68DB6A0B
:10595000019308BD1C02030008B5024B1B681B6BBA
:10596000019308BD1C02030008B5024B1B681B6CA9
:10597000019308BD1C02030008B5024B1B685B6C59
:10598000019308BD1C02030008B5024B1B689B6C09
:10599000019308BD1C02030008B5024B1B68DB6CB9
:1059A000019308BD1C020300002240681146FFF766
:1059B00043BF002240681146FFF74EBF40680022F7
:1059C000FFF742BF4068002281F00101FFF72CBFC2
:1059D000002340681A461946FFF71EBF002340689F
:1059E0001A461946FFF710BF002240681146FFF71C
:1059F00003BF002240681146FFF7EEBE4068002258
:105A00000221FFF7F1BE002340681A46FFF7DCBE13
:105A1000024B03225A60024A1A607047ACE6032028
:105A2000F0820B000021FFF74BBE0021FFF740BEC4
:105A300010B5044608462170FFF71AFE0023636084
:105A4000204610BD13B504460078FFF7EEFF58B9A5
:105A5000207801904FF6FF71FFF7FAFD019802B030
:105A6000BDE81040FFF7DEBF02B010BD0078FFF7C1
:105A7000D9BF0000400830B518600024186888427B
:105A8000E5B206D90134082C02D040081860F5E7C9
:105A90000725024B5B5D137030BD00BF24830B00F4
:105AA0002DE9F04306468FB000780C46FFF7BDFFA6
:105AB00000281BDB35781422002109A802F046FAE1
:105AC0000B23002209A92846ADF82430FFF7E0FD9A
:105AD0009DF82D3013B19DF82C5055B10027B946D3
:105AE000B846012523795DB1C3B100200FB0BDE8F0
:105AF000F083DDF830809DF834909DF83570F1E743
:105B0000002B35D1A368434508D18DF820908DF83E
:105B10002170BDF82020A3899A42E6D00023A16815
:105B20008DF80F300A9804AB0DF10F02FFF7A2FFBA
:105B3000217985B989B9A36843450ED38DF82090A2
:105B40008DF82170BDF82020A3899A4205D1049BCD
:105B5000434502D1C9E70029F9D100230193637BB2
:105B600000939DF80F20237B3078FFF799FDBCE769
:105B7000CDE900552B462A460121F5E708B5007806
:105B8000FFF76EFDC0B208BD054B02221A60054B3F
:105B9000054A9A600020C3E90000FFF7D9BD00BFA5
:105BA000C0E60320B4E603200000FFFF10B5044662
:105BB0000068FFF7A1FE204610BD10B5044600683E
:105BC00008B1FFF799FE0023C4E90133236010BD3B
:105BD00038B504460D4600680131FFF795FE10B157
:105BE000C4E90005012038BD10B50368044623B19F
:105BF00043688B4201D3012010BD2046FFF7E8FF28
:105C00000028F9D0A368002BF5D122681370F2E7C1
:105C100037B50D46114601920446FFF7E5FF019A9C
:105C200028B92046FFF7C9FF204603B030BDA26067
:105C30002946206802F07CF92268A3680021D1542B
:105C4000F2E7002313B5C0E9003304468360037311
:105C500041B10846019102F0DEF901990246204661
:105C6000FFF7D6FF204602B010BD13B5044659B168
:105C70000846019102F0CFF9019902462046FFF74C
:105C8000C7FF204602B010BDFFF797FFF9E770B5D8
:105C900005460E4609B9002070BD6AB184681444F7
:105CA0002146FFF7A1FF0028F5D02868AB683146F0
:105CB000184402F08BF9AC600120EDE713B50446FF
:105CC000084651B1019102F0A6F901990246204619
:105CD00002B0BDE81040FFF7DABF02B010BD10B54A
:105CE0008368044613B1032201469847204610BD3D
:105CF00010B54368013B0446436063B903689B6881
:105D00009847A368013BA3602BB923682046DB6852
:105D1000BDE81040184710BD10B50446006808B132
:105D2000FFF7E6FF204610BD13B50B460246D0E94B
:105D300000016C4684E8030093E8030082E8030056
:105D400094E8030083E8030002B010BD024800237A
:105D50000360FFF7D5BB00BFC4E60320F8B50646D5
:105D60000D468F180024BD420CD0336815F8011B76
:105D70009B6830469847031E01DB1C44F3E7002C68
:105D800008BF1C462046F8BD13B50446084659B165
:105D9000019102F040F923680199DB680246204630
:105DA00002B0BDE81040184702B010BD08B5FFF7BB
:105DB000EBFF08BD03689B68184738B50D21054601
:105DC000FFF7F8FF0A2104462846FFF7F3FF2044B7
:105DD00038BD38B50546FFF7D7FF04462846FFF71C
:105DE000ECFF204438BD30B58BB00023012A8DF87C
:105DF000243098BF0A2209AC0D46B1FBF2F101FB39
:105E0000125303F0FF03092B94BF30333733DBB257
:105E1000AA4204F8013DEFD92146FFF7B5FF0BB0C8
:105E200030BD2DE9F04186B000AF05460E46381D65
:105E3000142114463B60FFF77FFD13280ED8391D4F
:105E40002846FFF7A1FF04461EB12846FFF7B5FF1D
:105E5000044420461837BD46BDE8F08100F1080330
:105E600023F00703E846ADEB030D2246411C3B68D7
:105E70006846FFF761FD69462846FFF785FF04463F
:105E8000C546E1E7014B024A1A607047C8E60320A5
:105E90002C830B0008B50020FFF716FD28B1FFF793
:105EA00003FD80F00100C0B208BD0120FCE7000046
:105EB00030B593B0CDE90023194B0446D3E9001067
:105EC000019B521843EB00031648D0E9001052180A
:105ED00043EB0003CDE9002324220DEB0200002157
:105EE00002F034F8002509A96846FFF755FD16228F
:105EF000294603A8029502F029F802A909A801F091
:105F0000E3FF02A802F087F812AB184402A900F8D8
:105F1000415C2046FFF795FE204613B030BD00BF20
:105F2000E0E60320D8E603202DE9F047A4B00746B9
:105F3000884614A811463F221C4602F074F800233C
:105F400014A88DF88F3002F066F805464CBB29493D
:105F500003A802F03BF814AC002605F1FF39B14567
:105F600034D92378252B06F1010A17D163787A2BCF
:105F700014D103A802F04FF814AB054630181844AA
:105F8000A9EB0602A11C01F0D3FF2A4603A9204673
:105F900001F0CEFF14A802F03EF805460134564643
:105FA000DBE73C2394FBF3F2002AB8BF5242B2FB7A
:105FB000F3F103FB112200924FF461630E4A94FB4C
:105FC000F3F3102103A8FFF7AFFCC4E700212E2252
:105FD00008A8079101F0BAFF434614AA322107A886
:105FE000FFF7D2FC07A93846FFF72BFE384624B04E
:105FF000BDE8F08730830B0032830B00F0B58DB025
:10600000CDE90023129D044615B9194B1D682DB129
:10601000184B2846196801F0CFFF38B9DDE9002395
:106020002046FFF745FF20460DB0F0BD124E009907
:10603000124FD6E900325B18019942EB0102D7E911
:1060400000011B1842EB0102CDE90032002124229D
:1060500003A801F07BFF03A96846FFF79DFC3268A7
:106060003B6803A9134420462A46FFF75DFFDAE7A1
:10607000D0E6032088E50320E0E60320D8E60320ED
:1060800010B50020FFF72CFA0446A0B9FFF758FB23
:10609000012810D12046FFF77BFB60B9FFF7FAFE1D
:1060A00010B9FFF7F1FBF9E7FFF7F4FEBDE8104088
:1060B0000020FFF715BA204610BD1FB5FFF7E0FF1F
:1060C00010220021684601F041FF00216846FFF7D9
:1060D0000FFA009805B05DF804FB0000024B1A6847
:1060E000024B1A60704700BF88E50320D0E603200A
:1060F0000021FFF735BB0000014B00229A6070477A
:10610000E8E60320014B1860704700BF90E50320CC
:1061100008B50B4B43B100F0FFFB03681B699847C0
:10612000002801DDAFF30080064B43B100F080FF93
:1061300003681B699847002801DDAFF3008008BDA4
:10614000000000000000000008B5FFF7E1FFFFF7C6
:10615000BFF9014B186008BD40E703200548064A17
:10616000064908B5121A01F0E3FE054B054A1A600C
:1061700008BD00BF00F4032004F40320FC860B00DC
:1061800000F403201E1C279A07B5002300931A462B
:106190006FF07701FFF70EFB03B05DF804FB000022
:1061A00007B543880A2B08D0502B0BD1094B1B682D
:1061B0004BB103B05DF804EB1847FFF7E5FF03B000
:1061C0005DF804FB002300931A466FF07701FFF798
:1061D000F1FAF4E7FCE6032010B512480021FFF7BE
:1061E000CBFB114B1A68114B9A42114B0CBF012289
:1061F00000221A7001D0FFF7B1FFFFF761F90446E2
:1062000001F0ACFE0B4B13B12046AFF30080002130
:106210000848FFF761FBBDE8104007480021FFF781
:10622000BFBA00BF05610B0000F403201E1C279AB3
:10623000F8E6032000000000A1610B007047002079
:10624000704710B510210446FDF729FF204610BD08
:1062500008B5FFF7F6FF08BD30B500224FF69C7475
:10626000026084808D888C800C68858004600A6060
:1062700030BD10B504460068FFF73EFB204610BD58
:1062800038B5C468F4B12378022B03D104F10C00B3
:10629000FFF7EFFF656835B12846FFF720FD1021B5
:1062A0002846FDF7FCFEA56835B12846FFF717FD27
:1062B00010212846FDF7F3FE20461421BDE83840A2
:1062C000FDF7EDBE38BD0B6803604B68436013B14A
:1062D0005A6801325A60704737B5044668460D4621
:1062E000FFF7F1FF009B019A23606260002301A881
:1062F00001930093FFF710FD35B1281DFFF70CFD4A
:1063000008212846FDF7CBFE204603B030BD826849
:1063100010B50AB900F0EEFEBDE81040C36818479A
:1063200008B5006800F11001FFF7F1FF08BD8268B1
:1063300010B50AB900F0DEFEBDE81040C36818478A
:1063400008B5006800F11001FFF7F1FF08BD00007B
:1063500038B500230446036010200D46FDF79BFE70
:1063600028B10123C0E90133024B0360C5602060FE
:10637000204638BD64830B0038B5002383608B68EA
:1063800004460D462BB102229847EB68E360AB68E8
:10639000A360204638BD0000F0B589B004686846A7
:1063A000FFF75AFF4FF00203D4E84F2F002A03D122
:1063B000C4E8413F0029F7D125D104F10C05694615
:1063C0002846FFF749FFBFF35B8F0123637000206E
:1063D00004F10803BFF35B8F53E8006F43E800024A
:1063E000002AF9D1BFF35B8F6EB1FFF7C1F978B125
:1063F00029463046FFF78BFF3046FFF770FC10212F
:106400003046FDF74CFE6846FFF733FF09B0F0BD9C
:10641000314602A8FFF7B0FFE068B4F9105008B1A8
:1064200001F0DCFD06901020ADF81C50FDF733FEA6
:106430000546E8B1002787601820FDF72CFE0446CA
:1064400088B10146876002A8FFF76EFC049BA26832
:10645000A360059B049206A9E268E36004F11000C2
:106460000592FFF7F9FE084BEB60084B2C60AB6020
:1064700006A8FFF7FEFE02A8FFF731FC002229461E
:106480000348FFF77DF9B7E721630B00A5650B0013
:10649000096A0B002DE9F04F8BB005469DF850A01E
:1064A0000F4690469946FFF7FFF907AE834638BB83
:1064B0004FF62E73059005A93046ADF81830FFF75A
:1064C000CBFE1420FDF7E7FD044648B1022303701C
:1064D0000123C0E901BB437031460C30FFF7BCFE1D
:1064E0002846214640F8044BFFF732FF3046FFF7BD
:1064F000C0FE05A8FFF7BDFE28460BB0BDE8F08F33
:106500000C2300241420CDE908440793FDF7C3FDB4
:10651000014618B1C0E901440470447004A8039115
:10652000FFF716FF1E4B08930820FDF7B4FD044645
:1065300010B103A9FFF7C7FE00965FFA8AF34A4637
:10654000414638460994FFF7B7F9B8B9039B5B7821
:1065500003F0FF0293B94FF69C7305A903A80592B7
:10656000ADF81830FFF718FF05A8FFF782FE05A861
:106570000999FFF7B1FE06A8FFF7CEFB03A905A80E
:10658000FFF7A1FE059B069A2B606A60002306A810
:1065900006930593FFF7C0FB04A8FFF7BDFBABE72D
:1065A00021660B00012AF8B5054603D10B6803608C
:1065B0000020F8BD022A10D0032AF9D10468002C6B
:1065C000F6D004F11000FFF754FE2046FFF787FBDA
:1065D00018212046FDF763FDEAE718200E68FDF755
:1065E0005AFD044650B13146FFF7C6FE3069B6F990
:1065F000147008B101F0F2FC2061A7822C60D7E78B
:1066000038B5002383608B6804460D462BB1022207
:106610009847EB68E360AB68A360204638BD000094
:10662000F0B589B004460D4601A81146FFF754FEA7
:10663000A4B124B21DB1284601F0D0FC054601A842
:1066400003A90395ADF81040FFF7A6FE03A8FFF7D6
:1066500010FE02A8FFF760FB09B0F0BD019D012309
:10666000D5E84F2F002A03D1C5E8413F0029F7D1D3
:10667000EFD12B73BFF35B8F6B702B1DBFF35B8F61
:1066800053E8006F43E80042002AF9D1BFF35B8F63
:10669000002EDED02046FFF76BF8074660B105F10B
:1066A0000C013046FFF743FE3046FFF718FB102180
:1066B0003046FDF7F4FCCCE7314603A8FFF7A0FF16
:1066C0002B7B8DF81C301020FDF7E5FC0546D0B182
:1066D00087601420FDF7DFFC044678B1876001462F
:1066E00003A8FFF721FB059BA268A360069B059208
:1066F000E268E3609DF81C3006922374064BEB6061
:10670000064B2C60AB6003A8FFF7E9FA002229468C
:106710000348FFF735F8C7E741630B0025670B0017
:10672000096A0B00012A70B5044603D10B680360A7
:10673000002070BD022A0CD0032AF9D10468002C75
:10674000F6D02046FFF7CBFA14212046FDF7A7FC30
:10675000EEE714200E68FDF79EFC054620B1314699
:10676000FFF74EFF337C2B742560E1E7704710B5CF
:1067700018210446FDF793FC204610BDF0B5037DBB
:10678000062B8DB00E4600F104074FF0000412D026
:1067900000F1080515F8011D0A223046FFF723FB1A
:1067A000AF42044419D0002CF4D02E213046FFF71C
:1067B00001FB0444EEE72F236A4639460A208DF890
:1067C0000040FEF7A5FE684601F025FC336802464E
:1067D000DB68694630469847044620460DB0F0BD58
:1067E00010B5054B0446112240F8043B002101F08E
:1067F000ADFB204610BD00BF80830B000346074A57
:1068000010B543F8042B01F1100251F8044B43F882
:10681000044B9142F9D10A781A7010BD80830B00A5
:1068200010B59DF8084044EA032343EA024242EAD5
:10683000016104234160037510BD000007B5064BDC
:106840000360CB7800938B784A780978FFF7E8FFEC
:1068500003B05DF804FB00BF80830B0041747047F8
:106860007047704708B50021007CFEF751FF40EAF1
:10687000E07008BD08B50121007CFEF749FF40EA41
:10688000E07008BD08B5007CFEF73AFF20EAE07032
:1068900008BD08B5007CFEF72BFF20EAE07008BDBC
:1068A00013B50446007C0191FEF72AFF00280199E8
:1068B00001DC607C20B1207CFEF732FF20EAE07032
:1068C00002B010BD007CFEF733BF10B514210446A2
:1068D000FDF7E5FB204610BD10B54FF47A73044672
:1068E00008460021C4E90113044B236001232074EE
:1068F00063741146FEF7ECFE204610BD94830B0036
:10690000007C0022FEF7ECBE10B5142204460021E4
:1069100001F01CFB204610BD10B50F4C88B003A839
:10692000FFF7F2FF2178BFF35B8F11F001010FD168
:1069300020460191FDF7B5FB019948B103AA07482C
:10694000FFF7CAFF2046FDF7B1FB054801F0E2FA68
:10695000024808B010BD00BF00E7032004E7032091
:1069600061680B0070474174704708B5007CFEF702
:1069700007FE20EAE07008BD08B5007CFEF7D8FDF0
:1069800020EAE07008BD08B5007CFEF7E1FD40EAB2
:10699000E07008BD08B5007CFEF7D2FD40EAE0706B
:1069A00008BD007CFEF7DCBD37B5457C04462DB143
:1069B000207C03B0BDE83040FEF7B2BD007C019101
:1069C000FEF7DEFD00280199F2DC284603B030BD59
:1069D00010B514210446FDF762FB204610BD0000EF
:1069E00010B54FF47A730446084611460022C4E9F4
:1069F0000123044B2360012320746374FEF7C8FD58
:106A0000204610BDC4830B0010B5836804460BB943
:106A100000F070FBC3689847A3681BB103222146AE
:106A20002046984720461021BDE81040FDF737BBAF
:106A30007047F8B5064615460C468F18BC4206D07E
:106A4000336814F8011B9B6830469847F6E72846E0
:106A5000F8BD007C0022FEF7BBBD007C0021FEF7E4
:106A6000BFBD007C0021FEF7C3BD007C0021FEF706
:106A7000C7BD007C0021FEF7CBBD10B51421044634
:106A8000FDF70DFB204610BD10B54FF47A73044698
:106A900008460021C4E90113034B2360207411460A
:106AA000FEF7C6FD204610BDF4830B000023007CDA
:106AB0001A461946FEF774BD7FB500221423CDE9AE
:106AC0000122ADF804300B788DF808304B68039341
:106AD000CB680493007C0B7A059301A9FEF7B0FD07
:106AE00007B05DF804FB1FB5003B8DF800104FF0B8
:106AF0006401039118BF0123694601928DF80830A3
:106B0000FFF7DAFF05B05DF804FB0123FFF7EBBFE9
:106B1000007C0022FEF74CBDC9B2FFF7F9BF007C34
:106B20000022FEF74DBD0121FFF7F9BF007C0021D7
:106B3000FEF776BD002240681146FEF75DBE0022DA
:106B400040681146FEF778BE002240681146FEF705
:106B500083BE40680022FEF777BE4068002281F0C5
:106B60000101FEF761BE002340681A461946FEF790
:106B700053BE002340681A461946FEF745BE002260
:106B800040681146FEF728BE406800220221FEF749
:106B90002BBE002340681A46FEF716BE024B0422A5
:106BA0005A60024A1A60704718E703201C840B00E1
:106BB000002340681A46FEF707BE40680022022103
:106BC000FEF712BE002240681146FEF705BE002205
:106BD00040681146FEF710BE002340681A46194669
:106BE000FEF712BE002340681A461946FEF714BE8F
:106BF00040680021FEF738BE40680021FEF73CBE29
:106C00004068002281F00101FEF70EBE40680022BC
:106C1000FEF71ABE002240681146FEF71DBE002294
:106C200040681146FEF708BE2DE9F04395B01446C2
:106C30000D460746FFF7D4FD00211C220DA8009148
:106C400001F084F940230C9320466B460CAA0021E6
:106C5000FEF70EFC044600284BD10246012168686D
:106C6000FEF7CAFD0221804622466868FEF7C4FD91
:106C7000009E81462146002E3BD0002939D1736801
:106C8000022B03D00A2B11D0F669F4E7B8F1000FFC
:106C9000FAD0716906A8043107ADFFF7CFFD0FCD1B
:106CA0003C1D0FC42B6823704146EDE7B9F1000F7E
:106CB000EAD07469102201A801F048F906238DF882
:106CC000143001AD04F108031834186859682A46D5
:106CD00003C20833A3421546F7D101A906A807ADA0
:106CE000FFF78CFD0FCD3C1D0FC42B682370494668
:106CF000CAE70098FEF7B4FB384615B0BDE8F0834C
:106D0000024B034A1A6000225A60704720E70320B2
:106D100058840B00704710B514210446FDF7BFF9E5
:106D2000204610BD38B51546D0E9032393420446EA
:106D300007D2D21A8068AA4228BF2A46184401F016
:106D4000F7F822692A44226138BD0EB417B505ABA5
:106D5000044653F8042BE1680193036980688B4271
:106D600038BFC91A184428BF0021019BFEF7E4FD73
:106D700023691844206103B0BDE8104003B0704798
:106D800007B503688DF807109B6801220DF1070114
:106D9000984703B05DF804FB10B57D210446FFF76A
:106DA000EFFF01232371204610BD08B50379012BA5
:106DB00002D0022B04D008BD2C21FFF7E1FFFAE737
:106DC0003A21FAE710B50446FFF7EFFF20467B2192
:106DD000FFF7D6FF00232371204610BD13B50446EC
:106DE0000191FFF7E2FF2368019ADB68034920461F
:106DF000984701232046237102B010BD8C840B00FC
:106E0000F8B5044657EC106BFFF7CFFF2368054930
:106E1000DD6820463B463246A847012323712046C1
:106E2000F8BD00BF8F840B002DE9F0470D462221ED
:106E300090460446FFF7A4FFDFF8A490A8442F462D
:106E40004745BA463DD017F8016B222E06D05C2E7E
:106E500004D0304601F064F80028F1D12368AAEB91
:106E600005029B682946204698475C212046FFF78B
:106E700087FF0D2E0AD8072E1CD9A6F10803052B73
:106E800018D8DFE803F00D0F11171315222E01D0CB
:106E90005C2E0FD131462046FFF772FF3D46CFE70B
:106EA0006221F8E77421F6E76E21F4E76621F2E744
:106EB0007221F0E723683246DB684946204698474E
:106EC000ECE7BD4205D023687A1B9B682946204623
:106ED000984722212046FFF753FFBDE8F08700BF07
:106EE00092840B0013B50446CDE90021FFF75DFF46
:106EF0002046DDE90021FFF797FF0223204623719A
:106F000002B010BD232813B502D9002002B010BD75
:106F1000A0F10B03022B1AD8174C2178BFF35B8F1B
:106F200011F001010BD120460191FDF7BAF801994A
:106F300028B11248FEF77CFD2046FDF7B7F80F4B4D
:106F40001878FEF79DFB0028DFD10120DEE701283D
:106F500009D800F0A9F80021007CFEF761FB80F061
:106F60000100C0B2D2E709380128EED800F060F87D
:106F7000007CFEF7FDFAF2E7A0E60320A4E603207A
:106F8000232838B504460D460AD8FF2908D0FFF754
:106F9000B9FF28B129462046BDE83840FEF770BA4F
:106FA00038BD38B504460D46FEF772FAFF2810D0FA
:106FB000062804D84D2323FA00F0C30709D420463D
:106FC000FFF7A0FF28B129462046BDE83840FEF76C
:106FD00067BA38BD10B50446FEF75AFA031FDBB294
:106FE000012B08D92046FFF78DFF20B12046BDE8D0
:106FF0001040FEF75DBA002010BD704738B504465A
:1070000014252A46002100F0A1FF258040250749CC
:1070100025812846258200F06BF8044960602846E7
:1070200000F066F8E060204638BD00BFB0840B0079
:1070300030B50E4D2978BFF35B8F11F0010487B096
:1070400011D12846FDF72DF868B101A8FFF7D6FF4A
:1070500001AA21460648FFF7C3FC2846FDF726F89B
:10706000044800F057FF024807B030BD28E703206E
:107070002CE70320FB6F0B007047000038B520257C
:10708000142304460360856005610649284600F024
:107090002FF804496060284600F02AF8E060204696
:1070A00038BD00BFB0840B0030B50E4D2978BFF35A
:1070B0005B8F11F0010487B011D12846FCF7F1FF76
:1070C00068B101A8FFF7DAFF01AA21460648FFF7D9
:1070D000DBFC2846FCF7EAFF044800F01BFF0248EF
:1070E00007B030BD44E7032048E7032079700B0068
:1070F000FCF7D3BF08B5FEF727FC000081F0004184
:1071000002E000BF83F0004330B54FEA41044FEA8C
:10711000430594EA050F08BF90EA020F1FBF54EA27
:10712000000C55EA020C7FEA645C7FEA655C00F0C3
:10713000E2804FEA5454D4EB5555B8BF6D420CDD94
:107140002C4480EA020281EA030382EA000083EA17
:10715000010180EA020281EA0303362D88BF30BDB7
:1071600011F0004F4FEA01314FF4801C4CEA11310D
:1071700002D0404261EB410113F0004F4FEA03336C
:107180004CEA133302D0524263EB430394EA050FF7
:1071900000F0A780A4F10104D5F1200E0DDB02FA66
:1071A0000EFC22FA05F2801841F1000103FA0EF2FA
:1071B000801843FA05F359410EE0A5F120050EF1C0
:1071C000200E012A03FA0EFC28BF4CF0020C43FAF1
:1071D00005F3C01851EBE37101F0004507D54FF0FE
:1071E000000EDCF1000C7EEB00006EEB0101B1F54E
:1071F000801F1BD3B1F5001F0CD349085FEA300094
:107200004FEA3C0C04F101044FEA445212F5800F9E
:1072100080F09A80BCF1004F08BF5FEA500C50F13B
:10722000000041EB045141EA050130BD5FEA4C0C1E
:10723000404141EB0101013C28BFB1F5801FE9D27B
:1072400091F0000F04BF01460020B1FA81F308BF9E
:107250002033A3F10B03B3F120020CDA0C3208DD6A
:1072600002F1140CC2F10C0201FA0CF021FA02F145
:107270000CE002F11402D8BFC2F1200C01FA02F1B5
:1072800020FA0CFCDCBF41EA0C019040E41AA2BFDA
:1072900001EB0451294330BD6FEA04041F3C1CDAA2
:1072A0000C340EDC04F11404C4F1200220FA04F0C2
:1072B00001FA02F340EA030021FA04F345EA03016C
:1072C00030BDC4F10C04C4F1200220FA02F001FA2E
:1072D00004F340EA0300294630BD21FA04F02946B0
:1072E00030BD94F0000F83F4801306BF81F4801149
:1072F0000134013D4EE77FEA645C18BF7FEA655CBC
:1073000029D094EA050F08BF90EA020F05D054EA8D
:10731000000C04BF1946104630BD91EA030F1EBF92
:107320000021002030BD5FEA545C05D14000494196
:1073300028BF41F0004130BD14F580043CBF01F589
:10734000801130BD01F0004545F0FE4141F470016F
:107350004FF0000030BD7FEA645C1ABF194610464A
:107360007FEA655C1CBF0B46024650EA013406BF4B
:1073700052EA033591EA030F41F4002130BD00BF0A
:1073800090F0000F04BF0021704730B54FF48064C7
:1073900004F132044FF000054FF0000150E700BF48
:1073A00090F0000F04BF0021704730B54FF48064A7
:1073B00004F1320410F0004548BF40424FF0000194
:1073C0003EE700BF42004FEAE2014FEA31014FEAD7
:1073D00002701FBF12F07F4393F07F4F81F0605126
:1073E000704732F07F4208BF704793F07F4F04BF71
:1073F00041F40021704730B54FF4607401F000454E
:1074000021F000411CE700BF50EA010208BF7047AD
:1074100030B54FF000050AE050EA010208BF70479E
:1074200030B511F0004502D5404261EB41014FF407
:10743000806404F132045FEA915C3FF4D8AE4FF00F
:1074400003025FEADC0C18BF03325FEADC0C18BFF2
:10745000033202EBDC02C2F1200300FA03FC20FA43
:1074600002F001FA03FE40EA0E0021FA02F1144490
:10747000BDE600BF70B54FF0FF0C4CF4E06C1CEAA9
:1074800011541DBF1CEA135594EA0C0F95EA0C0F1A
:1074900000F0DEF82C4481EA030621EA4C5123EA8D
:1074A0004C5350EA013518BF52EA033541F48011BC
:1074B00043F4801338D0A0FB02CE4FF00005E1FB6F
:1074C00002E506F00042E0FB03E54FF00006E1FBB9
:1074D00003569CF0000F18BF4EF0010EA4F1FF04FC
:1074E000B6F5007F64F5407404D25FEA4E0E6D413C
:1074F00046EB060642EAC62141EA55514FEAC5204D
:1075000040EA5E504FEACE2EB4F1FD0C88BFBCF5C8
:10751000E06F1ED8BEF1004F08BF5FEA500E50F179
:10752000000041EB045170BD06F0004646EA01013F
:1075300040EA020081EA0301B4EB5C04C2BFD4EB71
:107540000C0541EA045170BD41F480114FF0000E6A
:10755000013C00F3AB8014F1360FDEBF002001F0D8
:10756000004170BDC4F10004203C35DA0C341BDC52
:1075700004F11404C4F1200500FA05F320FA04F024
:1075800001FA05F240EA020001F0004221F0004158
:1075900010EBD37021FA04F642EB06015EEA430ECB
:1075A00008BF20EAD37070BDC4F10C04C4F12005FB
:1075B00000FA04F320FA05F001FA04F240EA0200AE
:1075C00001F0004110EBD37041F100015EEA430E7F
:1075D00008BF20EAD37070BDC4F1200500FA05F29F
:1075E0004EEA020E20FA04F301FA05F243EA02031E
:1075F00021FA04F001F0004121FA04F220EA02002D
:1076000000EBD3705EEA430E08BF20EAD37070BD72
:1076100094F0000F0FD101F00046400041EB010152
:1076200011F4801F08BF013CF7D041EA060195F034
:10763000000F18BF704703F00046520043EB0303EE
:1076400013F4801F08BF013DF7D043EA06037047DB
:1076500094EA0C0F0CEA135518BF95EA0C0F0CD0E6
:1076600050EA410618BF52EA4306D1D181EA03012C
:1076700001F000414FF0000070BD50EA410606BF26
:107680001046194652EA430619D094EA0C0F02D16B
:1076900050EA013613D195EA0C0F05D152EA0336B0
:1076A0001CBF104619460AD181EA030101F00041CE
:1076B00041F0FE4141F470014FF0000070BD41F017
:1076C000FE4141F4780170BD70B54FF0FF0C4CF4F1
:1076D000E06C1CEA11541DBF1CEA135594EA0C0F10
:1076E00095EA0C0F00F0A7F8A4EB050481EA030E5D
:1076F00052EA03354FEA013100F088804FEA033344
:107700004FF0805545EA131343EA12634FEA022211
:1077100045EA111545EA10654FEA00260EF00041D2
:107720009D4208BF964244F1FD0404F5407402D224
:107730005B084FEA3202B61A65EB03055B084FEAB5
:1077400032024FF480104FF4002CB6EB020E75EBB2
:10775000030E22BFB61A754640EA0C005B084FEADA
:107760003202B6EB020E75EB030E22BFB61A754657
:1077700040EA5C005B084FEA3202B6EB020E75EBA2
:10778000030E22BFB61A754640EA9C005B084FEA1A
:107790003202B6EB020E75EB030E22BFB61A754627
:1077A00040EADC0055EA060E18D04FEA051545EA16
:1077B00016754FEA06164FEAC30343EA52734FEABF
:1077C000C2025FEA1C1CC0D111F4801F0BD141EA38
:1077D00000014FF000004FF0004CB6E711F4801F9D
:1077E00004BF01430020B4F1FD0C88BFBCF5E06F7D
:1077F0003FF6AFAEB5EB030C04BFB6EB020C5FEA8D
:10780000500C50F1000041EB045170BD0EF0004EE1
:107810004EEA113114EB5C04C2BFD4EB0C0541EA13
:10782000045170BD41F480114FF0000E013C90E610
:1078300045EA060E8DE60CEA135594EA0C0F08BFD4
:1078400095EA0C0F3FF43BAF94EA0C0F0AD150EAD3
:1078500001347FF434AF95EA0C0F7FF425AF104666
:1078600019462CE795EA0C0F06D152EA03353FF48E
:10787000FDAE1046194622E750EA410618BF52EA0B
:1078800043067FF4C5AE50EA41047FF40DAF52EADF
:1078900043057FF4EBAE12E74FEA4102B2F1E04359
:1078A00024BFB3F5001CDCF1FE5C0DD901F0004CE7
:1078B0004FEAC0024CEA5070B2F1004F40EB830037
:1078C00008BF20F00100704711F0804F21D113F163
:1078D0003872BCBF01F00040704741F480114FEA9C
:1078E0005252C2F11802C2F1200C10FA0CF320FA25
:1078F00002F018BF40F001004FEAC1234FEAD32342
:1079000003FA0CFC40EA0C0023FA02F34FEA4303AB
:10791000CCE77FEA625307D150EA01331EBF4FF034
:10792000FE4040F44000704701F0004040F0FE404F
:1079300040F40000704700BF80F0004002E000BF4C
:1079400081F0004142001FBF5FEA410392EA030F4A
:107950007FEA226C7FEA236C6AD04FEA1262D2EB94
:107960001363C1BFD218414048404140B8BF5B4299
:10797000192B88BF704710F0004F40F4000020F032
:107980007F4018BF404211F0004F41F4000121F048
:107990007F4118BF494292EA030F3FD0A2F1010292
:1079A00041FA03FC10EB0C00C3F1200301FA03F1D0
:1079B00000F0004302D5494260EB4000B0F5000FF3
:1079C00013D3B0F1807F06D340084FEA310102F1B2
:1079D0000102FE2A51D2B1F1004F40EBC25008BF64
:1079E00020F0010040EA03007047490040EB00002E
:1079F000013A28BFB0F5000FEDD2B0FA80FCACF12F
:107A0000080CB2EB0C0200FA0CF0AABF00EBC2505B
:107A100052421843BCBFD0401843704792F0000F49
:107A200081F4000106BF80F400000132013BB5E79C
:107A30004FEA41037FEA226C18BF7FEA236C21D012
:107A400092EA030F04D092F0000F08BF0846704777
:107A500090EA010F1CBF0020704712F07F4F04D145
:107A6000400028BF40F00040704712F100723CBF58
:107A700000F50000704700F0004343F0FE4040F482
:107A8000000070477FEA226216BF08467FEA236340
:107A90000146420206BF5FEA412390EA010F40F42B
:107AA000800070474FF0000304E000BF10F0004377
:107AB00048BF40425FEA000C08BF704743F096435E
:107AC00001464FF000001CE050EA010208BF704779
:107AD0004FF000030AE000BF50EA010208BF704700
:107AE00011F0004302D5404261EB41015FEA010C15
:107AF00002BF84460146002043F0B64308BFA3F10D
:107B00008053A3F50003BCFA8CF2083AA3EBC253EE
:107B100010DB01FA02FC634400FA02FCC2F120020D
:107B2000BCF1004F20FA02F243EB020008BF20F044
:107B30000100704702F1200201FA02FCC2F12002AA
:107B400050EA4C0021FA02F243EB020008BF20EA9F
:107B5000DC7070477BB972B90029BEBF00204FF0BE
:107B6000004106E008BF00281CBF6FF000414FF045
:107B7000FF3000F0A7B9ADF1080C6DE904CE002983
:107B800009DB002B1ADB00F035F8DDF804E0DDE955
:107B9000022304B07047404261EB4101002B1BDB24
:107BA00000F028F8DDF804E0DDE9022304B04042EB
:107BB00061EB4101524263EB43037047524263EB76
:107BC000430300F017F8DDF804E0DDE9022304B018
:107BD000404261EB41017047524263EB430300F0C6
:107BE00009F8DDF804E0DDE9022304B0524263EB5A
:107BF000430370472DE9F047089D04468E46002B4D
:107C00004DD18A42944669D9B2FA82F252B101FA50
:107C100002F3C2F1200120FA01F10CFA02FC41EA60
:107C2000030E94404FEA1C48210CBEFBF8F61FFAE5
:107C30008CF708FB16E341EA034306FB07F1994280
:107C40000AD91CEB030306F1FF3080F01F81994233
:107C500040F21C81023E63445B1AA4B2B3FBF8F00D
:107C600008FB103344EA034400FB07F7A7420AD994
:107C70001CEB040400F1FF3380F00A81A74240F2BC
:107C800007816444023840EA0640E41B00261DB127
:107C9000D4400023C5E900433146BDE8F0878B425C
:107CA00009D9002D00F0EF800026C5E9000130461B
:107CB0003146BDE8F087B3FA83F6002E4AD18B42F5
:107CC00002D3824200F2F980841A61EB030301209F
:107CD0009E46002DE0D0C5E9004EDDE702B9FFDE8B
:107CE000B2FA82F2002A40F09280A1EB0C014FEA36
:107CF0001C471FFA8CFE0126200CB1FBF7F307FB93
:107D0000131140EA01410EFB03F0884208D91CEB35
:107D1000010103F1FF3802D2884200F2CB804346D2
:107D2000091AA4B2B1FBF7F007FB101144EA0144B1
:107D30000EFB00FEA64508D91CEB040400F1FF3140
:107D400002D2A64500F2BB800846A4EB0E0440EA2E
:107D500003409CE7C6F12007B34022FA07FC4CEA37
:107D6000030C20FA07F401FA06F31C43F9404FEA2A
:107D70001C4900FA06F3B1FBF9F8200C1FFA8CFE3F
:107D800009FB181140EA014108FB0EF0884202FA93
:107D900006F20BD91CEB010108F1FF3A80F0888054
:107DA000884240F28580A8F102086144091AA4B211
:107DB000B1FBF9F009FB101144EA014100FB0EFE92
:107DC0008E4508D91CEB010100F1FF346CD28E45C1
:107DD0006AD90238614440EA0840A0FB0294A1EB52
:107DE0000E01A142C846A64656D353D05DB1B3EBAF
:107DF000080261EB0E0101FA07F722FA06F3F140DF
:107E00001F43C5E9007100263146BDE8F087C2F185
:107E10002003D8400CFA02FC21FA03F391400143FD
:107E20004FEA1C471FFA8CFEB3FBF7F007FB103636
:107E30000B0C43EA064300FB0EF69E4204FA02F4E2
:107E400008D91CEB030300F1FF382FD29E422DD935
:107E5000023863449B1B89B2B3FBF7F607FB16336A
:107E600041EA034106FB0EF38B4208D91CEB0101EA
:107E700006F1FF3816D28B4214D9023E6144C91A6A
:107E800046EA004638E72E46284605E70646E3E67A
:107E90001846F8E64B45A9D2B9EB020864EB0C0E84
:107EA0000138A3E74646EAE7204694E74046D1E793
:107EB000D0467BE7023B614432E7304609E7644441
:107EC000023842E7704700BF10B50C4641690369AC
:107ED000826986B001F26C71049101680391416876
:107EE000029181680191C1680091074903EB430346
:107EF0000B44064902EB42020A4420460449FDF7BE
:107F00000BFD204606B010BDE6840B00D1840B00AB
:107F1000B1840B00002301461A46184600F096B8BB
:107F2000024B1844407800F0970070479E850B0084
:107F30000A44914200F1FF3300D1704710B511F8A7
:107F4000014B03F8014F9142F9D110BD02440346A1
:107F5000934200D1704703F8011BF9E738B5104B85
:107F60001D68AB6B0446B3B91820FDF7BDFC024693
:107F7000A86320B90B4B0C484221FDF7F5FC0B49D7
:107F80000B4BC0E900130B4B83600B238381002153
:107F90000120C2E90401AB6B00221C615A6138BDAB
:107FA00090E503200A850B0021850B000E33CDAB35
:107FB00034126DE6ECDE050010F8012B11F8013BE0
:107FC000012A28BF9A42F7D0D01A7047034611F809
:107FD000012B03F8012B002AF9D17047024B01460F
:107FE000186800F003B800BF90E5032037B50446D9
:107FF00008460D4600F00FF8421C1146204601923B
:10800000FDF7AAFC044618B1019A2946FFF790FF34
:10801000204603B030BD034613F8012B002AFBD1E4
:10802000181A0138704710B50139034632B111F8FA
:10803000014F03F8014B013A002CF7D11A440021FB
:10804000934200D110BD03F8011BF9E72DE9F84375
:10805000DFF8B8800646D8F800001F460D46914666
:1080600000F056F8254B1C6834B9254C1C60254B94
:1080700013B11B68C4F8883063681F2B07DDD8F87C
:10808000000000F047F84FF0FF30BDE8F8834EB332
:10809000D4F8880088B91C4B23B9D8F8000000F048
:1080A00038F8F0E74FF48470FDF71EFC0028F4D098
:1080B0000023C0E94033C4F88800636840F8239087
:1080C00001229A4000EB8301D0F800311343C0F83D
:1080D0000031022EC1F8807002BFD0F80431134382
:1080E000C0F804316368D8F800005A1C023362609B
:1080F00044F8235000F00EF80020C6E7E8E703201C
:108100005CE7032000000000E9580B00F4E50320C1
:10811000704770477047000021400B005D400B0026
:1081200085400B0089400B000000000042483137B9
:108130003530004C696768742D6C75780053434482
:10814000333000434F322D70706D0054656D702DCB
:10815000430052482D2500504D53413030334900E3
:108160005374645F504D312E30005374645F504D32
:10817000322E35005374645F504D313000456E76B9
:108180005F504D312E3000456E765F504D322E35AA
:1081900000456E765F504D3130007177696963003C
:1081A0004144432D76616C0064420056454D4C3687
:1081B0003037300055562D6C766C00424D453238C4
:1081C0003000502D6D6261720073656E736F725F67
:1081D0006461746100436865636B20636F6E6E65F4
:1081E0006374696F6E732E204E6F20736C617665B9
:1081F0002061747461636865642E00547279696EDD
:108200006720746F20636F6E6E656374204248311F
:10821000373530204C75782053656E736F7200547B
:108220007279696E6720746F20636F6E6E65637418
:1082300020424D45323830205054482053656E73EB
:108240006F7200547279696E6720746F20636F6E6D
:108250006E65637420534344333020434F322053C0
:10826000656E736F72005A696F2051776969632078
:108270004C6F75646E6573732053656E736F7220F7
:108280004D6173746572204177616B65006465664A
:1082900061756C7420004D5342004C5342003C53B6
:1082A000504953657474696E6773206465666175BF
:1082B0006C743E003C53504953657474696E677327
:1082C0002025732575202573204D4F444525753E87
:1082D00000000000000000000000000085470B00C7
:1082E00057470B0059470B0000000000000000003A
:1082F000075A0B00FD590B00F3590B00E9590B000D
:10830000DD590B00D1590B00F16B0B00F96B0B0021
:10831000C5590B00BD590B00B3590B00A9590B00EF
:10832000296C0B000008101820283038617070008C
:108330005A00252B3033643A253032750025592DEB
:10834000256D2D25645425483A254D3A2553257A27
:108350000061736374696D65000000000000000037
:10836000000000003D620B0043620B0081620B00C5
:1083700051620B003F620B00000000000000000093
:108380007D670B006D670B006F670B00000000003E
:108390000000000063680B00CB680B00A1680B00B5
:1083A0005D5D0B0093680B0065680B0075680B0042
:1083B000C5680B0085680B005D680B0000000000BD
:1083C0000000000065690B00D1690B00A9690B0072
:1083D0005D5D0B0079690B0095690B0087690B00E7
:1083E000A3690B0067690B006B690B0000000000BC
:1083F00000000000316A0B007B6A0B00536A0B001F
:10840000336A0B005B6A0B00636A0B006B6A0B003C
:10841000736A0B000000000000000000936B0B006B
:10842000896B0B007F6B0B00356B0B00736B0B00C4
:10843000676B0B00F16B0B00F96B0B005B6B0B00B8
:10844000536B0B00496B0B003F6B0B00296C0B004F
:108450000000000000000000B16B0B00BB6B0B00C4
:10846000C56B0B00CF6B0B00D96B0B00E56B0B00E2
:10847000F16B0B00F96B0B00016C0B000D6C0B002A
:10848000156C0B001F6C0B00296C0B00256400257C
:1084900067007525303478000000000000000000FF
:1084A000156D0B00176D0B00256D0B004B6D0B0050
:1084B00000252E337320252E337325336420252E7B
:1084C00032643A252E32643A252E32642025640A1D
:1084D0000053756E4D6F6E547565576564546875BD
:1084E0004672695361744A616E4665624D617241BC
:1084F00070724D61794A756E4A756C417567536546
:10850000704F63744E6F764465635245454E5420F8
:108510006D616C6C6F63207375636365656465641E
:10852000002F6D6E742F776F726B73706163652FA0
:10853000776F726B73706163652F4743432D3130E2
:108540002D706970656C696E652F6A656E6B696EFA
:10855000732D4743432D31302D706970656C696E02
:10856000652D34385F32303230313132345F31365C
:1085700030363138303634312F7372632F6E657771
:108580006C69622F6E65776C69622F6C6962632F0C
:108590007374646C69622F72616E642E63000020D4
:1085A00020202020202020202828282828202020A3
:1085B0002020202020202020202020202020208853
:1085C00010101010101010101010101010101004B7
:1085D0000404040404040404041010101010101007
:1085E00041414141414101010101010101010101FB
:1085F0000101010101010101010110101010101011
:1086000042424242424202020202020202020202CA
:1086100002020202020202020202101010102000E6
:10862000000000000000000000000000000000004A
:10863000000000000000000000000000000000003A
:10864000000000000000000000000000000000002A
:10865000000000000000000000000000000000001A
:10866000000000000000000000000000000000000A
:1086700000000000000000000000000000000000FA
:1086800000000000000000000000000000000000EA
:1086900000000000000000000000000000000000DA
:1086A0007D460B00115A0B00895B0B004D5D0B00E2
:1086B000855E0B00DD600B00F9600B009D6B0B000D
:1086C000016D0B0000000000000000000000000031
:1086D000040000001400000003000000474E550095
:1086E000CACBF3AD742C2D000B50792A8084F45B37
:0486F000747A5771D0
:0886F40000F5FF7F010000000A
:0486FC00000000007A
:108700000300000051830B003D830B0094E5032020
:108710000000000000000000000000000000000059
:108720000000000000000000000000000000000049
:108730000000000000000000000000000000000039
:108740000000000000000000000000000000000029
:108750000000000000000000000000000000000019
:108760000000000000000000000000000000000009
:04877000ECE703200F
:10877400FFFFFFFF00000102030405060708090AC2
:108784000B0C0D0E0F101112131415161718191ABD
:088794001B1C1D1E1F20280004
:04879C0078563412C5
:04000003B0004020E9
:00000001FF
