:02000002B0004C
:1040000000400B00247D0B00000006000C000502A0
:084010000401E50C00000000B2
:04401800E0760B0043
:1040200009480A49884208B505D0094A824202D0A7
:10403000121A03F0A3FA0748074A0021121A03F0E4
:10404000ABFA014808BD00BFB8E50320907C0B0027
:1040500024E6032024E60320EDE7032070B5074E95
:10406000074C01F06BFEA41BA4080025AC4200D154
:1040700070BD56F8043B98470135F7E7347C0B00D8
:10408000587C0B0000F0A4BA08B500F001FABDE8B6
:10409000084001F00BBE01F0C3BB01F0C1BB01F051
:1040A000C7BB01F0C5BB0078B0FA80F0400970478B
:1040B00001230370704713B504460846019103F0CD
:1040C000A1FA01990246204602B0BDE8104002F074
:1040D00021BA0000000000002DE9F84302F00CFBBB
:1040E000302102F01BF802F007FB0368DFF88C9028
:1040F0009B680521984702F0FFFA02F01AF802F0D7
:10410000FBFA0222302102F006F818A7D7E900676F
:1041100018A5D5E9004502F0EFFA03681B69984736
:1041200000B302F0E9FA03685B699847804602F041
:10413000E3FA03685B699847C3B25FFA88F040EA24
:104140000320A9F8000002F04FFC32463B4602F083
:10415000FFFA2B46224602F0DBFD02F0E9FE024B9D
:104160001860D8E7BDE8F883B0E603207E1D386705
:1041700044CD5440A8C64B378901264024E603208D
:1041800010B52DED028B8EB0A44A019200230322BC
:10419000039001A8CDE904238DF8083002F018F946
:1041A0009F4901A8FFF787FF044606A801F020FBFE
:1041B000089A0699204602F0BDF906A801F05AFCBB
:1041C000984901A8FFF777FF044601F029FD014651
:1041D000204602F01BF9944801F0D2F8924801F011
:1041E00089F8F2EE048A60EE287A17EE900A02F05F
:1041F0000DFC8E4B002202F0ABFA02F071FE07EECE
:10420000900A8B4901A8B8EEE78AFFF754FF02F045
:10421000DFF8884901A8FFF74EFFC8EE287A044668
:1042200017EE900A02F0F2FB41EC100B204602F070
:10423000FFF801A802F0B6F87F4800F058FF002808
:1042400036D07E4901A8FFF736FF02F0C1F87C495D
:1042500001A8FFF730FF0446774800F0A8FF0146A9
:10426000204602F0C1F8774901A8FFF724FF044671
:10427000714800F0B7FF10EE100A02F0C7FB41ECE6
:10428000100B204602F0D4F86F4901A8FFF713FF86
:104290000446694800F09BFF10EE100A02F0B6FBDE
:1042A00041EC100B204602F0C3F801A802F07AF8A6
:1042B000664901A8FFF7FFFE02F08AF8644901A8E9
:1042C000FFF7F9FEBDF81A1002F08EF8614901A857
:1042D000FFF7F1FEBDF81C1002F086F85E4901A858
:1042E000FFF7E9FEBDF81E1002F07EF85B4901A859
:1042F000FFF7E1FEBDF8201002F076F8584901A85A
:10430000FFF7D9FEBDF8221002F06EF8554901A85A
:10431000FFF7D1FEBDF8241002F066F801A802F004
:1043200041F8FFF7D9FE494901A8FFF7C4FE02F0A2
:104330004FF84D4901A8FFF7BEFE4C4B198802F01B
:1043400053F84B4901A8FFF7B6FE4A4B04461868DC
:1043500002F05CFB41EC100B204602F069F801A86A
:1043600002F020F8444901A8FFF7A5FE02F030F85A
:10437000424901A8FFF79FFE0446414800F057FE5E
:104380000146204602F030F83E4901A8FFF793FEAF
:1043900004463D4800F0F0FCDFED3C7AC0EE277AA1
:1043A00017EE900A02F032FB41EC100B204602F0AF
:1043B0003FF8254901A8FFF77EFE0446324800F089
:1043C00091FC10EE100A02F021FB41EC100B20468C
:1043D00002F02EF81B4901A8FFF76DFE04462A489B
:1043E00000F050FC10EE100A02F010FB41EC100B34
:1043F000204602F01DF801A801F0D4FF01A801F049
:10440000D1FFDDE90423934228BF1346039A00211C
:10441000D1540EB0BDEC028B10BD00BF8C7A0B00E6
:10442000F4760B00FD760B0064E603200000E03F0D
:1044300006770B000D770B0028E603201E770B0094
:1044400024770B002D770B003C770B0048770B008F
:1044500051770B0060770B006F770B007D770B00B7
:1044600091770B00A5770B00B8770B0024E60320AB
:10447000C2770B00B0E60320C5770B00CE770B00A8
:10448000B4E60320DD770B006CE603200000C84291
:1044900038B501F0A5F908B901F09AF90121072012
:1044A00002F0A7F84FF4FA70FFF7F7FD0446FFF7A4
:1044B00067FE01F04BFD05465CB1204603F0A2F813
:1044C0002B680246DB682146284698472046FFF7BE
:1044D000E6FD0720002102F08CF8BDE838404EF6DA
:1044E000602001F0B7BB000008B502F005F93021EB
:1044F00001F014FE02F000F901F01BFE28B101F0FA
:1045000025FD024901F001FBFEE708BDEC770B0039
:1045100038B5264C264800F0E1FE48B94FF4FA7051
:1045200001F098FB01F012FD214601F0EEFAF1E7EF
:104530001F48204D204C232100F00DFF284600F09D
:1045400044FD88B11D4C02F0D7F801461C4800F02C
:10455000A9FE98B94FF4FA7001F07CFB01F0F6FC6B
:10456000214601F0D2FAEEE74FF4FA7001F072FB47
:1045700001F0ECFC214601F0C8FADFE70221104807
:1045800000F08BFE02F0B8F801460E4800F054F837
:1045900001F0DCFC0C4901F0B8FAFFF7A5FFBDE81B
:1045A00038400A48012100F023BD00BF12780B00FB
:1045B00064E603206CE6032036780B005A780B0083
:1045C00028E603203CE603207D780B00B4E60320B8
:1045D00008B502F091F801F06FFD0121072001F00C
:1045E000F7FF01F0B3FC4FF4165101F0A3FCBDE856
:1045F0000840FFF78DBF000008B502F07DF82321C9
:104600000246074800F065FE064800F097F80648A5
:1046100000F035FDBDE80840044800F009B800BFCF
:1046200064E603206CE6032028E603203CE6032032
:104630000022C0E90022704737B50368044653B929
:1046400010200191FFF727FD054618B1019A1221AC
:1046500000F008F825602068012103B0BDE8304073
:1046600000F01CB842600022027220220170C26079
:10467000704710B5037A044653B12178606801F0A1
:104680004DFD606801F055FDB0FA80F0400910BDA5
:10469000012100F003F80028EFD1F8E738B504460F
:1046A00040680D4601F008FD0120207225B120462A
:1046B000BDE83840FFF7DDBF38BD704710B51021A9
:1046C0000446FFF7EEFC204610BD0EB403B503AB65
:1046D000002153F8042B019301F03FFA02B05DF87A
:1046E00004EB03B07047000073B504460846227916
:1046F000A36832B1A3B90B4902B0BDE8704001F024
:10470000F1B9094A267B094D0949647B012E18BF7E
:104710002946CDE900140749FFF7D7FF02B070BD65
:10472000054AEFE7B5780B00AC780B00B1780B00C9
:10473000AD780B00CB780B00A4780B004FF0FF3363
:104740000361704713B50B4C2178BFF35B8F11F0F9
:1047500001010BD120460191FFF7A5FC019928B179
:10476000054801F0C9F82046FFF7A2FC024802B054
:1047700010BD00BFB8E60320BCE6032008B5FFF774
:10478000E1FFBDE8084001F0D5B807B50190FFF79B
:10479000D9FF019903B05DF804EB01F0E5B82DE90C
:1047A000F04190F91330013305460F4606D1FFF76B
:1047B000C9FF3946BDE8F04101F044B9002407269D
:1047C0004FF0010895F91300002180B201F011FFAC
:1047D00095F9110008FA06F1394080B201F009FF9D
:1047E00095F91300012180B201F003FF95F9120041
:1047F000640080B2E4B201F015FF08B144F0010496
:10480000013EDFD22046BDE8F08100007FB590F97F
:104810001030013304460E46154613D10179006865
:1048200001F07CFC2068036831469B68984720684B
:10483000036829469B689847206804B0BDE870402B
:1048400001F077BC90F9133001330CD1164B009373
:1048500000238DF80430154B029368460123ADF810
:104860000C30FFF792FF94F91000002180B201F0A4
:10487000C0FE06F07F012046FFF791FF2946204643
:10488000FFF78DFF94F91000012180B201F0B1FE15
:1048900094F91330013304D104B0BDE87040FFF740
:1048A0006DBF04B070BD00BFF0780B0020A1070001
:1048B000F8B5DB0002F0070203F03803134343EAC4
:1048C00081139DF8186080F83C3090F840309DF8D6
:1048D0001C509DF8207066F3471380F84030ED00BF
:1048E00090F8383007F0070705F0380523F03F034C
:1048F0003D4304461D4380F8385006F00702F2217C
:10490000FFF784FF94F83820C2F3C20302F00701D6
:104910009B0043EA411343EAD2122046F521FFF7F8
:1049200075FF94F83C20C2F3C20302F007019B001C
:1049300043EA411343EA92122046F421BDE8F840CD
:10494000FFF764BF30B590F91030013385B00446ED
:104950000D4618D10179006801F0E0FB206803687A
:1049600029469B689847206801F0E3FB217920687D
:10497000012201F0D0FB206803685B699847C5B24B
:10498000284605B030BD90F9133001330CD1154BDA
:10499000009300238DF80430134B029368460123E3
:1049A000ADF80C30FFF7F1FE94F91000002180B251
:1049B00001F01FFE45F080012046FFF7F0FE0021C8
:1049C0002046FFF7ECFE054694F91000012180B265
:1049D00001F00FFE94F913300133D1D1FFF7CEFE71
:1049E000CEE700BFF0780B0020A1070008B5F32147
:1049F000FFF7A8FF00F0010008BD000030B590F9F6
:104A00001030013385B004460D461FD1017900688E
:104A100001F084FB2068036829469B68984720685A
:104A200001F087FB21792068022201F074FB2068E5
:104A300003685B6998470546206803685B69984787
:104A400040EA052085B2284605B030BD90F9133004
:104A500001330CD1184B009300238DF80430174B11
:104A6000029368460123ADF80C30FFF78EFE94F9EF
:104A70001000002180B201F0BCFD45F0800120460D
:104A8000FFF78DFE00212046FFF789FE0021054635
:104A90002046FFF784FE40EA052085B294F9100015
:104AA000012180B201F0A5FD94F913300133CAD180
:104AB000FFF764FEC7E700BFF0780B0020A10700F6
:104AC00008B5FFF79BFF40BA80B208BD38B5882112
:104AD0000446FFF7F5FF8A21A0822046FFF7F0FF8A
:104AE0008C21E0822046FFF7EBFF8E2120832046B9
:104AF000FFF7E6FF902160832046FFF7E1FF922158
:104B0000A0832046FFF7DCFF9421E0832046FFF7D7
:104B1000D7FF962120842046FFF7D2FF982160849A
:104B20002046FFF7CDFF9A21A0842046FFF7C8FF5B
:104B30009C21E0842046FFF7C3FF9E21208520466C
:104B4000FFF7BEFFA12160852046FFF7FBFEE121B4
:104B500084F82C002046FFF7B3FFE321E0852046D0
:104B6000FFF7F0FEE42184F830002046FFF7EAFE6C
:104B7000E52105462046FFF7E5FE00F00F0343EA76
:104B800005106086E6212046FFF7DCFEE52105469C
:104B90002046FFF7D7FEC0F3071343EA0510A086AF
:104BA000E7212046FFF7CEFE84F8360038BD00002E
:104BB00030B590F91030013385B004460D4623D14D
:104BC0000179006801F0AAFA2068036829469B6809
:104BD0009847206801F0ADFA21792068032201F09E
:104BE0009AFA206803685B699847050220680368A1
:104BF0005B69984728430502206803685B6998470A
:104C00000543284605B030BD90F9133001330CD16F
:104C10001A4B009300238DF80430194B0293684619
:104C20000123ADF80C30FFF7B0FD94F9100000211E
:104C300080B201F0DEFC45F080012046FFF7AFFDB9
:104C400000212046FFF7ABFD002105022046FFF7BB
:104C5000A6FD2843050200212046FFF7A0FD0543DD
:104C600094F91000012180B201F0C3FC94F91330D3
:104C70000133C6D1FFF782FDC3E700BFF0780B0018
:104C800020A1070010B5FA210446FFF791FFB0F507
:104C9000000F1FD0A18A9FED117A4B00C1EB20229B
:104CA000C3EBE011B4F91630594302FB02F3B4F937
:104CB00018201B1353439B1303EBE123E36003EB27
:104CC000830380331B1207EE903AF8EEE77A87EE03
:104CD000870A10BD9FED020AFBE700BF0000C84233
:104CE0000000C07F38B50446FFF7CCFFFD21204609
:104CF000FFF784FEB0F5004F38D0E168B4F93420F6
:104D0000A1F59635B4F932100905C1EB803305FBE6
:104D1000123303F58043DA1394F8303094F93610E7
:104D20006B43DB126943891203F500434B439B122B
:104D3000B4F92E1003F500134B4303F500539B13F6
:104D40005343DA1394F82C105243D2114A43A3EB85
:104D5000221323EAE373B3F1C85FA8BF4FF0C8532F
:104D60001B1300EE103ABAEECB0A38BD9FED010AD4
:104D7000FBE700BF0000C07F2DE9F8430546FFF7C1
:104D800081FFF7212846FFF713FFB0F5000F00F071
:104D9000B680E968B5F91C304FEAE17EB1F5FA3129
:104DA0004EF1FF3EDC1703FB0EF201FB0422A3FBD6
:104DB000013422441203A1FB01781C0301FB0EF60F
:104DC00042EA1352B5F91E3008EB46084FEAE37C7D
:104DD00003FB08F607FB0C66A3FB073C66441B0AB3
:104DE00043EA06631B1942EB26226E8B02F5004252
:104DF000A3FB063406FB0244E317621053EA640483
:104E00004FF0000C7ED0B5F9244004FB08F64FEAC1
:104E1000E47907FB0966A4FB07473E44B5F9227015
:104E20004FEAE77807FB0EFE01FB08EEA7FB0171D6
:104E30007144490441EAD73100117F043F19C0F59C
:104E4000801446EB010604F00040B5F920101CEB7D
:104E5000070740EA5400E407E41B06EBC10640F6EE
:104E6000354160EB0606A4FB010401FB064102F09C
:104E7000BDF9B5F92A20B5F928604FEA613C430B2A
:104E800043EAC14302FB0CF7D41703FB0477A2FBF0
:104E900003243C4402FB0CF703FB0477A2FB03232F
:104EA0001F44530E43EAC7131B184FEAE67206FB72
:104EB00001F4864641EB676702FB0041A6FB0E0644
:104EC000B5F926403144C00C40EA413018184FEA89
:104ED000E47547EBE141000A2D0140EA016045EA33
:104EE00014752401201845EB212102F041F99FEDB2
:104EF000070A07EE900A27EE800ABDE8F8839FEDC7
:104F0000040AFAE79FED030AF7E700BF0000803BC1
:104F10000000C07F0000000030B5044690F910008A
:104F2000421C85B019D1206801F0C6F8D021204676
:104F3000FFF708FD6028A06045D12046B622E02199
:104F4000FFF764FC4FF4967000F084FE2046FFF7F4
:104F50004DFD054628B36420F6E7012180B201F03B
:104F600048FB94F91000012180B201F031FB94F963
:104F70001300431C04D1FFF7E5FB00F0C7FCD5E7A5
:104F8000012180B201F024FB94F91100012180B2CB
:104F900001F01EFB94F91200002180B201F018FB11
:104FA000C4E72046FFF792FD052300931A4603212C
:104FB0002046CDE90155FFF77BFC642000F04AFE56
:104FC000012005B030BD0020FBE7772310B5037149
:104FD000044601F091FB20602046FFF79DFF30B9A9
:104FE000762323712046BDE81040FFF795BF10BD22
:104FF00010B50C4601F080FB01F05EF801F07CFB7F
:10500000382101F08FF801F077FBA100036841F02F
:1050100002019B6801F0FE01984701F06DFB01F071
:1050200088F8BDE810404FF4FA7000F013BE38B5B0
:1050300001F062FB0122392101F06DF801280446DC
:1050400002D04FF6FF7038BD01F056FB03685B6974
:105050009847054601F050FB2246382101F05BF8E5
:105060000128EED101F048FB03685B69984740EAEC
:10507000052080B2E7E70368C9B29B6818470022A1
:1050800042608260C26040F2011202820122827498
:10509000704738B504460D460068612101F042F8BA
:1050A0002068290AFFF7E7FF2068E9B2FFF7E3FF6E
:1050B000206801F03EF808B1002038BD20680222C7
:1050C000612101F028F8206803681B6998470028CF
:1050D000F2D0206803685B6998470546206803683A
:1050E0005B699847C3B243EA052080B2E5E708B59B
:1050F00040F20221FFF7CDFF431E5842584108BD40
:105100002DE9F8430446FFF7F2FF074618B90027D8
:105110003846BDE8F8832068612101F003F8206873
:105120000321FFF7A8FF20680021FFF7A4FF2068F4
:1051300000F0FFFF05460028E9D112226121206816
:1051400000F0E9FF206803681B699847064658B3DA
:10515000A8462E46A946206803685B699847EBB2CB
:10516000102B0DD8DFE803F009090C09090C1818F9
:105170000C18180C1C1C0C1C1C00C3B243EA092997
:105180000135122DE7D10023C4F80490A660C4F8BD
:105190000C802382A374BBE7C3B243EA0626EFE781
:1051A000C3B243EA0828EBE780468146EBE710B537
:1051B000037C04460BB1FFF7A3FFD4ED017AFCEEAC
:1051C000E77A0123237417EE903A98B210BD10B518
:1051D000437C04460BB1FFF793FF012394ED030AD0
:1051E000637410BD10B5837C04460BB1FFF788FFD4
:1051F000012394ED020AA37410BD0A44FF208A42E1
:1052000011D011F8013B5840082310F0800F03F132
:10521000FF334FEA400018BF80F0310013F0FF0366
:10522000C0B2F2D1EBE770472DE9F3410E464FEAE9
:10523000122815468DF8052001A9022204468DF892
:105240000480FFF7DAFF61210746206800F06AFF5B
:105250002068310AFFF70FFF2068F1B2FFF70BFF5C
:1052600020684146FFF707FF2068E9B2FFF703FF18
:105270002068036839469B689847206800F059FF0A
:10528000B0FA80F0400902B0BDE8F0810A46102172
:10529000FFF7CABF0021FFF7F9BF0A464FF48C4160
:1052A000FFF7C2BF38B504460846216000F004FF8E
:1052B0002046FFF7EFFF054648B102212046FFF7E1
:1052C000ECFF012245F206312046FFF7ADFF2846EC
:1052D00038BD4260112241700270704710B504461B
:1052E000406800F029FF10B9606800F0E5FE012079
:1052F00010BD000070B505464178406800F00EFF13
:1053000069786868022200F006FF686803685B69D4
:1053100098470646686803685B699847044644EA0C
:1053200006246868A4B200F004FF07EE904A9FEDDF
:10533000030AF8EE677A87EE800A70BD9A99993F62
:105340000378232B05D0132B0CBF1820B42000F0BA
:1053500081BC1820FBE738B504460D46417840680B
:1053600000F0DCFE6068036829469B689847606827
:1053700000F0DFFE25702046BDE83840FFF7E0BFB3
:1053800010B50378A3F12002012A044601D9232B8A
:1053900010D16178606800F0C1FE60682178036810
:1053A0009B689847606800F0C4FE2046BDE8104046
:1053B000FFF7C6BF10BD000008B5024B1B689B6815
:1053C000019308BD6802030008B5024B1B68DB6847
:1053D000019308BD6802030008B5024B1B689B6877
:1053E000019308BD2C02030008B5024B1B68DB6863
:1053F000019308BD2C02030008B5024B1B681B6912
:10540000019308BD2C02030008B5024B1B685B69C1
:10541000019308BD2C02030008B5024B1B685B68B2
:10542000019308BD1802030008B5024B1B685B69B5
:10543000019308BD1802030008B5024B1B689B6D61
:10544000019308BD1802030008B5024B1B685B6E90
:10545000019308BD1802030008B5024B1B685B6C82
:10546000019308BD4802030008B5024B1B685B6945
:10547000019308BD6402030008B5024B1B68DB689A
:10548000019308BD3C02030008B5024B1B681B6971
:10549000019308BD3C02030008B5024B1B685B6921
:1054A000019308BD3C02030008B5024B1B689B69D1
:1054B000019308BD3C02030008B5024B1B68DB6981
:1054C000019308BD3C02030008B5024B1B681B6A30
:1054D000019308BD3C02030008B5024B1B689B6AA0
:1054E000019308BD3C02030008B5024B1B681B6C0E
:1054F000019308BD3C02030008B5024B1B68DB6842
:10550000019308BD2802030008B5024B1B689B6984
:10551000019308BD2802030008B5024B1B68DB6934
:10552000019308BD2802030008B5024B1B681B6AE3
:10553000019308BD2802030008B5024B1B685B6A93
:10554000019308BD2802030008B5024B1B689B6A43
:10555000019308BD2802030008B5024B1B68DB6AF3
:10556000019308BD2802030008B5024B1B681B6BA2
:10557000019308BD2802030008B5024B1B685B6B52
:10558000019308BD2802030008B5024B1B681B6C81
:10559000019308BD2802030008B5024B1B681B6D70
:1055A000019308BD2802030008B5024B1B681B6865
:1055B000019308BD3002030008B5024B1B685B690C
:1055C000019308BD3002030008B5024B1B68DB697C
:1055D000019308BD3002030008B5024B1B681B6A2B
:1055E000019308BD3002030008B5024B1B685B6ADB
:1055F000019308BD3002030008B5024B1B68DB6B4A
:10560000019308BD3002030008B5024B1B681B6CF8
:10561000019308BD3002030008B5024B1B685B6CA8
:10562000019308BD3002030008B5024B1B681B68DC
:10563000019308BD4C02030008B5024B1B685B6870
:10564000019308BD4C02030008B5024B1B681B699F
:10565000019308BD4C02030008B5024B1B685B694F
:10566000019308BD4C02030008B5024B1B689B69FF
:10567000019308BD4C02030008B5024B1B68DB69AF
:10568000019308BD4C02030008B5024B1B681B6A5E
:10569000019308BD4C02030008B5024B1B681B6850
:1056A000019308BD2002030008B5024B1B685B682C
:1056B000019308BD2002030008B5024B1B685B691B
:1056C000019308BD2002030008B5024B1B689B6DC7
:1056D000019308BD2002030008B5034B1B68D3F8F3
:1056E0008830019308BD00002002030008B5034B79
:1056F0001B68D3F89430019308BD0000200203001A
:1057000008B5024B1B685B68019308BD40020300AB
:1057100008B5024B1B689B68019308BD400203005B
:1057200008B5024B1B68DB68019308BD400203000B
:1057300008B5024B1B681B69019308BD40020300BA
:1057400008B5024B1B685B69019308BD400203006A
:1057500008B5024B1B689B69019308BD400203001A
:1057600008B5024B1B68DB69019308BD40020300CA
:1057700008B5024B1B681B6A019308BD4002030079
:1057800008B5024B1B681B6B019308BD4002030068
:1057900008B5024B1B685B6B019308BD4002030018
:1057A00008B5024B1B681B6C019308BD4002030047
:1057B00008B5024B1B685B6C019308BD40020300F7
:1057C00008B5024B1B689B68019308BD44020300A7
:1057D00008B5024B1B68DB68019308BD4402030057
:1057E00008B5024B1B685B69019308BD44020300C6
:1057F00008B5024B1B68DB69019308BD4402030036
:1058000008B5024B1B681B6B019308BD44020300E3
:1058100008B5024B1B68DB6B019308BD4402030013
:1058200008B5024B1B681B68019308BD1C020300EE
:1058300008B5024B1B685B68019308BD1C0203009E
:1058400008B5024B1B685B6A019308BD1C0203008C
:1058500008B5024B1B681B6C019308BD1C020300BA
:1058600008B5024B1B685B6C019308BD1C0203006A
:10587000002240681146FFF77BBF002240681146B6
:10588000FFF786BF40680022FFF77ABF406800221A
:1058900081F00101FFF764BF002340681A461946F2
:1058A000FFF756BF002340681A461946FFF748BF66
:1058B000002240681146FFF73BBF002240681146B6
:1058C000FFF726BF406800220221FFF729BF00230F
:1058D00040681A46FFF714BF024B03225A60024A7F
:1058E0001A607047C4E6032004790B000021FFF71B
:1058F00093BE0021FFF788BE10B50446084621700C
:10590000FFF762FE00236360204610BD13B5044616
:105910000078FFF7EEFF58B9207801904FF6FF713D
:10592000FFF742FE019802B0BDE81040FFF7DEBF6E
:1059300002B010BD0078FFF7D9BF0000400830B5B5
:105940001860002418688842E5B206D90134082C92
:1059500002D040081860F5E70725024B5B5D137025
:1059600030BD00BF38790B002DE9F04306468FB0FB
:1059700000780C46FFF7BDFF00281BDB35781422AA
:10598000002109A801F008FE0B23002209A92846DE
:10599000ADF82430FFF728FE9DF82D3013B19DF8A7
:1059A0002C5055B10027B946B846012523795DB181
:1059B000C3B100200FB0BDE8F083DDF830809DF862
:1059C00034909DF83570F1E7002B35D1A36843453D
:1059D00008D18DF820908DF82170BDF82020A38982
:1059E0009A42E6D00023A1688DF80F300A9804ABE4
:1059F0000DF10F02FFF7A2FF217985B989B9A368DC
:105A000043450ED38DF820908DF82170BDF82020ED
:105A1000A3899A4205D1049B434502D1C9E70029D5
:105A2000F9D100230193637B00939DF80F20237B22
:105A30003078FFF7E1FDBCE7CDE900552B462A465B
:105A40000121F5E708B50078FFF7B6FDC0B208BD43
:105A5000054B02221A60054B054A9A600020C3E9F3
:105A60000000FFF721BE00BFD8E60320CCE60320EC
:105A70000000FFFF10B504460068FFF7D9FE20467E
:105A800010BD0000024800230360FFF7E5BC00BF23
:105A9000DCE60320F8B506460D468F180024BD420B
:105AA0000CD0336815F8011B9B6830469847031EDD
:105AB00001DB1C44F3E7002C08BF1C462046F8BD60
:105AC00013B50446084659B1019101F09BFD2368C6
:105AD0000199DB680246204602B0BDE81040184735
:105AE00002B010BD08B5FFF7EBFF08BD03689B6867
:105AF000184738B50D210546FFF7F8FF0A2104467F
:105B00002846FFF7F3FF204438BD38B50546FFF7B8
:105B1000D7FF04462846FFF7ECFF204438BD30B5D8
:105B20008BB00023012A8DF8243098BF0A2209ACDB
:105B30000D46B1FBF2F101FB125303F0FF03092BF9
:105B400094BF30333733DBB2AA4204F8013DEFD9BA
:105B50002146FFF7B5FF0BB030BD2DE9F04186B00F
:105B600000AF05460E46381D142114463B60FFF772
:105B700067FE13280ED8391D2846FFF7A1FF0446FB
:105B80001EB12846FFF7B5FF044420461837BD462E
:105B9000BDE8F08100F1080323F00703E846ADEB10
:105BA000030D2246411C3B686846FFF749FE6946E3
:105BB0002846FFF785FF0446C546E1E7014B024A48
:105BC0001A607047E0E6032040790B0008B500201A
:105BD000FFF716FE28B1FFF703FE80F00100C0B208
:105BE00008BD0120FCE710B50020FFF725FC0446A6
:105BF000A0B9FFF751FD012810D12046FFF764FD41
:105C000060B9FFF7E3FF10B9FFF7DAFDF9E7FFF737
:105C1000DDFFBDE810400020FFF70EBC204610BDA0
:105C20001FB5FFF7E0FF10220021684601F0B4FC29
:105C300000216846FFF708FC009805B05DF804FBFA
:105C4000024B1A68024B1A60704700BFB8E5032088
:105C5000E4E603200021FFF72FBD0000014B0022E6
:105C60009A607047E8E60320014B1860704700BF58
:105C7000BCE5032008B50B4B43B100F067F903689E
:105C80001B699847002801DDAFF30080064B43B144
:105C900000F0F6FC03681B699847002801DDAFF3AC
:105CA000008008BD000000000000000008B5FFF7FC
:105CB000E1FFFFF7B9FB014B186008BD40E7032087
:105CC0000548064A064908B5121A01F057FC054B6B
:105CD000054A1A6008BD00BF00F4032004F4032045
:105CE0008C7C0B0000F403201E1C279A07B50023B0
:105CF00000931A466FF07701FFF7F8FC03B05DF8E8
:105D000004FB000007B543880A2B08D0502B0BD1A9
:105D1000094B1B684BB103B05DF804EB1847FFF764
:105D2000E5FF03B05DF804FB002300931A466FF013
:105D30007701FFF7DBFCF4E7FCE6032010B512481F
:105D40000021FFF78DFD114B1A68114B9A42114B40
:105D50000CBF012200221A7001D0FFF7B1FFFFF73C
:105D60005BFB044601F020FC0B4B13B12046AFF364
:105D7000008000210848FFF74BFDBDE810400748B0
:105D80000021FFF7A9BC00BF695C0B0000F40320F1
:105D90001E1C279AF8E6032000000000055D0B009A
:105DA000704710B518210446FEF77BF9204610BD58
:105DB000F0B5037D062B8DB00E4600F104074FF0C1
:105DC000000412D000F1080515F8011D0A22304622
:105DD000FFF7A5FEAF42044419D0002CF4D02E21C9
:105DE0003046FFF783FE0444EEE72F236A46394628
:105DF0000A208DF80040FFF737FB684601F002FCEF
:105E000033680246DB6869463046984704462046B8
:105E10000DB0F0BD10B5054B0446112240F8043B0F
:105E2000002101F0B9FB204610BD00BF68790B00CE
:105E30000346074A10B543F8042B01F1100251F84C
:105E4000044B43F8044B9142F9D10A781A7010BD03
:105E500068790B0010B59DF8084044EA032343EA33
:105E6000024242EA016104234160037510BD000053
:105E700007B5064B0360CB7800938B784A78097896
:105E8000FFF7E8FF03B05DF804FB00BF68790B0083
:105E9000417470477047704708B50021007CFFF7D8
:105EA000E3FB40EAE07008BD08B50121007CFFF784
:105EB000DBFB40EAE07008BD08B5007CFFF7CCFBD7
:105EC00020EAE07008BD08B5007CFFF7BDFB20EAC2
:105ED000E07008BD13B50446007C0191FFF7BCFBE0
:105EE0000028019901DC607C20B1207CFFF7C4FB15
:105EF00020EAE07002B010BD007CFFF7C5BB10B512
:105F000014210446FEF7CDF8204610BD10B54FF41D
:105F10007A73044608460021C4E90113044B236048
:105F20000123207463741146FFF77EFB204610BDE9
:105F30007C790B00007C0022FFF77EBB10B5142299
:105F40000446002101F028FB204610BD10B50F4C7F
:105F500088B003A8FFF7F2FF2178BFF35B8F11F041
:105F600001010FD120460191FEF79DF8019948B13A
:105F700003AA0748FFF7CAFF2046FEF799F805482D
:105F800001F0EEFA024808B010BD00BF00E70320A0
:105F900004E70320955E0B0070474174704708B515
:105FA000007CFFF799FA20EAE07008BD08B5007C94
:105FB000FFF76AFA20EAE07008BD08B5007CFFF739
:105FC00073FA40EAE07008BD08B5007CFFF764FA98
:105FD00040EAE07008BD007CFFF76EBA37B5457C3B
:105FE00004462DB1207C03B0BDE83040FFF744BA31
:105FF000007C0191FFF770FA00280199F2DC284635
:1060000003B030BD10B514210446FEF74AF820460F
:1060100010BD000010B54FF47A73044608461146CF
:106020000022C4E90123044B23600123207463741C
:10603000FFF75AFA204610BDAC790B007047F8B54F
:10604000064615460C468F18BC4206D0336814F835
:10605000011B9B6830469847F6E72846F8BD007C50
:106060000022FFF761BA007C0021FFF765BA007CCF
:106070000021FFF769BA007C0021FFF76DBA007CB0
:106080000021FFF771BA10B514210446FEF709F894
:10609000204610BD10B54FF47A730446084600211F
:1060A000C4E90113034B236020741146FFF76CFA17
:1060B000204610BDDC790B000023007C1A461946EF
:1060C000FFF71ABA7FB500221423CDE90122ADF8FB
:1060D00004300B788DF808304B680393CB68049339
:1060E000007C0B7A059301A9FFF756FA07B05DF81B
:1060F00004FB1FB5003B8DF800104FF064010391C5
:1061000018BF0123694601928DF80830FFF7DAFFC6
:1061100005B05DF804FB0123FFF7EBBF007C002214
:10612000FFF7F2B9C9B2FFF7F9BF007C0022FFF711
:10613000F3B90121FFF7F9BF007C0021FFF71CBA7A
:10614000002240681146FFF7F3BA0022406811466A
:10615000FFF70EBB002240681146FFF719BB4068ED
:106160000022FFF70DBB4068002281F00101FFF71C
:10617000F7BA002340681A461946FFF7E9BA002328
:1061800040681A461946FFF7DBBA002240681146FC
:10619000FFF7BEBA406800220221FFF7C1BA002310
:1061A00040681A46FFF7ACBA024B04225A60024A12
:1061B0001A60704718E70320047A0B000023406838
:1061C0001A46FFF79DBA406800220221FFF7A8BADD
:1061D000002240681146FFF79BBA00224068114632
:1061E000FFF7A6BA002340681A461946FFF7A8BA77
:1061F000002340681A461946FFF7AABA40680021F2
:10620000FFF7CEBA40680021FFF7D2BA40680022FB
:1062100081F00101FFF7A4BA40680022FFF7B0BA8D
:10622000002240681146FFF7B3BA002240681146C9
:10623000FFF79EBA2DE9F04395B014460D46074688
:10624000FFF7E8FD00211C220DA8009101F0A4F940
:1062500040230C9320466B460CAA0021FFF7B4F8AC
:10626000044600284BD1024601216868FFF760FA16
:106270000221804622466868FFF75AFA009E81464E
:106280002146002E3BD0002939D17368022B03D060
:106290000A2B11D0F669F4E7B8F1000FFAD0716952
:1062A00006A8043107ADFFF7E3FD0FCD3C1D0FC479
:1062B0002B6823704146EDE7B9F1000FEAD074690D
:1062C000102201A801F068F906238DF8143001AD01
:1062D00004F108031834186859682A4603C20833C1
:1062E000A3421546F7D101A906A807ADFFF7A0FD07
:1062F0000FCD3C1D0FC42B6823704946CAE7009898
:10630000FFF75AF8384615B0BDE8F083024B034A50
:106310001A6000225A60704720E70320407A0B0081
:10632000704710B514210446FDF7BBFE204610BD92
:1063300038B51546D0E903239342044607D2D21A52
:106340008068AA4228BF2A46184401F017F922693A
:106350002A44226138BD0EB417B505AB044653F884
:10636000042BE1680193036980688B4238BFC91A26
:10637000184428BF0021019BFFF762FA23691844E3
:10638000206103B0BDE8104003B0704707B5036853
:106390008DF807109B6801220DF10701984703B0A3
:1063A0005DF804FB10B57D210446FFF7EFFF0123E4
:1063B0002371204610BD08B50379012B02D0022BB2
:1063C00004D008BD2C21FFF7E1FFFAE73A21FAE7F4
:1063D00010B50446FFF7EFFF20467B21FFF7D6FFFD
:1063E00000232371204610BD13B504460191FFF729
:1063F000E2FF2368019ADB6803492046984701239E
:106400002046237102B010BD747A0B0013B5044608
:106410000191FFF7D0FF2368019ADB68034920460A
:10642000984701232046237102B010BD777A0B00F4
:10643000F8B5044657EC106BFFF7BDFF236805491C
:10644000DD6820463B463246A8470123237120469B
:10645000F8BD00BF7B7A0B002DE9F0470D462221E5
:1064600090460446FFF792FFDFF8A490A8442F4619
:106470004745BA463DD017F8016B222E06D05C2E58
:1064800004D0304601F072F80028F1D12368AAEB5D
:1064900005029B682946204698475C212046FFF765
:1064A00075FF0D2E0AD8072E1CD9A6F10803052B5F
:1064B00018D8DFE803F00D0F11171315222E01D0A5
:1064C0005C2E0FD131462046FFF760FF3D46CFE7F7
:1064D0006221F8E77421F6E76E21F4E76621F2E71E
:1064E0007221F0E723683246DB6849462046984728
:1064F000ECE7BD4205D023687A1B9B6829462046FD
:10650000984722212046FFF741FFBDE8F08700BFF2
:106510007E7A0B0013B50446CDE90021FFF74BFF4F
:106520002046DDE90021FFF797FF02232046237173
:1065300002B010BD13B50446CDE90021FFF73BFFC3
:106540002046DDE90021FFF787FF01232046237164
:1065500002B010BD232813B502D9002002B010BD2F
:10656000A0F10B03022B1AD8174C2178BFF35B8FD5
:1065700011F001010BD120460191FDF794FD019925
:1065800028B11248FFF7B8F92046FDF791FD0F4BEF
:106590001878FFF721F80028DFD10120DEE7012875
:1065A00009D800F0A9F80021007CFEF7E5FF80F093
:1065B0000100C0B2D2E709380128EED800F060F837
:1065C000007CFEF781FFF2E7B8E60320BCE603207B
:1065D000232838B504460D460AD8FF2908D0FFF70E
:1065E000B9FF28B129462046BDE83840FEF7F4BE81
:1065F00038BD38B504460D46FEF7F6FEFF2810D02C
:10660000062804D84D2323FA00F0C30709D42046F6
:10661000FFF7A0FF28B129462046BDE83840FEF725
:10662000EBBE38BD10B50446FEF7DEFE031FDBB23D
:10663000012B08D92046FFF78DFF20B12046BDE889
:106640001040FEF7E1BE002010BD704738B504468B
:1066500014252A46002100F09FFF25804025074988
:1066600025812846258200F06BF8044960602846A1
:1066700000F066F8E060204638BD00BF9C7A0B0051
:1066800030B50E4D2978BFF35B8F11F0010487B050
:1066900011D12846FDF707FD68B101A8FFF7D6FF25
:1066A00001AA21460648FFF7B5FC2846FDF700FD84
:1066B000044800F055FF024807B030BD28E703202A
:1066C0002CE703204B660B007047000038B52025EF
:1066D000142304460360856005610649284600F0DE
:1066E0002FF804496060284600F02AF8E060204650
:1066F00038BD00BF9C7A0B0030B50E4D2978BFF332
:106700005B8F11F0010487B011D12846FDF7CBFC57
:1067100068B101A8FFF7DAFF01AA21460648FFF792
:10672000B9FC2846FDF7C4FC044800F019FF0248F4
:1067300007B030BD44E7032048E70320C9660B00DB
:10674000FDF7ABBC81F0004102E000BF83F00043E5
:1067500030B54FEA41044FEA430594EA050F08BFFC
:1067600090EA020F1FBF54EA000C55EA020C7FEAC0
:10677000645C7FEA655C00F0E2804FEA5454D4EB3D
:106780005555B8BF6D420CDD2C4480EA020281EA07
:10679000030382EA000083EA010180EA020281EA3F
:1067A0000303362D88BF30BD11F0004F4FEA013191
:1067B0004FF4801C4CEA113102D0404261EB4101A0
:1067C00013F0004F4FEA03334CEA133302D0524226
:1067D00063EB430394EA050F00F0A780A4F10104E2
:1067E000D5F1200E0DDB02FA0EFC22FA05F280181C
:1067F00041F1000103FA0EF2801843FA05F3594102
:106800000EE0A5F120050EF1200E012A03FA0EFC80
:1068100028BF4CF0020C43FA05F3C01851EBE371AA
:1068200001F0004507D54FF0000EDCF1000C7EEBC7
:1068300000006EEB0101B1F5801F1BD3B1F5001F05
:106840000CD349085FEA30004FEA3C0C04F1010424
:106850004FEA445212F5800F80F09A80BCF1004F4D
:1068600008BF5FEA500C50F1000041EB045141EACF
:10687000050130BD5FEA4C0C404141EB0101013C98
:1068800028BFB1F5801FE9D291F0000F04BF014687
:106890000020B1FA81F308BF2033A3F10B03B3F159
:1068A00020020CDA0C3208DD02F1140CC2F10C02E9
:1068B00001FA0CF021FA02F10CE002F11402D8BF47
:1068C000C2F1200C01FA02F120FA0CFCDCBF41EA13
:1068D0000C019040E41AA2BF01EB0451294330BDE2
:1068E0006FEA04041F3C1CDA0C340EDC04F11404BF
:1068F000C4F1200220FA04F001FA02F340EA030096
:1069000021FA04F345EA030130BDC4F10C04C4F1DB
:10691000200220FA02F001FA04F340EA03002946BB
:1069200030BD21FA04F0294630BD94F0000F83F405
:10693000801306BF81F480110134013D4EE77FEAE8
:10694000645C18BF7FEA655C29D094EA050F08BF34
:1069500090EA020F05D054EA000C04BF1946104615
:1069600030BD91EA030F1EBF0021002030BD5FEA59
:10697000545C05D14000494128BF41F0004130BD81
:1069800014F580043CBF01F5801130BD01F00045D5
:1069900045F0FE4141F470014FF0000030BD7FEA48
:1069A000645C1ABF194610467FEA655C1CBF0B4643
:1069B000024650EA013406BF52EA033591EA030F5A
:1069C00041F4002130BD00BF90F0000F04BF002152
:1069D000704730B54FF4806404F132044FF0000585
:1069E0004FF0000150E700BF90F0000F04BF0021FE
:1069F000704730B54FF4806404F1320410F0004564
:106A000048BF40424FF000013EE700BF42004FEA5E
:106A1000E2014FEA31014FEA02701FBF12F07F43DB
:106A200093F07F4F81F06051704732F07F4208BF92
:106A3000704793F07F4F04BF41F40021704730B599
:106A40004FF4607401F0004521F000411CE700BFE5
:106A500050EA010208BF704730B54FF000050AE068
:106A600050EA010208BF704730B511F0004502D569
:106A7000404261EB41014FF4806404F132045FEA6B
:106A8000915C3FF4D8AE4FF003025FEADC0C18BF14
:106A900003325FEADC0C18BF033202EBDC02C2F106
:106AA000200300FA03FC20FA02F001FA03FE40EA98
:106AB0000E0021FA02F11444BDE600BF70B54FF09C
:106AC000FF0C4CF4E06C1CEA11541DBF1CEA13557A
:106AD00094EA0C0F95EA0C0F00F0DEF82C4481EAE2
:106AE000030621EA4C5123EA4C5350EA013518BF02
:106AF00052EA033541F4801143F4801338D0A0FBEF
:106B000002CE4FF00005E1FB02E506F00042E0FB9B
:106B100003E54FF00006E1FB03569CF0000F18BFA1
:106B20004EF0010EA4F1FF04B6F5007F64F5407449
:106B300004D25FEA4E0E6D4146EB060642EAC621DC
:106B400041EA55514FEAC52040EA5E504FEACE2E49
:106B5000B4F1FD0C88BFBCF5E06F1ED8BEF1004F4C
:106B600008BF5FEA500E50F1000041EB045170BDC8
:106B700006F0004646EA010140EA020081EA03010C
:106B8000B4EB5C04C2BFD4EB0C0541EA045170BD08
:106B900041F480114FF0000E013C00F3AB8014F182
:106BA000360FDEBF002001F0004170BDC4F10004CB
:106BB000203C35DA0C341BDC04F11404C4F120054C
:106BC00000FA05F320FA04F001FA05F240EA0200A7
:106BD00001F0004221F0004110EBD37021FA04F6DD
:106BE00042EB06015EEA430E08BF20EAD37070BD97
:106BF000C4F10C04C4F1200500FA04F320FA05F0F6
:106C000001FA04F240EA020001F0004110EBD370F7
:106C100041F100015EEA430E08BF20EAD37070BD67
:106C2000C4F1200500FA05F24EEA020E20FA04F340
:106C300001FA05F243EA020321FA04F001F00041EF
:106C400021FA04F220EA020000EBD3705EEA430E60
:106C500008BF20EAD37070BD94F0000F0FD101F08F
:106C60000046400041EB010111F4801F08BF013CC8
:106C7000F7D041EA060195F0000F18BF704703F006
:106C80000046520043EB030313F4801F08BF013D8D
:106C9000F7D043EA0603704794EA0C0F0CEA135549
:106CA00018BF95EA0C0F0CD050EA410618BF52EA03
:106CB0004306D1D181EA030101F000414FF0000009
:106CC00070BD50EA410606BF1046194652EA430617
:106CD00019D094EA0C0F02D150EA013613D195EA8B
:106CE0000C0F05D152EA03361CBF104619460AD1D3
:106CF00081EA030101F0004141F0FE4141F47001DD
:106D00004FF0000070BD41F0FE4141F4780170BDCC
:106D100070B54FF0FF0C4CF4E06C1CEA11541DBF31
:106D20001CEA135594EA0C0F95EA0C0F00F0A7F833
:106D3000A4EB050481EA030E52EA03354FEA013160
:106D400000F088804FEA03334FF0805545EA131373
:106D500043EA12634FEA022245EA111545EA10653B
:106D60004FEA00260EF000419D4208BF964244F1D2
:106D7000FD0404F5407402D25B084FEA3202B61AF1
:106D800065EB03055B084FEA32024FF480104FF4C5
:106D9000002CB6EB020E75EB030E22BFB61A754639
:106DA00040EA0C005B084FEA3202B6EB020E75EBCC
:106DB000030E22BFB61A754640EA5C005B084FEA34
:106DC0003202B6EB020E75EB030E22BFB61A754601
:106DD00040EA9C005B084FEA3202B6EB020E75EB0C
:106DE000030E22BFB61A754640EADC0055EA060ECD
:106DF00018D04FEA051545EA16754FEA06164FEA10
:106E0000C30343EA52734FEAC2025FEA1C1CC0D1BB
:106E100011F4801F0BD141EA00014FF000004FF048
:106E2000004CB6E711F4801F04BF01430020B4F109
:106E3000FD0C88BFBCF5E06F3FF6AFAEB5EB030CC1
:106E400004BFB6EB020C5FEA500C50F1000041EBBE
:106E5000045170BD0EF0004E4EEA113114EB5C048B
:106E6000C2BFD4EB0C0541EA045170BD41F480115E
:106E70004FF0000E013C90E645EA060E8DE60CEA66
:106E8000135594EA0C0F08BF95EA0C0F3FF43BAF83
:106E900094EA0C0F0AD150EA01347FF434AF95EA3A
:106EA0000C0F7FF425AF104619462CE795EA0C0F1E
:106EB00006D152EA03353FF4FDAE1046194622E7EB
:106EC00050EA410618BF52EA43067FF4C5AE50EAC5
:106ED00041047FF40DAF52EA43057FF4EBAE12E7B5
:106EE0004FEA410212F5001215D211D56FF47873F2
:106EF000B3EB625212D94FEAC12343F0004343EA95
:106F0000505311F0004F23FA02F018BF404270476F
:106F10004FF00000704750EA013005D111F00040F9
:106F200008BF6FF0004070474FF00000704700BF8F
:106F30004FEA4102B2F1E04324BFB3F5001CDCF19B
:106F4000FE5C0DD901F0004C4FEAC0024CEA5070D3
:106F5000B2F1004F40EB830008BF20F00100704702
:106F600011F0804F21D113F13872BCBF01F0004005
:106F7000704741F480114FEA5252C2F11802C2F137
:106F8000200C10FA0CF320FA02F018BF40F00100B8
:106F90004FEAC1234FEAD32303FA0CFC40EA0C006A
:106FA00023FA02F34FEA4303CCE77FEA625307D1A7
:106FB00050EA01331EBF4FF0FE4040F440007047DE
:106FC00001F0004040F0FE4040F40000704700BF78
:106FD00080F0004002E000BF81F0004142001FBF8E
:106FE0005FEA410392EA030F7FEA226C7FEA236C97
:106FF0006AD04FEA1262D2EB1363C1BFD21841408C
:1070000048404140B8BF5B42192B88BF704710F021
:10701000004F40F4000020F07F4018BF404211F0C4
:10702000004F41F4000121F07F4118BF494292EA2C
:10703000030F3FD0A2F1010241FA03FC10EB0C0058
:10704000C3F1200301FA03F100F0004302D54942E5
:1070500060EB4000B0F5000F13D3B0F1807F06D392
:1070600040084FEA310102F10102FE2A51D2B1F18A
:10707000004F40EBC25008BF20F0010040EA03007F
:107080007047490040EB0000013A28BFB0F5000FFF
:10709000EDD2B0FA80FCACF1080CB2EB0C0200FAB5
:1070A0000CF0AABF00EBC25052421843BCBFD04004
:1070B0001843704792F0000F81F4000106BF80F47E
:1070C00000000132013BB5E74FEA41037FEA226C41
:1070D00018BF7FEA236C21D092EA030F04D092F00C
:1070E000000F08BF0846704790EA010F1CBF002040
:1070F000704712F07F4F04D1400028BF40F000409D
:10710000704712F100723CBF00F50000704700F0BC
:10711000004343F0FE4040F4000070477FEA2262E3
:1071200016BF08467FEA23630146420206BF5FEAB4
:10713000412390EA010F40F4800070474FF00003B4
:1071400004E000BF10F0004348BF40425FEA000C7B
:1071500008BF704743F0964301464FF000001CE023
:1071600050EA010208BF70474FF000030AE000BF79
:1071700050EA010208BF704711F0004302D54042B7
:1071800061EB41015FEA010C02BF84460146002029
:1071900043F0B64308BFA3F18053A3F50003BCFA44
:1071A0008CF2083AA3EBC25310DB01FA02FC6344F1
:1071B00000FA02FCC2F12002BCF1004F20FA02F2F8
:1071C00043EB020008BF20F00100704702F12002EB
:1071D00001FA02FCC2F1200250EA4C0021FA02F24C
:1071E00043EB020008BF20EADC7070477BB972B93C
:1071F0000029BEBF00204FF0004106E008BF002874
:107200001CBF6FF000414FF0FF3000F0A7B9ADF1A7
:10721000080C6DE904CE002909DB002B1ADB00F015
:1072200035F8DDF804E0DDE9022304B070474042A0
:1072300061EB4101002B1BDB00F028F8DDF804E0D6
:10724000DDE9022304B0404261EB4101524263EBAD
:1072500043037047524263EB430300F017F8DDF835
:1072600004E0DDE9022304B0404261EB41017047D4
:10727000524263EB430300F009F8DDF804E0DDE976
:10728000022304B0524263EB430370472DE9F047F9
:10729000089D04468E46002B4DD18A42944669D9FA
:1072A000B2FA82F252B101FA02F3C2F1200120FADD
:1072B00001F10CFA02FC41EA030E94404FEA1C482B
:1072C000210CBEFBF8F61FFA8CF708FB16E341EA27
:1072D000034306FB07F199420AD91CEB030306F1AD
:1072E000FF3080F01F81994240F21C81023E6344CE
:1072F0005B1AA4B2B3FBF8F008FB103344EA034472
:1073000000FB07F7A7420AD91CEB040400F1FF3386
:1073100080F00A81A74240F207816444023840EAC3
:107320000640E41B00261DB1D4400023C5E90043FC
:107330003146BDE8F0878B4209D9002D00F0EF807F
:107340000026C5E9000130463146BDE8F087B3FAB2
:1073500083F6002E4AD18B4202D3824200F2F9809A
:10736000841A61EB030301209E46002DE0D0C5E99D
:10737000004EDDE702B9FFDEB2FA82F2002A40F0E9
:107380009280A1EB0C014FEA1C471FFA8CFE0126EC
:10739000200CB1FBF7F307FB131140EA01410EFB90
:1073A00003F0884208D91CEB010103F1FF3802D237
:1073B000884200F2CB804346091AA4B2B1FBF7F031
:1073C00007FB101144EA01440EFB00FEA64508D954
:1073D0001CEB040400F1FF3102D2A64500F2BB8091
:1073E0000846A4EB0E0440EA03409CE7C6F12007E0
:1073F000B34022FA07FC4CEA030C20FA07F401FA26
:1074000006F31C43F9404FEA1C4900FA06F3B1FBAE
:10741000F9F8200C1FFA8CFE09FB181140EA014113
:1074200008FB0EF0884202FA06F20BD91CEB0101B0
:1074300008F1FF3A80F08880884240F28580A8F108
:1074400002086144091AA4B2B1FBF9F009FB10115A
:1074500044EA014100FB0EFE8E4508D91CEB0101F8
:1074600000F1FF346CD28E456AD90238614440EA9B
:107470000840A0FB0294A1EB0E01A142C846A6461B
:1074800056D353D05DB1B3EB080261EB0E0101FAA4
:1074900007F722FA06F3F1401F43C5E90071002601
:1074A0003146BDE8F087C2F12003D8400CFA02FC57
:1074B00021FA03F3914001434FEA1C471FFA8CFE67
:1074C000B3FBF7F007FB10360B0C43EA064300FB57
:1074D0000EF69E4204FA02F408D91CEB030300F1F5
:1074E000FF382FD29E422DD9023863449B1B89B2AC
:1074F000B3FBF7F607FB163341EA034106FB0EF335
:107500008B4208D91CEB010106F1FF3816D28B42E1
:1075100014D9023E6144C91A46EA004638E72E46AD
:10752000284605E70646E3E61846F8E64B45A9D2A5
:10753000B9EB020864EB0C0E0138A3E74646EAE714
:10754000204694E74046D1E7D0467BE7023B6144C2
:1075500032E7304609E76444023842E7704700BF2B
:10756000002301461A46184600F054B8024B18444E
:10757000407800F097007047317B0B000A4491423D
:1075800000F1FF3300D1704710B511F8014B03F83B
:10759000014F9142F9D110BD02440346934200D1FC
:1075A000704703F8011BF9E738B5104B1D68AB6B4A
:1075B0000446B3B91820FEF733F90246A86320B990
:1075C0000B4B0C484221FEF743F90B490B4BC0E92A
:1075D00000130B4B83600B23838100210120C2E940
:1075E0000401AB6B00221C615A6138BDBCE503206D
:1075F0009D7A0B00B47A0B000E33CDAB34126DE6DE
:10760000ECDE0500034613F8012B002AFBD1181A03
:10761000013870472DE9F843DFF8B8800646D8F8FE
:1076200000001F460D46914600F056F8254B1C6899
:1076300034B9254C1C60254B13B11B68C4F8883045
:1076400063681F2B07DDD8F8000000F047F84FF003
:10765000FF30BDE8F8834EB3D4F8880088B91C4BDE
:1076600023B9D8F8000000F038F8F0E74FF4847040
:10767000FEF7D6F80028F4D00023C0E94033C4F860
:107680008800636840F8239001229A4000EB830150
:10769000D0F800311343C0F80031022EC1F88070D9
:1076A00002BFD0F804311343C0F804316368D8F83E
:1076B00000005A1C0233626044F8235000F00EF8B8
:1076C0000020C6E7E8E703205CE703200000000095
:1076D00021580B0020E603207047704770470000D8
:1076E00021400B005D400B0085400B0089400B00E2
:1076F0000000000044657669636549440044617494
:107700006554696D6500424831373530004C696712
:1077100068745F6C6576656C286C757829005343D6
:1077200044333000434F322870706D290054656D2A
:1077300070657261747572652843290048756D69BA
:107740006469747928252900504D534130303349FC
:10775000005374616E646172645F504D312E30006D
:107760005374616E646172645F504D322E35005304
:1077700074616E646172645F504D313000456E76A5
:1077800069726F6E6D656E74616C5F504D312E3035
:1077900000456E7669726F6E6D656E74616C5F50D8
:1077A0004D322E3500456E7669726F6E6D656E7462
:1077B000616C5F504D3130004144435F56616C75E0
:1077C000650064420056454D4C3630373000555602
:1077D0005F6C696768745F6C6576656C0050726594
:1077E0007373757265286D62617229004368656301
:1077F0006B20636F6E6E656374696F6E732E204EBF
:107800006F20736C61766520617474616368656470
:107810002E00547279696E6720746F20636F6E6EEC
:1078200065637420424831373530204C75782053D9
:10783000656E736F7200547279696E6720746F2081
:10784000636F6E6E65637420424D45323830205050
:1078500054482053656E736F7200547279696E6775
:1078600020746F20636F6E6E6563742053434433DE
:107870003020434F322053656E736F72005A696F28
:10788000205177696963204C6F75646E657373204E
:1078900053656E736F72204D61737465722041770A
:1078A000616B650064656661756C7420004D5342C0
:1078B000004C5342003C53504953657474696E67E1
:1078C000732064656661756C743E003C5350495387
:1078D000657474696E677320257325752025732080
:1078E0004D4F444525753E0000000000000000009B
:1078F000E9460B00BB460B00BD460B000000000034
:1079000000000000CF580B00C5580B00BB580B00FF
:10791000B1580B00A5580B0099580B00FD610B00E6
:1079200005620B008D580B0085580B007B580B002F
:1079300071580B0035620B000008101820283038F1
:107940006170700025592D256D2D25645425483A08
:10795000254D3A2553257A0061736374696D65007E
:107960000000000000000000B15D0B00A15D0B00F5
:10797000A35D0B000000000000000000975E0B00FC
:10798000FF5E0B00D55E0B00955A0B00C75E0B0027
:10799000995E0B00A95E0B00F95E0B00B95E0B004F
:1079A000915E0B000000000000000000995F0B00DA
:1079B00005600B00DD5F0B00955A0B00AD5F0B00FF
:1079C000C95F0B00BB5F0B00D75F0B009B5F0B0019
:1079D0009F5F0B0000000000000000003D600B00F6
:1079E00087600B005F600B003F600B0067600B005F
:1079F0006F600B0077600B007F600B0000000000E1
:107A0000000000009F610B0095610B008B610B0073
:107A100041610B007F610B0073610B00FD610B0086
:107A200005620B0067610B005F610B0055610B0085
:107A30004B610B0035620B000000000000000000ED
:107A4000BD610B00C7610B00D1610B00DB610B0056
:107A5000E5610B00F1610B00FD610B0005620B009D
:107A60000D620B0019620B0021620B002B620B00F0
:107A700035620B00256400256C64002567007525C0
:107A800030347800000000000000000021630B008B
:107A900023630B0031630B0057630B000052454515
:107AA0004E54206D616C6C6F632073756363656504
:107AB000646564002F6D6E742F776F726B737061E5
:107AC00063652F776F726B73706163652F474343F4
:107AD0002D31302D706970656C696E652F6A656E29
:107AE0006B696E732D4743432D31302D706970657E
:107AF0006C696E652D34385F32303230313132345A
:107B00005F313630363138303634312F7372632F6F
:107B10006E65776C69622F6E65776C69622F6C6930
:107B200062632F7374646C69622F72616E642E637A
:107B3000000020202020202020202028282828285D
:107B40002020202020202020202020202020202035
:107B5000202088101010101010101010101010108D
:107B6000101004040404040404040404101010108D
:107B70001010104141414141410101010101010148
:107B800001010101010101010101010101101010B8
:107B9000101010424242424242020202020202021B
:107BA000020202020202020202020202021010108B
:107BB0001020000000000000000000000000000095
:107BC00000000000000000000000000000000000B5
:107BD00000000000000000000000000000000000A5
:107BE0000000000000000000000000000000000095
:107BF0000000000000000000000000000000000085
:107C00000000000000000000000000000000000074
:107C10000000000000000000000000000000000064
:107C20000000000000000000000000000000000054
:107C300000000000F9450B00D9580B00515A0B0009
:107C4000855A0B00BD5B0B00415C0B005D5C0B00BB
:107C5000A9610B000D630B00000000000000000094
:107C6000040000001400000003000000474E55000F
:107C700012A140BA49E80DEF9BD3022DFC69C11057
:047C80005BDBC2A662
:087C840008F6FF7F010000007B
:047C8C0000000000F4
:107C900058790B00C0E50320000000000000000040
:107CA00000000000000000000000000000000000D4
:107CB00000000000000000000000000000000000C4
:107CC00000000000000000000000000000000000B4
:107CD00000000000000000000000000000000000A4
:107CE0000000000000000000000000000000000094
:0C7CF0000000000000000000ECE7032092
:107CFC00FFFFFFFF00000102030405060708090A45
:107D0C000B0C0D0E0F101112131415161718191A3F
:087D1C001B1C1D1E1F20280086
:047D24007856341247
:04000003B0004020E9
:00000001FF
