:02000002B0004C
:1040000000400B00E4810B00000006000C000502DC
:084010000401E50C00000000B2
:04401800147C0B0009
:1040200009480A49884208B505D0094A824202D0A7
:10403000121A03F017FD0748074A0021121A03F06D
:104040001FFD014808BD00BFA4E5032050810B00FF
:1040500010E6032010E60320EDE7032070B5074EBD
:10406000074C02F01DF9A41BA4080025AC4200D1A6
:1040700070BD56F8043B98470135F7E7FC800B000C
:1040800020810B0000F0F4B808B500F029FABDE873
:10409000084002F0BDB801F0E1BB01F0DFBB01F068
:1040A000E5BB0078B0FA80F0400970470123037047
:1040B00070470EB403B503AB012153F8042B0193F1
:1040C00001F0E9FE02B05DF804EB03B070470000B8
:1040D0002DE9F74F02F0A8FC302102F0D1FA02F0EE
:1040E000A3FC0368284D9B680521984702F09CFCBF
:1040F00002F0D1FA02F098FC0222302102F0BDFA5F
:104100000FF27409D9E900891DA7D7E9006702F009
:104110008BFC03681B69984758B302F085FC036861
:104120005B699847044602F07FFC03685B69984727
:10413000E4B2C0B244EA00242C8002F0B9F982460D
:10414000204602F0E9FD42464B4602F099FC324619
:104150003B4602F075FF03F041F902F0EFFDB5F8C0
:1041600000B0CDE900015A4608495046FFF7A1FFCB
:10417000CDE703B0BDE8F08F7E1D386744CD5440D5
:10418000A8C64B378901264010E60320287C0B0087
:1041900008B502F049FC302102F072FA02F044FC4A
:1041A00002F079FA28B102F083F9024901F073FDB7
:1041B000FEE708BD407C0B0038B5244C244801F0D4
:1041C000BBF848B94FF4FA7001F0F6FF02F070F94D
:1041D000214601F060FDF1E71D481E4D1E4C1321E4
:1041E00001F0E7F8284600F01EFF90B11B4D1C4C73
:1041F00002F01AFC0146284601F082F898B94FF403
:10420000FA7001F0D9FF02F053F9214601F043FDA5
:10421000EEE74FF4FA7001F0CFFF02F049F92146C2
:1042200001F039FDDEE702F0FFFB01460D4800F02A
:10423000ABF902F03DF90C4901F02DFDFFF7A8FFA5
:10424000BDE838400948012100F000BF667C0B0042
:1042500050E6032058E603208A7C0B0014E6032076
:10426000AE7C0B0028E60320D17C0B009CE60320EB
:1042700008B502F0D9FB02F0D1F90121072002F0C4
:104280003FFB02F015F94FF4165102F005F9BDE8B5
:104290000840FFF791BF000010B52DED048B7E485C
:1042A00092B001F09BF802F003F904467A4801F05D
:1042B0004FF810EE100A02F041FD02460B460AA824
:1042C000764901F07DFC0A99204601F0E4FC0AA839
:1042D00001F016FC724800F038FF002843D002F0CD
:1042E000E7F8704901F0C4FC02F0E2F804466C48BB
:1042F00000F08BFF0A220146204601F0D6FC02F0B6
:10430000D7F8694901F0B4FC02F0D2F804466448D9
:1043100000F096FF0121204601F0AEFD02F0C8F842
:10432000624901F0A5FC02F0C3F804465C4800F0C5
:104330007CFF0121204601F09FFD02F0B9F801F059
:104340009EFC5B480AA900F035F990B902F0B0F87C
:10435000584901F0A0FC41F2883001F02DFF12B065
:10436000BDEC048B10BD02F0A3F8534901F093FC9F
:10437000E7E7BDF82A3009EE103ABDF82C3008EE18
:10438000103ABDF82E3008EE903A02F091F8B8EEEF
:10439000499A044619EE100A02F0D0FCF8EE688A39
:1043A00002460B4618EE900ACDE9042302F0C6FC43
:1043B000B8EE488ACDE9020118EE100A02F0BEFC00
:1043C000DDE90423CDE9000106A83C4901F0F8FB32
:1043D0000699204601F05FFC06A801F091FBFFF76B
:1043E00077FE02F065F8364901F042FC02F060F811
:1043F0000446344800F049FE0A220146204601F0F6
:1044000054FC204601F03BFC02F052F804462E48D2
:1044100000F0E0FCDFED2D7AC0EE277A17EE900A6F
:1044200002F08CFC02460B4606A8294901F0C8FBA5
:104430000699204601F02FFC06A801F061FB02F06E
:1044400037F8244901F014FC02F032F804461E4803
:1044500000F076FC0221204601F00EFD02F028F863
:104460001D4901F018FC02F023F80446164800F03C
:1044700037FC10EE100A02F061FC02460B4606A85B
:10448000164901F09DFB0699204601F004FC06A8A0
:1044900001F036FB63E700BF50E60320F87C0B0019
:1044A00014E603200E7D0B00197D0B002C7D0B0004
:1044B00028E60320437D0B003B7D0B005B7D0B005A
:1044C000937D0B009CE6032058E603200000C842C1
:1044D000A47D0B00B87D0B00C37D0B00C67D0B00D7
:1044E00010B5012188B0072002F01BFA01F0E0FFAF
:1044F000124901F0D0FB01F044FE039001F0D8FF17
:104500000F4B039A1B6800930446D31704A80D4968
:1045100001F0D8FD0499204601F0BDFB04A801F08C
:10452000EFFAFFF7B9FE0021072002F0FAF947F28F
:10453000305008B0BDE8104001F03EBEDB7D0B00FE
:10454000A4E50320CCE6032008B502F06DFA232190
:104550000246074800F0EBFE064800F01DF9064849
:1045600000F0BBFDBDE80840044800F009B800BFFA
:1045700050E6032058E6032014E6032028E6032033
:104580000022C0E90022704737B50368044653B9DA
:1045900010200191FFF77FFD054618B1019A122105
:1045A00000F06CF825602068012103B0BDE83040C0
:1045B00000F080B8F0B5054691B00E4611B9002064
:1045C00011B0F0BD0468002C3AD0202201230DEB7D
:1045D0000201204600F07DF80028F0D09DF8203040
:1045E000422BECD108AA11461E23002411F8010B1E
:1045F000013B204413F0FF0384B2F7D16846012148
:1046000003469778D578013105EB0725102920F866
:10461000025B02F10202F4D1324606AF1D4603CD21
:10462000BD42106051602B4602F10802F6D12868A5
:104630001060AB889380B08B031B58425841BFE792
:1046400040680028BBD003681B6998470028B6D093
:10465000686803689B69984742286868036802D0C5
:104660005B699847ABE71B6998471F28A7DD2022A5
:1046700068680DEB020101F054FCAFE742600022D4
:10468000027220220170C260704710B5037A04469E
:1046900053B12178606801F0F3FF606801F0FBFF1F
:1046A000B0FA80F0400910BD012100F003F80028A5
:1046B000EFD1F8E738B5044640680D4601F0AEFF8B
:1046C0000120207225B12046BDE83840FFF7DDBF4C
:1046D00038BD2DE9F0411546C268AA4204460E468F
:1046E00014D301784068EAB201F0B5FF85420DD1DC
:1046F00000271FFA87F8454507F1010709D96068C7
:1047000003685B69984706F80800F2E70020BDE8F7
:10471000F0810120FBE7704710B510210446FFF738
:10472000BEFC204610BD0EB403B503AB002153F808
:10473000042B019301F0AFFB02B05DF804EB03B072
:104740007047000073B5044608462279A36832B169
:10475000A3B90B4902B0BDE8704001F089BA094A1B
:10476000267B094D0949647B012E18BF2946CDE9F6
:1047700000140749FFF7D7FF02B070BD054AEFE705
:104780002F7E0B002C800B002B7E0B00277E0B0056
:10479000457E0B001E7E0B004FF0FF330361704718
:1047A00013B50B4C2178BFF35B8F11F001010BD1D6
:1047B00020460191FFF775FC019928B1054801F0E9
:1047C000E1F82046FFF772FC024802B010BD00BFBE
:1047D000A0E60320A4E6032008B5FFF7E1FFBDE84B
:1047E000084001F0EDB807B50190FFF7D9FF019936
:1047F00003B05DF804EB01F0FDB82DE9F04190F94C
:104800001330013305460F4606D1FFF7C9FF39467D
:10481000BDE8F04101F05CB9002407264FF0010823
:1048200095F91300002180B202F07BF895F9110090
:1048300008FA06F1394080B202F073F895F91300D6
:10484000012180B202F06DF895F91200640080B287
:10485000E4B202F07FF808B144F00104013EDFD277
:104860002046BDE8F08100007FB590F9103001339B
:1048700004460E46154613D10179006801F000FF89
:104880002068036831469B6898472068036829467A
:104890009B689847206804B0BDE8704001F0FBBEFB
:1048A00090F9133001330CD1164B009300238DF88F
:1048B0000430154B029368460123ADF80C30FFF726
:1048C00092FF94F91000002180B202F02AF806F05D
:1048D0007F012046FFF791FF29462046FFF78DFF15
:1048E00094F91000012180B202F01BF894F9133002
:1048F000013304D104B0BDE87040FFF76DBF04B0D0
:1049000070BD00BF6C7E0B0020A10700F8B5DB0076
:1049100002F0070203F03803134343EA81139DF8C2
:10492000186080F83C3090F840309DF81C509DF89D
:10493000207066F3471380F84030ED0090F838306F
:1049400007F0070705F0380523F03F033D43044611
:104950001D4380F8385006F00702F221FFF784FF6C
:1049600094F83820C2F3C20302F007019B0043EA27
:10497000411343EAD2122046F521FFF775FF94F860
:104980003C20C2F3C20302F007019B0043EA41133B
:1049900043EA92122046F421BDE8F840FFF764BFD5
:1049A00030B590F91030013385B004460D4618D16A
:1049B0000179006801F064FE2068036829469B685D
:1049C0009847206801F067FE21792068012201F0F4
:1049D00054FE206803685B699847C5B2284605B055
:1049E00030BD90F9133001330CD1154B00930023E7
:1049F0008DF80430134B029368460123ADF80C3058
:104A0000FFF7F1FE94F91000002180B201F089FF58
:104A100045F080012046FFF7F0FE00212046FFF719
:104A2000ECFE054694F91000012180B201F079FFF7
:104A300094F913300133D1D1FFF7CEFECEE700BF9A
:104A40006C7E0B0020A1070008B5F321FFF7A8FF3B
:104A500000F0010008BD000030B590F910300133BE
:104A600085B004460D461FD10179006801F008FEAB
:104A70002068036829469B689847206801F00BFE70
:104A800021792068022201F0F8FD206803685B6943
:104A900098470546206803685B69984740EA052007
:104AA00085B2284605B030BD90F9133001330CD1E2
:104AB000184B009300238DF80430174B029368467F
:104AC0000123ADF80C30FFF78EFE94F910000021A1
:104AD00080B201F026FF45F080012046FFF78DFEF1
:104AE00000212046FFF789FE002105462046FFF7FA
:104AF00084FE40EA052085B294F91000012180B2BD
:104B000001F00FFF94F913300133CAD1FFF764FEAF
:104B1000C7E700BF6C7E0B0020A1070008B5FFF7B8
:104B20009BFF40BA80B208BD38B588210446FFF724
:104B3000F5FF8A21A0822046FFF7F0FF8C21E0825A
:104B40002046FFF7EBFF8E2120832046FFF7E6FF8C
:104B5000902160832046FFF7E1FF9221A083204649
:104B6000FFF7DCFF9421E0832046FFF7D7FF962173
:104B700020842046FFF7D2FF982160842046FFF76B
:104B8000CDFF9A21A0842046FFF7C8FF9C21E08436
:104B90002046FFF7C3FF9E2120852046FFF7BEFF7A
:104BA000A12160852046FFF7FBFEE12184F82C005F
:104BB0002046FFF7B3FFE321E0852046FFF7F0FE34
:104BC000E42184F830002046FFF7EAFEE52105469F
:104BD0002046FFF7E5FE00F00F0343EA051060866C
:104BE000E6212046FFF7DCFEE52105462046FFF7DB
:104BF000D7FEC0F3071343EA0510A086E72120463D
:104C0000FFF7CEFE84F8360038BD000030B590F9CD
:104C10001030013385B004460D4623D10179006878
:104C200001F02EFD2068036829469B68984720689C
:104C300001F031FD21792068032201F01EFD20687A
:104C400003685B6998470502206803685B699847B9
:104C500028430502206803685B6998470543284696
:104C600005B030BD90F9133001330CD11A4B0093CD
:104C700000238DF80430194B029368460123ADF8E8
:104C80000C30FFF7B0FD94F91000002180B201F064
:104C900048FE45F080012046FFF7AFFD0021204689
:104CA000FFF7ABFD002105022046FFF7A6FD2843D4
:104CB000050200212046FFF7A0FD054394F91000EE
:104CC000012180B201F02DFE94F913300133C6D1D9
:104CD000FFF782FDC3E700BF6C7E0B0020A1070039
:104CE00010B5FA210446FFF791FFB0F5000F1FD071
:104CF000A18A9FED117A4B00C1EB2022C3EBE0119A
:104D0000B4F91630594302FB02F3B4F918201B130F
:104D100053439B1303EBE123E36003EB83038033F3
:104D20001B1207EE903AF8EEE77A87EE870A10BD7D
:104D30009FED020AFBE700BF0000C8420000C07FF1
:104D400038B50446FFF7CCFFFD212046FFF784FE6F
:104D5000B0F5004F38D0E168B4F93420A1F59635AC
:104D6000B4F932100905C1EB803305FB123303F5AA
:104D70008043DA1394F8303094F936106B43DB1229
:104D80006943891203F500434B439B12B4F92E107B
:104D900003F500134B4303F500539B135343DA13FE
:104DA00094F82C105243D2114A43A3EB221323EA66
:104DB000E373B3F1C85FA8BF4FF0C8531B1300EEF5
:104DC000103ABAEECB0A38BD9FED010AFBE700BFEF
:104DD0000000C07F2DE9F8430546FFF781FFF7216A
:104DE0002846FFF713FFB0F5000F00F0B680E96822
:104DF000B5F91C304FEAE17EB1F5FA314EF1FF3ED4
:104E0000DC1703FB0EF201FB0422A3FB0134224456
:104E10001203A1FB01781C0301FB0EF642EA1352B8
:104E2000B5F91E3008EB46084FEAE37C03FB08F6B1
:104E300007FB0C66A3FB073C66441B0A43EA0663B8
:104E40001B1942EB26226E8B02F50042A3FB0634AF
:104E500006FB0244E317621053EA64044FF0000CAF
:104E60007ED0B5F9244004FB08F64FEAE47907FB4D
:104E70000966A4FB07473E44B5F922704FEAE7787C
:104E800007FB0EFE01FB08EEA7FB0171714449040C
:104E900041EAD73100117F043F19C0F5801446EB79
:104EA000010604F00040B5F920101CEB070740EAAA
:104EB0005400E407E41B06EBC10640F6354160EB05
:104EC0000606A4FB010401FB064102F0E5FBB5F96F
:104ED0002A20B5F928604FEA613C430B43EAC143FD
:104EE00002FB0CF7D41703FB0477A2FB03243C441A
:104EF00002FB0CF703FB0477A2FB03231F44530EB2
:104F000043EAC7131B184FEAE67206FB01F4864614
:104F100041EB676702FB0041A6FB0E06B5F9264090
:104F20003144C00C40EA413018184FEAE47547EBB1
:104F3000E141000A2D0140EA016045EA14752401AF
:104F4000201845EB212102F069FB9FED070A07EECF
:104F5000900A27EE800ABDE8F8839FED040AFAE77D
:104F60009FED030AF7E700BF0000803B0000C07F11
:104F70000000000030B5044690F91000421C85B0D6
:104F800019D1206801F04AFBD0212046FFF708FD27
:104F90006028A06045D12046B622E021FFF764FCDE
:104FA0004FF4967001F008F92046FFF74DFD0546D5
:104FB00028B36420F6E7012180B201F0B2FC94F935
:104FC0001000012180B201F09BFC94F91300431CF6
:104FD00004D1FFF7E5FB00F0DFFCD5E7012180B24B
:104FE00001F08EFC94F91100012180B201F088FCDF
:104FF00094F91200002180B201F082FCC4E720463F
:10500000FFF792FD052300931A4603212046CDE9C0
:105010000155FFF77BFC642001F0CEF8012005B0BC
:1050200030BD0020FBE7772310B50371044601F083
:10503000FBFC20602046FFF79DFF30B976232371EB
:105040002046BDE81040FFF795BF10BD10B50C46D7
:1050500001F0EAFC01F0E2FA01F0E6FC382101F08F
:1050600013FB01F0E1FCA100036841F002019B6821
:1050700001F0FE01984701F0D7FC01F00CFBBDE800
:1050800010404FF4FA7001F097B838B501F0CCFC3D
:105090000122392101F0F1FA0128044602D04FF62D
:1050A000FF7038BD01F0C0FC03685B699847054696
:1050B00001F0BAFC2246382101F0DFFA0128EED1D6
:1050C00001F0B2FC03685B69984740EA052080B2B2
:1050D000E7E70368C9B29B68184700224260826014
:1050E000C26040F20112028201228274704738B518
:1050F00004460D460068612101F0C6FA2068290ABD
:10510000FFF7E7FF2068E9B2FFF7E3FF206801F04F
:10511000C2FA08B1002038BD20680222612101F0E6
:10512000ACFA206803681B6998470028F2D0206811
:1051300003685B6998470546206803685B69984780
:10514000C3B243EA052080B2E5E708B540F2022188
:10515000FFF7CDFF431E5842584108BD2DE9F843E3
:105160000446FFF7F2FF074618B900273846BDE8A6
:10517000F8832068612101F087FA20680321FFF796
:10518000A8FF20680021FFF7A4FF206801F083FA40
:1051900005460028E9D112226121206801F06DFA4C
:1051A000206803681B699847064658B3A8462E46F0
:1051B000A946206803685B699847EBB2102B0DD8AD
:1051C000DFE803F009090C09090C18180C18180C71
:1051D0001C1C0C1C1C00C3B243EA09290135122D0A
:1051E000E7D10023C4F80490A660C4F80C802382A1
:1051F000A374BBE7C3B243EA0626EFE7C3B243EAB0
:105200000828EBE780468146EBE710B5037C0446AF
:105210000BB1FFF7A3FFD4ED017AFCEEE77A01238F
:10522000237417EE903A98B210BD10B5437C044633
:105230000BB1FFF793FF012394ED030A637410BDD4
:1052400010B5837C04460BB1FFF788FF012394ED72
:10525000020AA37410BD0A44FF208A4211D011F83B
:10526000013B5840082310F0800F03F1FF334FEA51
:10527000400018BF80F0310013F0FF03C0B2F2D13C
:10528000EBE770472DE9F3410E464FEA1228154629
:105290008DF8052001A9022204468DF80480FFF74D
:1052A000DAFF61210746206801F0EEF92068310A33
:1052B000FFF70FFF2068F1B2FFF70BFF20684146B0
:1052C000FFF707FF2068E9B2FFF703FF20680368D4
:1052D00039469B689847206801F0DDF9B0FA80F004
:1052E000400902B0BDE8F0810A461021FFF7CABFAD
:1052F0000021FFF7F9BF0A464FF48C41FFF7C2BF08
:1053000038B504460846216001F088F92046FFF7C9
:10531000EFFF054648B102212046FFF7ECFF0122CE
:1053200045F206312046FFF7ADFF284638BD426002
:10533000112241700270704710B50446406801F0B8
:10534000ADF910B9606801F069F9012010BD0000E5
:1053500070B505464178406801F092F9697868684F
:10536000022201F08AF9686803685B69984706467B
:10537000686803685B699847044644EA06246868DD
:10538000A4B201F088F907EE904A9FED030AF8EE07
:10539000677A87EE800A70BD9A99993F0378232B2C
:1053A00005D0132B0CBF1820B42000F005BF182027
:1053B000FBE738B504460D464178406801F060F9D6
:1053C0006068036829469B689847606801F063F944
:1053D00025702046BDE83840FFF7E0BF10B50378E0
:1053E000A3F12002012A044601D9232B10D16178B0
:1053F000606801F045F96068217803689B68984708
:10540000606801F048F92046BDE81040FFF7C6BFCC
:1054100010BD000008B5024B1B689B68019308BDD6
:105420006802030008B5024B1B68DB68019308BDE6
:105430006802030008B5024B1B689B68019308BD16
:105440002C02030008B5024B1B68DB68019308BD02
:105450002C02030008B5024B1B681B69019308BDB1
:105460002C02030008B5024B1B685B69019308BD61
:105470002C02030008B5024B1B685B68019308BD52
:105480001802030008B5024B1B685B69019308BD55
:105490001802030008B5024B1B689B6D019308BD01
:1054A0001802030008B5024B1B685B6E019308BD30
:1054B0001802030008B5024B1B685B6C019308BD22
:1054C0004802030008B5024B1B685B69019308BDE5
:1054D0006402030008B5024B1B68DB68019308BD3A
:1054E0003C02030008B5024B1B681B69019308BD11
:1054F0003C02030008B5024B1B685B69019308BDC1
:105500003C02030008B5024B1B689B69019308BD70
:105510003C02030008B5024B1B68DB69019308BD20
:105520003C02030008B5024B1B681B6A019308BDCF
:105530003C02030008B5024B1B689B6A019308BD3F
:105540003C02030008B5024B1B681B6C019308BDAD
:105550003C02030008B5024B1B68DB68019308BDE1
:105560002802030008B5024B1B689B69019308BD24
:105570002802030008B5024B1B68DB69019308BDD4
:105580002802030008B5024B1B681B6A019308BD83
:105590002802030008B5024B1B685B6A019308BD33
:1055A0002802030008B5024B1B689B6A019308BDE3
:1055B0002802030008B5024B1B68DB6A019308BD93
:1055C0002802030008B5024B1B681B6B019308BD42
:1055D0002802030008B5024B1B685B6B019308BDF2
:1055E0002802030008B5024B1B681B6C019308BD21
:1055F0002802030008B5024B1B681B6D019308BD10
:105600002802030008B5024B1B681B68019308BD04
:105610003002030008B5024B1B685B69019308BDAB
:105620003002030008B5024B1B68DB69019308BD1B
:105630003002030008B5024B1B681B6A019308BDCA
:105640003002030008B5024B1B685B6A019308BD7A
:105650003002030008B5024B1B68DB6B019308BDE9
:105660003002030008B5024B1B681B6C019308BD98
:105670003002030008B5024B1B685B6C019308BD48
:105680003002030008B5024B1B681B68019308BD7C
:105690004C02030008B5024B1B685B68019308BD10
:1056A0004C02030008B5024B1B681B69019308BD3F
:1056B0004C02030008B5024B1B685B69019308BDEF
:1056C0004C02030008B5024B1B689B69019308BD9F
:1056D0004C02030008B5024B1B68DB69019308BD4F
:1056E0004C02030008B5024B1B681B6A019308BDFE
:1056F0004C02030008B5024B1B681B68019308BDF0
:105700002002030008B5024B1B685B68019308BDCB
:105710002002030008B5024B1B685B69019308BDBA
:105720002002030008B5024B1B689B6D019308BD66
:105730002002030008B5034B1B68D3F8883001939F
:1057400008BD00002002030008B5034B1B68D3F816
:105750009430019308BD00002002030008B5024BFD
:105760001B685B68019308BD4002030008B5024B4B
:105770001B689B68019308BD4002030008B5024BFB
:105780001B68DB68019308BD4002030008B5024BAB
:105790001B681B69019308BD4002030008B5024B5A
:1057A0001B685B69019308BD4002030008B5024B0A
:1057B0001B689B69019308BD4002030008B5024BBA
:1057C0001B68DB69019308BD4002030008B5024B6A
:1057D0001B681B6A019308BD4002030008B5024B19
:1057E0001B681B6B019308BD4002030008B5024B08
:1057F0001B685B6B019308BD4002030008B5024BB8
:105800001B681B6C019308BD4002030008B5024BE6
:105810001B685B6C019308BD4002030008B5024B96
:105820001B689B68019308BD4402030008B5024B46
:105830001B685B69019308BD4402030008B5024B75
:105840001B681B6B019308BD4402030008B5024BA3
:105850001B68DB6B019308BD4402030008B5024BD3
:105860001B681B68019308BD1C02030008B5024BAE
:105870001B685B68019308BD1C02030008B5024B5E
:105880001B689B68019308BD1C02030008B5024B0E
:105890001B681B69019308BD1C02030008B5024B7D
:1058A0001B68DB69019308BD1C02030008B5024BAD
:1058B0001B685B6A019308BD1C02030008B5024B1C
:1058C0001B681B6C019308BD1C02030008B5024B4A
:1058D0001B685B6C019308BD1C02030008B5024BFA
:1058E0001B689B6C019308BD1C02030008B5024BAA
:1058F0001B68DB6C019308BD1C020300002240689A
:105900001146FFF763BF002240681146FFF76EBFE4
:1059100040680022FFF762BF4068002281F0010169
:10592000FFF74CBF002340681A461946FFF73EBFF9
:10593000002340681A461946FFF730BF002240682E
:105940001146FFF723BF002240681146FFF70EBF44
:10595000406800220221FFF711BF002340681A4669
:10596000FFF7FCBE024B03225A60024A1A607047DE
:10597000ACE60320807E0B000021FFF77BBE0021F8
:10598000FFF770BE10B5044608462170FFF74AFEC7
:1059900000236360204610BD13B504460078FFF76E
:1059A000EEFF58B9207801904FF6FF71FFF72AFEFD
:1059B000019802B0BDE81040FFF7DEBF02B010BD95
:1059C0000078FFF7D9BF0000400830B51860002408
:1059D00018688842E5B206D90134082C02D0400884
:1059E0001860F5E70725024B5B5D137030BD00BF03
:1059F000B47E0B002DE9F04306468FB000780C46CC
:105A0000FFF7BDFF00281BDB35781422002109A811
:105A100002F036F80B23002209A92846ADF82430FD
:105A2000FFF710FE9DF82D3013B19DF82C5055B1A5
:105A30000027B946B846012523795DB1C3B10020DE
:105A40000FB0BDE8F083DDF830809DF834909DF80C
:105A50003570F1E7002B35D1A368434508D18DF8A7
:105A600020908DF82170BDF82020A3899A42E6D0BD
:105A70000023A1688DF80F300A9804AB0DF10F02D6
:105A8000FFF7A2FF217985B989B9A36843450ED3F1
:105A90008DF820908DF82170BDF82020A3899A42BE
:105AA00005D1049B434502D1C9E70029F9D1002360
:105AB0000193637B00939DF80F20237B3078FFF7E1
:105AC000C9FDBCE7CDE900552B462A460121F5E783
:105AD00008B50078FFF79EFDC0B208BD054B022255
:105AE0001A60054B054A9A600020C3E90000FFF7E1
:105AF00009BE00BFC0E60320B4E603200000FFFF9C
:105B000010B504460068FFF7B1FE204610BD10B581
:105B10000446006808B1FFF7A9FE0023C4E9013379
:105B2000236010BD38B504460D4600680131FFF70B
:105B3000A5FE10B1C4E90005012038BD10B5036809
:105B4000044623B143688B4201D3012010BD204697
:105B5000FFF7E8FF0028F9D0A368002BF5D12268F1
:105B60001370F2E737B50D46114601920446FFF770
:105B7000E5FF019A28B92046FFF7C9FF204603B088
:105B800030BDA2602946206801F06CFF2268A3683E
:105B90000021D154F2E7002313B5C0E900330446D5
:105BA0008360037341B10846019101F0B1FF01998F
:105BB00002462046FFF7D6FF204602B010BD000087
:105BC0000EB470B587B00BAD044655F8042B0192A6
:105BD0002B46052104A80395FFF768FE0B490646EE
:105BE0002046FFF7D8FF31462046FFF7A7FF206881
:105BF00030B1019A03952B46711CFFF757FEA06048
:105C0000204607B0BDE8704003B070472C800B0001
:105C1000024800230360FFF74DBC00BFC4E6032029
:105C2000F8B506460D468F180024BD420CD03368E7
:105C300015F8011B9B6830469847031E01DB1C4486
:105C4000F3E7002C08BF1C462046F8BD13B50446F8
:105C5000084659B1019101F05BFF23680199DB68A7
:105C60000246204602B0BDE81040184702B010BD01
:105C700008B5FFF7EBFF08BD03689B68184738B508
:105C80000D210546FFF7F8FF0A2104462846FFF7D5
:105C9000F3FF204438BD38B50546FFF7D7FF04466B
:105CA0002846FFF7ECFF204438BD30B58BB0002309
:105CB000012A8DF8243098BF0A2209AC0D46B1FBA9
:105CC000F2F101FB125303F0FF03092B94BF3033B1
:105CD0003733DBB2AA4204F8013DEFD92146FFF782
:105CE000B5FF0BB030BD00002DE9F74F55EC104B60
:105CF00006460F4610EE102A10EE100A2B462946D3
:105D000001F00EFB40B153493046FFF79FFF82463A
:105D1000504603B0BDE8F08F25F000494E4B4FF0E0
:105D2000FF322046494601F0FBFA48B94A4B4FF092
:105D3000FF322046494601F0D5FA08B94749E3E762
:105D4000474B4FF060422046294601F0DFFA08B188
:105D50004449D9E7444B4FF060422046294601F0C0
:105D6000B7FA0028F4D1002200232046294601F08A
:105D7000AFFAD0B12D213046FFF77EFF05F1004389
:105D800082461D463949DFF8EC904FF0000B0020A9
:105D90004FF000085FFA8BF39F4208D942464B460A
:105DA00001F04EF90BF1010BF4E78246EAE72246D7
:105DB0002B4600F065FE0D46044601F0EFFA8046E2
:105DC00000F09AFF02460B462046294600F056FE98
:105DD0000A2204460D4630464146FFF766FF8244DC
:105DE000002F95D02249DFF88C903046FFF72EFF28
:105DF0004FF000088244002F8AD042464B4620468E
:105E0000294600F0F3FF04460D4601F09FFAB0F179
:105E1000000B1CDA2D213046FFF72EFFCBF10001DD
:105E200003460A2230460193FFF73FFF019B1844C7
:105E30008244584600F070FF02460B462046294631
:105E400000F01CFE013F04460D46FFB2D3E7594661
:105E50000023E6E7BC7E0B00FFFFEF7FC07E0B0058
:105E6000FFFFEF41C47E0B00FFFFEFC10000E03FEA
:105E7000647C0B000000244038B5044610EE100A84
:105E8000CDB200F05BFF41EC100B29462046BDE887
:105E90003840FFF729BF2DE9F04186B000AF054635
:105EA0000E46381D142114463B60FFF7FFFC1328F3
:105EB0000ED8391D2846FFF7C9FE04461EB12846F4
:105EC000FFF7DDFE044420461837BD46BDE8F081EB
:105ED00000F1080323F00703E846ADEB030D22466B
:105EE000411C3B686846FFF7E1FC69462846FFF71E
:105EF000ADFE0446C546E1E710B50446FFF7C2FA19
:105F0000E060236820465B699847002808DAFFF7BD
:105F1000B9FAE368C01AA3689842F2D34FF0FF3091
:105F200010BD2DE9F04107460C468E180D46B542CE
:105F3000A5EB040807D03846FFF7DEFF031E02DB9F
:105F400005F8013BF3E74046BDE8F081014B024A0A
:105F50001A607047C8E60320C87E0B0008B5002011
:105F6000FFF76CFC28B1FFF761FC80F00100C0B2C4
:105F700008BD0120FCE7000030B593B0CDE9002357
:105F8000194B0446D3E90010019B521843EB000360
:105F90001648D0E90010521843EB0003CDE9002366
:105FA00024220DEB0200002101F06AFD002509A961
:105FB0006846FFF79BFC1622294603A8029501F0CC
:105FC0005FFD02A909A801F021FD02A801F0A0FDD2
:105FD00012AB184402A900F8415C2046FFF7DBFD34
:105FE000204613B030BD00BFE0E60320D8E6032012
:105FF0002DE9F047A4B00746884614A811463F2271
:106000001C4601F08DFD002314A88DF88F3001F09F
:106010007FFD05464CBB294903A801F071FD14AC76
:10602000002605F1FF39B14534D92378252B06F137
:10603000010A17D163787A2B14D103A801F068FD07
:1060400014AB054630181844A9EB0602A11C01F058
:1060500009FD2A4603A9204601F004FD14A801F019
:1060600057FD054601345646DBE73C2394FBF3F22B
:10607000002AB8BF5242B2FBF3F103FB1122009297
:106080004FF461630E4A94FBF3F3102103A8FFF76A
:1060900005FCC4E700212E2208A8079101F0F0FCBE
:1060A000434614AA322107A8FFF718FC07A938466F
:1060B000FFF771FD384624B0BDE8F087CC7E0B00B9
:1060C000CE7E0B00F0B58DB0CDE90023129D0446C5
:1060D00015B9194B1D682DB1184B2846196801F0E8
:1060E00005FD38B9DDE900232046FFF745FF2046CE
:1060F0000DB0F0BD124E0099124FD6E900325B1878
:10610000019942EB0102D7E900011B1842EB0102A1
:10611000CDE900320021242203A801F0B1FC03A93B
:106120006846FFF7E3FB32683B6803A91344204647
:106130002A46FFF75DFFDAE7D0E60320A4E5032057
:10614000E0E60320D8E6032010B50020FFF7A2F90F
:106150000446A0B9FFF7CEFA012810D12046FFF778
:10616000E1FA60B9FFF7FAFE10B9FFF757FBF9E75C
:10617000FFF7F4FEBDE810400020FFF78BB9204682
:1061800010BD1FB5FFF7E0FF10220021684601F0A7
:1061900077FC00216846FFF785F9009805B05DF8A7
:1061A00004FB0000024B1A68024B1A60704700BFE4
:1061B000A4E50320D0E603200021FFF7ABBA0000DE
:1061C000014B00229A607047E8E60320014B1860FB
:1061D000704700BFA8E5032008B50B4B43B100F0A2
:1061E00067F903681B699847002801DDAFF3008059
:1061F000064B43B100F0DCFB03681B69984700289D
:1062000001DDAFF3008008BD0000000000000000C9
:1062100008B5FFF7E1FFFFF735F9014B186008BD3E
:1062200040E703200548064A064908B5121A01F05E
:1062300019FC054B054A1A6008BD00BF00F4032095
:1062400004F403204C810B0000F403201E1C279A49
:1062500007B5002300931A466FF07701FFF774FA31
:1062600003B05DF804FB000007B543880A2B08D093
:10627000502B0BD1094B1B684BB103B05DF804EBFD
:106280001847FFF7E5FF03B05DF804FB0023009318
:106290001A466FF07701FFF757FAF4E7FCE60320A0
:1062A00010B512480021FFF711FB114B1A68114B72
:1062B0009A42114B0CBF012200221A7001D0FFF745
:1062C000B1FFFFF7D7F8044601F0E2FB0B4B13B127
:1062D0002046AFF3008000210848FFF7B7FABDE879
:1062E000104007480021FFF725BA00BFCD610B0021
:1062F00000F403201E1C279AF8E60320000000008B
:1063000069620B00704710B518210446FDF7C7FEFF
:10631000204610BDF0B5037D062B8DB00E4600F172
:1063200004074FF0000412D000F1080515F8011D14
:106330000A223046FFF7B9FCAF42044419D0002CC2
:10634000F4D02E213046FFF797FC0444EEE72F23CC
:106350006A4639460A208DF80040FFF7B3F86846D0
:1063600001F0D6FB33680246DB6869463046984741
:10637000044620460DB0F0BD10B5054B0446112271
:1063800040F8043B002101F07BFB204610BD00BF1C
:10639000007F0B000346074A10B543F8042B01F1B8
:1063A000100251F8044B43F8044B9142F9D10A789A
:1063B0001A7010BD007F0B0010B59DF8084044EA2C
:1063C000032343EA024242EA016104234160037568
:1063D00010BD000007B5064B0360CB7800938B78A7
:1063E0004A780978FFF7E8FF03B05DF804FB00BFC7
:1063F000007F0B00417470477047704708B500215B
:10640000007CFFF75FF940EAE07008BD08B50121A4
:10641000007CFFF757F940EAE07008BD08B5007C42
:10642000FFF748F920EAE07008BD08B5007CFFF7E7
:1064300039F920EAE07008BD13B50446007C0191EB
:10644000FFF738F90028019901DC607C20B1207C3D
:10645000FFF740F920EAE07002B010BD007CFFF7C2
:1064600041B910B514210446FDF719FE204610BDB0
:1064700010B54FF47A73044608460021C4E90113AD
:10648000044B23600123207463741146FFF7FAF86C
:10649000204610BD147F0B00007C0022FFF7FAB8E5
:1064A00010B514220446002101F0EAFA204610BD7E
:1064B00010B50F4C88B003A8FFF7F2FF2178BFF3A7
:1064C0005B8F11F001010FD120460191FDF7E9FD2D
:1064D000019948B103AA0748FFF7CAFF2046FDF714
:1064E000E5FD054801F0B8FA024808B010BD00BF4C
:1064F00000E7032004E70320F9630B0070474174B1
:10650000704708B5007CFFF715F820EAE07008BD79
:1065100008B5007CFEF7E6FF20EAE07008BD08B58C
:10652000007CFEF7EFFF40EAE07008BD08B5007C94
:10653000FEF7E0FF40EAE07008BD007CFEF7EABF2E
:1065400037B5457C04462DB1207C03B0BDE8304012
:10655000FEF7C0BF007C0191FEF7ECFF0028019917
:10656000F2DC284603B030BD10B514210446FDF717
:1065700096FD204610BD000010B54FF47A73044616
:10658000084611460022C4E90123044B236001237D
:1065900020746374FEF7D6FF204610BD447F0B00C5
:1065A0007047F8B5064615460C468F18BC4206D013
:1065B000336814F8011B9B6830469847F6E7284675
:1065C000F8BD007C0022FEF7DDBF007C0021FEF755
:1065D000E1BF007C0021FEF7E5BF007C0021FEF753
:1065E000E9BF007C0021FEF7EDBF10B51421044681
:1065F000FDF755FD204610BD10B54FF47A730446E3
:1066000008460021C4E90113034B2360207411469E
:10661000FEF7E8FF204610BD747F0B000023007CCE
:106620001A461946FEF796BF7FB500221423CDE91E
:106630000122ADF804300B788DF808304B680393D5
:10664000CB680493007C0B7A059301A9FEF7D2FF77
:1066500007B05DF804FB1FB5003B8DF800104FF04C
:106660006401039118BF0123694601928DF8083037
:10667000FFF7DAFF05B05DF804FB0123FFF7EBBF7E
:10668000007C0022FEF76EBFC9B2FFF7F9BF007CA5
:106690000022FEF76FBF0121FFF7F9BF007C002148
:1066A000FEF798BF002240681146FFF76FB800223E
:1066B00040681146FFF78AB8002240681146FFF78C
:1066C00095B840680022FFF789B84068002281F041
:1066D0000101FFF773B8002340681A461946FFF717
:1066E00065B8002340681A461946FFF757B80022DC
:1066F00040681146FFF73AB8406800220221FFF7D0
:106700003DB8002340681A46FFF728B8024B042220
:106710005A60024A1A60704718E703209C7F0B00FA
:10672000002340681A46FFF719B84068002202218A
:10673000FFF724B8002240681146FFF717B800227F
:1067400040681146FFF722B8002340681A461946F0
:10675000FFF724B8002340681A461946FFF726B809
:1067600040680021FFF74AB840680021FFF74EB8A3
:106770004068002281F00101FFF720B84068002244
:10678000FFF72CB8002240681146FFF72FB800220F
:1067900040681146FFF71AB82DE9F04395B014464A
:1067A0000D460746FFF7E8FD00211C220DA80091C9
:1067B00001F066F940230C9320466B460CAA002199
:1067C000FEF730FE044600284BD1024601216868DE
:1067D000FEF7DCFF0221804622466868FEF7D6FFFE
:1067E000009E81462146002E3BD0002939D1736896
:1067F000022B03D00A2B11D0F669F4E7B8F1000F91
:10680000FAD0716906A8043107ADFFF7E3FD0FCD9B
:106810003C1D0FC42B6823704146EDE7B9F1000F12
:10682000EAD07469102201A801F02AF906238DF834
:10683000143001AD04F108031834186859682A4669
:1068400003C20833A3421546F7D101A906A807AD34
:10685000FFF7A0FD0FCD3C1D0FC42B6823704946E8
:10686000CAE70098FEF7D6FD384615B0BDE8F083BC
:10687000024B034A1A6000225A60704720E7032047
:10688000D87F0B00232813B502D9002002B010BD19
:10689000A0F10B03022B1AD8174C2178BFF35B8FA2
:1068A00011F001010BD120460191FDF7FAFB01998E
:1068B00028B11248FFF766F82046FDF7F7FB0F4BAB
:1068C0001878FEF7B7FE0028DFD10120DEE70128A7
:1068D00009D800F0A9F80021007CFEF77BFE80F0CB
:1068E0000100C0B2D2E709380128EED800F060F804
:1068F000007CFEF717FEF2E7A0E60320A4E60320E3
:10690000232838B504460D460AD8FF2908D0FFF7DA
:10691000B9FF28B129462046BDE83840FEF78ABDB8
:1069200038BD38B504460D46FEF78CFDFF2810D063
:10693000062804D84D2323FA00F0C30709D42046C3
:10694000FFF7A0FF28B129462046BDE83840FEF7F2
:1069500081BD38BD10B50446FEF774FD031FDBB2E0
:10696000012B08D92046FFF78DFF20B12046BDE856
:106970001040FEF777BD002010BD704738B50446C3
:1069800014252A46002101F07BF82580402507497F
:1069900025812846258200F06BF80449606028466E
:1069A00000F066F8E060204638BD00BF0C800B00A8
:1069B00030B50E4D2978BFF35B8F11F0010487B01D
:1069C00011D12846FDF76DFB68B101A8FFF7D6FF8E
:1069D00001AA21460648FFF7CFFD2846FDF766FBD2
:1069E000044801F039F8024807B030BD28E7032019
:1069F0002CE703207B690B007047000038B5202589
:106A0000142304460360856005610649284600F0AA
:106A10002FF804496060284600F02AF8E06020461C
:106A200038BD00BF0C800B0030B50E4D2978BFF388
:106A30005B8F11F0010487B011D12846FDF731FBBF
:106A400068B101A8FFF7DAFF01AA21460648FFF75F
:106A5000D3FD2846FDF72AFB044800F0FDFF02485D
:106A600007B030BD44E7032048E70320F9690B0075
:106A7000FDF713BB81F0004102E000BF83F000434B
:106A800030B54FEA41044FEA430594EA050F08BFC9
:106A900090EA020F1FBF54EA000C55EA020C7FEA8D
:106AA000645C7FEA655C00F0E2804FEA5454D4EB0A
:106AB0005555B8BF6D420CDD2C4480EA020281EAD4
:106AC000030382EA000083EA010180EA020281EA0C
:106AD0000303362D88BF30BD11F0004F4FEA01315E
:106AE0004FF4801C4CEA113102D0404261EB41016D
:106AF00013F0004F4FEA03334CEA133302D05242F3
:106B000063EB430394EA050F00F0A780A4F10104AE
:106B1000D5F1200E0DDB02FA0EFC22FA05F28018E8
:106B200041F1000103FA0EF2801843FA05F35941CE
:106B30000EE0A5F120050EF1200E012A03FA0EFC4D
:106B400028BF4CF0020C43FA05F3C01851EBE37177
:106B500001F0004507D54FF0000EDCF1000C7EEB94
:106B600000006EEB0101B1F5801F1BD3B1F5001FD2
:106B70000CD349085FEA30004FEA3C0C04F10104F1
:106B80004FEA445212F5800F80F09A80BCF1004F1A
:106B900008BF5FEA500C50F1000041EB045141EA9C
:106BA000050130BD5FEA4C0C404141EB0101013C65
:106BB00028BFB1F5801FE9D291F0000F04BF014654
:106BC0000020B1FA81F308BF2033A3F10B03B3F126
:106BD00020020CDA0C3208DD02F1140CC2F10C02B6
:106BE00001FA0CF021FA02F10CE002F11402D8BF14
:106BF000C2F1200C01FA02F120FA0CFCDCBF41EAE0
:106C00000C019040E41AA2BF01EB0451294330BDAE
:106C10006FEA04041F3C1CDA0C340EDC04F114048B
:106C2000C4F1200220FA04F001FA02F340EA030062
:106C300021FA04F345EA030130BDC4F10C04C4F1A8
:106C4000200220FA02F001FA04F340EA0300294688
:106C500030BD21FA04F0294630BD94F0000F83F4D2
:106C6000801306BF81F480110134013D4EE77FEAB5
:106C7000645C18BF7FEA655C29D094EA050F08BF01
:106C800090EA020F05D054EA000C04BF19461046E2
:106C900030BD91EA030F1EBF0021002030BD5FEA26
:106CA000545C05D14000494128BF41F0004130BD4E
:106CB00014F580043CBF01F5801130BD01F00045A2
:106CC00045F0FE4141F470014FF0000030BD7FEA15
:106CD000645C1ABF194610467FEA655C1CBF0B4610
:106CE000024650EA013406BF52EA033591EA030F27
:106CF00041F4002130BD00BF90F0000F04BF00211F
:106D0000704730B54FF4806404F132044FF0000551
:106D10004FF0000150E700BF90F0000F04BF0021CA
:106D2000704730B54FF4806404F1320410F0004530
:106D300048BF40424FF000013EE700BF42004FEA2B
:106D4000E2014FEA31014FEA02701FBF12F07F43A8
:106D500093F07F4F81F06051704732F07F4208BF5F
:106D6000704793F07F4F04BF41F40021704730B566
:106D70004FF4607401F0004521F000411CE700BFB2
:106D800050EA010208BF704730B54FF000050AE035
:106D900050EA010208BF704730B511F0004502D536
:106DA000404261EB41014FF4806404F132045FEA38
:106DB000915C3FF4D8AE4FF003025FEADC0C18BFE1
:106DC00003325FEADC0C18BF033202EBDC02C2F1D3
:106DD000200300FA03FC20FA02F001FA03FE40EA65
:106DE0000E0021FA02F11444BDE600BF70B54FF069
:106DF000FF0C4CF4E06C1CEA11541DBF1CEA135547
:106E000094EA0C0F95EA0C0F00F0DEF82C4481EAAE
:106E1000030621EA4C5123EA4C5350EA013518BFCE
:106E200052EA033541F4801143F4801338D0A0FBBB
:106E300002CE4FF00005E1FB02E506F00042E0FB68
:106E400003E54FF00006E1FB03569CF0000F18BF6E
:106E50004EF0010EA4F1FF04B6F5007F64F5407416
:106E600004D25FEA4E0E6D4146EB060642EAC621A9
:106E700041EA55514FEAC52040EA5E504FEACE2E16
:106E8000B4F1FD0C88BFBCF5E06F1ED8BEF1004F19
:106E900008BF5FEA500E50F1000041EB045170BD95
:106EA00006F0004646EA010140EA020081EA0301D9
:106EB000B4EB5C04C2BFD4EB0C0541EA045170BDD5
:106EC00041F480114FF0000E013C00F3AB8014F14F
:106ED000360FDEBF002001F0004170BDC4F1000498
:106EE000203C35DA0C341BDC04F11404C4F1200519
:106EF00000FA05F320FA04F001FA05F240EA020074
:106F000001F0004221F0004110EBD37021FA04F6A9
:106F100042EB06015EEA430E08BF20EAD37070BD63
:106F2000C4F10C04C4F1200500FA04F320FA05F0C2
:106F300001FA04F240EA020001F0004110EBD370C4
:106F400041F100015EEA430E08BF20EAD37070BD34
:106F5000C4F1200500FA05F24EEA020E20FA04F30D
:106F600001FA05F243EA020321FA04F001F00041BC
:106F700021FA04F220EA020000EBD3705EEA430E2D
:106F800008BF20EAD37070BD94F0000F0FD101F05C
:106F90000046400041EB010111F4801F08BF013C95
:106FA000F7D041EA060195F0000F18BF704703F0D3
:106FB0000046520043EB030313F4801F08BF013D5A
:106FC000F7D043EA0603704794EA0C0F0CEA135516
:106FD00018BF95EA0C0F0CD050EA410618BF52EAD0
:106FE0004306D1D181EA030101F000414FF00000D6
:106FF00070BD50EA410606BF1046194652EA4306E4
:1070000019D094EA0C0F02D150EA013613D195EA57
:107010000C0F05D152EA03361CBF104619460AD19F
:1070200081EA030101F0004141F0FE4141F47001A9
:107030004FF0000070BD41F0FE4141F4780170BD99
:1070400070B54FF0FF0C4CF4E06C1CEA11541DBFFE
:107050001CEA135594EA0C0F95EA0C0F00F0A7F800
:10706000A4EB050481EA030E52EA03354FEA01312D
:1070700000F088804FEA03334FF0805545EA131340
:1070800043EA12634FEA022245EA111545EA106508
:107090004FEA00260EF000419D4208BF964244F19F
:1070A000FD0404F5407402D25B084FEA3202B61ABE
:1070B00065EB03055B084FEA32024FF480104FF492
:1070C000002CB6EB020E75EB030E22BFB61A754606
:1070D00040EA0C005B084FEA3202B6EB020E75EB99
:1070E000030E22BFB61A754640EA5C005B084FEA01
:1070F0003202B6EB020E75EB030E22BFB61A7546CE
:1071000040EA9C005B084FEA3202B6EB020E75EBD8
:10711000030E22BFB61A754640EADC0055EA060E99
:1071200018D04FEA051545EA16754FEA06164FEADC
:10713000C30343EA52734FEAC2025FEA1C1CC0D188
:1071400011F4801F0BD141EA00014FF000004FF015
:10715000004CB6E711F4801F04BF01430020B4F1D6
:10716000FD0C88BFBCF5E06F3FF6AFAEB5EB030C8E
:1071700004BFB6EB020C5FEA500C50F1000041EB8B
:10718000045170BD0EF0004E4EEA113114EB5C0458
:10719000C2BFD4EB0C0541EA045170BD41F480112B
:1071A0004FF0000E013C90E645EA060E8DE60CEA33
:1071B000135594EA0C0F08BF95EA0C0F3FF43BAF50
:1071C00094EA0C0F0AD150EA01347FF434AF95EA07
:1071D0000C0F7FF425AF104619462CE795EA0C0FEB
:1071E00006D152EA03353FF4FDAE1046194622E7B8
:1071F00050EA410618BF52EA43067FF4C5AE50EA92
:1072000041047FF40DAF52EA43057FF4EBAE12E781
:107210004FF0FF3C06E000BF4FF0010C02E000BF62
:107220004FF0010C4DF804CD4FEA410C7FEA6C5C45
:107230004FEA430C18BF7FEA6C5C1BD001B050EAE8
:10724000410C0CBF52EA430C91EA030F02BF90EAD3
:10725000020F0020704710F1000F91EA030F58BF92
:10726000994208BF90422CBFD8176FEAE37040F0F4
:10727000010070474FEA410C7FEA6C5C02D150EA92
:10728000013C07D14FEA430C7FEA6C5CD6D152EA4D
:10729000033CD3D05DF8040B704700BF8446104612
:1072A00062468C461946634600E000BF01B5FFF711
:1072B000B7FF002848BF10F1000F01BD4DF808EDE1
:1072C000FFF7F4FF0CBF012000205DF808FB00BFB2
:1072D0004DF808EDFFF7EAFF34BF012000205DF80C
:1072E00008FB00BF4DF808EDFFF7E0FF94BF012059
:1072F00000205DF808FB00BF4DF808EDFFF7CEFF5A
:1073000094BF012000205DF808FB00BF4DF808ED98
:10731000FFF7C4FF34BF012000205DF808FB00BF69
:107320004FEA410C7FEA6C5C02D150EA013C0AD181
:107330004FEA430C7FEA6C5C02D152EA033C02D173
:107340004FF0000070474FF0010070474FEA4102D4
:1073500012F5001215D211D56FF47873B3EB6252A7
:1073600012D94FEAC12343F0004343EA505311F0CE
:10737000004F23FA02F018BF404270474FF0000060
:10738000704750EA013005D111F0004008BF6FF09E
:10739000004070474FF00000704700BF4A0011D214
:1073A00012F5001211D20DD56FF47873B3EB62525F
:1073B0000ED44FEAC12343F0004343EA505323FA6B
:1073C00002F070474FF00000704750EA013002D1E0
:1073D0004FF0FF3070474FF0000070474FEA410216
:1073E000B2F1E04324BFB3F5001CDCF1FE5C0DD923
:1073F00001F0004C4FEAC0024CEA5070B2F1004F6D
:1074000040EB830008BF20F00100704711F0804F6F
:1074100021D113F13872BCBF01F00040704741F434
:1074200080114FEA5252C2F11802C2F1200C10FA38
:107430000CF320FA02F018BF40F001004FEAC1231C
:107440004FEAD32303FA0CFC40EA0C0023FA02F3C0
:107450004FEA4303CCE77FEA625307D150EA013396
:107460001EBF4FF0FE4040F44000704701F0004066
:1074700040F0FE4040F40000704700BF80F0004044
:1074800002E000BF81F0004142001FBF5FEA4103FC
:1074900092EA030F7FEA226C7FEA236C6AD04FEAFC
:1074A0001262D2EB1363C1BFD21841404840414041
:1074B000B8BF5B42192B88BF704710F0004F40F4F3
:1074C000000020F07F4018BF404211F0004F41F40F
:1074D000000121F07F4118BF494292EA030F3FD0DB
:1074E000A2F1010241FA03FC10EB0C00C3F12003EE
:1074F00001FA03F100F0004302D5494260EB40007D
:10750000B0F5000F13D3B0F1807F06D340084FEAE7
:10751000310102F10102FE2A51D2B1F1004F40EBDC
:10752000C25008BF20F0010040EA03007047490044
:1075300040EB0000013A28BFB0F5000FEDD2B0FAE1
:1075400080FCACF1080CB2EB0C0200FA0CF0AABF04
:1075500000EBC25052421843BCBFD04018437047A2
:1075600092F0000F81F4000106BF80F400000132A8
:10757000013BB5E74FEA41037FEA226C18BF7FEA7F
:10758000236C21D092EA030F04D092F0000F08BFC1
:107590000846704790EA010F1CBF0020704712F0A8
:1075A0007F4F04D1400028BF40F00040704712F1E7
:1075B00000723CBF00F50000704700F0004343F04C
:1075C000FE4040F4000070477FEA226216BF084682
:1075D0007FEA23630146420206BF5FEA412390EA45
:1075E000010F40F4800070474FF0000304E000BF3B
:1075F00010F0004348BF40425FEA000C08BF7047EC
:1076000043F0964301464FF000001CE050EA0102AF
:1076100008BF70474FF000030AE000BF50EA0102C4
:1076200008BF704711F0004302D5404261EB4101B1
:107630005FEA010C02BF84460146002043F0B643D6
:1076400008BFA3F18053A3F50003BCFA8CF2083AFB
:10765000A3EBC25310DB01FA02FC634400FA02FC04
:10766000C2F12002BCF1004F20FA02F243EB02000B
:1076700008BF20F00100704702F1200201FA02FC6D
:10768000C2F1200250EA4C0021FA02F243EB020060
:1076900008BF20EADC7070477BB972B90029BEBF11
:1076A00000204FF0004106E008BF00281CBF6FF02B
:1076B00000414FF0FF3000F0A7B9ADF1080C6DE9C3
:1076C00004CE002909DB002B1ADB00F035F8DDF8C9
:1076D00004E0DDE9022304B07047404261EB410160
:1076E000002B1BDB00F028F8DDF804E0DDE90223C5
:1076F00004B0404261EB4101524263EB43037047E7
:10770000524263EB430300F017F8DDF804E0DDE9D3
:10771000022304B0404261EB41017047524263EBE7
:10772000430300F009F8DDF804E0DDE9022304B0CA
:10773000524263EB430370472DE9F047089D04462E
:107740008E46002B4DD18A42944669D9B2FA82F214
:1077500052B101FA02F3C2F1200120FA01F10CFA50
:1077600002FC41EA030E94404FEA1C48210CBEFB88
:10777000F8F61FFA8CF708FB16E341EA034306FB11
:1077800007F199420AD91CEB030306F1FF3080F0A0
:107790001F81994240F21C81023E63445B1AA4B2ED
:1077A000B3FBF8F008FB103344EA034400FB07F78F
:1077B000A7420AD91CEB040400F1FF3380F00A81D0
:1077C000A74240F207816444023840EA0640E41BC5
:1077D00000261DB1D4400023C5E900433146BDE871
:1077E000F0878B4209D9002D00F0EF800026C5E913
:1077F000000130463146BDE8F087B3FA83F6002E2B
:107800004AD18B4202D3824200F2F980841A61EBA2
:10781000030301209E46002DE0D0C5E9004EDDE7C0
:1078200002B9FFDEB2FA82F2002A40F09280A1EBA8
:107830000C014FEA1C471FFA8CFE0126200CB1FBFD
:10784000F7F307FB131140EA01410EFB03F08842F6
:1078500008D91CEB010103F1FF3802D2884200F283
:10786000CB804346091AA4B2B1FBF7F007FB101115
:1078700044EA01440EFB00FEA64508D91CEB0404B3
:1078800000F1FF3102D2A64500F2BB800846A4EB0E
:107890000E0440EA03409CE7C6F12007B34022FAF9
:1078A00007FC4CEA030C20FA07F401FA06F31C4328
:1078B000F9404FEA1C4900FA06F3B1FBF9F8200C35
:1078C0001FFA8CFE09FB181140EA014108FB0EF07B
:1078D000884202FA06F20BD91CEB010108F1FF3ACB
:1078E00080F08880884240F28580A8F102086144D7
:1078F000091AA4B2B1FBF9F009FB101144EA0141E5
:1079000000FB0EFE8E4508D91CEB010100F1FF348F
:107910006CD28E456AD90238614440EA0840A0FB27
:107920000294A1EB0E01A142C846A64656D353D0FD
:107930005DB1B3EB080261EB0E0101FA07F722FA21
:1079400006F3F1401F43C5E9007100263146BDE84A
:10795000F087C2F12003D8400CFA02FC21FA03F3AD
:10796000914001434FEA1C471FFA8CFEB3FBF7F02E
:1079700007FB10360B0C43EA064300FB0EF69E4253
:1079800004FA02F408D91CEB030300F1FF382FD2EC
:107990009E422DD9023863449B1B89B2B3FBF7F694
:1079A00007FB163341EA034106FB0EF38B4208D96D
:1079B0001CEB010106F1FF3816D28B4214D9023EAE
:1079C0006144C91A46EA004638E72E46284605E7CC
:1079D0000646E3E61846F8E64B45A9D2B9EB02089D
:1079E00064EB0C0E0138A3E74646EAE7204694E72D
:1079F0004046D1E7D0467BE7023B614432E7304660
:107A000009E76444023842E7704700BF10B50C46EE
:107A100041690369826986B001F26C710491016861
:107A200003914168029181680191C1680091074901
:107A300003EB43030B44064902EB42020A4420468F
:107A40000449FDF723FF204606B010BD42800B001D
:107A50002D800B000D800B00002301461A461846AE
:107A600000F072B80A44914200F1FF3300D1704730
:107A700010B511F8014B03F8014F9142F9D110BD37
:107A800002440346934200D1704703F8011BF9E713
:107A900038B5104B1D68AB6B0446B3B91820FDF721
:107AA000DDFE0246A86320B90B4B0C484221FDF7CE
:107AB00005FF0B490B4BC0E900130B4B83600B23F5
:107AC000838100210120C2E90401AB6B00221C610B
:107AD0005A6138BDA8E5032066800B007D800B004D
:107AE0000E33CDAB34126DE6ECDE050010F8012B41
:107AF00011F8013B012A28BF9A42F7D0D01A7047EB
:107B0000034611F8012B03F8012B002AF9D1704725
:107B1000034613F8012B002AFBD1181A01387047CD
:107B200010B50139034632B111F8014F03F8014B8A
:107B3000013A002CF7D11A440021934200D110BD24
:107B400003F8011BF9E700002DE9F843DFF8B880DE
:107B50000646D8F800001F460D46914600F056F83C
:107B6000254B1C6834B9254C1C60254B13B11B6890
:107B7000C4F8883063681F2B07DDD8F8000000F0D8
:107B800047F84FF0FF30BDE8F8834EB3D4F88800D3
:107B900088B91C4B23B9D8F8000000F038F8F0E79A
:107BA0004FF48470FDF75AFE0028F4D00023C0E99A
:107BB0004033C4F88800636840F8239001229A405B
:107BC00000EB8301D0F800311343C0F80031022EDE
:107BD000C1F8807002BFD0F804311343C0F80431FB
:107BE0006368D8F800005A1C0233626044F82350DE
:107BF00000F00EF80020C6E7E8E703205CE703206A
:107C0000000000005D580B000CE603207047704731
:107C10007047000021400B005D400B0085400B00C9
:107C200089400B00000000004144432056414C5560
:107C3000453A2025752C2064423A20252E326600D4
:107C4000436865636B20636F6E6E656374696F6E06
:107C5000732E204E6F20736C6176652061747461A1
:107C6000636865642E00547279696E6720746F20B2
:107C7000636F6E6E65637420424831373530204C37
:107C800075782053656E736F7200547279696E67F0
:107C900020746F20636F6E6E65637420424D4532B1
:107CA0003830205054482053656E736F7200547200
:107CB00079696E6720746F20636F6E6E65637420E0
:107CC000534344333020434F322053656E736F72F9
:107CD000005A696F205177696963204C6F75646E33
:107CE0006573732053656E736F72204D6173746595
:107CF00072204177616B65004C69676874206C6520
:107D000076656C3A20252E3166206C757800434FDD
:107D1000322870706D293A20002054656D706572AC
:107D20006174757265282A43293A20002048756DD0
:107D300069646974792825293A20004E6F206461AE
:107D4000746100436F756C64206E6F74207265619E
:107D5000642066726F6D20415149005374616E64F6
:107D600061726420504D202D2D20504D312E303A1F
:107D700020252E3266207C20504D322E353A20258B
:107D80002E3266207C20504D31302E303A20252E68
:107D90003266005556206C69676874206C6576659C
:107DA0006C3A200050726573737572653A20252E07
:107DB0003266206D6261720048756D69646974791C
:107DC0003A200020250054656D70657261747572EB
:107DD000653A20252E3266202A43003D3D3D3D3D3B
:107DE0003D3D3D3D3D3D3D3D3D3D3D3D3D3D3D3DC3
:107DF0003D3D3D3D3D3D3D3D3D3D3D3D3D3D3D3DB3
:107E00003D3D3D3D3D3D3D3D3D3D3D3D3D3D3D3DA2
:107E10003D3D3D3D3D3D3D3D3D3D3D3D3D00646580
:107E20006661756C7420004D5342004C5342003C17
:107E300053504953657474696E6773206465666155
:107E4000756C743E003C53504953657474696E6799
:107E5000732025732575202573204D4F44452575C6
:107E60003E000000000000000000000045470B003D
:107E700017470B0019470B0000000000000000002E
:107E80005B590B0051590B0047590B003D590B0032
:107E900031590B0025590B0061670B0069670B0016
:107EA00019590B0011590B0007590B00FD580B0015
:107EB00099670B0000081018202830386E616E009A
:107EC000696E66006F766600617070005A00252B3F
:107ED0003033643A253032750025592D256D2D2516
:107EE000645425483A254D3A2553257A0061736339
:107EF00074696D65000000000000000000000000D3
:107F000015630B0005630B0007630B000000000006
:107F100000000000FB630B0063640B0039640B007E
:107F2000215C0B002B640B00FD630B000D640B0048
:107F30005D640B001D640B00F5630B000000000086
:107F400000000000FD640B0069650B0041650B003B
:107F5000215C0B0011650B002D650B001F650B00EC
:107F60003B650B00FF640B0003650B000000000085
:107F700000000000A1650B00EB650B00C3650B0062
:107F8000A3650B00CB650B00D3650B00DB650B0015
:107F9000E3650B00000000000000000003670B0019
:107FA000F9660B00EF660B00A5660B00E3660B009D
:107FB000D7660B0061670B0069670B00CB660B008F
:107FC000C3660B00B9660B00AF660B0099670B0028
:107FD000000000000000000021670B002B670B0071
:107FE00035670B003F670B0049670B0055670B00B7
:107FF00061670B0069670B0071670B007D670B0001
:1080000085670B008F670B0099670B0000252E33E7
:108010007320252E337325336420252E32643A25B0
:108020002E32643A252E32642025640A0053756E80
:108030004D6F6E5475655765645468754672695323
:1080400061744A616E4665624D61724170724D6144
:10805000794A756E4A756C4175675365704F6374E4
:108060004E6F764465635245454E54206D616C6C8D
:108070006F6320737563636565646564002F6D6E5F
:10808000742F776F726B73706163652F776F726B8C
:1080900073706163652F4743432D31302D706970D4
:1080A000656C696E652F6A656E6B696E732D4743EB
:1080B000432D31302D706970656C696E652D3438D3
:1080C0005F32303230313132345F31363036313830
:1080D000303634312F7372632F6E65776C69622F7F
:1080E0006E65776C69622F6C6962632F7374646C60
:1080F00069622F72616E642E6300000049450B00B7
:1081000065590B00DD5A0B00115C0B004D5F0B0035
:10811000A5610B00C1610B000D670B0071680B00BE
:10812000040000001400000003000000474E55004A
:10813000CA54940262B3A93934E908CE206945EDE6
:0481400090934912BD
:08814400F4F5FF7F01000000CB
:04814C00000000002F
:10815000ED7E0B00ACE503200000000000000000F5
:10816000000000000000000000000000000000000F
:1081700000000000000000000000000000000000FF
:1081800000000000000000000000000000000000EF
:1081900000000000000000000000000000000000DF
:1081A00000000000000000000000000000000000CF
:0C81B0000000000000000000ECE70320CD
:1081BC00FFFFFFFF00000102030405060708090A80
:1081CC000B0C0D0E0F101112131415161718191A7B
:0881DC001B1C1D1E1F202800C2
:0481E4007856341283
:04000003B0004020E9
:00000001FF
