:02000002B0004C
:1040000000400B00FC890B00000006000C000502BC
:084010000401E50C00000000B2
:0440180058830B00BE
:1040200009480A49884208B505D0094A824202D0A7
:10403000121A04F09DF80748074A0021121A04F0EA
:10404000A5F8014808BD00BF84E5032060890B0086
:10405000F8E50320F8E50320EDE7032070B5074EEF
:10406000074C02F099F9A41BA4080025AC4200D12A
:1040700070BD56F8043B98470135F7E708890B00F7
:104080002C890B0000F084BA08B500F0C5FABDE831
:10409000084002F039B901F041BD01F03FBD01F027
:1040A00045BD0078B0FA80F04009704701230370E5
:1040B0007047002340681A46194601F09FBC08B5B6
:1040C00001F0E4FC80F00100C0B208BD13B5044665
:1040D0000846019104F0BFF801990246204602B05B
:1040E000BDE8104003F00EB82DE9F84303F0FCF8EA
:1040F000302102F023FE03F0F7F80368DFF88C901C
:104100009B680521984703F0EFF802F022FE03F0C8
:10411000EBF80222302102F00EFE18A7D7E9006763
:1041200018A5D5E9004503F0DFF803681B69984737
:1041300000B303F0D9F803685B699847804603F041
:10414000D3F803685B699847C3B25FFA88F040EA26
:104150000320A9F8000003F043FA32463B4603F07F
:10416000F3F82B46224603F0CFFB03F0B5FC024BDD
:104170001860D8E7BDE8F88394E603207E1D386711
:1041800044CD5440A8C64B3789012640F8E50320AA
:1041900070B50C4688B005468D4801F02FFA8D4960
:1041A0002046FFF793FF02F01DFF8B492046FFF7E3
:1041B0008DFF0646864801F0DBF910EE100A03F089
:1041C00021FA41EC100B304602F02AFF204602F0A3
:1041D000F3FE824801F0C3F818B14FF4FA7002F010
:1041E00067F87E4801F0BBF8B0B37D492046FFF781
:1041F0006DFF02F0F7FE7B492046FFF767FF06469A
:10420000764801F00CF90146304602F0F7FE764997
:104210002046FFF75BFF0646704801F01BF910EEE1
:10422000100A03F0EFF941EC100B304602F0F8FEF3
:104230006E492046FFF74AFF0646684801F0FFF83E
:1042400010EE100A03F0DEF941EC100B304602F0DC
:10425000E7FE204602F0B0FE65492046FFF736FF34
:1042600002F0C0FE63492046FFF730FFBDF80210A0
:1042700002F0C4FE60492046FFF728FFBDF8041095
:1042800002F0BCFE5D492046FFF720FFBDF8061096
:1042900002F0B4FE5A492046FFF718FFBDF8081097
:1042A00002F0ACFE57492046FFF710FFBDF80A1098
:1042B00002F0A4FE54492046FFF708FFBDF80C1099
:1042C00002F09CFE204602F077FEFFF70DFF4F49FB
:1042D0002046FFF7FBFE02F085FE4D492046FFF722
:1042E000F5FE4C4B198802F089FE4B492046FFF73A
:1042F000EDFE4A4B0646186803F084F941EC100BBA
:10430000304602F08DFE204602F056FE444920461B
:10431000FFF7DCFE02F066FE42492046FFF7D6FEBC
:104320000646414800F0BBFF0146304602F066FEFB
:10433000204602F041FE3D492046FFF7C7FE02F04D
:1043400051FE3B492046FFF7C1FE0646394800F0C2
:104350004BFEDFED397AC0EE277A17EE900A03F0B4
:1043600051F941EC100B304602F05AFE1F4920462D
:10437000FFF7ACFE06462F4800F0ECFD10EE100AE9
:1043800003F040F941EC100B304602F049FE1649AB
:104390002046FFF79BFE0646264800F0ABFD10EED8
:1043A000100A03F02FF941EC100B304602F038FEF2
:1043B000204602F001FE23792B71204B2B60A3686D
:1043C000AB60E368EB6023692B61284608B070BDE1
:1043D00048E603206C830B0073830B000CE603207C
:1043E00077830B007D830B0085830B008B830B0091
:1043F0008F830B0098830B00A1830B00AA830B0013
:10440000B2830B00BB830B00C4830B00CC830B0077
:10441000D2830B00F8E50320D6830B0094E603203B
:10442000D9830B00E2830B00A0E60320E5830B0099
:10443000EC830B0050E603200000C84208870B0005
:1044400008B502F051FF302102F078FC02F04CFF79
:1044500002F07FFC28B102F075FB024901F099FDE2
:10446000FEE708BDF3830B0038B5284C284801F05F
:1044700074F848B94FF4FA7001F01AFF02F062FBC9
:10448000214601F086FDF1E72148224D224C2321EF
:1044900001F09FF8284600F0D0FE88B11F4C02F0D2
:1044A00023FF01461E4801F03CF898B94FF4FA701A
:1044B00001F0FEFE02F046FB214601F06AFDEEE748
:1044C0004FF4FA7001F0F4FE02F03CFB214601F0DB
:1044D00060FDDFE71248192101F01EF801211048A4
:1044E00001F00CF802F000FF01460E4800F0DCF984
:1044F000FFF7A6FF02F026FB0B4901F04AFDBDE8DD
:1045000038400A48012100F0ABBE00BF19840B00FF
:1045100048E6032050E603203D840B0061840B0035
:104520000CE6032020E6032084840B00A0E6032091
:10453000014B186801F0BCBE84E5032013B50023CD
:10454000002269460020CDE9002301F0C7FA0446A5
:1045500001F0A8F80D4B001B984215D901F096FA0E
:1045600010B1002001F0AAFA002001F0AFFA28B142
:10457000FFF7A5FD10B901F079FAF5E7002001F089
:10458000A5FA08B1FFF79BFD02B010BD005C26053F
:104590001FB501F073FA0121072002F011FE02F0AD
:1045A000A3FE02F099FB02F0CDFA4FF4165102F08F
:1045B000BDFAFFF759FF01F069FA10B901F056FA98
:1045C000F9E701F063FA032241F28833CDE90123D0
:1045D00001A80123ADF80C3001F06FFFFFF7AEFF2B
:1045E000002301A8CDE90133ADF80C3001F04BFFF9
:1045F000FFF765FD10B901F039FAF9E7FFF75FFD44
:104600000448FFF756FD41F2883005B05DF804EB31
:1046100001F04EBE18E703202DE9F04140F24C4076
:1046200092B001F07BFA794E0590002340F24B42A4
:10463000054603A8CDE906238DF81030039602F055
:10464000D1FC7349734FDFF8F48103A8FFF73EFDF7
:1046500004460DA801F022FA0F9A0D99204602F0A7
:1046600061FD0DA801F0BCFB03240121072002F02D
:10467000B8FD01F002FED8F800100091C317C7E999
:104680000003024664490DA801F098FD0F9A0D99A8
:1046900003A802F037FD02F0A5FC0DA801F0A0FB75
:1046A0009DF810308DF82430059B0A93069B0B93E0
:1046B00008A9079B0C930DA80896FFF769FD9DF8C4
:1046C00038308DF810300F9B0593109B069303A88C
:1046D000119B079302F070FC0021072002F081FD7E
:1046E00002F030FA4D4901F054FC013C21D103A8FD
:1046F00002F062FCDDE90623934228BF1346059AC7
:104700000121D454072002F06CFD4548234622467F
:104710002146406801F06AF902F014FA414901F0BB
:1047200038FC01F0ABF901F0B1F928B901F09EF9BC
:10473000F9E7FFF7FDFE98E701F0A8F902F002FAA9
:10474000394901F026FC02F0FDF9384901F021FC5D
:1047500002F0F8F90A220799044601F024FC2046E9
:1047600001F00BFC02F0EEF9294601F012FC02F018
:10477000E9F92F4901F00DFC01F088F908B901F0C1
:104780007DF901F083F910B901F070F9F9E701F052
:104790007DF9284B28491B788DF800302A463C23A8
:1047A0000DA801F08DFF0E9C7CB16368013B636036
:1047B0005BB9236820469B689847A368013BA360C8
:1047C0001BB923682046DB689847FFF7B7FE002334
:1047D0000DA8CDE90D33ADF83C3001F054FEFFF7E4
:1047E0006EFC10B901F042F9F9E7FFF768FC0C48DC
:1047F000FFF75FFC0021072002F0F3FC284601F0E0
:1048000095F9FFF795FE12B0BDE8F08108870B001F
:10481000AB840B0098E60320D0E60320B4840B00A1
:1048200018E70320C1840B00C9840B00DC840B0053
:1048300038870B0008E60320E6840B008CE5032094
:10484000104B114A10B500241C70104B0220C3E914
:1048500000449A6001F066F82146012001F072F8E8
:1048600002F042FD23210246094800F071FE09488A
:1048700000F09CF8084800F03AFDBDE810400748F9
:1048800000F00EB808E603200000FFFFFCE503205F
:1048900048E6032050E603200CE6032020E6032030
:1048A0000022C0E90022704737B50368044653B9B7
:1048B00010200191FFF7EFFB054618B1019A122174
:1048C00000F008F825602068012103B0BDE8304001
:1048D00000F01CB842600022027220220170C26007
:1048E000704710B5037A044653B12178606802F02E
:1048F00025FA606802F02DFAB0FA80F0400910BD88
:10490000012100F003F80028EFD1F8E738B504469C
:1049100040680D4602F0E0F90120207225B12046E2
:10492000BDE83840FFF7DDBF38BD704710B5102136
:104930000446FFF7B4FB204610BD0EB403B503AB2D
:10494000002153F8042B019301F04BFB02B05DF8FA
:1049500004EB03B07047000073B5044608462279A3
:10496000A36832B1A3B90B4902B0BDE8704001F0B1
:10497000FDBA094A267B094D0949647B012E18BFFF
:104980002946CDE900140749FFF7D7FF02B070BDF3
:10499000054AEFE707850B0038870B0003850B00FE
:1049A000FF840B001D850B00F6840B004FF0FF33D6
:1049B0000361704713B50B4C2178BFF35B8F11F087
:1049C00001010BD120460191FFF76BFB019928B142
:1049D000054801F047F92046FFF768FB024802B09E
:1049E00010BD00BFA4E60320A8E6032008B5FFF72A
:1049F000E1FFBDE8084001F053B907B50190FFF7AA
:104A0000D9FF019903B05DF804EB01F063B92DE91A
:104A1000F04190F91330013305460F4606D1FFF7F8
:104A2000C9FF3946BDE8F04101F0C2B900240726AC
:104A30004FF0010895F91300002180B202F0D1FB7C
:104A400095F9110008FA06F1394080B202F0C9FB6D
:104A500095F91300012180B202F0C3FB95F9120011
:104A6000640080B2E4B202F0D5FB08B144F0010466
:104A7000013EDFD22046BDE8F08100007FB590F90D
:104A80001030013304460E46154613D101790068F3
:104A900002F054F92068036831469B689847206803
:104AA000036829469B689847206804B0BDE87040B9
:104AB00002F04FB990F9133001330CD1164B00932B
:104AC00000238DF80430154B029368460123ADF89E
:104AD0000C30FFF792FF94F91000002180B202F031
:104AE00080FB06F07F012046FFF791FF2946204614
:104AF000FFF78DFF94F91000012180B202F071FBE5
:104B000094F91330013304D104B0BDE87040FFF7CD
:104B10006DBF04B070BD00BF44850B0020A107002D
:104B2000F8B5DB0002F0070203F03803134343EA51
:104B300081139DF8186080F83C3090F840309DF863
:104B40001C509DF8207066F3471380F84030ED004C
:104B500090F8383007F0070705F0380523F03F03D9
:104B60003D4304461D4380F8385006F00702F22109
:104B7000FFF784FF94F83820C2F3C20302F0070164
:104B80009B0043EA411343EAD2122046F521FFF786
:104B900075FF94F83C20C2F3C20302F007019B00AA
:104BA00043EA411343EA92122046F421BDE8F8405B
:104BB000FFF764BF30B590F91030013385B004467B
:104BC0000D4618D10179006802F0B8F82068036832
:104BD00029469B689847206802F0BBF82179206835
:104BE000012202F0A8F8206803685B699847C5B203
:104BF000284605B030BD90F9133001330CD1154B68
:104C0000009300238DF80430134B02936846012370
:104C1000ADF80C30FFF7F1FE94F91000002180B2DE
:104C200002F0DFFA45F080012046FFF7F0FE002198
:104C30002046FFF7ECFE054694F91000012180B2F2
:104C400002F0CFFA94F913300133D1D1FFF7CEFE41
:104C5000CEE700BF44850B0020A1070008B5F32173
:104C6000FFF7A8FF00F0010008BD000030B590F983
:104C70001030013385B004460D461FD1017900681C
:104C800002F05CF82068036829469B689847206812
:104C900002F05FF821792068022202F04CF82068C7
:104CA00003685B6998470546206803685B69984715
:104CB00040EA052085B2284605B030BD90F9133092
:104CC00001330CD1184B009300238DF80430174B9F
:104CD000029368460123ADF80C30FFF78EFE94F97D
:104CE0001000002180B202F07CFA45F080012046DD
:104CF000FFF78DFE00212046FFF789FE00210546C3
:104D00002046FFF784FE40EA052085B294F91000A2
:104D1000012180B202F065FA94F913300133CAD14F
:104D2000FFF764FEC7E700BF44850B0020A1070022
:104D300008B5FFF79BFF40BA80B208BD38B588219F
:104D40000446FFF7F5FF8A21A0822046FFF7F0FF17
:104D50008C21E0822046FFF7EBFF8E212083204646
:104D6000FFF7E6FF902160832046FFF7E1FF9221E5
:104D7000A0832046FFF7DCFF9421E0832046FFF765
:104D8000D7FF962120842046FFF7D2FF9821608428
:104D90002046FFF7CDFF9A21A0842046FFF7C8FFE9
:104DA0009C21E0842046FFF7C3FF9E2120852046FA
:104DB000FFF7BEFFA12160852046FFF7FBFEE12142
:104DC00084F82C002046FFF7B3FFE321E08520465E
:104DD000FFF7F0FEE42184F830002046FFF7EAFEFA
:104DE000E52105462046FFF7E5FE00F00F0343EA04
:104DF00005106086E6212046FFF7DCFEE52105462A
:104E00002046FFF7D7FEC0F3071343EA0510A0863C
:104E1000E7212046FFF7CEFE84F8360038BD0000BB
:104E200030B590F91030013385B004460D4623D1DA
:104E30000179006801F082FF2068036829469B68B9
:104E40009847206801F085FF21792068032201F04E
:104E500072FF206803685B69984705022068036851
:104E60005B69984728430502206803685B69984797
:104E70000543284605B030BD90F9133001330CD1FD
:104E80001A4B009300238DF80430194B02936846A7
:104E90000123ADF80C30FFF7B0FD94F910000021AC
:104EA00080B202F09EF945F080012046FFF7AFFD89
:104EB00000212046FFF7ABFD002105022046FFF749
:104EC000A6FD2843050200212046FFF7A0FD05436B
:104ED00094F91000012180B202F083F994F91330A3
:104EE0000133C6D1FFF782FDC3E700BF44850B0045
:104EF00020A1070010B5FA210446FFF791FFB0F595
:104F0000000F1FD0A18A9FED117A4B00C1EB202228
:104F1000C3EBE011B4F91630594302FB02F3B4F9C4
:104F200018201B1353439B1303EBE123E36003EBB4
:104F3000830380331B1207EE903AF8EEE77A87EE90
:104F4000870A10BD9FED020AFBE700BF0000C842C0
:104F50000000C07F38B50446FFF7CCFFFD21204696
:104F6000FFF784FEB0F5004F38D0E168B4F9342083
:104F7000A1F59635B4F932100905C1EB803305FB74
:104F8000123303F58043DA1394F8303094F9361075
:104F90006B43DB126943891203F500434B439B12B9
:104FA000B4F92E1003F500134B4303F500539B1384
:104FB0005343DA1394F82C105243D2114A43A3EB13
:104FC000221323EAE373B3F1C85FA8BF4FF0C853BD
:104FD0001B1300EE103ABAEECB0A38BD9FED010A62
:104FE000FBE700BF0000C07F2DE9F8430546FFF74F
:104FF00081FFF7212846FFF713FFB0F5000F00F0FF
:10500000B680E968B5F91C304FEAE17EB1F5FA31B6
:105010004EF1FF3EDC1703FB0EF201FB0422A3FB63
:10502000013422441203A1FB01781C0301FB0EF69C
:1050300042EA1352B5F91E3008EB46084FEAE37C0A
:1050400003FB08F607FB0C66A3FB073C66441B0A40
:1050500043EA06631B1942EB26226E8B02F50042DF
:10506000A3FB063406FB0244E317621053EA640410
:105070004FF0000C7ED0B5F9244004FB08F64FEA4F
:10508000E47907FB0966A4FB07473E44B5F92270A3
:105090004FEAE77807FB0EFE01FB08EEA7FB017164
:1050A0007144490441EAD73100117F043F19C0F52A
:1050B000801446EB010604F00040B5F920101CEB0B
:1050C000070740EA5400E407E41B06EBC10640F67C
:1050D000354160EB0606A4FB010401FB064102F02A
:1050E00059FEB5F92A20B5F928604FEA613C430B17
:1050F00043EAC14302FB0CF7D41703FB0477A2FB7E
:1051000003243C4402FB0CF703FB0477A2FB0323BC
:105110001F44530E43EAC7131B184FEAE67206FBFF
:1051200001F4864641EB676702FB0041A6FB0E06D1
:10513000B5F926403144C00C40EA413018184FEA16
:10514000E47547EBE141000A2D0140EA016045EAC0
:1051500014752401201845EB212102F0DDFD9FED9F
:10516000070A07EE900A27EE800ABDE8F8839FED54
:10517000040AFAE79FED030AF7E700BF0000803B4F
:105180000000C07F0000000030B5044690F9100018
:10519000421C85B019D1206801F09EFDD021204627
:1051A000FFF708FD6028A06045D12046B622E02127
:1051B000FFF764FC4FF4967001F07AF82046FFF791
:1051C0004DFD054628B36420F6E7012180B202F0C8
:1051D00008F894F91000012180B201F0F1FF94F970
:1051E0001300431C04D1FFF7E5FB00F045FDD5E7B4
:1051F000012180B201F0E4FF94F91100012180B295
:1052000001F0DEFF94F91200002180B201F0D8FF16
:10521000C4E72046FFF792FD052300931A460321B9
:105220002046CDE90155FFF77BFC642001F040F8F2
:10523000012005B030BD0020FBE7772310B50371D6
:10524000044602F051F820602046FFF79DFF30B978
:10525000762323712046BDE81040FFF795BF10BDAF
:1052600010B50C4602F040F801F036FD02F03CF8B3
:10527000382101F067FD02F037F8A100036841F022
:1052800002019B6801F0FE01984702F02DF801F041
:1052900060FDBDE810404FF4FA7001F009B838B570
:1052A00002F022F80122392101F045FD01280446CF
:1052B00002D04FF6FF7038BD02F016F803685B6944
:1052C0009847054602F010F82246382101F033FDD8
:1052D0000128EED102F008F803685B69984740EABC
:1052E000052080B2E7E70368C9B29B68184700222F
:1052F00042608260C26040F2011202820122827426
:10530000704738B504460D460068612101F01AFD6A
:105310002068290AFFF7E7FF2068E9B2FFF7E3FFFB
:10532000206801F016FD08B1002038BD2068022277
:10533000612101F000FD206803681B69984700287F
:10534000F2D0206803685B699847054620680368C7
:105350005B699847C3B243EA052080B2E5E708B528
:1053600040F20221FFF7CDFF431E5842584108BDCD
:105370002DE9F8430446FFF7F2FF074618B9002766
:105380003846BDE8F8832068612101F0DBFC206825
:105390000321FFF7A8FF20680021FFF7A4FF206882
:1053A00001F0D7FC05460028E9D1122261212068CE
:1053B00001F0C1FC206803681B699847064658B392
:1053C000A8462E46A946206803685B699847EBB259
:1053D000102B0DD8DFE803F009090C09090C181887
:1053E0000C18180C1C1C0C1C1C00C3B243EA092925
:1053F0000135122DE7D10023C4F80490A660C4F84B
:105400000C802382A374BBE7C3B243EA0626EFE70E
:10541000C3B243EA0828EBE780468146EBE710B5C4
:10542000037C04460BB1FFF7A3FFD4ED017AFCEE39
:10543000E77A0123237417EE903A98B210BD10B5A5
:10544000437C04460BB1FFF793FF012394ED030A5D
:10545000637410BD10B5837C04460BB1FFF788FF61
:10546000012394ED020AA37410BD0A44FF208A426E
:1054700011D011F8013B5840082310F0800F03F1C0
:10548000FF334FEA400018BF80F0310013F0FF03F4
:10549000C0B2F2D1EBE770472DE9F3410E464FEA77
:1054A000122815468DF8052001A9022204468DF820
:1054B0000480FFF7DAFF61210746206801F042FC13
:1054C0002068310AFFF70FFF2068F1B2FFF70BFFEA
:1054D00020684146FFF707FF2068E9B2FFF703FFA6
:1054E0002068036839469B689847206801F031FCC2
:1054F000B0FA80F0400902B0BDE8F0810A4601B17F
:10550000012245F20631FFF7C7BF0A461021FFF717
:10551000C3BF0021FFF7F9BF0A464FF48C41FFF7E4
:10552000BBBF38B504460846216001F0D5FB2046D4
:10553000FFF7EFFF054648B102212046FFF7ECFFD9
:10554000012245F206312046FFF7A6FF284638BD66
:105550004260112241700270704710B504464068E5
:1055600001F0FAFB10B9606801F0B6FB012010BD34
:1055700070B505464178406801F0E0FB69786868DD
:10558000022201F0D8FB686803685B699847064609
:10559000686803685B699847044644EA06246868BB
:1055A000A4B201F0D6FB07EE904A9FED030AF8EE95
:1055B000677A87EE800A70BD9A99993F0378232B0A
:1055C00005D0132B0CBF1820B42000F071BE18209A
:1055D000FBE738B504460D464178406801F0AEFB64
:1055E0006068036829469B689847606801F0B1FBD2
:1055F00025702046BDE83840FFF7E0BF10B50378BE
:10560000A3F12002012A044601D9232B10D161788D
:10561000606801F093FB6068217803689B68984795
:10562000606801F096FB2046BDE81040FFF7C6BF5A
:1056300010BD000008B5024B1B689B68019308BDB4
:105640006802030008B5024B1B68DB68019308BDC4
:105650006802030008B5024B1B689B68019308BDF4
:105660002C02030008B5024B1B68DB68019308BDE0
:105670002C02030008B5024B1B681B69019308BD8F
:105680002C02030008B5024B1B685B69019308BD3F
:105690002C02030008B5024B1B685B68019308BD30
:1056A0001802030008B5024B1B685B69019308BD33
:1056B0001802030008B5024B1B689B6D019308BDDF
:1056C0001802030008B5024B1B685B6E019308BD0E
:1056D0001802030008B5024B1B685B6C019308BD00
:1056E0004802030008B5024B1B685B69019308BDC3
:1056F0006402030008B5024B1B68DB68019308BD18
:105700003C02030008B5024B1B681B69019308BDEE
:105710003C02030008B5024B1B685B69019308BD9E
:105720003C02030008B5024B1B689B69019308BD4E
:105730003C02030008B5024B1B68DB69019308BDFE
:105740003C02030008B5024B1B681B6A019308BDAD
:105750003C02030008B5024B1B689B6A019308BD1D
:105760003C02030008B5024B1B681B6C019308BD8B
:105770003C02030008B5024B1B68DB68019308BDBF
:105780002802030008B5024B1B689B69019308BD02
:105790002802030008B5024B1B68DB69019308BDB2
:1057A0002802030008B5024B1B681B6A019308BD61
:1057B0002802030008B5024B1B685B6A019308BD11
:1057C0002802030008B5024B1B689B6A019308BDC1
:1057D0002802030008B5024B1B68DB6A019308BD71
:1057E0002802030008B5024B1B681B6B019308BD20
:1057F0002802030008B5024B1B685B6B019308BDD0
:105800002802030008B5024B1B681B6C019308BDFE
:105810002802030008B5024B1B681B6D019308BDED
:105820002802030008B5024B1B681B68019308BDE2
:105830003002030008B5024B1B685B69019308BD89
:105840003002030008B5024B1B68DB69019308BDF9
:105850003002030008B5024B1B681B6A019308BDA8
:105860003002030008B5024B1B685B6A019308BD58
:105870003002030008B5024B1B68DB6B019308BDC7
:105880003002030008B5024B1B681B6C019308BD76
:105890003002030008B5024B1B685B6C019308BD26
:1058A0003002030008B5024B1B681B68019308BD5A
:1058B0004C02030008B5024B1B685B68019308BDEE
:1058C0004C02030008B5024B1B681B69019308BD1D
:1058D0004C02030008B5024B1B685B69019308BDCD
:1058E0004C02030008B5024B1B689B69019308BD7D
:1058F0004C02030008B5024B1B68DB69019308BD2D
:105900004C02030008B5024B1B681B6A019308BDDB
:105910004C02030008B5024B1B681B68019308BDCD
:105920002002030008B5024B1B685B68019308BDA9
:105930002002030008B5024B1B685B69019308BD98
:105940002002030008B5024B1B68DB6A019308BD07
:105950002002030008B5024B1B68DB6C019308BDF5
:105960002002030008B5024B1B685B6D019308BD64
:105970002002030008B5024B1B689B6D019308BD14
:105980002002030008B5034B1B68D3F8883001934D
:1059900008BD00002002030008B5034B1B68D3F8C4
:1059A0009430019308BD00002002030008B5024BAB
:1059B0001B685B68019308BD4002030008B5024BF9
:1059C0001B689B68019308BD4002030008B5024BA9
:1059D0001B68DB68019308BD4002030008B5024B59
:1059E0001B681B69019308BD4002030008B5024B08
:1059F0001B685B69019308BD4002030008B5024BB8
:105A00001B689B69019308BD4002030008B5024B67
:105A10001B68DB69019308BD4002030008B5024B17
:105A20001B681B6A019308BD4002030008B5024BC6
:105A30001B681B6B019308BD4002030008B5024BB5
:105A40001B685B6B019308BD4002030008B5024B65
:105A50001B681B6C019308BD4002030008B5024B94
:105A60001B685B6C019308BD4002030008B5024B44
:105A70001B689B68019308BD4402030008B5024BF4
:105A80001B68DB68019308BD4402030008B5024BA4
:105A90001B685B69019308BD4402030008B5024B13
:105AA0001B68DB69019308BD4402030008B5024B83
:105AB0001B681B6A019308BD4402030008B5024B32
:105AC0001B68DB6A019308BD4402030008B5024B62
:105AD0001B681B6B019308BD4402030008B5024B11
:105AE0001B685B6B019308BD4402030008B5024BC1
:105AF0001B689B6B019308BD4402030008B5024B71
:105B00001B68DB6B019308BD4402030008B5024B20
:105B10001B685B6C019308BD4402030008B5024B8F
:105B20001B681B68019308BD1C02030008B5024BEB
:105B30001B685B68019308BD1C02030008B5024B9B
:105B40001B689B68019308BD1C02030008B5024B4B
:105B50001B681B69019308BD1C02030008B5024BBA
:105B60001B68DB69019308BD1C02030008B5024BEA
:105B70001B685B6A019308BD1C02030008B5024B59
:105B80001B68DB6A019308BD1C02030008B5024BC9
:105B90001B681B6B019308BD1C02030008B5024B78
:105BA0001B681B6C019308BD1C02030008B5024B67
:105BB0001B685B6C019308BD1C02030008B5024B17
:105BC0001B689B6C019308BD1C02030008B5024BC7
:105BD0001B68DB6C019308BD1C02030000224068B7
:105BE0001146FFF71BBF002240681146FFF726BF92
:105BF00040680022FFF71ABF4068002281F00101CF
:105C0000FFF704BF002340681A461946FFF7F6BEA7
:105C1000002340681A461946FFF7E8BE0022406894
:105C20001146FFF7DBBE002240681146FFF7C6BEF3
:105C3000406800220221FFF7C9BE002340681A46CF
:105C4000FFF7B4BE024B03225A60024A1A60704743
:105C5000B0E6032058850B000021FFF71BBE002192
:105C6000FFF710BE10B5044608462170FFF7EAFDA5
:105C700000236360204610BD13B504460078FFF78B
:105C8000EEFF58B9207801904FF6FF71FFF7CAFD7B
:105C9000019802B0BDE81040FFF7DEBF02B010BDB2
:105CA0000078FFF7D9BF0000400830B51860002425
:105CB00018688842E5B206D90134082C02D04008A1
:105CC0001860F5E70725024B5B5D137030BD00BF20
:105CD0008C850B002DE9F04306468FB000780C460A
:105CE000FFF7BDFF00281BDB35781422002109A82F
:105CF00002F04CFA0B23002209A92846ADF8243003
:105D0000FFF7B0FD9DF82D3013B19DF82C5055B123
:105D10000027B946B846012523795DB1C3B10020FB
:105D20000FB0BDE8F083DDF830809DF834909DF829
:105D30003570F1E7002B35D1A368434508D18DF8C4
:105D400020908DF82170BDF82020A3899A42E6D0DA
:105D50000023A1688DF80F300A9804AB0DF10F02F3
:105D6000FFF7A2FF217985B989B9A36843450ED30E
:105D70008DF820908DF82170BDF82020A3899A42DB
:105D800005D1049B434502D1C9E70029F9D100237D
:105D90000193637B00939DF80F20237B3078FFF7FE
:105DA00069FDBCE7CDE900552B462A460121F5E700
:105DB00008B50078FFF73EFDC0B208BD054B0222D2
:105DC0001A60054B054A9A600020C3E90000FFF7FE
:105DD000A9BD00BFC4E60320B8E603200000FFFF12
:105DE00010B504460068FFF7A1FE204610BD10B5AF
:105DF0000446006808B1FFF799FE0023C4E90133A7
:105E0000236010BD38B504460D4600680131FFF728
:105E100095FE10B1C4E90005012038BD10B5036836
:105E2000044623B143688B4201D3012010BD2046B4
:105E3000FFF7E8FF0028F9D0A368002BF5D122680E
:105E40001370F2E737B50D46114601920446FFF78D
:105E5000E5FF019A28B92046FFF7C9FF204603B0A5
:105E600030BDA2602946206802F082F92268A3684A
:105E70000021D154F2E7002313B5C0E900330446F2
:105E80008360037341B10846019102F0E4F901997E
:105E900002462046FFF7D6FF204602B010BD10B5DF
:105EA0008368044613B1032201469847204610BD7B
:105EB00010B54368013B0446436063B903689B68BF
:105EC0009847A368013BA3602BB923682046DB6891
:105ED000BDE81040184710BD10B50446006808B171
:105EE000FFF7E6FF204610BD13B50B460246D0E98A
:105EF00000016C4684E8030093E8030082E8030095
:105F000094E8030083E8030002B010BD02480023B8
:105F10000360FFF7DFBB00BFC8E60320F8B5064605
:105F20000D468F180024BD420CD0336815F8011BB4
:105F30009B6830469847031E01DB1C44F3E7002CA6
:105F400008BF1C462046F8BD13B50446084659B1A3
:105F5000019102F080F923680199DB68024620462E
:105F600002B0BDE81040184702B010BD08B5FFF7F9
:105F7000EBFF08BD03689B68184738B50D2105463F
:105F8000FFF7F8FF0A2104462846FFF7F3FF2044F5
:105F900038BD38B50546FFF7D7FF04462846FFF75A
:105FA000ECFF204438BD30B58BB00023012A8DF8BA
:105FB000243098BF0A2209AC0D46B1FBF2F101FB77
:105FC000125303F0FF03092B94BF30333733DBB296
:105FD000AA4204F8013DEFD92146FFF7B5FF0BB007
:105FE00030BD2DE9F04186B000AF05460E46381DA4
:105FF000142114463B60FFF7B9FD13280ED8391D54
:106000002846FFF7A1FF04461EB12846FFF7B5FF5B
:10601000044420461837BD46BDE8F08100F108036E
:1060200023F00703E846ADEB030D2246411C3B6815
:106030006846FFF79BFD69462846FFF785FF044643
:10604000C546E1E7014B024A1A607047CCE60320DF
:1060500094850B0008B50020FFF738FD28B1FFF745
:1060600015FD80F00100C0B208BD0120FCE7000072
:1060700030B593B0CDE90023194B0446D3E90010A5
:10608000019B521843EB00031648D0E90010521848
:1060900043EB0003CDE9002324220DEB0200002195
:1060A00002F074F8002509A96846FFF78FFD162253
:1060B000294603A8029502F069F802A909A802F08E
:1060C00023F802A802F0C7F812AB184402A900F89E
:1060D000415C2046FFF7CFFE204613B030BD00BF25
:1060E000E0E60320D8E603202DE9F047A4B00746F8
:1060F000884614A811463F221C4602F0B4F800233B
:1061000014A88DF88F3002F0A6F805464CBB29493B
:1061100003A802F07BF814AC002605F1FF39B14565
:1061200034D92378252B06F1010A17D163787A2B0D
:1061300014D103A802F08FF814AB054630181844A8
:10614000A9EB0602A11C02F013F82A4603A9204677
:1061500002F00EF814A802F07EF805460134564607
:10616000DBE73C2394FBF3F2002AB8BF5242B2FBB8
:10617000F3F103FB112200924FF461630E4A94FB8A
:10618000F3F3102103A8FFF7E9FCC4E700212E2256
:1061900008A8079101F0FAFF434614AA322107A884
:1061A000FFF70CFD07A93846FFF765FE384624B017
:1061B000BDE8F08798850B009A850B00F0B58DB08F
:1061C000CDE90023129D044615B9194B1D682DB168
:1061D000184B2846196802F00FF838B9DDE900239A
:1061E0002046FFF745FF20460DB0F0BD124E009946
:1061F000124FD6E900325B18019942EB0102D7E950
:1062000000011B1842EB0102CDE9003200212422DB
:1062100003A801F0BBFF03A96846FFF7D7FC32686B
:106220003B6803A9134420462A46FFF75DFFDAE7DF
:10623000D4E6032088E50320E0E60320D8E6032027
:1062400010B50020FFF736FA0446A0B9FFF762FB4D
:10625000012810D12046FFF78DFB60B9FFF7FAFE49
:1062600010B9FFF703FCF9E7FFF7F4FEBDE81040B3
:106270000020FFF71FBA204610BD1FB5FFF7E0FF53
:1062800010220021684601F081FF00216846FFF7D7
:1062900019FA009805B05DF804FB0000024B1A687B
:1062A000024B1A60704700BF88E50320D4E6032044
:1062B0000021FFF73FBB0000014B00229A607047AE
:1062C000E8E60320014B1860704700BF90E503200B
:1062D00008B50B4B43B100F035FC03681B699847C8
:1062E000002801DDAFF30080064B43B100F0C0FF92
:1062F00003681B699847002801DDAFF3008008BDE3
:10630000000000000000000008B5FFF7E1FFFFF704
:10631000C9F9014B186008BD40E703200548064A4B
:10632000064908B5121A01F023FF054B054A1A6009
:1063300008BD00BF00F4032004F403205C890B00B7
:1063400000F403201E1C279A07B5002300931A4669
:106350006FF07701FFF720FB03B05DF804FB00004E
:1063600007B543880A2B08D0502B0BD1094B1B686B
:106370004BB103B05DF804EB1847FFF7E5FF03B03E
:106380005DF804FB002300931A466FF07701FFF7D6
:1063900003FBF4E7FCE6032010B512480021FFF7E9
:1063A00005FC114B1A68114B9A42114B0CBF01228C
:1063B00000221A7001D0FFF7B1FFFFF76BF9044616
:1063C00001F0ECFE0B4B13B12046AFF3008000212F
:1063D0000848FFF793FBBDE8104007480021FFF78E
:1063E000D1BA00BFC5620B0000F403201E1C279A1F
:1063F000F8E603200000000061630B0070470020F6
:10640000704710B510210446FDF749FE204610BD27
:1064100008B5FFF7F6FF08BD30B500224FF69C74B3
:10642000026084808D888C800C68858004600A609E
:1064300030BD10B504460068FFF778FB204610BD5C
:1064400038B5C468F4B12378022B03D104F10C00F1
:10645000FFF7EFFF656835B12846FFF720FD1021F3
:106460002846FDF71CFEA56835B12846FFF717FD45
:1064700010212846FDF713FE20461421BDE83840C0
:10648000FDF70DBE38BD1FB50C23ADF80430036811
:106490008DF80630037A8DF80730436802930021A7
:1064A000437AADF80D1001A88DF80F108DF80C305F
:1064B000FFF72CFB05B05DF804FB1FB50C22ADF80F
:1064C000042002688DF80620027A8DF807204268C1
:1064D00002920023427A8DF80C20194601AA02206C
:1064E000ADF80D308DF80F30FFF700FB05B05DF80B
:1064F00004FB0B6803604B68436013B15A680132B8
:106500005A60704737B5044668460D46FFF7F1FFFD
:10651000009B019A23606260002301A8019300930D
:10652000FFF7DAFC35B1281DFFF7D6FC0821284615
:10653000FDF7B5FD204603B030BD826810B50AB93D
:1065400000F0F8FEBDE81040C368184708B50068C1
:1065500000F11001FFF7F1FF08BD826810B50AB91C
:1065600000F0E8FEBDE81040C368184708B50068B1
:1065700000F11001FFF7F1FF08BD000038B500235E
:106580000446036010200D46FDF785FD28B1012368
:10659000C0E90133024B0360C5602060204638BD6E
:1065A000CC850B0038B5002383608B6804460D460C
:1065B0002BB102229847EB68E360AB68A3602046EA
:1065C00038BD0000F0B589B004686846FFF724FFC5
:1065D0004FF00203D4E84F2F002A03D1C4E8413F13
:1065E0000029F7D125D104F10C0569462846FFF7AB
:1065F00013FFBFF35B8F01236370002004F10803D6
:10660000BFF35B8F53E8006F43E80002002AF9D123
:10661000BFF35B8F6EB1FFF79DF978B12946304625
:10662000FFF78BFF3046FFF73AFC10213046FDF7AD
:1066300036FD6846FFF7FDFE09B0F0BD314602A801
:10664000FFF7B0FFE068B4F9105008B101F0E6FDC3
:1066500006901020ADF81C50FDF71DFD0546E8B171
:10666000002787601820FDF716FD044688B1014613
:10667000876002A8FFF738FC049BA268A360059B13
:10668000049206A9E268E36004F110000592FFF7A6
:10669000C3FE084BEB60084B2C60AB6006A8FFF70D
:1066A000C8FE02A8FFF7FBFB002229460348FFF7BC
:1066B00059F9B7E74D650B00D1670B00356C0B003E
:1066C0002DE9F04F8BB005469DF850A00F4690463F
:1066D0009946FFF7DBF907AE834638BB4FF62E73BA
:1066E000059005A93046ADF81830FFF795FE142047
:1066F000FDF7D1FC044648B1022303700123C0E931
:1067000001BB437031460C30FFF786FE2846214618
:1067100040F8044BFFF732FF3046FFF78AFE05A82A
:10672000FFF787FE28460BB0BDE8F08F0C2300244E
:106730001420CDE908440793FDF7ADFC014618B1DC
:10674000C0E901440470447004A80391FFF716FFE8
:106750001E4B08930820FDF79EFC044610B103A9C8
:10676000FFF7C7FE00965FFA8AF34A46414638466D
:106770000994FFF79BF9B8B9039B5B7803F0FF021C
:1067800093B94FF69C7305A903A80592ADF818308C
:10679000FFF718FF05A8FFF74CFE05A80999FFF7BA
:1067A000B1FE06A8FFF798FB03A905A8FFF7A1FE15
:1067B000059B069A2B606A60002306A80693059342
:1067C000FFF78AFB04A8FFF787FBABE74D680B00D8
:1067D000012AF8B5054603D10B6803600020F8BD17
:1067E000022A10D0032AF9D10468002CF6D004F153
:1067F0001000FFF71EFE2046FFF751FB1821204630
:10680000FDF74DFCEAE718200E68FDF744FC04464E
:1068100050B13146FFF7C6FE3069B6F9147008B1C1
:1068200001F0FCFC2061A7822C60D7E738B500237B
:1068300083608B6804460D462BB102229847EB68B3
:10684000E360AB68A360204638BD0000F0B589B0B6
:1068500004460D4601A81146FFF754FEA4B124B228
:106860001DB1284601F0DAFC054601A803A90395ED
:10687000ADF81040FFF7A6FE03A8FFF7DAFD02A867
:10688000FFF72AFB09B0F0BD019D0123D5E84F2F8A
:10689000002A03D1C5E8413F0029F7D1EFD12B737E
:1068A000BFF35B8F6B702B1DBFF35B8F53E8006FE3
:1068B00043E80042002AF9D1BFF35B8F002EDED0FF
:1068C0002046FFF747F8074660B105F10C01304656
:1068D000FFF743FE3046FFF7E2FA10213046FDF79E
:1068E000DEFBCCE7314603A8FFF7A0FF2B7B8DF83A
:1068F0001C301020FDF7CFFB0546D0B18760142077
:10690000FDF7C9FB044678B18760014603A8FFF78D
:10691000EBFA059BA268A360069B0592E268E36020
:106920009DF81C3006922374064BEB60064B2C60DE
:10693000AB6003A8FFF7B3FA002229460348FFF72C
:1069400011F8C7E76D650B0051690B00356C0B0042
:10695000012A70B5044603D10B680360002070BDA6
:10696000022A0CD0032AF9D10468002CF6D0204664
:10697000FFF795FA14212046FDF791FBEEE714206E
:106980000E68FDF788FB054620B13146FFF74EFF44
:10699000337C2B742560E1E7704710B5182104465D
:1069A000FDF77DFB204610BDF0B5037D062B8DB0B5
:1069B0000E4600F104074FF0000412D000F1080564
:1069C00015F8011D0A223046FFF7EDFAAF420444E4
:1069D00019D0002CF4D02E213046FFF7CBFA044416
:1069E000EEE72F236A4639460A208DF80040FEF76D
:1069F00079FE684601F02FFC33680246DB68694681
:106A000030469847044620460DB0F0BD10B5054B02
:106A10000446112240F8043B002101F0B7FB204658
:106A200010BD00BFE8850B000346074A10B543F8C8
:106A3000042B01F1100251F8044B43F8044B91422E
:106A4000F9D10A781A7010BDE8850B0010B59DF8D1
:106A5000084044EA032343EA024242EA0161042374
:106A60004160037510BD000007B5064B0360CB788D
:106A700000938B784A780978FFF7E8FF03B05DF858
:106A800004FB00BFE8850B004174704770477047F6
:106A900008B50021007CFEF725FF40EAE07008BD44
:106AA00008B50121007CFEF71DFF40EAE07008BD3B
:106AB00008B5007CFEF70EFF20EAE07008BD08B5BF
:106AC000007CFEF7FFFE20EAE07008BD13B5044627
:106AD000007C0191FEF7FEFE0028019901DC607C3C
:106AE00020B1207CFEF706FF20EAE07002B010BD66
:106AF000007CFEF707BF10B514210446FDF7CFFA5E
:106B0000204610BD10B54FF47A73044608460021A4
:106B1000C4E90113044B23600123207463741146FC
:106B2000FEF7C0FE204610BDFC850B00007C002255
:106B3000FEF7C0BE10B514220446002101F026FB6A
:106B4000204610BD10B50F4C88B003A8FFF7F2FF28
:106B50002178BFF35B8F11F001010FD12046019125
:106B6000FDF79FFA019948B103AA0748FFF7CAFF4A
:106B70002046FDF79BFA054801F0ECFA024808B000
:106B800010BD00BF00E7032004E703208D6A0B005F
:106B900070474174704708B5007CFEF7DBFD20EAC2
:106BA000E07008BD08B5007CFEF7ACFD20EAE0709F
:106BB00008BD08B5007CFEF7B5FD40EAE07008BDF1
:106BC00008B5007CFEF7A6FD40EAE07008BD007C39
:106BD000FEF7B0BD37B5457C04462DB1207C03B02F
:106BE000BDE83040FEF786BD007C0191FEF7B2FDA6
:106BF00000280199F2DC284603B030BD10B51421FD
:106C00000446FDF74CFA204610BD000010B54FF4C5
:106C10007A730446084611460022C4E90123044B56
:106C20002360012320746374FEF79CFD204610BD91
:106C30002C860B0010B5836804460BB900F07AFB74
:106C4000C3689847A3681BB1032221462046984792
:106C500020461021BDE81040FDF721BA7047F8B575
:106C6000064615460C468F18BC4206D0336814F809
:106C7000011B9B6830469847F6E72846F8BD007C24
:106C80000022FEF78FBD007C0021FEF793BD007C43
:106C90000021FEF797BD007C0021FEF79BBD007C24
:106CA0000021FEF79FBD10B514210446FDF7F7F94A
:106CB000204610BD10B54FF47A73044608460021F3
:106CC000C4E90113034B236020741146FEF79AFDBB
:106CD000204610BD5C860B000023007C1A46194636
:106CE000FEF748BD7FB500221423CDE90122ADF89F
:106CF00004300B788DF808304B680393CB6804930D
:106D0000007C0B7A059301A9FEF784FD07B05DF8BE
:106D100004FB1FB5003B8DF800104FF06401039198
:106D200018BF0123694601928DF80830FFF7DAFF9A
:106D300005B05DF804FB0123FFF7EBBF007C0022E8
:106D4000FEF720BDC9B2FFF7F9BF007C0022FEF7B5
:106D500021BD0121FFF7F9BF007C0021FEF74ABDEC
:106D6000002240681146FEF739BE002240681146F5
:106D7000FEF754BE002240681146FEF75FBE406831
:106D80000022FEF753BE4068002281F00101FEF7A9
:106D90003DBE002340681A461946FEF727BE002272
:106DA00040681146FEF70ABE406800220221FEF745
:106DB0000DBE002340681A46FEF7F8BD024B0422C0
:106DC0005A60024A1A60704718E7032084860B0055
:106DD000002340681A46FEF7E9BD40680022022100
:106DE000FEF7F4BD002240681146FEF7E7BD002221
:106DF00040681146FEF7F2BD002340681A46194666
:106E0000FEF7F4BD002340681A461946FEF7F6BDAA
:106E100040680021FEF71ABE40680021FEF71EBE42
:106E20004068002281F00101FEF7F0BD40680022B9
:106E3000FEF7FCBD002240681146FEF7FFBD0022B0
:106E400040681146FEF7EABD2DE9F04395B01446BF
:106E50000D460746FFF7DAFD00211C220DA8009120
:106E600001F094F940230C9320466B460CAA0021B4
:106E7000FEF7E8FB044600284BD102460121686872
:106E8000FEF7ACFD0221804622466868FEF7A6FDAB
:106E9000009E81462146002E3BD0002939D17368DF
:106EA000022B03D00A2B11D0F669F4E7B8F1000FDA
:106EB000FAD0716906A8043107ADFFF7D5FD0FCDF3
:106EC0003C1D0FC42B6823704146EDE7B9F1000F5C
:106ED000EAD07469102201A801F058F906238DF850
:106EE000143001AD04F108031834186859682A46B3
:106EF00003C20833A3421546F7D101A906A807AD7E
:106F0000FFF792FD0FCD3C1D0FC42B68237049463F
:106F1000CAE70098FEF78EFB384615B0BDE8F0834F
:106F2000024B034A1A6000225A60704720E7032090
:106F3000C0860B00704710B514210446FDF7AFF86A
:106F4000204610BD38B51546D0E9032393420446C8
:106F500007D2D21A8068AA4228BF2A46184401F0F4
:106F600007F922692A44226138BD0EB417B505AB72
:106F7000044653F8042BE1680193036980688B424F
:106F800038BFC91A184428BF0021019BFEF7EEFD47
:106F900023691844206103B0BDE8104003B0704776
:106FA00007B503688DF807109B6801220DF10701F2
:106FB000984703B05DF804FB10B57D210446FFF748
:106FC000EFFF01232371204610BD08B50379012B83
:106FD00002D0022B04D008BD2C21FFF7E1FFFAE715
:106FE0003A21FAE710B50446FFF7EFFF20467B2170
:106FF000FFF7D6FF00232371204610BD13B50446CA
:107000000191FFF7E2FF2368019ADB6803492046FC
:10701000984701232046237102B010BDF4860B006F
:10702000F8B5044657EC106BFFF7CFFF236805490E
:10703000DD6820463B463246A8470123237120469F
:10704000F8BD00BFF7860B002DE9F0470D46222161
:1070500090460446FFF7A4FFDFF8A490A8442F460B
:107060004745BA463DD017F8016B222E06D05C2E5C
:1070700004D0304601F074F80028F1D12368AAEB5F
:1070800005029B682946204698475C212046FFF769
:1070900087FF0D2E0AD8072E1CD9A6F10803052B51
:1070A00018D8DFE803F00D0F11171315222E01D0A9
:1070B0005C2E0FD131462046FFF772FF3D46CFE7E9
:1070C0006221F8E77421F6E76E21F4E76621F2E722
:1070D0007221F0E723683246DB684946204698472C
:1070E000ECE7BD4205D023687A1B9B682946204601
:1070F000984722212046FFF753FFBDE8F08700BFE5
:10710000FA860B0013B50446CDE90021FFF75DFFB9
:107110002046DDE90021FFF797FF02232046237177
:1071200002B010BD13B50446CDE90021FFF74DFFB5
:107130002046DDE90021FFF787FF01232046237168
:1071400002B010BD232813B502D9002002B010BD33
:10715000A0F10B03022B1AD8174C2178BFF35B8FD9
:1071600011F001010BD120460191FCF79AFF019922
:1071700028B11248FEF776FD2046FCF797FF0F4B2B
:107180001878FEF767FB0028DFD10120DEE7012831
:1071900009D800F0A9F80021007CFEF72BFB80F055
:1071A0000100C0B2D2E709380128EED800F060F83B
:1071B000007CFEF7C7FAF2E7A4E60320A8E6032066
:1071C000232838B504460D460AD8FF2908D0FFF712
:1071D000B9FF28B129462046BDE83840FEF73ABA43
:1071E00038BD38B504460D46FEF73CFAFF2810D0EE
:1071F000062804D84D2323FA00F0C30709D42046FB
:10720000FFF7A0FF28B129462046BDE83840FEF729
:1072100031BA38BD10B50446FEF724FA031FDBB2BD
:10722000012B08D92046FFF78DFF20B12046BDE88D
:107230001040FEF727BA002010BD704738B504464D
:1072400014252A46002100F0A1FF2580402507498A
:1072500025812846258200F06BF8044960602846A5
:1072600000F066F8E060204638BD00BF18870B00CC
:1072700030B50E4D2978BFF35B8F11F0010487B054
:1072800011D12846FCF70DFF68B101A8FFF7D6FF22
:1072900001AA21460648FFF7B9FC2846FCF706FF7D
:1072A000044800F057FF024807B030BD28E703202C
:1072B0002CE703203B720B007047000038B52025F7
:1072C000142304460360856005610649284600F0E2
:1072D0002FF804496060284600F02AF8E060204654
:1072E00038BD00BF18870B0030B50E4D2978BFF3AD
:1072F0005B8F11F0010487B011D12846FCF7D1FE55
:1073000068B101A8FFF7DAFF01AA21460648FFF796
:10731000D1FC2846FCF7CAFE044800F01BFF0248D7
:1073200007B030BD44E7032048E70320B9720B00E3
:10733000FCF7B3BE08B5FEF721FC000081F0004168
:1073400002E000BF83F0004330B54FEA41044FEA4A
:10735000430594EA050F08BF90EA020F1FBF54EAE5
:10736000000C55EA020C7FEA645C7FEA655C00F081
:10737000E2804FEA5454D4EB5555B8BF6D420CDD52
:107380002C4480EA020281EA030382EA000083EAD5
:10739000010180EA020281EA0303362D88BF30BD75
:1073A00011F0004F4FEA01314FF4801C4CEA1131CB
:1073B00002D0404261EB410113F0004F4FEA03332A
:1073C0004CEA133302D0524263EB430394EA050FB5
:1073D00000F0A780A4F10104D5F1200E0DDB02FA24
:1073E0000EFC22FA05F2801841F1000103FA0EF2B8
:1073F000801843FA05F359410EE0A5F120050EF17E
:10740000200E012A03FA0EFC28BF4CF0020C43FAAE
:1074100005F3C01851EBE37101F0004507D54FF0BB
:10742000000EDCF1000C7EEB00006EEB0101B1F50B
:10743000801F1BD3B1F5001F0CD349085FEA300051
:107440004FEA3C0C04F101044FEA445212F5800F5C
:1074500080F09A80BCF1004F08BF5FEA500C50F1F9
:10746000000041EB045141EA050130BD5FEA4C0CDC
:10747000404141EB0101013C28BFB1F5801FE9D239
:1074800091F0000F04BF01460020B1FA81F308BF5C
:107490002033A3F10B03B3F120020CDA0C3208DD28
:1074A00002F1140CC2F10C0201FA0CF021FA02F103
:1074B0000CE002F11402D8BFC2F1200C01FA02F173
:1074C00020FA0CFCDCBF41EA0C019040E41AA2BF98
:1074D00001EB0451294330BD6FEA04041F3C1CDA60
:1074E0000C340EDC04F11404C4F1200220FA04F080
:1074F00001FA02F340EA030021FA04F345EA03012A
:1075000030BDC4F10C04C4F1200220FA02F001FAEB
:1075100004F340EA0300294630BD21FA04F029466D
:1075200030BD94F0000F83F4801306BF81F4801106
:107530000134013D4EE77FEA645C18BF7FEA655C79
:1075400029D094EA050F08BF90EA020F05D054EA4B
:10755000000C04BF1946104630BD91EA030F1EBF50
:107560000021002030BD5FEA545C05D14000494154
:1075700028BF41F0004130BD14F580043CBF01F547
:10758000801130BD01F0004545F0FE4141F470012D
:107590004FF0000030BD7FEA645C1ABF1946104608
:1075A0007FEA655C1CBF0B46024650EA013406BF09
:1075B00052EA033591EA030F41F4002130BD00BFC8
:1075C00090F0000F04BF0021704730B54FF4806485
:1075D00004F132044FF000054FF0000150E700BF06
:1075E00090F0000F04BF0021704730B54FF4806465
:1075F00004F1320410F0004548BF40424FF0000152
:107600003EE700BF42004FEAE2014FEA31014FEA94
:1076100002701FBF12F07F4393F07F4F81F06051E3
:10762000704732F07F4208BF704793F07F4F04BF2E
:1076300041F40021704730B54FF4607401F000450B
:1076400021F000411CE700BF50EA010208BF70476B
:1076500030B54FF000050AE050EA010208BF70475C
:1076600030B511F0004502D5404261EB41014FF4C5
:10767000806404F132045FEA915C3FF4D8AE4FF0CD
:1076800003025FEADC0C18BF03325FEADC0C18BFB0
:10769000033202EBDC02C2F1200300FA03FC20FA01
:1076A00002F001FA03FE40EA0E0021FA02F114444E
:1076B000BDE600BF70B54FF0FF0C4CF4E06C1CEA67
:1076C00011541DBF1CEA135594EA0C0F95EA0C0FD8
:1076D00000F0DEF82C4481EA030621EA4C5123EA4B
:1076E0004C5350EA013518BF52EA033541F480117A
:1076F00043F4801338D0A0FB02CE4FF00005E1FB2D
:1077000002E506F00042E0FB03E54FF00006E1FB76
:1077100003569CF0000F18BF4EF0010EA4F1FF04B9
:10772000B6F5007F64F5407404D25FEA4E0E6D41F9
:1077300046EB060642EAC62141EA55514FEAC5200A
:1077400040EA5E504FEACE2EB4F1FD0C88BFBCF586
:10775000E06F1ED8BEF1004F08BF5FEA500E50F137
:10776000000041EB045170BD06F0004646EA0101FD
:1077700040EA020081EA0301B4EB5C04C2BFD4EB2F
:107780000C0541EA045170BD41F480114FF0000E28
:10779000013C00F3AB8014F1360FDEBF002001F096
:1077A000004170BDC4F10004203C35DA0C341BDC10
:1077B00004F11404C4F1200500FA05F320FA04F0E2
:1077C00001FA05F240EA020001F0004221F0004116
:1077D00010EBD37021FA04F642EB06015EEA430E89
:1077E00008BF20EAD37070BDC4F10C04C4F12005B9
:1077F00000FA04F320FA05F001FA04F240EA02006C
:1078000001F0004110EBD37041F100015EEA430E3C
:1078100008BF20EAD37070BDC4F1200500FA05F25C
:107820004EEA020E20FA04F301FA05F243EA0203DB
:1078300021FA04F001F0004121FA04F220EA0200EA
:1078400000EBD3705EEA430E08BF20EAD37070BD30
:1078500094F0000F0FD101F00046400041EB010110
:1078600011F4801F08BF013CF7D041EA060195F0F2
:10787000000F18BF704703F00046520043EB0303AC
:1078800013F4801F08BF013DF7D043EA0603704799
:1078900094EA0C0F0CEA135518BF95EA0C0F0CD0A4
:1078A00050EA410618BF52EA4306D1D181EA0301EA
:1078B00001F000414FF0000070BD50EA410606BFE4
:1078C0001046194652EA430619D094EA0C0F02D129
:1078D00050EA013613D195EA0C0F05D152EA03366E
:1078E0001CBF104619460AD181EA030101F000418C
:1078F00041F0FE4141F470014FF0000070BD41F0D5
:10790000FE4141F4780170BD70B54FF0FF0C4CF4AE
:10791000E06C1CEA11541DBF1CEA135594EA0C0FCD
:1079200095EA0C0F00F0A7F8A4EB050481EA030E1A
:1079300052EA03354FEA013100F088804FEA033301
:107940004FF0805545EA131343EA12634FEA0222CF
:1079500045EA111545EA10654FEA00260EF0004190
:107960009D4208BF964244F1FD0404F5407402D2E2
:107970005B084FEA3202B61A65EB03055B084FEA73
:1079800032024FF480104FF4002CB6EB020E75EB70
:10799000030E22BFB61A754640EA0C005B084FEA98
:1079A0003202B6EB020E75EB030E22BFB61A754615
:1079B00040EA5C005B084FEA3202B6EB020E75EB60
:1079C000030E22BFB61A754640EA9C005B084FEAD8
:1079D0003202B6EB020E75EB030E22BFB61A7546E5
:1079E00040EADC0055EA060E18D04FEA051545EAD4
:1079F00016754FEA06164FEAC30343EA52734FEA7D
:107A0000C2025FEA1C1CC0D111F4801F0BD141EAF5
:107A100000014FF000004FF0004CB6E711F4801F5A
:107A200004BF01430020B4F1FD0C88BFBCF5E06F3A
:107A30003FF6AFAEB5EB030C04BFB6EB020C5FEA4A
:107A4000500C50F1000041EB045170BD0EF0004E9F
:107A50004EEA113114EB5C04C2BFD4EB0C0541EAD1
:107A6000045170BD41F480114FF0000E013C90E6CE
:107A700045EA060E8DE60CEA135594EA0C0F08BF92
:107A800095EA0C0F3FF43BAF94EA0C0F0AD150EA91
:107A900001347FF434AF95EA0C0F7FF425AF104624
:107AA00019462CE795EA0C0F06D152EA03353FF44C
:107AB000FDAE1046194622E750EA410618BF52EAC9
:107AC00043067FF4C5AE50EA41047FF40DAF52EA9D
:107AD00043057FF4EBAE12E74FEA4102B2F1E04317
:107AE00024BFB3F5001CDCF1FE5C0DD901F0004CA5
:107AF0004FEAC0024CEA5070B2F1004F40EB8300F5
:107B000008BF20F00100704711F0804F21D113F120
:107B10003872BCBF01F00040704741F480114FEA59
:107B20005252C2F11802C2F1200C10FA0CF320FAE2
:107B300002F018BF40F001004FEAC1234FEAD323FF
:107B400003FA0CFC40EA0C0023FA02F34FEA430369
:107B5000CCE77FEA625307D150EA01331EBF4FF0F2
:107B6000FE4040F44000704701F0004040F0FE400D
:107B700040F40000704700BF80F0004002E000BF0A
:107B800081F0004142001FBF5FEA410392EA030F08
:107B90007FEA226C7FEA236C6AD04FEA1262D2EB52
:107BA0001363C1BFD218414048404140B8BF5B4257
:107BB000192B88BF704710F0004F40F4000020F0F0
:107BC0007F4018BF404211F0004F41F4000121F006
:107BD0007F4118BF494292EA030F3FD0A2F1010250
:107BE00041FA03FC10EB0C00C3F1200301FA03F18E
:107BF00000F0004302D5494260EB4000B0F5000FB1
:107C000013D3B0F1807F06D340084FEA310102F16F
:107C10000102FE2A51D2B1F1004F40EBC25008BF21
:107C200020F0010040EA03007047490040EB0000EB
:107C3000013A28BFB0F5000FEDD2B0FA80FCACF1EC
:107C4000080CB2EB0C0200FA0CF0AABF00EBC25019
:107C500052421843BCBFD0401843704792F0000F07
:107C600081F4000106BF80F400000132013BB5E75A
:107C70004FEA41037FEA226C18BF7FEA236C21D0D0
:107C800092EA030F04D092F0000F08BF0846704735
:107C900090EA010F1CBF0020704712F07F4F04D103
:107CA000400028BF40F00040704712F100723CBF16
:107CB00000F50000704700F0004343F0FE4040F440
:107CC000000070477FEA226216BF08467FEA2363FE
:107CD0000146420206BF5FEA412390EA010F40F4E9
:107CE000800070474FF0000304E000BF10F0004335
:107CF00048BF40425FEA000C08BF704743F096431C
:107D000001464FF000001CE050EA010208BF704736
:107D10004FF000030AE000BF50EA010208BF7047BD
:107D200011F0004302D5404261EB41015FEA010CD2
:107D300002BF84460146002043F0B64308BFA3F1CA
:107D40008053A3F50003BCFA8CF2083AA3EBC253AC
:107D500010DB01FA02FC634400FA02FCC2F12002CB
:107D6000BCF1004F20FA02F243EB020008BF20F002
:107D70000100704702F1200201FA02FCC2F1200268
:107D800050EA4C0021FA02F243EB020008BF20EA5D
:107D9000DC7070477BB972B90029BEBF00204FF07C
:107DA000004106E008BF00281CBF6FF000414FF003
:107DB000FF3000F0A7B9ADF1080C6DE904CE002941
:107DC00009DB002B1ADB00F035F8DDF804E0DDE913
:107DD000022304B07047404261EB4101002B1BDBE2
:107DE00000F028F8DDF804E0DDE9022304B04042A9
:107DF00061EB4101524263EB43037047524263EB34
:107E0000430300F017F8DDF804E0DDE9022304B0D5
:107E1000404261EB41017047524263EB430300F083
:107E200009F8DDF804E0DDE9022304B0524263EB17
:107E3000430370472DE9F047089D04468E46002B0A
:107E40004DD18A42944669D9B2FA82F252B101FA0E
:107E500002F3C2F1200120FA01F10CFA02FC41EA1E
:107E6000030E94404FEA1C48210CBEFBF8F61FFAA3
:107E70008CF708FB16E341EA034306FB07F199423E
:107E80000AD91CEB030306F1FF3080F01F819942F1
:107E900040F21C81023E63445B1AA4B2B3FBF8F0CB
:107EA00008FB103344EA034400FB07F7A7420AD952
:107EB0001CEB040400F1FF3380F00A81A74240F27A
:107EC00007816444023840EA0640E41B00261DB1E5
:107ED000D4400023C5E900433146BDE8F0878B421A
:107EE00009D9002D00F0EF800026C5E900013046D9
:107EF0003146BDE8F087B3FA83F6002E4AD18B42B3
:107F000002D3824200F2F980841A61EB030301205C
:107F10009E46002DE0D0C5E9004EDDE702B9FFDE48
:107F2000B2FA82F2002A40F09280A1EB0C014FEAF3
:107F30001C471FFA8CFE0126200CB1FBF7F307FB50
:107F4000131140EA01410EFB03F0884208D91CEBF3
:107F5000010103F1FF3802D2884200F2CB80434690
:107F6000091AA4B2B1FBF7F007FB101144EA01446F
:107F70000EFB00FEA64508D91CEB040400F1FF31FE
:107F800002D2A64500F2BB800846A4EB0E0440EAEC
:107F900003409CE7C6F12007B34022FA07FC4CEAF5
:107FA000030C20FA07F401FA06F31C43F9404FEAE8
:107FB0001C4900FA06F3B1FBF9F8200C1FFA8CFEFD
:107FC00009FB181140EA014108FB0EF0884202FA51
:107FD00006F20BD91CEB010108F1FF3A80F0888012
:107FE000884240F28580A8F102086144091AA4B2CF
:107FF000B1FBF9F009FB101144EA014100FB0EFE50
:108000008E4508D91CEB010100F1FF346CD28E457E
:108010006AD90238614440EA0840A0FB0294A1EB0F
:108020000E01A142C846A64656D353D05DB1B3EB6C
:10803000080261EB0E0101FA07F722FA06F3F1409C
:108040001F43C5E9007100263146BDE8F087C2F143
:108050002003D8400CFA02FC21FA03F391400143BB
:108060004FEA1C471FFA8CFEB3FBF7F007FB1036F4
:108070000B0C43EA064300FB0EF69E4204FA02F4A0
:1080800008D91CEB030300F1FF382FD29E422DD9F3
:10809000023863449B1B89B2B3FBF7F607FB163328
:1080A00041EA034106FB0EF38B4208D91CEB0101A8
:1080B00006F1FF3816D28B4214D9023E6144C91A28
:1080C00046EA004638E72E46284605E70646E3E638
:1080D0001846F8E64B45A9D2B9EB020864EB0C0E42
:1080E0000138A3E74646EAE7204694E74046D1E751
:1080F000D0467BE7023B614432E7304609E76444FF
:10810000023842E7704700BF10B50C464169036969
:10811000826986B001F26C71049101680391416833
:10812000029181680191C1680091074903EB430303
:108130000B44064902EB42020A4420460449FDF77B
:1081400005FD204606B010BD4E870B0039870B0099
:1081500019870B00002301461A46184600F096B80E
:10816000024B1844407800F09700704706880B00D7
:108170000A44914200F1FF3300D1704710B511F865
:10818000014B03F8014F9142F9D110BD024403465F
:10819000934200D1704703F8011BF9E738B5104B43
:1081A0001D68AB6B0446B3B91820FDF7B7FC024657
:1081B000A86320B90B4B0C484221FDF7EFFC0B499B
:1081C0000B4BC0E900130B4B83600B238381002111
:1081D0000120C2E90401AB6B00221C615A6138BD69
:1081E00090E5032072870B0089870B000E33CDAB1F
:1081F00034126DE6ECDE050010F8012B11F8013B9E
:10820000012A28BF9A42F7D0D01A7047034611F8C6
:10821000012B03F8012B002AF9D17047024B0146CC
:10822000186800F003B800BF90E5032037B5044696
:1082300008460D4600F00FF8421C114620460192F8
:10824000FDF7A4FC044618B1019A2946FFF790FFF8
:10825000204603B030BD034613F8012B002AFBD1A2
:10826000181A0138704710B50139034632B111F8B8
:10827000014F03F8014B013A002CF7D11A440021B9
:10828000934200D110BD03F8011BF9E72DE9F84333
:10829000DFF8B8800646D8F800001F460D46914624
:1082A00000F056F8254B1C6834B9254C1C60254B52
:1082B00013B11B68C4F8883063681F2B07DDD8F83A
:1082C000000000F047F84FF0FF30BDE8F8834EB3F0
:1082D000D4F8880088B91C4B23B9D8F8000000F006
:1082E00038F8F0E74FF48470FDF718FC0028F4D05C
:1082F0000023C0E94033C4F88800636840F8239045
:1083000001229A4000EB8301D0F800311343C0F8FA
:108310000031022EC1F8807002BFD0F8043113433F
:10832000C0F804316368D8F800005A1C0233626058
:1083300044F8235000F00EF80020C6E7E8E70320D9
:108340005CE70320000000001D5B0B00F4E5032048
:10835000704770477047000021400B005D400B00E4
:1083600085400B0089400B00000000004248313777
:108370003530006C757800534344333000434F323E
:108380002D70706D0054656D70430052482500508B
:108390004D53413030334900537464504D312E30C9
:1083A00000537464504D322E3500537464504D3177
:1083B0003000456E76504D312E3000456E76504D72
:1083C000322E3500456E76504D3130007177696937
:1083D00063004144430064420056454D4C363037FB
:1083E0003000555600424D4532383000502D6D62F8
:1083F000617200436865636B20636F6E6E656374C2
:10840000696F6E732E204E6F20736C6176652061EC
:10841000747461636865642E00547279696E6720B4
:10842000746F20636F6E6E65637420424831373518
:1084300030204C75782053656E736F7200547279DA
:10844000696E6720746F20636F6E6E65637420427F
:108450004D45323830205054482053656E736F724A
:1084600000547279696E6720746F20636F6E6E6559
:10847000637420534344333020434F322053656E9E
:10848000736F72005A696F205177696963204C6F6E
:1084900075646E6573732053656E736F72204D61E2
:1084A00073746572204177616B65006465766963FA
:1084B0006549440054616B652052656164696E676B
:1084C0000077696669206F6E007061727469636C11
:1084D0006520636F6E6E656374656400436F6C6CDA
:1084E000617465643A0073656E736F722D726561B5
:1084F00064696E67730064656661756C7420004D15
:108500005342004C5342003C5350495365747469C4
:108510006E67732064656661756C743E003C5350F1
:108520004953657474696E6773202573257520251A
:1085300073204D4F444525753E00000000000000AB
:108540000000000059490B002B490B002D490B007E
:1085500000000000000000003B5C0B00315C0B00E1
:10856000275C0B001D5C0B00115C0B00055C0B0015
:10857000116E0B00196E0B00F95B0B00F15B0B0029
:10858000E75B0B00DD5B0B00496E0B000008101869
:1085900020283038617070005A00252B3033643A3F
:1085A000253032750025592D256D2D25645425481B
:1085B0003A254D3A2553257A0061736374696D65D8
:1085C000000000000000000000000000FD630B0040
:1085D00003640B0041640B0011640B00FF630B008C
:1085E0000000000000000000A9690B0099690B0061
:1085F0009B690B0000000000000000008F6A0B0068
:10860000F76A0B00CD6A0B001D5F0B00BF6A0B0001
:10861000916A0B00A16A0B00F16A0B00B16A0B00B2
:10862000896A0B000000000000000000916B0B0045
:10863000FD6B0B00D56B0B001D5F0B00A56B0B00DA
:10864000C16B0B00B36B0B00CF6B0B00936B0B007C
:10865000976B0B0000000000000000005D6C0B0039
:10866000A76C0B007F6C0B005F6C0B00876C0B0022
:108670008F6C0B00976C0B009F6C0B0000000000D0
:1086800000000000B36D0B00A96D0B009F6D0B0087
:10869000616D0B00936D0B00B3400B00116E0B006E
:1086A000196E0B00876D0B007F6D0B00756D0B0055
:1086B0006B6D0B00496E0B00000000000000000015
:1086C000D16D0B00DB6D0B00E56D0B00EF6D0B004A
:1086D000F96D0B00056E0B00116E0B00196E0B008F
:1086E000216E0B002D6E0B00356E0B003F6E0B00E4
:1086F000496E0B002564002567007525303478002D
:108700000000000000000000356F0B00376F0B0009
:10871000456F0B006B6F0B0000252E337320252E49
:10872000337325336420252E32643A252E32643A81
:10873000252E32642025640A0053756E4D6F6E54E9
:1087400075655765645468754672695361744A610A
:108750006E4665624D61724170724D61794A756E07
:108760004A756C4175675365704F63744E6F7644FC
:1087700065635245454E54206D616C6C6F63207388
:108780007563636565646564002F6D6E742F776F24
:10879000726B73706163652F776F726B7370616357
:1087A000652F4743432D31302D706970656C696EBC
:1087B000652F6A656E6B696E732D4743432D3130AB
:1087C0002D706970656C696E652D34385F3230329A
:1087D00030313132345F3136303631383036343141
:1087E0002F7372632F6E65776C69622F6E65776C7D
:1087F00069622F6C6962632F7374646C69622F7293
:10880000616E642E63000020202020202020202084
:108810002828282828202020202020202020202030
:108820002020202020202088101010101010101060
:1088300010101010101010040404040404040404A4
:10884000041010101010101041414141414101012C
:108850000101010101010101010101010101010108
:108860000101101010101010424242424242020216
:1088700002020202020202020202020202020202D8
:108880000202101010102000000000000000000084
:1088900000000000000000000000000000000000D8
:1088A00000000000000000000000000000000000C8
:1088B00000000000000000000000000000000000B8
:1088C00000000000000000000000000000000000A8
:1088D0000000000000000000000000000000000098
:1088E0000000000000000000000000000000000088
:1088F0000000000000000000000000000000000078
:10890000000000000000000041480B00455C0B0027
:10891000BD5D0B000D5F0B0045600B009D620B0001
:10892000B9620B00BD6D0B00216F0B000000000051
:10893000040000001400000003000000474E550032
:108940004818DBD3530362F7D7DF06BA4BEA3B8DF7
:0489500059D25E2B6F
:08895400E0F4FF7F01000000C8
:04895C000000000017
:1089600030750000B9850B00A5850B0094E5032048
:1089700000000000000000000000000000000000F7
:1089800000000000000000000000000000000000E7
:1089900000000000000000000000000000000000D7
:1089A00000000000000000000000000000000000C7
:1089B00000000000000000000000000000000000B7
:1089C00000000000000000000000000000000000A7
:0489D000ECE70320AD
:1089D400FFFFFFFF00000102030405060708090A60
:1089E4000B0C0D0E0F101112131415161718191A5B
:0889F4001B1C1D1E1F202800A2
:0489FC007856341263
:04000003B0004020E9
:00000001FF
