:02000002B0004C
:1040000000400B00E8860B00000006000C000502D3
:084010000401E50C00000000B2
:0440180068800B00B1
:1040200009480A49884208B505D0094A824202D0A7
:10403000121A03F025FF0748074A0021121A03F05D
:104040002DFF014808BD00BFA0E5032050860B00EE
:1040500010E6032010E60320EDE7032070B5074EBD
:10406000074C02F051F8A41BA4080025AC4200D173
:1040700070BD56F8043B98470135F7E7F8850B000B
:104080001C860B0000F0C0BA08B500F0F9F9BDE8D5
:10409000084001F0F1BF01F0F9BB01F0F7BB01F0FE
:1040A000FDBB0078B0FA80F040097047012303702F
:1040B000704713B504460846019103F054FF019977
:1040C0000246204602B0BDE8104002F0A3BE000048
:1040D0002DE9F84302F090FF302102F0B1FC02F02C
:1040E0008BFF0368DFF88C909B680521984702F0EE
:1040F00083FF02F0B0FC02F07FFF0222302102F0C9
:104100009CFC18A7D7E9006718A5D5E9004502F07F
:1041100073FF03681B69984700B302F06DFF0368E3
:104120005B699847804602F067FF03685B699847C0
:10413000C3B25FFA88F040EA0320A9F8000003F058
:10414000D7F832463B4602F087FF2B46224603F063
:1041500063FA03F049FB024B1860D8E7BDE8F88327
:104160009CE603207E1D386744CD5440A8C64B37DB
:104170008901264010E6032010B590B0A14A0392B1
:10418000002340F2F312059003A8CDE906238DF831
:10419000103002F0AFFD9C4903A8FFF78AFF0446E8
:1041A00001F023FF994B9A491B6800930246C317FD
:1041B00008A801F0BBFE0A9A0899204602F03AFED0
:1041C00008A801F0C5FC934801F000F9924903A842
:1041D000FFF76FFF02F08EFD904903A8FFF769FF1C
:1041E00004468C4801F0ACF810EE100A03F092F887
:1041F00041EC100B204602F09BFD03A802F064FD89
:10420000874800F094FF002836D0864903A8FFF7BE
:1042100050FF02F06FFD844903A8FFF74AFF0446F0
:104220007F4800F0E4FF0146204602F06FFD7F4921
:1042300003A8FFF73EFF0446794800F0F3FF10EEB5
:10424000100A03F067F841EC100B204602F070FDF5
:10425000774903A8FFF72DFF0446714800F0D7FF08
:1042600010EE100A03F056F841EC100B204602F055
:104270005FFD03A802F028FD6E4903A8FFF719FFB0
:1042800002F038FD6C4903A8FFF713FFBDF82210B8
:1042900002F03CFD694903A8FFF70BFFBDF82410AD
:1042A00002F034FD664903A8FFF703FFBDF82610AE
:1042B00002F02CFD634903A8FFF7FBFEBDF82810B0
:1042C00002F024FD604903A8FFF7F3FEBDF82A10B1
:1042D00002F01CFD5D4903A8FFF7EBFEBDF82C10B2
:1042E00002F014FD03A802F0EFFCFFF7F1FE5849BD
:1042F00003A8FFF7DEFE02F0FDFC564903A8FFF716
:10430000D8FE554B198802F001FD544903A8FFF768
:10431000D0FE534B0446186802F0FCFF41EC100B32
:10432000204602F005FD03A802F0CEFC4D4903A88B
:10433000FFF7BFFE02F0DEFC4B4903A8FFF7B9FE12
:1043400004464A4800F093FE0146204602F0DEFC97
:1043500003A802F0B9FC464903A8FFF7AAFE02F041
:10436000C9FC444903A8FFF7A4FE0446424800F0F4
:1043700023FDDFED427AC0EE277A17EE900A02F0B5
:10438000C9FF41EC100B204602F0D2FC284903A8DB
:10439000FFF78FFE0446384800F0C4FC10EE100A08
:1043A00002F0B8FF41EC100B204602F0C1FC1F499F
:1043B00003A8FFF77EFE04462F4800F083FC10EEB2
:1043C000100A02F0A7FF41EC100B204602F0B0FCEF
:1043D00003A802F079FC03A802F076FCDDE90623CD
:1043E000934228BF1346059A0021D15402F02CFABB
:1043F000079904460A2201F08EFC204601F075FC64
:1044000010B010BDF8830B007C800B00A4E50320E6
:10441000D0E6032050E6032085800B008C800B0043
:1044200014E6032096800B009C800B00A4800B00F8
:10443000AB800B00B0800B00B9800B00C3800B0079
:10444000CD800B00D6800B00E0800B00EA800B00D3
:10445000F3800B00F9800B0010E6032001810B00B4
:104460009CE6032004810B000D810B00A0E60320D5
:1044700014810B001B810B0058E603200000C8428A
:1044800030B585B001F0E2F908B901F0D7F90121A2
:10449000072002F02EFD4FF4FA7001F0F7F90546FF
:1044A000FFF76AFE02F0D0F9294601F02AFC02F07B
:1044B000CBF9164901F025FC154B16491B788DF8F0
:1044C00000302A463C2302A801F07CFF039C7CB10B
:1044D0006368013B63605BB9236820469B6898472B
:1044E000A368013BA3601BB923682046DB6898479B
:1044F000284601F0D3F90021072002F0FAFC4FF61C
:10450000E85005B0BDE8304001F08ABD28840B00BA
:1045100012E6032022810B0008B502F06DFD302168
:1045200002F08EFA02F068FD02F095FA28B102F06E
:104530008BF9024901F0E5FBFEE708BD2E810B0077
:1045400038B5284C284800F0F0FE48B94FF4FA700E
:1045500001F066FD02F078F9214601F0D2FBF1E7A7
:104560002148224D224C232100F01BFF284600F059
:104570004CFD88B11F4C02F03FFD01461E4800F083
:10458000B8FE98B94FF4FA7001F04AFD02F05CF9F8
:10459000214601F0B6FBEEE74FF4FA7001F040FD62
:1045A00002F052F9214601F0ACFBDFE712483C2152
:1045B00000F09AFE0121104800F088FE02F01CFD78
:1045C00001460E4800F058F8FFF7A6FF02F03CF94C
:1045D0000B4901F096FBBDE838400A48012100F084
:1045E00027BD00BF54810B0050E6032058E603208E
:1045F00078810B009C810B0014E6032028E6032041
:10460000BF810B00A0E6032008B502F0F5FC02F024
:10461000E5F90121072002F05BFC02F015F94FF4E7
:10462000165102F005F9BDE80840FFF789BF000008
:1046300008B50A4B00221A7002F0DEFC2321024664
:10464000074800F06DFE074800F098F8064800F0B3
:1046500036FDBDE80840054800F00AB812E6032020
:1046600050E6032058E6032014E6032028E6032042
:104670000022C0E90022704737B50368044653B9E9
:1046800010200191FFF707FD054618B1019A12218C
:1046900000F008F825602068012103B0BDE8304033
:1046A00000F01CB842600022027220220170C26039
:1046B000704710B5037A044653B12178606802F060
:1046C000BFF9606802F0C7F9B0FA80F0400910BD88
:1046D000012100F003F80028EFD1F8E738B50446CF
:1046E00040680D4602F07AF90120207225B120467B
:1046F000BDE83840FFF7DDBF38BD704710B5102169
:104700000446FFF7CCFC204610BD0EB403B503AB46
:10471000002153F8042B019301F01BFB02B05DF85C
:1047200004EB03B07047000073B5044608462279D5
:10473000A36832B1A3B90B4902B0BDE8704001F0E3
:10474000CDBA094A267B094D0949647B012E18BF61
:104750002946CDE900140749FFF7D7FF02B070BD25
:10476000054AEFE7F7810B0028840B00F3810B006B
:10477000EF810B000D820B00E6810B004FF0FF3341
:104780000361704713B50B4C2178BFF35B8F11F0B9
:1047900001010BD120460191FFF783FC019928B15B
:1047A000054801F017F92046FFF780FC024802B0E7
:1047B00010BD00BFA4E60320A8E6032008B5FFF75C
:1047C000E1FFBDE8084001F023B907B50190FFF70C
:1047D000D9FF019903B05DF804EB01F033B92DE97D
:1047E000F04190F91330013305460F4606D1FFF72B
:1047F000C9FF3946BDE8F04101F092B9002407260F
:104800004FF0010895F91300002180B202F071FB0E
:1048100095F9110008FA06F1394080B202F069FBFF
:1048200095F91300012180B202F063FB95F91200A3
:10483000640080B2E4B202F075FB08B144F00104F8
:10484000013EDFD22046BDE8F08100007FB590F93F
:104850001030013304460E46154613D10179006825
:1048600002F0EEF82068036831469B68984720689C
:10487000036829469B689847206804B0BDE87040EB
:1048800002F0E9B890F9133001330CD1164B0093C4
:1048900000238DF80430154B029368460123ADF8D0
:1048A0000C30FFF792FF94F91000002180B202F063
:1048B00020FB06F07F012046FFF791FF29462046A6
:1048C000FFF78DFF94F91000012180B202F011FB77
:1048D00094F91330013304D104B0BDE87040FFF700
:1048E0006DBF04B070BD00BF34820B0020A1070073
:1048F000F8B5DB0002F0070203F03803134343EA84
:1049000081139DF8186080F83C3090F840309DF895
:104910001C509DF8207066F3471380F84030ED007E
:1049200090F8383007F0070705F0380523F03F030B
:104930003D4304461D4380F8385006F00702F2213B
:10494000FFF784FF94F83820C2F3C20302F0070196
:104950009B0043EA411343EAD2122046F521FFF7B8
:1049600075FF94F83C20C2F3C20302F007019B00DC
:1049700043EA411343EA92122046F421BDE8F8408D
:10498000FFF764BF30B590F91030013385B00446AD
:104990000D4618D10179006802F052F820680368CA
:1049A00029469B689847206802F055F821792068CD
:1049B000012202F042F8206803685B699847C5B29B
:1049C000284605B030BD90F9133001330CD1154B9A
:1049D000009300238DF80430134B029368460123A3
:1049E000ADF80C30FFF7F1FE94F91000002180B211
:1049F00002F07FFA45F080012046FFF7F0FE00212B
:104A00002046FFF7ECFE054694F91000012180B224
:104A100002F06FFA94F913300133D1D1FFF7CEFED3
:104A2000CEE700BF34820B0020A1070008B5F321B8
:104A3000FFF7A8FF00F0010008BD000030B590F9B5
:104A40001030013385B004460D461FD1017900684E
:104A500001F0F6FF2068036829469B6898472068A4
:104A600001F0F9FF21792068022201F0E6FF2068B9
:104A700003685B6998470546206803685B69984747
:104A800040EA052085B2284605B030BD90F91330C4
:104A900001330CD1184B009300238DF80430174BD1
:104AA000029368460123ADF80C30FFF78EFE94F9AF
:104AB0001000002180B202F01CFA45F0800120466F
:104AC000FFF78DFE00212046FFF789FE00210546F5
:104AD0002046FFF784FE40EA052085B294F91000D5
:104AE000012180B202F005FA94F913300133CAD1E2
:104AF000FFF764FEC7E700BF34820B0020A1070068
:104B000008B5FFF79BFF40BA80B208BD38B58821D1
:104B10000446FFF7F5FF8A21A0822046FFF7F0FF49
:104B20008C21E0822046FFF7EBFF8E212083204678
:104B3000FFF7E6FF902160832046FFF7E1FF922117
:104B4000A0832046FFF7DCFF9421E0832046FFF797
:104B5000D7FF962120842046FFF7D2FF982160845A
:104B60002046FFF7CDFF9A21A0842046FFF7C8FF1B
:104B70009C21E0842046FFF7C3FF9E21208520462C
:104B8000FFF7BEFFA12160852046FFF7FBFEE12174
:104B900084F82C002046FFF7B3FFE321E085204690
:104BA000FFF7F0FEE42184F830002046FFF7EAFE2C
:104BB000E52105462046FFF7E5FE00F00F0343EA36
:104BC00005106086E6212046FFF7DCFEE52105465C
:104BD0002046FFF7D7FEC0F3071343EA0510A0866F
:104BE000E7212046FFF7CEFE84F8360038BD0000EE
:104BF00030B590F91030013385B004460D4623D10D
:104C00000179006801F01CFF2068036829469B6851
:104C10009847206801F01FFF21792068032201F0E6
:104C20000CFF206803685B699847050220680368E9
:104C30005B69984728430502206803685B699847C9
:104C40000543284605B030BD90F9133001330CD12F
:104C50001A4B009300238DF80430194B02936846D9
:104C60000123ADF80C30FFF7B0FD94F910000021DE
:104C700080B202F03EF945F080012046FFF7AFFD1B
:104C800000212046FFF7ABFD002105022046FFF77B
:104C9000A6FD2843050200212046FFF7A0FD05439D
:104CA00094F91000012180B202F023F994F9133035
:104CB0000133C6D1FFF782FDC3E700BF34820B008A
:104CC00020A1070010B5FA210446FFF791FFB0F5C7
:104CD000000F1FD0A18A9FED117A4B00C1EB20225B
:104CE000C3EBE011B4F91630594302FB02F3B4F9F7
:104CF00018201B1353439B1303EBE123E36003EBE7
:104D0000830380331B1207EE903AF8EEE77A87EEC2
:104D1000870A10BD9FED020AFBE700BF0000C842F2
:104D20000000C07F38B50446FFF7CCFFFD212046C8
:104D3000FFF784FEB0F5004F38D0E168B4F93420B5
:104D4000A1F59635B4F932100905C1EB803305FBA6
:104D5000123303F58043DA1394F8303094F93610A7
:104D60006B43DB126943891203F500434B439B12EB
:104D7000B4F92E1003F500134B4303F500539B13B6
:104D80005343DA1394F82C105243D2114A43A3EB45
:104D9000221323EAE373B3F1C85FA8BF4FF0C853EF
:104DA0001B1300EE103ABAEECB0A38BD9FED010A94
:104DB000FBE700BF0000C07F2DE9F8430546FFF781
:104DC00081FFF7212846FFF713FFB0F5000F00F031
:104DD000B680E968B5F91C304FEAE17EB1F5FA31E9
:104DE0004EF1FF3EDC1703FB0EF201FB0422A3FB96
:104DF000013422441203A1FB01781C0301FB0EF6CF
:104E000042EA1352B5F91E3008EB46084FEAE37C3C
:104E100003FB08F607FB0C66A3FB073C66441B0A72
:104E200043EA06631B1942EB26226E8B02F5004211
:104E3000A3FB063406FB0244E317621053EA640442
:104E40004FF0000C7ED0B5F9244004FB08F64FEA81
:104E5000E47907FB0966A4FB07473E44B5F92270D5
:104E60004FEAE77807FB0EFE01FB08EEA7FB017196
:104E70007144490441EAD73100117F043F19C0F55C
:104E8000801446EB010604F00040B5F920101CEB3D
:104E9000070740EA5400E407E41B06EBC10640F6AE
:104EA000354160EB0606A4FB010401FB064102F05C
:104EB000F9FDB5F92A20B5F928604FEA613C430BAA
:104EC00043EAC14302FB0CF7D41703FB0477A2FBB0
:104ED00003243C4402FB0CF703FB0477A2FB0323EF
:104EE0001F44530E43EAC7131B184FEAE67206FB32
:104EF00001F4864641EB676702FB0041A6FB0E0604
:104F0000B5F926403144C00C40EA413018184FEA48
:104F1000E47547EBE141000A2D0140EA016045EAF2
:104F200014752401201845EB212102F07DFD9FED31
:104F3000070A07EE900A27EE800ABDE8F8839FED86
:104F4000040AFAE79FED030AF7E700BF0000803B81
:104F50000000C07F0000000030B5044690F910004A
:104F6000421C85B019D1206801F038FDD0212046BF
:104F7000FFF708FD6028A06045D12046B622E02159
:104F8000FFF764FC4FF4967001F04AF82046FFF7F3
:104F90004DFD054628B36420F6E7012180B201F0FB
:104FA000A8FF94F91000012180B201F091FF94F95B
:104FB0001300431C04D1FFF7E5FB00F015FDD5E716
:104FC000012180B201F084FF94F91100012180B227
:104FD00001F07EFF94F91200002180B201F078FF09
:104FE000C4E72046FFF792FD052300931A460321EC
:104FF0002046CDE90155FFF77BFC642001F010F855
:10500000012005B030BD0020FBE7772310B5037108
:10501000044601F0F1FF20602046FFF79DFF30B904
:10502000762323712046BDE81040FFF795BF10BDE1
:1050300010B50C4601F0E0FF01F0D0FC01F0DCFF00
:10504000382101F001FD01F0D7FFA100036841F014
:1050500002019B6801F0FE01984701F0CDFF01F0CD
:10506000FAFCBDE810404FF4FA7000F0D9BF38B533
:1050700001F0C2FF0122392101F0DFFC01280446C2
:1050800002D04FF6FF7038BD01F0B6FF03685B69D0
:105090009847054601F0B0FF2246382101F0CDFCCB
:1050A0000128EED101F0A8FF03685B69984740EA48
:1050B000052080B2E7E70368C9B29B681847002261
:1050C00042608260C26040F2011202820122827458
:1050D000704738B504460D460068612101F0B4FC04
:1050E0002068290AFFF7E7FF2068E9B2FFF7E3FF2E
:1050F000206801F0B0FC08B1002038BD2068022211
:10510000612101F09AFC206803681B699847002818
:10511000F2D0206803685B699847054620680368F9
:105120005B699847C3B243EA052080B2E5E708B55A
:1051300040F20221FFF7CDFF431E5842584108BDFF
:105140002DE9F8430446FFF7F2FF074618B9002798
:105150003846BDE8F8832068612101F075FC2068BD
:105160000321FFF7A8FF20680021FFF7A4FF2068B4
:1051700001F071FC05460028E9D112226121206866
:1051800001F05BFC206803681B699847064658B32A
:10519000A8462E46A946206803685B699847EBB28B
:1051A000102B0DD8DFE803F009090C09090C1818B9
:1051B0000C18180C1C1C0C1C1C00C3B243EA092957
:1051C0000135122DE7D10023C4F80490A660C4F87D
:1051D0000C802382A374BBE7C3B243EA0626EFE741
:1051E000C3B243EA0828EBE780468146EBE710B5F7
:1051F000037C04460BB1FFF7A3FFD4ED017AFCEE6C
:10520000E77A0123237417EE903A98B210BD10B5D7
:10521000437C04460BB1FFF793FF012394ED030A8F
:10522000637410BD10B5837C04460BB1FFF788FF93
:10523000012394ED020AA37410BD0A44FF208A42A0
:1052400011D011F8013B5840082310F0800F03F1F2
:10525000FF334FEA400018BF80F0310013F0FF0326
:10526000C0B2F2D1EBE770472DE9F3410E464FEAA9
:10527000122815468DF8052001A9022204468DF852
:105280000480FFF7DAFF61210746206801F0DCFBAC
:105290002068310AFFF70FFF2068F1B2FFF70BFF1C
:1052A00020684146FFF707FF2068E9B2FFF703FFD8
:1052B0002068036839469B689847206801F0CBFB5B
:1052C000B0FA80F0400902B0BDE8F0810A4601B1B1
:1052D000012245F20631FFF7C7BF0A461021FFF74A
:1052E000C3BF0021FFF7F9BF0A464FF48C41FFF717
:1052F000BBBF38B504460846216001F06FFB20466D
:10530000FFF7EFFF054648B102212046FFF7ECFF0B
:10531000012245F206312046FFF7A6FF284638BD98
:105320004260112241700270704710B50446406817
:1053300001F094FB10B9606801F050FB012010BD32
:1053400070B505464178406801F07AFB6978686875
:10535000022201F072FB686803685B6998470646A1
:10536000686803685B699847044644EA06246868ED
:10537000A4B201F070FB07EE904A9FED030AF8EE2D
:10538000677A87EE800A70BD9A99993F0378232B3C
:1053900005D0132B0CBF1820B42000F041BE1820FC
:1053A000FBE738B504460D464178406801F048FBFC
:1053B0006068036829469B689847606801F04BFB6A
:1053C00025702046BDE83840FFF7E0BF10B50378F0
:1053D000A3F12002012A044601D9232B10D16178C0
:1053E000606801F02DFB6068217803689B6898472E
:1053F000606801F030FB2046BDE81040FFF7C6BFF3
:1054000010BD000008B5024B1B689B68019308BDE6
:105410006802030008B5024B1B68DB68019308BDF6
:105420006802030008B5024B1B689B68019308BD26
:105430002C02030008B5024B1B68DB68019308BD12
:105440002C02030008B5024B1B681B69019308BDC1
:105450002C02030008B5024B1B685B69019308BD71
:105460002C02030008B5024B1B685B68019308BD62
:105470001802030008B5024B1B685B69019308BD65
:105480001802030008B5024B1B689B6D019308BD11
:105490001802030008B5024B1B685B6E019308BD40
:1054A0001802030008B5024B1B685B6C019308BD32
:1054B0004802030008B5024B1B685B69019308BDF5
:1054C0006402030008B5024B1B68DB68019308BD4A
:1054D0003C02030008B5024B1B681B69019308BD21
:1054E0003C02030008B5024B1B685B69019308BDD1
:1054F0003C02030008B5024B1B689B69019308BD81
:105500003C02030008B5024B1B68DB69019308BD30
:105510003C02030008B5024B1B681B6A019308BDDF
:105520003C02030008B5024B1B689B6A019308BD4F
:105530003C02030008B5024B1B681B6C019308BDBD
:105540003C02030008B5024B1B68DB68019308BDF1
:105550002802030008B5024B1B689B69019308BD34
:105560002802030008B5024B1B68DB69019308BDE4
:105570002802030008B5024B1B681B6A019308BD93
:105580002802030008B5024B1B685B6A019308BD43
:105590002802030008B5024B1B689B6A019308BDF3
:1055A0002802030008B5024B1B68DB6A019308BDA3
:1055B0002802030008B5024B1B681B6B019308BD52
:1055C0002802030008B5024B1B685B6B019308BD02
:1055D0002802030008B5024B1B681B6C019308BD31
:1055E0002802030008B5024B1B681B6D019308BD20
:1055F0002802030008B5024B1B681B68019308BD15
:105600003002030008B5024B1B685B69019308BDBB
:105610003002030008B5024B1B68DB69019308BD2B
:105620003002030008B5024B1B681B6A019308BDDA
:105630003002030008B5024B1B685B6A019308BD8A
:105640003002030008B5024B1B68DB6B019308BDF9
:105650003002030008B5024B1B681B6C019308BDA8
:105660003002030008B5024B1B685B6C019308BD58
:105670003002030008B5024B1B681B68019308BD8C
:105680004C02030008B5024B1B685B68019308BD20
:105690004C02030008B5024B1B681B69019308BD4F
:1056A0004C02030008B5024B1B685B69019308BDFF
:1056B0004C02030008B5024B1B689B69019308BDAF
:1056C0004C02030008B5024B1B68DB69019308BD5F
:1056D0004C02030008B5024B1B681B6A019308BD0E
:1056E0004C02030008B5024B1B681B68019308BD00
:1056F0002002030008B5024B1B685B68019308BDDC
:105700002002030008B5024B1B685B69019308BDCA
:105710002002030008B5024B1B68DB6C019308BD37
:105720002002030008B5024B1B685B6D019308BDA6
:105730002002030008B5024B1B689B6D019308BD56
:105740002002030008B5034B1B68D3F8883001938F
:1057500008BD00002002030008B5034B1B68D3F806
:105760009430019308BD00002002030008B5024BED
:105770001B685B68019308BD4002030008B5024B3B
:105780001B689B68019308BD4002030008B5024BEB
:105790001B68DB68019308BD4002030008B5024B9B
:1057A0001B681B69019308BD4002030008B5024B4A
:1057B0001B685B69019308BD4002030008B5024BFA
:1057C0001B689B69019308BD4002030008B5024BAA
:1057D0001B68DB69019308BD4002030008B5024B5A
:1057E0001B681B6A019308BD4002030008B5024B09
:1057F0001B681B6B019308BD4002030008B5024BF8
:105800001B685B6B019308BD4002030008B5024BA7
:105810001B681B6C019308BD4002030008B5024BD6
:105820001B685B6C019308BD4002030008B5024B86
:105830001B689B68019308BD4402030008B5024B36
:105840001B68DB68019308BD4402030008B5024BE6
:105850001B685B69019308BD4402030008B5024B55
:105860001B681B6A019308BD4402030008B5024B84
:105870001B681B6B019308BD4402030008B5024B73
:105880001B68DB6B019308BD4402030008B5024BA3
:105890001B681B68019308BD1C02030008B5024B7E
:1058A0001B685B68019308BD1C02030008B5024B2E
:1058B0001B689B68019308BD1C02030008B5024BDE
:1058C0001B681B69019308BD1C02030008B5024B4D
:1058D0001B68DB69019308BD1C02030008B5024B7D
:1058E0001B685B6A019308BD1C02030008B5024BEC
:1058F0001B68DB6A019308BD1C02030008B5024B5C
:105900001B681B6B019308BD1C02030008B5024B0A
:105910001B681B6C019308BD1C02030008B5024BF9
:105920001B685B6C019308BD1C02030008B5024BA9
:105930001B689B6C019308BD1C02030008B5024B59
:105940001B68DB6C019308BD1C0203000022406849
:105950001146FFF743BF002240681146FFF74EBFD4
:1059600040680022FFF742BF4068002281F0010139
:10597000FFF72CBF002340681A461946FFF71EBFE9
:10598000002340681A461946FFF710BF00224068FE
:105990001146FFF703BF002240681146FFF7EEBE35
:1059A000406800220221FFF7F1BE002340681A463A
:1059B000FFF7DCBE024B03225A60024A1A607047AE
:1059C000B0E6032048820B000021FFF74BBE002108
:1059D000FFF740BE10B5044608462170FFF71AFED7
:1059E00000236360204610BD13B504460078FFF71E
:1059F000EEFF58B9207801904FF6FF71FFF7FAFDDE
:105A0000019802B0BDE81040FFF7DEBF02B010BD44
:105A10000078FFF7D9BF0000400830B518600024B7
:105A200018688842E5B206D90134082C02D0400833
:105A30001860F5E70725024B5B5D137030BD00BFB2
:105A40007C820B002DE9F04306468FB000780C46AF
:105A5000FFF7BDFF00281BDB35781422002109A8C1
:105A600002F01CFA0B23002209A92846ADF82430C5
:105A7000FFF7E0FD9DF82D3013B19DF82C5055B186
:105A80000027B946B846012523795DB1C3B100208E
:105A90000FB0BDE8F083DDF830809DF834909DF8BC
:105AA0003570F1E7002B35D1A368434508D18DF857
:105AB00020908DF82170BDF82020A3899A42E6D06D
:105AC0000023A1688DF80F300A9804AB0DF10F0286
:105AD000FFF7A2FF217985B989B9A36843450ED3A1
:105AE0008DF820908DF82170BDF82020A3899A426E
:105AF00005D1049B434502D1C9E70029F9D1002310
:105B00000193637B00939DF80F20237B3078FFF790
:105B100099FDBCE7CDE900552B462A460121F5E762
:105B200008B50078FFF76EFDC0B208BD054B022234
:105B30001A60054B054A9A600020C3E90000FFF790
:105B4000D9BD00BFC4E60320B8E603200000FFFF74
:105B500010B504460068FFF7A1FE204610BD10B541
:105B60000446006808B1FFF799FE0023C4E9013339
:105B7000236010BD38B504460D4600680131FFF7BB
:105B800095FE10B1C4E90005012038BD10B50368C9
:105B9000044623B143688B4201D3012010BD204647
:105BA000FFF7E8FF0028F9D0A368002BF5D12268A1
:105BB0001370F2E737B50D46114601920446FFF720
:105BC000E5FF019A28B92046FFF7C9FF204603B038
:105BD00030BDA2602946206802F052F92268A3680D
:105BE0000021D154F2E7002313B5C0E90033044685
:105BF0008360037341B10846019102F0B4F9019941
:105C000002462046FFF7D6FF204602B010BD10B571
:105C10008368044613B1032201469847204610BD0D
:105C200010B54368013B0446436063B903689B6851
:105C30009847A368013BA3602BB923682046DB6823
:105C4000BDE81040184710BD10B50446006808B103
:105C5000FFF7E6FF204610BD13B50B460246D0E91C
:105C600000016C4684E8030093E8030082E8030027
:105C700094E8030083E8030002B010BD024800234B
:105C80000360FFF70FBC00BFC8E60320F8B5064667
:105C90000D468F180024BD420CD0336815F8011B47
:105CA0009B6830469847031E01DB1C44F3E7002C39
:105CB00008BF1C462046F8BD13B50446084659B136
:105CC000019102F050F923680199DB6802462046F1
:105CD00002B0BDE81040184702B010BD08B5FFF78C
:105CE000EBFF08BD03689B68184738B50D210546D2
:105CF000FFF7F8FF0A2104462846FFF7F3FF204488
:105D000038BD38B50546FFF7D7FF04462846FFF7EC
:105D1000ECFF204438BD30B58BB00023012A8DF84C
:105D2000243098BF0A2209AC0D46B1FBF2F101FB09
:105D3000125303F0FF03092B94BF30333733DBB228
:105D4000AA4204F8013DEFD92146FFF7B5FF0BB099
:105D500030BD2DE9F04186B000AF05460E46381D36
:105D6000142114463B60FFF7B9FD13280ED8391DE6
:105D70002846FFF7A1FF04461EB12846FFF7B5FFEE
:105D8000044420461837BD46BDE8F08100F1080301
:105D900023F00703E846ADEB030D2246411C3B68A8
:105DA0006846FFF79BFD69462846FFF785FF0446D6
:105DB000C546E1E7014B024A1A607047CCE6032072
:105DC00084820B0008B50020FFF750FD28B1FFF7D3
:105DD0003DFD80F00100C0B208BD0120FCE70000DD
:105DE00030B593B0CDE90023194B0446D3E9001038
:105DF000019B521843EB00031648D0E900105218DB
:105E000043EB0003CDE9002324220DEB0200002127
:105E100002F044F8002509A96846FFF78FFD162215
:105E2000294603A8029502F039F802A909A801F051
:105E3000F3FF02A802F097F812AB184402A900F889
:105E4000415C2046FFF7CFFE204613B030BD00BFB7
:105E5000E0E60320D8E603202DE9F047A4B007468A
:105E6000884614A811463F221C4602F084F80023FD
:105E700014A88DF88F3002F076F805464CBB2949FE
:105E800003A802F04BF814AC002605F1FF39B14528
:105E900034D92378252B06F1010A17D163787A2BA0
:105EA00014D103A802F05FF814AB0546301818446B
:105EB000A9EB0602A11C01F0E3FF2A4603A9204634
:105EC00001F0DEFF14A802F04EF8054601345646F4
:105ED000DBE73C2394FBF3F2002AB8BF5242B2FB4B
:105EE000F3F103FB112200924FF461630E4A94FB1D
:105EF000F3F3102103A8FFF7E9FCC4E700212E22E9
:105F000008A8079101F0CAFF434614AA322107A846
:105F1000FFF70CFD07A93846FFF765FE384624B0A9
:105F2000BDE8F08788820B008A820B00F0B58DB047
:105F3000CDE90023129D044615B9194B1D682DB1FA
:105F4000184B2846196801F0DFFF38B9DDE9002356
:105F50002046FFF745FF20460DB0F0BD124E0099D8
:105F6000124FD6E900325B18019942EB0102D7E9E2
:105F700000011B1842EB0102CDE90032002124226E
:105F800003A801F08BFF03A96846FFF7D7FC32682E
:105F90003B6803A9134420462A46FFF75DFFDAE772
:105FA000D4E60320A0E50320E0E60320D8E60320A2
:105FB00010B50020FFF766FA0446A0B9FFF792FB80
:105FC000012810D12046FFF7B5FB60B9FFF7FAFEB4
:105FD00010B9FFF72BFCF9E7FFF7F4FEBDE810401E
:105FE0000020FFF74FBA204610BD1FB5FFF7E0FFB6
:105FF00010220021684601F051FF00216846FFF79A
:1060000049FA009805B05DF804FB0000024B1A68DD
:10601000024B1A60704700BFA0E50320D4E60320BE
:106020000021FFF76FBB0000014B00229A60704710
:10603000E8E60320014B1860704700BFA8E5032085
:1060400008B50B4B43B100F0FFFB03681B69984791
:10605000002801DDAFF30080064B43B100F090FF54
:1060600003681B699847002801DDAFF3008008BD75
:10607000000000000000000008B5FFF7E1FFFFF797
:10608000F9F9014B186008BD40E703200548064AAE
:10609000064908B5121A01F0F3FE054B054A1A60CD
:1060A00008BD00BF00F4032004F403204C860B005D
:1060B00000F403201E1C279A07B5002300931A46FC
:1060C0006FF07701FFF748FB03B05DF804FB0000B9
:1060D00007B543880A2B08D0502B0BD1094B1B68FE
:1060E0004BB103B05DF804EB1847FFF7E5FF03B0D1
:1060F0005DF804FB002300931A466FF07701FFF769
:106100002BFBF4E7FCE6032010B512480021FFF753
:1061100005FC114B1A68114B9A42114B0CBF01221E
:1061200000221A7001D0FFF7B1FFFFF79BF9044678
:1061300001F0BCFE0B4B13B12046AFF300800021F1
:106140000848FFF79BFBBDE8104007480021FFF718
:10615000F9BA00BF35600B0000F403201E1C279A1B
:10616000F8E6032000000000D1600B00704700201B
:10617000704710B510210446FDF791FF204610BD71
:1061800008B5FFF7F6FF08BD30B500224FF69C7446
:10619000026084808D888C800C68858004600A6031
:1061A00030BD10B504460068FFF778FB204610BDEF
:1061B00038B5C468F4B12378022B03D104F10C0084
:1061C000FFF7EFFF656835B12846FFF720FD102186
:1061D0002846FDF764FFA56835B12846FFF717FD8F
:1061E00010212846FDF75BFF20461421BDE838400A
:1061F000FDF755BF38BD0B6803604B68436013B1B2
:106200005A6801325A60704737B5044668460D46F1
:10621000FFF7F1FF009B019A23606260002301A851
:1062200001930093FFF710FD35B1281DFFF70CFD1A
:1062300008212846FDF733FF204603B030BD8268B1
:1062400010B50AB900F0FEFEBDE81040C36818475B
:1062500008B5006800F11001FFF7F1FF08BD826882
:1062600010B50AB900F0EEFEBDE81040C36818474B
:1062700008B5006800F11001FFF7F1FF08BD00004C
:1062800038B500230446036010200D46FDF703FFD8
:1062900028B10123C0E90133024B0360C5602060CF
:1062A000204638BDBC820B0038B5002383608B6864
:1062B00004460D462BB102229847EB68E360AB68B9
:1062C000A360204638BD0000F0B589B00468684678
:1062D000FFF75AFF4FF00203D4E84F2F002A03D1F3
:1062E000C4E8413F0029F7D125D104F10C056946E6
:1062F0002846FFF749FFBFF35B8F0123637000203F
:1063000004F10803BFF35B8F53E8006F43E800021A
:10631000002AF9D1BFF35B8F6EB1FFF7FBF978B1BB
:1063200029463046FFF78BFF3046FFF770FC1021FF
:106330003046FDF7B4FE6846FFF733FF09B0F0BD05
:10634000314602A8FFF7B0FFE068B4F9105008B179
:1063500001F0ECFD06901020ADF81C50FDF79BFEFF
:106360000546E8B1002787601820FDF794FE044633
:1063700088B10146876002A8FFF76EFC049BA26803
:10638000A360059B049206A9E268E36004F1100093
:106390000592FFF7F9FE084BEB60084B2C60AB60F1
:1063A00006A8FFF7FEFE02A8FFF731FC00222946EF
:1063B0000348FFF7B7F9B7E751620B00D5640B004C
:1063C00039690B002DE9F04F8BB005469DF850A0C0
:1063D0000F4690469946FFF739FA07AE834638BB19
:1063E0004FF62E73059005A93046ADF81830FFF72B
:1063F000CBFE1420FDF74FFE044648B10223037084
:106400000123C0E901BB437031460C30FFF7BCFEED
:106410002846214640F8044BFFF732FF3046FFF78D
:10642000C0FE05A8FFF7BDFE28460BB0BDE8F08F03
:106430000C2300241420CDE908440793FDF72BFE1C
:10644000014618B1C0E901440470447004A80391E6
:10645000FFF716FF1E4B08930820FDF71CFE0446AD
:1064600010B103A9FFF7C7FE00965FFA8AF34A4608
:10647000414638460994FFF7F1F9B8B9039B5B78B8
:1064800003F0FF0293B94FF69C7305A903A8059288
:10649000ADF81830FFF718FF05A8FFF782FE05A832
:1064A0000999FFF7B1FE06A8FFF7CEFB03A905A8DF
:1064B000FFF7A1FE059B069A2B606A60002306A8E1
:1064C00006930593FFF7C0FB04A8FFF7BDFBABE7FE
:1064D00051650B00012AF8B5054603D10B6803602E
:1064E0000020F8BD022A10D0032AF9D10468002C3C
:1064F000F6D004F11000FFF754FE2046FFF787FBAB
:1065000018212046FDF7CBFDEAE718200E68FDF7BD
:10651000C2FD044650B13146FFF7C6FE3069B6F9F8
:10652000147008B101F002FD2061A7822C60D7E74A
:1065300038B5002383608B6804460D462BB10222D8
:106540009847EB68E360AB68A360204638BD000065
:10655000F0B589B004460D4601A81146FFF754FE78
:10656000A4B124B21DB1284601F0E0FC054601A803
:1065700003A90395ADF81040FFF7A6FE03A8FFF7A7
:1065800010FE02A8FFF760FB09B0F0BD019D0123DA
:10659000D5E84F2F002A03D1C5E8413F0029F7D1A4
:1065A000EFD12B73BFF35B8F6B702B1DBFF35B8F32
:1065B00053E8006F43E80042002AF9D1BFF35B8F34
:1065C000002EDED02046FFF7A5F8074660B105F1A2
:1065D0000C013046FFF743FE3046FFF718FB102151
:1065E0003046FDF75CFDCCE7314603A8FFF7A0FF7E
:1065F0002B7B8DF81C301020FDF74DFD0546D0B1EA
:1066000087601420FDF747FD044678B18760014696
:1066100003A8FFF721FB059BA268A360069B0592D8
:10662000E268E3609DF81C3006922374064BEB6031
:10663000064B2C60AB6003A8FFF7E9FA002229465D
:106640000348FFF76FF8C7E771620B0055660B0050
:1066500039690B00012A70B5044603D10B68036049
:10666000002070BD022A0CD0032AF9D10468002C46
:10667000F6D02046FFF7CBFA14212046FDF70FFD98
:10668000EEE714200E68FDF706FD054620B1314601
:10669000FFF74EFF337C2B742560E1E7704710B5A0
:1066A00018210446FDF7FBFC204610BDF0B5037D24
:1066B000062B8DB00E4600F104074FF0000412D0F7
:1066C00000F1080515F8011D0A223046FFF723FBEB
:1066D000AF42044419D0002CF4D02E213046FFF7ED
:1066E00001FB0444EEE72F236A4639460A208DF861
:1066F0000040FEF7DFFE684601F035FC33680246D5
:10670000DB68694630469847044620460DB0F0BD28
:1067100010B5054B0446112240F8043B002101F05E
:10672000BDFB204610BD00BFD8820B000346074AC0
:1067300010B543F8042B01F1100251F8044B43F853
:10674000044B9142F9D10A781A7010BDD8820B001F
:1067500010B59DF8084044EA032343EA024242EAA6
:10676000016104234160037510BD000007B5064BAD
:106770000360CB7800938B784A780978FFF7E8FFBD
:1067800003B05DF804FB00BFD8820B004174704772
:106790007047704708B50021007CFEF78BFF40EA88
:1067A000E07008BD08B50121007CFEF783FF40EAD8
:1067B000E07008BD08B5007CFEF774FF20EAE070C9
:1067C00008BD08B5007CFEF765FF20EAE07008BD53
:1067D00013B50446007C0191FEF764FF002801997F
:1067E00001DC607C20B1207CFEF76CFF20EAE070C9
:1067F00002B010BD007CFEF76DBF10B51421044639
:10680000FDF74DFC204610BD10B54FF47A730446D9
:1068100008460021C4E90113044B236001232074BE
:1068200063741146FEF726FF204610BDEC820B0074
:10683000007C0022FEF726BF10B51422044600217A
:1068400001F02CFB204610BD10B50F4C88B003A8FA
:10685000FFF7F2FF2178BFF35B8F11F001010FD139
:1068600020460191FDF71DFC019948B103AA074894
:10687000FFF7CAFF2046FDF719FC054801F0F2FAC0
:10688000024808B010BD00BF00E7032004E7032062
:1068900091670B0070474174704708B5007CFEF7A4
:1068A00041FE20EAE07008BD08B5007CFEF712FE4C
:1068B00020EAE07008BD08B5007CFEF71BFE40EA48
:1068C000E07008BD08B5007CFEF70CFE40EAE07001
:1068D00008BD007CFEF716BE37B5457C04462DB1D9
:1068E000207C03B0BDE83040FEF7ECBD007C019198
:1068F000FEF718FE00280199F2DC284603B030BDEF
:1069000010B514210446FDF7CAFB204610BD000057
:1069100010B54FF47A730446084611460022C4E9C4
:106920000123044B2360012320746374FEF702FEED
:10693000204610BD1C830B0010B5836804460BB9BC
:1069400000F080FBC3689847A3681BB1032221466F
:106950002046984720461021BDE81040FDF79FBB18
:106960007047F8B5064615460C468F18BC4206D04F
:10697000336814F8011B9B6830469847F6E72846B1
:10698000F8BD007C0022FEF7F5BD007C0021FEF77B
:10699000F9BD007C0021FEF7FDBD007C0021FEF763
:1069A00001BE007C0021FEF705BE10B5142104468F
:1069B000FDF775FB204610BD10B54FF47A73044601
:1069C00008460021C4E90113034B236020741146DB
:1069D000FEF700FE204610BD4C830B000023007C18
:1069E0001A461946FEF7AEBD7FB500221423CDE945
:1069F0000122ADF804300B788DF808304B68039312
:106A0000CB680493007C0B7A059301A9FEF7EAFD9D
:106A100007B05DF804FB1FB5003B8DF800104FF088
:106A20006401039118BF0123694601928DF8083073
:106A3000FFF7DAFF05B05DF804FB0123FFF7EBBFBA
:106A4000007C0022FEF786BDC9B2FFF7F9BF007CCB
:106A50000022FEF787BD0121FFF7F9BF007C00216E
:106A6000FEF7B0BD002240681146FEF797BE002237
:106A700040681146FEF7B2BE002240681146FEF79C
:106A8000BDBE40680022FEF7B1BE4068002281F022
:106A90000101FEF79BBE002340681A461946FEF727
:106AA0008DBE002340681A461946FEF77FBE0022BD
:106AB00040681146FEF762BE406800220221FEF7E0
:106AC00065BE002340681A46FEF750BE024B042202
:106AD0005A60024A1A60704718E7032074830B005B
:106AE000002340681A46FEF741BE4068002202219A
:106AF000FEF74CBE002240681146FEF73FBE002262
:106B000040681146FEF74ABE002340681A461946FF
:106B1000FEF74CBE002340681A461946FEF74EBEEB
:106B200040680021FEF772BE40680021FEF776BE85
:106B30004068002281F00101FEF748BE4068002253
:106B4000FEF754BE002240681146FEF757BE0022F1
:106B500040681146FEF742BE2DE9F04395B0144659
:106B60000D460746FFF7D4FD00211C220DA8009119
:106B700001F094F940230C9320466B460CAA0021A7
:106B8000FEF748FC044600284BD102460121686804
:106B9000FEF704FE0221804622466868FEF7FEFDED
:106BA000009E81462146002E3BD0002939D17368D2
:106BB000022B03D00A2B11D0F669F4E7B8F1000FCD
:106BC000FAD0716906A8043107ADFFF7CFFD0FCDEC
:106BD0003C1D0FC42B6823704146EDE7B9F1000F4F
:106BE000EAD07469102201A801F058F906238DF843
:106BF000143001AD04F108031834186859682A46A6
:106C000003C20833A3421546F7D101A906A807AD70
:106C1000FFF78CFD0FCD3C1D0FC42B682370494638
:106C2000CAE70098FEF7EEFB384615B0BDE8F083E2
:106C3000024B034A1A6000225A60704720E7032083
:106C4000B0830B00704710B514210446FDF727FAF6
:106C5000204610BD38B51546D0E9032393420446BB
:106C600007D2D21A8068AA4228BF2A46184401F0E7
:106C700007F922692A44226138BD0EB417B505AB65
:106C8000044653F8042BE1680193036980688B4242
:106C900038BFC91A184428BF0021019BFEF71EFE09
:106CA00023691844206103B0BDE8104003B0704769
:106CB00007B503688DF807109B6801220DF10701E5
:106CC000984703B05DF804FB10B57D210446FFF73B
:106CD000EFFF01232371204610BD08B50379012B76
:106CE00002D0022B04D008BD2C21FFF7E1FFFAE708
:106CF0003A21FAE710B50446FFF7EFFF20467B2163
:106D0000FFF7D6FF00232371204610BD13B50446BC
:106D10000191FFF7E2FF2368019ADB6803492046EF
:106D2000984701232046237102B010BDE4830B0075
:106D3000F8B5044657EC106BFFF7CFFF2368054901
:106D4000DD6820463B463246A84701232371204692
:106D5000F8BD00BFE7830B002DE9F0470D46222167
:106D600090460446FFF7A4FFDFF8A490A8442F46FE
:106D70004745BA463DD017F8016B222E06D05C2E4F
:106D800004D0304601F074F80028F1D12368AAEB52
:106D900005029B682946204698475C212046FFF75C
:106DA00087FF0D2E0AD8072E1CD9A6F10803052B44
:106DB00018D8DFE803F00D0F11171315222E01D09C
:106DC0005C2E0FD131462046FFF772FF3D46CFE7DC
:106DD0006221F8E77421F6E76E21F4E76621F2E715
:106DE0007221F0E723683246DB684946204698471F
:106DF000ECE7BD4205D023687A1B9B6829462046F4
:106E0000984722212046FFF753FFBDE8F08700BFD7
:106E1000EA830B0013B50446CDE90021FFF75DFFBF
:106E20002046DDE90021FFF797FF0223204623716A
:106E300002B010BD13B50446CDE90021FFF74DFFA8
:106E40002046DDE90021FFF787FF0123204623715B
:106E500002B010BD232813B502D9002002B010BD26
:106E6000A0F10B03022B1AD8174C2178BFF35B8FCC
:106E700011F001010BD120460191FDF712F90199A2
:106E800028B11248FEF7A6FD2046FDF70FF90F4B7B
:106E90001878FEF7C7FB0028DFD10120DEE70128C4
:106EA00009D800F0A9F80021007CFEF78BFB80F0E8
:106EB0000100C0B2D2E709380128EED800F060F82E
:106EC000007CFEF727FBF2E7A4E60320A8E60320F8
:106ED000232838B504460D460AD8FF2908D0FFF705
:106EE000B9FF28B129462046BDE83840FEF79ABAD6
:106EF00038BD38B504460D46FEF79CFAFF2810D081
:106F0000062804D84D2323FA00F0C30709D42046ED
:106F1000FFF7A0FF28B129462046BDE83840FEF71C
:106F200091BA38BD10B50446FEF784FA031FDBB2F0
:106F3000012B08D92046FFF78DFF20B12046BDE880
:106F40001040FEF787BA002010BD704738B50446E0
:106F500014252A46002100F0A1FF2580402507497D
:106F600025812846258200F06BF804496060284698
:106F700000F066F8E060204638BD00BF08840B00D2
:106F800030B50E4D2978BFF35B8F11F0010487B047
:106F900011D12846FDF785F868B101A8FFF7D6FFA3
:106FA00001AA21460648FFF7B3FC2846FDF77EF804
:106FB000044800F057FF024807B030BD28E703201F
:106FC0002CE703204B6F0B007047000038B52025DD
:106FD000142304460360856005610649284600F0D5
:106FE0002FF804496060284600F02AF8E060204647
:106FF00038BD00BF08840B0030B50E4D2978BFF3B3
:107000005B8F11F0010487B011D12846FDF749F8D4
:1070100068B101A8FFF7DAFF01AA21460648FFF789
:10702000CBFC2846FDF742F8044800F01BFF02485D
:1070300007B030BD44E7032048E70320C96F0B00C9
:10704000FDF72BB808B5FEF751FC000081F00041B8
:1070500002E000BF83F0004330B54FEA41044FEA3D
:10706000430594EA050F08BF90EA020F1FBF54EAD8
:10707000000C55EA020C7FEA645C7FEA655C00F074
:10708000E2804FEA5454D4EB5555B8BF6D420CDD45
:107090002C4480EA020281EA030382EA000083EAC8
:1070A000010180EA020281EA0303362D88BF30BD68
:1070B00011F0004F4FEA01314FF4801C4CEA1131BE
:1070C00002D0404261EB410113F0004F4FEA03331D
:1070D0004CEA133302D0524263EB430394EA050FA8
:1070E00000F0A780A4F10104D5F1200E0DDB02FA17
:1070F0000EFC22FA05F2801841F1000103FA0EF2AB
:10710000801843FA05F359410EE0A5F120050EF170
:10711000200E012A03FA0EFC28BF4CF0020C43FAA1
:1071200005F3C01851EBE37101F0004507D54FF0AE
:10713000000EDCF1000C7EEB00006EEB0101B1F5FE
:10714000801F1BD3B1F5001F0CD349085FEA300044
:107150004FEA3C0C04F101044FEA445212F5800F4F
:1071600080F09A80BCF1004F08BF5FEA500C50F1EC
:10717000000041EB045141EA050130BD5FEA4C0CCF
:10718000404141EB0101013C28BFB1F5801FE9D22C
:1071900091F0000F04BF01460020B1FA81F308BF4F
:1071A0002033A3F10B03B3F120020CDA0C3208DD1B
:1071B00002F1140CC2F10C0201FA0CF021FA02F1F6
:1071C0000CE002F11402D8BFC2F1200C01FA02F166
:1071D00020FA0CFCDCBF41EA0C019040E41AA2BF8B
:1071E00001EB0451294330BD6FEA04041F3C1CDA53
:1071F0000C340EDC04F11404C4F1200220FA04F073
:1072000001FA02F340EA030021FA04F345EA03011C
:1072100030BDC4F10C04C4F1200220FA02F001FADE
:1072200004F340EA0300294630BD21FA04F0294660
:1072300030BD94F0000F83F4801306BF81F48011F9
:107240000134013D4EE77FEA645C18BF7FEA655C6C
:1072500029D094EA050F08BF90EA020F05D054EA3E
:10726000000C04BF1946104630BD91EA030F1EBF43
:107270000021002030BD5FEA545C05D14000494147
:1072800028BF41F0004130BD14F580043CBF01F53A
:10729000801130BD01F0004545F0FE4141F4700120
:1072A0004FF0000030BD7FEA645C1ABF19461046FB
:1072B0007FEA655C1CBF0B46024650EA013406BFFC
:1072C00052EA033591EA030F41F4002130BD00BFBB
:1072D00090F0000F04BF0021704730B54FF4806478
:1072E00004F132044FF000054FF0000150E700BFF9
:1072F00090F0000F04BF0021704730B54FF4806458
:1073000004F1320410F0004548BF40424FF0000144
:107310003EE700BF42004FEAE2014FEA31014FEA87
:1073200002701FBF12F07F4393F07F4F81F06051D6
:10733000704732F07F4208BF704793F07F4F04BF21
:1073400041F40021704730B54FF4607401F00045FE
:1073500021F000411CE700BF50EA010208BF70475E
:1073600030B54FF000050AE050EA010208BF70474F
:1073700030B511F0004502D5404261EB41014FF4B8
:10738000806404F132045FEA915C3FF4D8AE4FF0C0
:1073900003025FEADC0C18BF03325FEADC0C18BFA3
:1073A000033202EBDC02C2F1200300FA03FC20FAF4
:1073B00002F001FA03FE40EA0E0021FA02F1144441
:1073C000BDE600BF70B54FF0FF0C4CF4E06C1CEA5A
:1073D00011541DBF1CEA135594EA0C0F95EA0C0FCB
:1073E00000F0DEF82C4481EA030621EA4C5123EA3E
:1073F0004C5350EA013518BF52EA033541F480116D
:1074000043F4801338D0A0FB02CE4FF00005E1FB1F
:1074100002E506F00042E0FB03E54FF00006E1FB69
:1074200003569CF0000F18BF4EF0010EA4F1FF04AC
:10743000B6F5007F64F5407404D25FEA4E0E6D41EC
:1074400046EB060642EAC62141EA55514FEAC520FD
:1074500040EA5E504FEACE2EB4F1FD0C88BFBCF579
:10746000E06F1ED8BEF1004F08BF5FEA500E50F12A
:10747000000041EB045170BD06F0004646EA0101F0
:1074800040EA020081EA0301B4EB5C04C2BFD4EB22
:107490000C0541EA045170BD41F480114FF0000E1B
:1074A000013C00F3AB8014F1360FDEBF002001F089
:1074B000004170BDC4F10004203C35DA0C341BDC03
:1074C00004F11404C4F1200500FA05F320FA04F0D5
:1074D00001FA05F240EA020001F0004221F0004109
:1074E00010EBD37021FA04F642EB06015EEA430E7C
:1074F00008BF20EAD37070BDC4F10C04C4F12005AC
:1075000000FA04F320FA05F001FA04F240EA02005E
:1075100001F0004110EBD37041F100015EEA430E2F
:1075200008BF20EAD37070BDC4F1200500FA05F24F
:107530004EEA020E20FA04F301FA05F243EA0203CE
:1075400021FA04F001F0004121FA04F220EA0200DD
:1075500000EBD3705EEA430E08BF20EAD37070BD23
:1075600094F0000F0FD101F00046400041EB010103
:1075700011F4801F08BF013CF7D041EA060195F0E5
:10758000000F18BF704703F00046520043EB03039F
:1075900013F4801F08BF013DF7D043EA060370478C
:1075A00094EA0C0F0CEA135518BF95EA0C0F0CD097
:1075B00050EA410618BF52EA4306D1D181EA0301DD
:1075C00001F000414FF0000070BD50EA410606BFD7
:1075D0001046194652EA430619D094EA0C0F02D11C
:1075E00050EA013613D195EA0C0F05D152EA033661
:1075F0001CBF104619460AD181EA030101F000417F
:1076000041F0FE4141F470014FF0000070BD41F0C7
:10761000FE4141F4780170BD70B54FF0FF0C4CF4A1
:10762000E06C1CEA11541DBF1CEA135594EA0C0FC0
:1076300095EA0C0F00F0A7F8A4EB050481EA030E0D
:1076400052EA03354FEA013100F088804FEA0333F4
:107650004FF0805545EA131343EA12634FEA0222C2
:1076600045EA111545EA10654FEA00260EF0004183
:107670009D4208BF964244F1FD0404F5407402D2D5
:107680005B084FEA3202B61A65EB03055B084FEA66
:1076900032024FF480104FF4002CB6EB020E75EB63
:1076A000030E22BFB61A754640EA0C005B084FEA8B
:1076B0003202B6EB020E75EB030E22BFB61A754608
:1076C00040EA5C005B084FEA3202B6EB020E75EB53
:1076D000030E22BFB61A754640EA9C005B084FEACB
:1076E0003202B6EB020E75EB030E22BFB61A7546D8
:1076F00040EADC0055EA060E18D04FEA051545EAC7
:1077000016754FEA06164FEAC30343EA52734FEA6F
:10771000C2025FEA1C1CC0D111F4801F0BD141EAE8
:1077200000014FF000004FF0004CB6E711F4801F4D
:1077300004BF01430020B4F1FD0C88BFBCF5E06F2D
:107740003FF6AFAEB5EB030C04BFB6EB020C5FEA3D
:10775000500C50F1000041EB045170BD0EF0004E92
:107760004EEA113114EB5C04C2BFD4EB0C0541EAC4
:10777000045170BD41F480114FF0000E013C90E6C1
:1077800045EA060E8DE60CEA135594EA0C0F08BF85
:1077900095EA0C0F3FF43BAF94EA0C0F0AD150EA84
:1077A00001347FF434AF95EA0C0F7FF425AF104617
:1077B00019462CE795EA0C0F06D152EA03353FF43F
:1077C000FDAE1046194622E750EA410618BF52EABC
:1077D00043067FF4C5AE50EA41047FF40DAF52EA90
:1077E00043057FF4EBAE12E74FEA4102B2F1E0430A
:1077F00024BFB3F5001CDCF1FE5C0DD901F0004C98
:107800004FEAC0024CEA5070B2F1004F40EB8300E7
:1078100008BF20F00100704711F0804F21D113F113
:107820003872BCBF01F00040704741F480114FEA4C
:107830005252C2F11802C2F1200C10FA0CF320FAD5
:1078400002F018BF40F001004FEAC1234FEAD323F2
:1078500003FA0CFC40EA0C0023FA02F34FEA43035C
:10786000CCE77FEA625307D150EA01331EBF4FF0E5
:10787000FE4040F44000704701F0004040F0FE4000
:1078800040F40000704700BF80F0004002E000BFFD
:1078900081F0004142001FBF5FEA410392EA030FFB
:1078A0007FEA226C7FEA236C6AD04FEA1262D2EB45
:1078B0001363C1BFD218414048404140B8BF5B424A
:1078C000192B88BF704710F0004F40F4000020F0E3
:1078D0007F4018BF404211F0004F41F4000121F0F9
:1078E0007F4118BF494292EA030F3FD0A2F1010243
:1078F00041FA03FC10EB0C00C3F1200301FA03F181
:1079000000F0004302D5494260EB4000B0F5000FA3
:1079100013D3B0F1807F06D340084FEA310102F162
:107920000102FE2A51D2B1F1004F40EBC25008BF14
:1079300020F0010040EA03007047490040EB0000DE
:10794000013A28BFB0F5000FEDD2B0FA80FCACF1DF
:10795000080CB2EB0C0200FA0CF0AABF00EBC2500C
:1079600052421843BCBFD0401843704792F0000FFA
:1079700081F4000106BF80F400000132013BB5E74D
:107980004FEA41037FEA226C18BF7FEA236C21D0C3
:1079900092EA030F04D092F0000F08BF0846704728
:1079A00090EA010F1CBF0020704712F07F4F04D1F6
:1079B000400028BF40F00040704712F100723CBF09
:1079C00000F50000704700F0004343F0FE4040F433
:1079D000000070477FEA226216BF08467FEA2363F1
:1079E0000146420206BF5FEA412390EA010F40F4DC
:1079F000800070474FF0000304E000BF10F0004328
:107A000048BF40425FEA000C08BF704743F096430E
:107A100001464FF000001CE050EA010208BF704729
:107A20004FF000030AE000BF50EA010208BF7047B0
:107A300011F0004302D5404261EB41015FEA010CC5
:107A400002BF84460146002043F0B64308BFA3F1BD
:107A50008053A3F50003BCFA8CF2083AA3EBC2539F
:107A600010DB01FA02FC634400FA02FCC2F12002BE
:107A7000BCF1004F20FA02F243EB020008BF20F0F5
:107A80000100704702F1200201FA02FCC2F120025B
:107A900050EA4C0021FA02F243EB020008BF20EA50
:107AA000DC7070477BB972B90029BEBF00204FF06F
:107AB000004106E008BF00281CBF6FF000414FF0F6
:107AC000FF3000F0A7B9ADF1080C6DE904CE002934
:107AD00009DB002B1ADB00F035F8DDF804E0DDE906
:107AE000022304B07047404261EB4101002B1BDBD5
:107AF00000F028F8DDF804E0DDE9022304B040429C
:107B000061EB4101524263EB43037047524263EB26
:107B1000430300F017F8DDF804E0DDE9022304B0C8
:107B2000404261EB41017047524263EB430300F076
:107B300009F8DDF804E0DDE9022304B0524263EB0A
:107B4000430370472DE9F047089D04468E46002BFD
:107B50004DD18A42944669D9B2FA82F252B101FA01
:107B600002F3C2F1200120FA01F10CFA02FC41EA11
:107B7000030E94404FEA1C48210CBEFBF8F61FFA96
:107B80008CF708FB16E341EA034306FB07F1994231
:107B90000AD91CEB030306F1FF3080F01F819942E4
:107BA00040F21C81023E63445B1AA4B2B3FBF8F0BE
:107BB00008FB103344EA034400FB07F7A7420AD945
:107BC0001CEB040400F1FF3380F00A81A74240F26D
:107BD00007816444023840EA0640E41B00261DB1D8
:107BE000D4400023C5E900433146BDE8F0878B420D
:107BF00009D9002D00F0EF800026C5E900013046CC
:107C00003146BDE8F087B3FA83F6002E4AD18B42A5
:107C100002D3824200F2F980841A61EB030301204F
:107C20009E46002DE0D0C5E9004EDDE702B9FFDE3B
:107C3000B2FA82F2002A40F09280A1EB0C014FEAE6
:107C40001C471FFA8CFE0126200CB1FBF7F307FB43
:107C5000131140EA01410EFB03F0884208D91CEBE6
:107C6000010103F1FF3802D2884200F2CB80434683
:107C7000091AA4B2B1FBF7F007FB101144EA014462
:107C80000EFB00FEA64508D91CEB040400F1FF31F1
:107C900002D2A64500F2BB800846A4EB0E0440EADF
:107CA00003409CE7C6F12007B34022FA07FC4CEAE8
:107CB000030C20FA07F401FA06F31C43F9404FEADB
:107CC0001C4900FA06F3B1FBF9F8200C1FFA8CFEF0
:107CD00009FB181140EA014108FB0EF0884202FA44
:107CE00006F20BD91CEB010108F1FF3A80F0888005
:107CF000884240F28580A8F102086144091AA4B2C2
:107D0000B1FBF9F009FB101144EA014100FB0EFE42
:107D10008E4508D91CEB010100F1FF346CD28E4571
:107D20006AD90238614440EA0840A0FB0294A1EB02
:107D30000E01A142C846A64656D353D05DB1B3EB5F
:107D4000080261EB0E0101FA07F722FA06F3F1408F
:107D50001F43C5E9007100263146BDE8F087C2F136
:107D60002003D8400CFA02FC21FA03F391400143AE
:107D70004FEA1C471FFA8CFEB3FBF7F007FB1036E7
:107D80000B0C43EA064300FB0EF69E4204FA02F493
:107D900008D91CEB030300F1FF382FD29E422DD9E6
:107DA000023863449B1B89B2B3FBF7F607FB16331B
:107DB00041EA034106FB0EF38B4208D91CEB01019B
:107DC00006F1FF3816D28B4214D9023E6144C91A1B
:107DD00046EA004638E72E46284605E70646E3E62B
:107DE0001846F8E64B45A9D2B9EB020864EB0C0E35
:107DF0000138A3E74646EAE7204694E74046D1E744
:107E0000D0467BE7023B614432E7304609E76444F1
:107E1000023842E7704700BF10B50C46416903695C
:107E2000826986B001F26C71049101680391416826
:107E3000029181680191C1680091074903EB4303F6
:107E40000B44064902EB42020A4420460449FDF76E
:107E500035FD204606B010BD3E840B0029840B0082
:107E600009840B00002301461A46184600F096B814
:107E7000024B1844407800F097007047F6840B00DE
:107E80000A44914200F1FF3300D1704710B511F858
:107E9000014B03F8014F9142F9D110BD0244034652
:107EA000934200D1704703F8011BF9E738B5104B36
:107EB0001D68AB6B0446B3B91820FDF7E7FC02461A
:107EC000A86320B90B4B0C484221FDF71FFD0B495D
:107ED0000B4BC0E900130B4B83600B238381002104
:107EE0000120C2E90401AB6B00221C615A6138BD5C
:107EF000A8E5032062840B0079840B000E33CDAB20
:107F000034126DE6ECDE050010F8012B11F8013B90
:107F1000012A28BF9A42F7D0D01A7047034611F8B9
:107F2000012B03F8012B002AF9D17047024B0146BF
:107F3000186800F003B800BFA8E5032037B5044671
:107F400008460D4600F00FF8421C114620460192EB
:107F5000FDF7D4FC044618B1019A2946FFF790FFBB
:107F6000204603B030BD034613F8012B002AFBD195
:107F7000181A0138704710B50139034632B111F8AB
:107F8000014F03F8014B013A002CF7D11A440021AC
:107F9000934200D110BD03F8011BF9E72DE9F84326
:107FA000DFF8B8800646D8F800001F460D46914617
:107FB00000F056F8254B1C6834B9254C1C60254B45
:107FC00013B11B68C4F8883063681F2B07DDD8F82D
:107FD000000000F047F84FF0FF30BDE8F8834EB3E3
:107FE000D4F8880088B91C4B23B9D8F8000000F0F9
:107FF00038F8F0E74FF48470FDF748FC0028F4D01F
:108000000023C0E94033C4F88800636840F8239037
:1080100001229A4000EB8301D0F800311343C0F8ED
:108020000031022EC1F8807002BFD0F80431134332
:10803000C0F804316368D8F800005A1C023362604B
:1080400044F8235000F00EF80020C6E7E8E70320CC
:108050005CE70320000000008D580B000CE60320B5
:10806000704770477047000021400B005D400B00D7
:1080700085400B0089400B000000000044617465DE
:1080800054696D6500424831373530004C69676886
:10809000742D6C757800534344333000434F322DB8
:1080A00070706D0054656D702D430052482D250091
:1080B000504D534130303349005374645F504D315B
:1080C0002E30005374645F504D322E35005374646B
:1080D0005F504D313000456E765F504D312E30008F
:1080E000456E765F504D322E3500456E765F504DB1
:1080F0003130007177696963004144432D76616CCA
:108100000064420056454D4C363037300055562DF0
:108110006C766C00424D4532383000502D6D6261F6
:10812000720073656E736F725F646174610043689F
:1081300065636B20636F6E6E656374696F6E732E1B
:10814000204E6F20736C6176652061747461636882
:1081500065642E00547279696E6720746F20636FB6
:108160006E6E65637420424831373530204C757827
:108170002053656E736F7200547279696E67207454
:108180006F20636F6E6E65637420424D45323830E8
:10819000205054482053656E736F72005472796991
:1081A0006E6720746F20636F6E6E65637420534337
:1081B00044333020434F322053656E736F72005A40
:1081C000696F205177696963204C6F75646E6573C0
:1081D000732053656E736F72204D617374657220E6
:1081E0004177616B650064656661756C7420004D54
:1081F0005342004C5342003C5350495365747469D8
:108200006E67732064656661756C743E003C535004
:108210004953657474696E6773202573257520252D
:1082200073204D4F444525753E00000000000000BE
:108230000000000029470B00FB460B00FD460B0029
:108240000000000000000000AB590B00A1590B001A
:1082500097590B008D590B0081590B0075590B0074
:10826000216B0B00296B0B0069590B0061590B0046
:1082700057590B004D590B00596B0B000008101893
:1082800020283038617070005A00252B3033643A52
:10829000253032750025592D256D2D25645425482E
:1082A0003A254D3A2553257A0061736374696D65EB
:1082B0000000000000000000000000006D610B00E5
:1082C00073610B00B1610B0081610B006F610B00EA
:1082D0000000000000000000AD660B009D660B0072
:1082E0009F660B00000000000000000093670B0079
:1082F000FB670B00D1670B008D5C0B00C3670B00A5
:1083000095670B00A5670B00F5670B00B5670B00C1
:108310008D670B00000000000000000095680B0056
:1083200001690B00D9680B008D5C0B00A9680B007C
:10833000C5680B00B7680B00D3680B0097680B008B
:108340009B680B00000000000000000061690B004A
:10835000AB690B0083690B0063690B008B690B0031
:1083600093690B009B690B00A3690B0000000000E0
:1083700000000000C36A0B00B96A0B00AF6A0B0073
:10838000656A0B00A36A0B00976A0B00216B0B0058
:10839000296B0B008B6A0B00836A0B00796A0B0058
:1083A0006F6A0B00596B0B0000000000000000001A
:1083B000E16A0B00EB6A0B00F56A0B00FF6A0B0029
:1083C000096B0B00156B0B00216B0B00296B0B006D
:1083D000316B0B003D6B0B00456B0B004F6B0B00C3
:1083E000596B0B0025640025670075253034780033
:1083F0000000000000000000456C0B00476C0B0003
:10840000556C0B007B6C0B0000252E337320252E42
:10841000337325336420252E32643A252E32643A94
:10842000252E32642025640A0053756E4D6F6E54FC
:1084300075655765645468754672695361744A611D
:108440006E4665624D61724170724D61794A756E1A
:108450004A756C4175675365704F63744E6F76440F
:1084600065635245454E54206D616C6C6F6320739B
:108470007563636565646564002F6D6E742F776F37
:10848000726B73706163652F776F726B737061636A
:10849000652F4743432D31302D706970656C696ECF
:1084A000652F6A656E6B696E732D4743432D3130BE
:1084B0002D706970656C696E652D34385F323032AD
:1084C00030313132345F3136303631383036343154
:1084D0002F7372632F6E65776C69622F6E65776C90
:1084E00069622F6C6962632F7374646C69622F72A6
:1084F000616E642E63000020202020202020202098
:108500002828282828202020202020202020202043
:108510002020202020202088101010101010101073
:1085200010101010101010040404040404040404B7
:10853000041010101010101041414141414101013F
:10854000010101010101010101010101010101011B
:108550000101101010101010424242424242020229
:1085600002020202020202020202020202020202EB
:108570000202101010102000000000000000000097
:1085800000000000000000000000000000000000EB
:1085900000000000000000000000000000000000DB
:1085A00000000000000000000000000000000000CB
:1085B00000000000000000000000000000000000BB
:1085C00000000000000000000000000000000000AB
:1085D000000000000000000000000000000000009B
:1085E000000000000000000000000000000000008B
:1085F000000000000000000031460B00B5590B00E0
:108600002D5B0B007D5C0B00B55D0B000D600B005E
:1086100029600B00CD6A0B00316C0B0000000000DC
:10862000040000001400000003000000474E550045
:10863000C09D8C95E5E08E15F16B0E138AD12784D1
:04864000717A914179
:0886440000F5FF7F01000000BA
:04864C00000000002A
:10865000A9820B0095820B00ACE50320000000000E
:10866000000000000000000000000000000000000A
:1086700000000000000000000000000000000000FA
:1086800000000000000000000000000000000000EA
:1086900000000000000000000000000000000000DA
:1086A00000000000000000000000000000000000CA
:1086B000000000000000000000000000ECE70320C4
:1086C000FFFFFFFF00000102030405060708090A77
:1086D0000B0C0D0E0F101112131415161718191A72
:0886E0001B1C1D1E1F202800B9
:0486E800785634127A
:04000003B0004020E9
:00000001FF
